{
	"SafeArbTraderETH.sol": {
		"SafeArbTraderETH": {
			"abi": [
				{
					"inputs": [],
					"stateMutability": "nonpayable",
					"type": "constructor"
				},
				{
					"inputs": [
						{
							"internalType": "address",
							"name": "owner",
							"type": "address"
						}
					],
					"name": "OwnableInvalidOwner",
					"type": "error"
				},
				{
					"inputs": [
						{
							"internalType": "address",
							"name": "account",
							"type": "address"
						}
					],
					"name": "OwnableUnauthorizedAccount",
					"type": "error"
				},
				{
					"anonymous": false,
					"inputs": [
						{
							"indexed": true,
							"internalType": "address",
							"name": "token",
							"type": "address"
						},
						{
							"indexed": false,
							"internalType": "uint256",
							"name": "ethIn",
							"type": "uint256"
						},
						{
							"indexed": false,
							"internalType": "uint256",
							"name": "ethOut",
							"type": "uint256"
						},
						{
							"indexed": false,
							"internalType": "uint256",
							"name": "profit",
							"type": "uint256"
						}
					],
					"name": "ArbExecuted",
					"type": "event"
				},
				{
					"anonymous": false,
					"inputs": [
						{
							"indexed": false,
							"internalType": "bool",
							"name": "enabled",
							"type": "bool"
						}
					],
					"name": "AutoTradeEnabled",
					"type": "event"
				},
				{
					"anonymous": false,
					"inputs": [
						{
							"indexed": true,
							"internalType": "address",
							"name": "previousOwner",
							"type": "address"
						},
						{
							"indexed": true,
							"internalType": "address",
							"name": "newOwner",
							"type": "address"
						}
					],
					"name": "OwnershipTransferred",
					"type": "event"
				},
				{
					"anonymous": false,
					"inputs": [
						{
							"indexed": false,
							"internalType": "address",
							"name": "account",
							"type": "address"
						}
					],
					"name": "Paused",
					"type": "event"
				},
				{
					"anonymous": false,
					"inputs": [
						{
							"indexed": false,
							"internalType": "address",
							"name": "router",
							"type": "address"
						},
						{
							"indexed": false,
							"internalType": "bool",
							"name": "approved",
							"type": "bool"
						}
					],
					"name": "RouterUpdated",
					"type": "event"
				},
				{
					"anonymous": false,
					"inputs": [
						{
							"indexed": false,
							"internalType": "address",
							"name": "token",
							"type": "address"
						},
						{
							"indexed": false,
							"internalType": "bool",
							"name": "approved",
							"type": "bool"
						}
					],
					"name": "TokenUpdated",
					"type": "event"
				},
				{
					"anonymous": false,
					"inputs": [
						{
							"indexed": false,
							"internalType": "address",
							"name": "account",
							"type": "address"
						}
					],
					"name": "Unpaused",
					"type": "event"
				},
				{
					"inputs": [],
					"name": "MIN_EXECUTION_DELAY",
					"outputs": [
						{
							"internalType": "uint256",
							"name": "",
							"type": "uint256"
						}
					],
					"stateMutability": "view",
					"type": "function"
				},
				{
					"inputs": [
						{
							"internalType": "address",
							"name": "",
							"type": "address"
						}
					],
					"name": "approvedRouters",
					"outputs": [
						{
							"internalType": "bool",
							"name": "",
							"type": "bool"
						}
					],
					"stateMutability": "view",
					"type": "function"
				},
				{
					"inputs": [
						{
							"internalType": "address",
							"name": "",
							"type": "address"
						}
					],
					"name": "approvedTokens",
					"outputs": [
						{
							"internalType": "bool",
							"name": "",
							"type": "bool"
						}
					],
					"stateMutability": "view",
					"type": "function"
				},
				{
					"inputs": [],
					"name": "autoTradeEnabled",
					"outputs": [
						{
							"internalType": "bool",
							"name": "",
							"type": "bool"
						}
					],
					"stateMutability": "view",
					"type": "function"
				},
				{
					"inputs": [
						{
							"internalType": "address",
							"name": "router1",
							"type": "address"
						},
						{
							"internalType": "address",
							"name": "router2",
							"type": "address"
						},
						{
							"internalType": "address",
							"name": "token",
							"type": "address"
						}
					],
					"name": "checkAndExecuteArbitrage",
					"outputs": [],
					"stateMutability": "payable",
					"type": "function"
				},
				{
					"inputs": [
						{
							"internalType": "address",
							"name": "router1",
							"type": "address"
						},
						{
							"internalType": "address",
							"name": "router2",
							"type": "address"
						},
						{
							"internalType": "address",
							"name": "token",
							"type": "address"
						},
						{
							"internalType": "uint256",
							"name": "ethAmount",
							"type": "uint256"
						}
					],
					"name": "checkETHArbitrageProfitability",
					"outputs": [
						{
							"internalType": "bool",
							"name": "profitable",
							"type": "bool"
						},
						{
							"internalType": "uint256",
							"name": "potentialProfit",
							"type": "uint256"
						}
					],
					"stateMutability": "view",
					"type": "function"
				},
				{
					"inputs": [],
					"name": "lastExecutionTime",
					"outputs": [
						{
							"internalType": "uint256",
							"name": "",
							"type": "uint256"
						}
					],
					"stateMutability": "view",
					"type": "function"
				},
				{
					"inputs": [],
					"name": "minETHBalance",
					"outputs": [
						{
							"internalType": "uint256",
							"name": "",
							"type": "uint256"
						}
					],
					"stateMutability": "view",
					"type": "function"
				},
				{
					"inputs": [],
					"name": "minProfitMargin",
					"outputs": [
						{
							"internalType": "uint256",
							"name": "",
							"type": "uint256"
						}
					],
					"stateMutability": "view",
					"type": "function"
				},
				{
					"inputs": [],
					"name": "owner",
					"outputs": [
						{
							"internalType": "address",
							"name": "",
							"type": "address"
						}
					],
					"stateMutability": "view",
					"type": "function"
				},
				{
					"inputs": [],
					"name": "pause",
					"outputs": [],
					"stateMutability": "nonpayable",
					"type": "function"
				},
				{
					"inputs": [],
					"name": "paused",
					"outputs": [
						{
							"internalType": "bool",
							"name": "",
							"type": "bool"
						}
					],
					"stateMutability": "view",
					"type": "function"
				},
				{
					"inputs": [],
					"name": "recoverETH",
					"outputs": [],
					"stateMutability": "nonpayable",
					"type": "function"
				},
				{
					"inputs": [
						{
							"internalType": "address",
							"name": "token",
							"type": "address"
						}
					],
					"name": "recoverToken",
					"outputs": [],
					"stateMutability": "nonpayable",
					"type": "function"
				},
				{
					"inputs": [],
					"name": "renounceOwnership",
					"outputs": [],
					"stateMutability": "nonpayable",
					"type": "function"
				},
				{
					"inputs": [
						{
							"internalType": "bool",
							"name": "_enabled",
							"type": "bool"
						}
					],
					"name": "setAutoTradeEnabled",
					"outputs": [],
					"stateMutability": "nonpayable",
					"type": "function"
				},
				{
					"inputs": [
						{
							"internalType": "uint256",
							"name": "_minBalance",
							"type": "uint256"
						}
					],
					"name": "setMinETHBalance",
					"outputs": [],
					"stateMutability": "nonpayable",
					"type": "function"
				},
				{
					"inputs": [
						{
							"internalType": "uint256",
							"name": "_margin",
							"type": "uint256"
						}
					],
					"name": "setMinProfitMargin",
					"outputs": [],
					"stateMutability": "nonpayable",
					"type": "function"
				},
				{
					"inputs": [
						{
							"internalType": "address",
							"name": "_router",
							"type": "address"
						},
						{
							"internalType": "bool",
							"name": "_approved",
							"type": "bool"
						}
					],
					"name": "setRouterApproval",
					"outputs": [],
					"stateMutability": "nonpayable",
					"type": "function"
				},
				{
					"inputs": [
						{
							"internalType": "address",
							"name": "_token",
							"type": "address"
						},
						{
							"internalType": "bool",
							"name": "_approved",
							"type": "bool"
						}
					],
					"name": "setTokenApproval",
					"outputs": [],
					"stateMutability": "nonpayable",
					"type": "function"
				},
				{
					"inputs": [
						{
							"internalType": "address",
							"name": "newOwner",
							"type": "address"
						}
					],
					"name": "transferOwnership",
					"outputs": [],
					"stateMutability": "nonpayable",
					"type": "function"
				},
				{
					"inputs": [],
					"name": "unpause",
					"outputs": [],
					"stateMutability": "nonpayable",
					"type": "function"
				},
				{
					"stateMutability": "payable",
					"type": "receive"
				}
			],
			"devdoc": {
				"errors": {
					"OwnableInvalidOwner(address)": [
						{
							"details": "The owner is not a valid owner account. (eg. `address(0)`)"
						}
					],
					"OwnableUnauthorizedAccount(address)": [
						{
							"details": "The caller account is not authorized to perform an operation."
						}
					]
				},
				"events": {
					"Paused(address)": {
						"details": "Emitted when the pause is triggered by `account`."
					},
					"Unpaused(address)": {
						"details": "Emitted when the pause is lifted by `account`."
					}
				},
				"kind": "dev",
				"methods": {
					"owner()": {
						"details": "Returns the address of the current owner."
					},
					"paused()": {
						"details": "Returns true if the contract is paused, and false otherwise."
					},
					"renounceOwnership()": {
						"details": "Leaves the contract without owner. It will not be possible to call `onlyOwner` functions. Can only be called by the current owner. NOTE: Renouncing ownership will leave the contract without an owner, thereby disabling any functionality that is only available to the owner."
					},
					"transferOwnership(address)": {
						"details": "Transfers ownership of the contract to a new account (`newOwner`). Can only be called by the current owner."
					}
				},
				"version": 1
			},
			"evm": {
				"assembly": "    /* \"SafeArbTraderETH.sol\":1137:8459  contract SafeArbTraderETH is Ownable, ReentrancyGuard, Pausable {... */\n  mstore(0x40, 0x80)\n    /* \"SafeArbTraderETH.sol\":1265:1266  1 */\n  0x01\n    /* \"SafeArbTraderETH.sol\":1232:1266  uint256 public minProfitMargin = 1 */\n  0x03\n  sstore\n    /* \"SafeArbTraderETH.sol\":1334:1343  0.1 ether */\n  0x016345785d8a0000\n    /* \"SafeArbTraderETH.sol\":1303:1343  uint256 public minETHBalance = 0.1 ether */\n  0x04\n  sstore\n    /* \"SafeArbTraderETH.sol\":1945:2233  constructor() Ownable(msg.sender) {... */\n  callvalue\n  dup1\n  iszero\n  tag_1\n  jumpi\n  0x00\n  dup1\n  revert\ntag_1:\n  pop\n    /* \"SafeArbTraderETH.sol\":1967:1977  msg.sender */\n  caller\n    /* \"@openzeppelin/contracts/access/Ownable.sol\":1297:1298  0 */\n  0x00\n    /* \"@openzeppelin/contracts/access/Ownable.sol\":1273:1299  initialOwner == address(0) */\n  0xffffffffffffffffffffffffffffffffffffffff\n  and\n    /* \"@openzeppelin/contracts/access/Ownable.sol\":1273:1285  initialOwner */\n  dup2\n    /* \"@openzeppelin/contracts/access/Ownable.sol\":1273:1299  initialOwner == address(0) */\n  0xffffffffffffffffffffffffffffffffffffffff\n  and\n  sub\n    /* \"@openzeppelin/contracts/access/Ownable.sol\":1269:1364  if (initialOwner == address(0)) {... */\n  tag_7\n  jumpi\n    /* \"@openzeppelin/contracts/access/Ownable.sol\":1350:1351  0 */\n  0x00\n    /* \"@openzeppelin/contracts/access/Ownable.sol\":1322:1353  OwnableInvalidOwner(address(0)) */\n  mload(0x40)\n  0x1e4fbdf700000000000000000000000000000000000000000000000000000000\n  dup2\n  mstore\n  0x04\n  add\n  tag_8\n  swap2\n  swap1\n  tag_9\n  jump\t// in\ntag_8:\n  mload(0x40)\n  dup1\n  swap2\n  sub\n  swap1\n  revert\n    /* \"@openzeppelin/contracts/access/Ownable.sol\":1269:1364  if (initialOwner == address(0)) {... */\ntag_7:\n    /* \"@openzeppelin/contracts/access/Ownable.sol\":1373:1405  _transferOwnership(initialOwner) */\n  tag_10\n    /* \"@openzeppelin/contracts/access/Ownable.sol\":1392:1404  initialOwner */\n  dup2\n    /* \"@openzeppelin/contracts/access/Ownable.sol\":1373:1391  _transferOwnership */\n  shl(0x20, tag_11)\n    /* \"@openzeppelin/contracts/access/Ownable.sol\":1373:1405  _transferOwnership(initialOwner) */\n  0x20\n  shr\n  jump\t// in\ntag_10:\n    /* \"@openzeppelin/contracts/access/Ownable.sol\":1225:1412  constructor(address initialOwner) {... */\n  pop\n    /* \"@openzeppelin/contracts/security/ReentrancyGuard.sol\":1716:1717  1 */\n  0x01\n    /* \"@openzeppelin/contracts/security/ReentrancyGuard.sol\":1821:1828  _status */\n  dup1\n    /* \"@openzeppelin/contracts/security/ReentrancyGuard.sol\":1821:1843  _status = _NOT_ENTERED */\n  dup2\n  swap1\n  sstore\n  pop\n    /* \"@openzeppelin/contracts/security/Pausable.sol\":1006:1011  false */\n  0x00\n    /* \"@openzeppelin/contracts/security/Pausable.sol\":996:1003  _paused */\n  0x02\n  0x00\n    /* \"@openzeppelin/contracts/security/Pausable.sol\":996:1011  _paused = false */\n  0x0100\n  exp\n  dup2\n  sload\n  dup2\n  0xff\n  mul\n  not\n  and\n  swap1\n  dup4\n  iszero\n  iszero\n  mul\n  or\n  swap1\n  sstore\n  pop\n    /* \"SafeArbTraderETH.sol\":2108:2112  true */\n  0x01\n    /* \"SafeArbTraderETH.sol\":2037:2052  approvedRouters */\n  0x05\n    /* \"SafeArbTraderETH.sol\":2037:2105  approvedRouters[address(0x7a250d5630B4cF539739dF2C5dAcb4c659F2488D)] */\n  0x00\n    /* \"SafeArbTraderETH.sol\":2061:2103  0x7a250d5630B4cF539739dF2C5dAcb4c659F2488D */\n  0x7a250d5630b4cf539739df2c5dacb4c659f2488d\n    /* \"SafeArbTraderETH.sol\":2037:2105  approvedRouters[address(0x7a250d5630B4cF539739dF2C5dAcb4c659F2488D)] */\n  0xffffffffffffffffffffffffffffffffffffffff\n  and\n  0xffffffffffffffffffffffffffffffffffffffff\n  and\n  dup2\n  mstore\n  0x20\n  add\n  swap1\n  dup2\n  mstore\n  0x20\n  add\n  0x00\n  keccak256\n  0x00\n    /* \"SafeArbTraderETH.sol\":2037:2112  approvedRouters[address(0x7a250d5630B4cF539739dF2C5dAcb4c659F2488D)] = true */\n  0x0100\n  exp\n  dup2\n  sload\n  dup2\n  0xff\n  mul\n  not\n  and\n  swap1\n  dup4\n  iszero\n  iszero\n  mul\n  or\n  swap1\n  sstore\n  pop\n    /* \"SafeArbTraderETH.sol\":2208:2212  true */\n  0x01\n    /* \"SafeArbTraderETH.sol\":2137:2152  approvedRouters */\n  0x05\n    /* \"SafeArbTraderETH.sol\":2137:2205  approvedRouters[address(0xd9e1cE17f2641f24aE83637ab66a2cca9C378B9F)] */\n  0x00\n    /* \"SafeArbTraderETH.sol\":2161:2203  0xd9e1cE17f2641f24aE83637ab66a2cca9C378B9F */\n  0xd9e1ce17f2641f24ae83637ab66a2cca9c378b9f\n    /* \"SafeArbTraderETH.sol\":2137:2205  approvedRouters[address(0xd9e1cE17f2641f24aE83637ab66a2cca9C378B9F)] */\n  0xffffffffffffffffffffffffffffffffffffffff\n  and\n  0xffffffffffffffffffffffffffffffffffffffff\n  and\n  dup2\n  mstore\n  0x20\n  add\n  swap1\n  dup2\n  mstore\n  0x20\n  add\n  0x00\n  keccak256\n  0x00\n    /* \"SafeArbTraderETH.sol\":2137:2212  approvedRouters[address(0xd9e1cE17f2641f24aE83637ab66a2cca9C378B9F)] = true */\n  0x0100\n  exp\n  dup2\n  sload\n  dup2\n  0xff\n  mul\n  not\n  and\n  swap1\n  dup4\n  iszero\n  iszero\n  mul\n  or\n  swap1\n  sstore\n  pop\n    /* \"SafeArbTraderETH.sol\":1137:8459  contract SafeArbTraderETH is Ownable, ReentrancyGuard, Pausable {... */\n  jump(tag_15)\n    /* \"@openzeppelin/contracts/access/Ownable.sol\":2912:3099  function _transferOwnership(address newOwner) internal virtual {... */\ntag_11:\n    /* \"@openzeppelin/contracts/access/Ownable.sol\":2985:3001  address oldOwner */\n  0x00\n    /* \"@openzeppelin/contracts/access/Ownable.sol\":3004:3010  _owner */\n  dup1\n  0x00\n  swap1\n  sload\n  swap1\n  0x0100\n  exp\n  swap1\n  div\n  0xffffffffffffffffffffffffffffffffffffffff\n  and\n    /* \"@openzeppelin/contracts/access/Ownable.sol\":2985:3010  address oldOwner = _owner */\n  swap1\n  pop\n    /* \"@openzeppelin/contracts/access/Ownable.sol\":3029:3037  newOwner */\n  dup2\n    /* \"@openzeppelin/contracts/access/Ownable.sol\":3020:3026  _owner */\n  0x00\n  dup1\n    /* \"@openzeppelin/contracts/access/Ownable.sol\":3020:3037  _owner = newOwner */\n  0x0100\n  exp\n  dup2\n  sload\n  dup2\n  0xffffffffffffffffffffffffffffffffffffffff\n  mul\n  not\n  and\n  swap1\n  dup4\n  0xffffffffffffffffffffffffffffffffffffffff\n  and\n  mul\n  or\n  swap1\n  sstore\n  pop\n    /* \"@openzeppelin/contracts/access/Ownable.sol\":3083:3091  newOwner */\n  dup2\n    /* \"@openzeppelin/contracts/access/Ownable.sol\":3052:3092  OwnershipTransferred(oldOwner, newOwner) */\n  0xffffffffffffffffffffffffffffffffffffffff\n  and\n    /* \"@openzeppelin/contracts/access/Ownable.sol\":3073:3081  oldOwner */\n  dup2\n    /* \"@openzeppelin/contracts/access/Ownable.sol\":3052:3092  OwnershipTransferred(oldOwner, newOwner) */\n  0xffffffffffffffffffffffffffffffffffffffff\n  and\n  0x8be0079c531659141344cd1fd0a4f28419497f9722a3daafe3b4186f6b6457e0\n  mload(0x40)\n  mload(0x40)\n  dup1\n  swap2\n  sub\n  swap1\n  log3\n    /* \"@openzeppelin/contracts/access/Ownable.sol\":2975:3099  {... */\n  pop\n    /* \"@openzeppelin/contracts/access/Ownable.sol\":2912:3099  function _transferOwnership(address newOwner) internal virtual {... */\n  pop\n  jump\t// out\n    /* \"#utility.yul\":7:133   */\ntag_17:\n    /* \"#utility.yul\":44:51   */\n  0x00\n    /* \"#utility.yul\":84:126   */\n  0xffffffffffffffffffffffffffffffffffffffff\n    /* \"#utility.yul\":77:82   */\n  dup3\n    /* \"#utility.yul\":73:127   */\n  and\n    /* \"#utility.yul\":62:127   */\n  swap1\n  pop\n    /* \"#utility.yul\":7:133   */\n  swap2\n  swap1\n  pop\n  jump\t// out\n    /* \"#utility.yul\":139:235   */\ntag_18:\n    /* \"#utility.yul\":176:183   */\n  0x00\n    /* \"#utility.yul\":205:229   */\n  tag_23\n    /* \"#utility.yul\":223:228   */\n  dup3\n    /* \"#utility.yul\":205:229   */\n  tag_17\n  jump\t// in\ntag_23:\n    /* \"#utility.yul\":194:229   */\n  swap1\n  pop\n    /* \"#utility.yul\":139:235   */\n  swap2\n  swap1\n  pop\n  jump\t// out\n    /* \"#utility.yul\":241:359   */\ntag_19:\n    /* \"#utility.yul\":328:352   */\n  tag_25\n    /* \"#utility.yul\":346:351   */\n  dup2\n    /* \"#utility.yul\":328:352   */\n  tag_18\n  jump\t// in\ntag_25:\n    /* \"#utility.yul\":323:326   */\n  dup3\n    /* \"#utility.yul\":316:353   */\n  mstore\n    /* \"#utility.yul\":241:359   */\n  pop\n  pop\n  jump\t// out\n    /* \"#utility.yul\":365:587   */\ntag_9:\n    /* \"#utility.yul\":458:462   */\n  0x00\n    /* \"#utility.yul\":496:498   */\n  0x20\n    /* \"#utility.yul\":485:494   */\n  dup3\n    /* \"#utility.yul\":481:499   */\n  add\n    /* \"#utility.yul\":473:499   */\n  swap1\n  pop\n    /* \"#utility.yul\":509:580   */\n  tag_27\n    /* \"#utility.yul\":577:578   */\n  0x00\n    /* \"#utility.yul\":566:575   */\n  dup4\n    /* \"#utility.yul\":562:579   */\n  add\n    /* \"#utility.yul\":553:559   */\n  dup5\n    /* \"#utility.yul\":509:580   */\n  tag_19\n  jump\t// in\ntag_27:\n    /* \"#utility.yul\":365:587   */\n  swap3\n  swap2\n  pop\n  pop\n  jump\t// out\n    /* \"SafeArbTraderETH.sol\":1137:8459  contract SafeArbTraderETH is Ownable, ReentrancyGuard, Pausable {... */\ntag_15:\n  dataSize(sub_0)\n  dup1\n  dataOffset(sub_0)\n  0x00\n  codecopy\n  0x00\n  return\nstop\n\nsub_0: assembly {\n        /* \"SafeArbTraderETH.sol\":1137:8459  contract SafeArbTraderETH is Ownable, ReentrancyGuard, Pausable {... */\n      mstore(0x40, 0x80)\n      jumpi(tag_1, lt(calldatasize, 0x04))\n      shr(0xe0, calldataload(0x00))\n      dup1\n      0x73b379bd\n      gt\n      tag_25\n      jumpi\n      dup1\n      0x9be65a60\n      gt\n      tag_26\n      jumpi\n      dup1\n      0x9be65a60\n      eq\n      tag_19\n      jumpi\n      dup1\n      0xbcbde212\n      eq\n      tag_20\n      jumpi\n      dup1\n      0xd2e31125\n      eq\n      tag_21\n      jumpi\n      dup1\n      0xd82c2049\n      eq\n      tag_22\n      jumpi\n      dup1\n      0xeb17fa13\n      eq\n      tag_23\n      jumpi\n      dup1\n      0xf2fde38b\n      eq\n      tag_24\n      jumpi\n      jump(tag_2)\n    tag_26:\n      dup1\n      0x73b379bd\n      eq\n      tag_14\n      jumpi\n      dup1\n      0x8456cb59\n      eq\n      tag_15\n      jumpi\n      dup1\n      0x8da5cb5b\n      eq\n      tag_16\n      jumpi\n      dup1\n      0x90cc5c90\n      eq\n      tag_17\n      jumpi\n      dup1\n      0x91451be4\n      eq\n      tag_18\n      jumpi\n      jump(tag_2)\n    tag_25:\n      dup1\n      0x3f4ba83a\n      gt\n      tag_27\n      jumpi\n      dup1\n      0x3f4ba83a\n      eq\n      tag_8\n      jumpi\n      dup1\n      0x445b1e4b\n      eq\n      tag_9\n      jumpi\n      dup1\n      0x47c1a9be\n      eq\n      tag_10\n      jumpi\n      dup1\n      0x5c975abb\n      eq\n      tag_11\n      jumpi\n      dup1\n      0x6d1ea3fa\n      eq\n      tag_12\n      jumpi\n      dup1\n      0x715018a6\n      eq\n      tag_13\n      jumpi\n      jump(tag_2)\n    tag_27:\n      dup1\n      0x0614117a\n      eq\n      tag_3\n      jumpi\n      dup1\n      0x14d91c84\n      eq\n      tag_4\n      jumpi\n      dup1\n      0x18993639\n      eq\n      tag_5\n      jumpi\n      dup1\n      0x258d0c34\n      eq\n      tag_6\n      jumpi\n      dup1\n      0x2fc95cd7\n      eq\n      tag_7\n      jumpi\n      jump(tag_2)\n    tag_1:\n      jumpi(tag_2, calldatasize)\n      stop\n    tag_2:\n      0x00\n      dup1\n      revert\n        /* \"SafeArbTraderETH.sol\":8125:8233  function recoverETH() external onlyOwner {... */\n    tag_3:\n      callvalue\n      dup1\n      iszero\n      tag_30\n      jumpi\n      0x00\n      dup1\n      revert\n    tag_30:\n      pop\n      tag_31\n      tag_32\n      jump\t// in\n    tag_31:\n      stop\n        /* \"SafeArbTraderETH.sol\":3058:3300  function setTokenApproval(address _token, bool _approved) external onlyOwner {... */\n    tag_4:\n      callvalue\n      dup1\n      iszero\n      tag_33\n      jumpi\n      0x00\n      dup1\n      revert\n    tag_33:\n      pop\n      tag_34\n      0x04\n      dup1\n      calldatasize\n      sub\n      dup2\n      add\n      swap1\n      tag_35\n      swap2\n      swap1\n      tag_36\n      jump\t// in\n    tag_35:\n      tag_37\n      jump\t// in\n    tag_34:\n      stop\n        /* \"SafeArbTraderETH.sol\":1232:1266  uint256 public minProfitMargin = 1 */\n    tag_5:\n      callvalue\n      dup1\n      iszero\n      tag_38\n      jumpi\n      0x00\n      dup1\n      revert\n    tag_38:\n      pop\n      tag_39\n      tag_40\n      jump\t// in\n    tag_39:\n      mload(0x40)\n      tag_41\n      swap2\n      swap1\n      tag_42\n      jump\t// in\n    tag_41:\n      mload(0x40)\n      dup1\n      swap2\n      sub\n      swap1\n      return\n        /* \"SafeArbTraderETH.sol\":2341:2513  function setMinProfitMargin(uint256 _margin) external onlyOwner {... */\n    tag_6:\n      callvalue\n      dup1\n      iszero\n      tag_43\n      jumpi\n      0x00\n      dup1\n      revert\n    tag_43:\n      pop\n      tag_44\n      0x04\n      dup1\n      calldatasize\n      sub\n      dup2\n      add\n      swap1\n      tag_45\n      swap2\n      swap1\n      tag_46\n      jump\t// in\n    tag_45:\n      tag_47\n      jump\t// in\n    tag_44:\n      stop\n        /* \"SafeArbTraderETH.sol\":3331:4610  function checkETHArbitrageProfitability(... */\n    tag_7:\n      callvalue\n      dup1\n      iszero\n      tag_48\n      jumpi\n      0x00\n      dup1\n      revert\n    tag_48:\n      pop\n      tag_49\n      0x04\n      dup1\n      calldatasize\n      sub\n      dup2\n      add\n      swap1\n      tag_50\n      swap2\n      swap1\n      tag_51\n      jump\t// in\n    tag_50:\n      tag_52\n      jump\t// in\n    tag_49:\n      mload(0x40)\n      tag_53\n      swap3\n      swap2\n      swap1\n      tag_54\n      jump\t// in\n    tag_53:\n      mload(0x40)\n      dup1\n      swap2\n      sub\n      swap1\n      return\n        /* \"SafeArbTraderETH.sol\":8019:8086  function unpause() external onlyOwner {... */\n    tag_8:\n      callvalue\n      dup1\n      iszero\n      tag_55\n      jumpi\n      0x00\n      dup1\n      revert\n    tag_55:\n      pop\n      tag_56\n      tag_57\n      jump\t// in\n    tag_56:\n      stop\n        /* \"SafeArbTraderETH.sol\":1381:1428  mapping(address => bool) public approvedRouters */\n    tag_9:\n      callvalue\n      dup1\n      iszero\n      tag_58\n      jumpi\n      0x00\n      dup1\n      revert\n    tag_58:\n      pop\n      tag_59\n      0x04\n      dup1\n      calldatasize\n      sub\n      dup2\n      add\n      swap1\n      tag_60\n      swap2\n      swap1\n      tag_61\n      jump\t// in\n    tag_60:\n      tag_62\n      jump\t// in\n    tag_59:\n      mload(0x40)\n      tag_63\n      swap2\n      swap1\n      tag_64\n      jump\t// in\n    tag_63:\n      mload(0x40)\n      dup1\n      swap2\n      sub\n      swap1\n      return\n        /* \"SafeArbTraderETH.sol\":2800:3050  function setRouterApproval(address _router, bool _approved) external onlyOwner {... */\n    tag_10:\n      callvalue\n      dup1\n      iszero\n      tag_65\n      jumpi\n      0x00\n      dup1\n      revert\n    tag_65:\n      pop\n      tag_66\n      0x04\n      dup1\n      calldatasize\n      sub\n      dup2\n      add\n      swap1\n      tag_67\n      swap2\n      swap1\n      tag_36\n      jump\t// in\n    tag_67:\n      tag_68\n      jump\t// in\n    tag_66:\n      stop\n        /* \"@openzeppelin/contracts/security/Pausable.sol\":1615:1699  function paused() public view virtual returns (bool) {... */\n    tag_11:\n      callvalue\n      dup1\n      iszero\n      tag_69\n      jumpi\n      0x00\n      dup1\n      revert\n    tag_69:\n      pop\n      tag_70\n      tag_71\n      jump\t// in\n    tag_70:\n      mload(0x40)\n      tag_72\n      swap2\n      swap1\n      tag_64\n      jump\t// in\n    tag_72:\n      mload(0x40)\n      dup1\n      swap2\n      sub\n      swap1\n      return\n        /* \"SafeArbTraderETH.sol\":1435:1481  mapping(address => bool) public approvedTokens */\n    tag_12:\n      callvalue\n      dup1\n      iszero\n      tag_73\n      jumpi\n      0x00\n      dup1\n      revert\n    tag_73:\n      pop\n      tag_74\n      0x04\n      dup1\n      calldatasize\n      sub\n      dup2\n      add\n      swap1\n      tag_75\n      swap2\n      swap1\n      tag_61\n      jump\t// in\n    tag_75:\n      tag_76\n      jump\t// in\n    tag_74:\n      mload(0x40)\n      tag_77\n      swap2\n      swap1\n      tag_64\n      jump\t// in\n    tag_77:\n      mload(0x40)\n      dup1\n      swap2\n      sub\n      swap1\n      return\n        /* \"@openzeppelin/contracts/access/Ownable.sol\":2293:2394  function renounceOwnership() public virtual onlyOwner {... */\n    tag_13:\n      callvalue\n      dup1\n      iszero\n      tag_78\n      jumpi\n      0x00\n      dup1\n      revert\n    tag_78:\n      pop\n      tag_79\n      tag_80\n      jump\t// in\n    tag_79:\n      stop\n        /* \"SafeArbTraderETH.sol\":1842:1874  uint256 public lastExecutionTime */\n    tag_14:\n      callvalue\n      dup1\n      iszero\n      tag_81\n      jumpi\n      0x00\n      dup1\n      revert\n    tag_81:\n      pop\n      tag_82\n      tag_83\n      jump\t// in\n    tag_82:\n      mload(0x40)\n      tag_84\n      swap2\n      swap1\n      tag_42\n      jump\t// in\n    tag_84:\n      mload(0x40)\n      dup1\n      swap2\n      sub\n      swap1\n      return\n        /* \"SafeArbTraderETH.sol\":7948:8011  function pause() external onlyOwner {... */\n    tag_15:\n      callvalue\n      dup1\n      iszero\n      tag_85\n      jumpi\n      0x00\n      dup1\n      revert\n    tag_85:\n      pop\n      tag_86\n      tag_87\n      jump\t// in\n    tag_86:\n      stop\n        /* \"@openzeppelin/contracts/access/Ownable.sol\":1638:1723  function owner() public view virtual returns (address) {... */\n    tag_16:\n      callvalue\n      dup1\n      iszero\n      tag_88\n      jumpi\n      0x00\n      dup1\n      revert\n    tag_88:\n      pop\n      tag_89\n      tag_90\n      jump\t// in\n    tag_89:\n      mload(0x40)\n      tag_91\n      swap2\n      swap1\n      tag_92\n      jump\t// in\n    tag_91:\n      mload(0x40)\n      dup1\n      swap2\n      sub\n      swap1\n      return\n        /* \"SafeArbTraderETH.sol\":1807:1835  bool public autoTradeEnabled */\n    tag_17:\n      callvalue\n      dup1\n      iszero\n      tag_93\n      jumpi\n      0x00\n      dup1\n      revert\n    tag_93:\n      pop\n      tag_94\n      tag_95\n      jump\t// in\n    tag_94:\n      mload(0x40)\n      tag_96\n      swap2\n      swap1\n      tag_64\n      jump\t// in\n    tag_96:\n      mload(0x40)\n      dup1\n      swap2\n      sub\n      swap1\n      return\n        /* \"SafeArbTraderETH.sol\":2641:2792  function setAutoTradeEnabled(bool _enabled) external onlyOwner {... */\n    tag_18:\n      callvalue\n      dup1\n      iszero\n      tag_97\n      jumpi\n      0x00\n      dup1\n      revert\n    tag_97:\n      pop\n      tag_98\n      0x04\n      dup1\n      calldatasize\n      sub\n      dup2\n      add\n      swap1\n      tag_99\n      swap2\n      swap1\n      tag_100\n      jump\t// in\n    tag_99:\n      tag_101\n      jump\t// in\n    tag_98:\n      stop\n        /* \"SafeArbTraderETH.sol\":8274:8456  function recoverToken(address token) external onlyOwner {... */\n    tag_19:\n      callvalue\n      dup1\n      iszero\n      tag_102\n      jumpi\n      0x00\n      dup1\n      revert\n    tag_102:\n      pop\n      tag_103\n      0x04\n      dup1\n      calldatasize\n      sub\n      dup2\n      add\n      swap1\n      tag_104\n      swap2\n      swap1\n      tag_61\n      jump\t// in\n    tag_104:\n      tag_105\n      jump\t// in\n    tag_103:\n      stop\n        /* \"SafeArbTraderETH.sol\":1881:1936  uint256 public constant MIN_EXECUTION_DELAY = 1 minutes */\n    tag_20:\n      callvalue\n      dup1\n      iszero\n      tag_106\n      jumpi\n      0x00\n      dup1\n      revert\n    tag_106:\n      pop\n      tag_107\n      tag_108\n      jump\t// in\n    tag_107:\n      mload(0x40)\n      tag_109\n      swap2\n      swap1\n      tag_42\n      jump\t// in\n    tag_109:\n      mload(0x40)\n      dup1\n      swap2\n      sub\n      swap1\n      return\n        /* \"SafeArbTraderETH.sol\":6902:7912  function checkAndExecuteArbitrage(... */\n    tag_21:\n      tag_110\n      0x04\n      dup1\n      calldatasize\n      sub\n      dup2\n      add\n      swap1\n      tag_111\n      swap2\n      swap1\n      tag_112\n      jump\t// in\n    tag_111:\n      tag_113\n      jump\t// in\n    tag_110:\n      stop\n        /* \"SafeArbTraderETH.sol\":2521:2633  function setMinETHBalance(uint256 _minBalance) external onlyOwner {... */\n    tag_22:\n      callvalue\n      dup1\n      iszero\n      tag_114\n      jumpi\n      0x00\n      dup1\n      revert\n    tag_114:\n      pop\n      tag_115\n      0x04\n      dup1\n      calldatasize\n      sub\n      dup2\n      add\n      swap1\n      tag_116\n      swap2\n      swap1\n      tag_46\n      jump\t// in\n    tag_116:\n      tag_117\n      jump\t// in\n    tag_115:\n      stop\n        /* \"SafeArbTraderETH.sol\":1303:1343  uint256 public minETHBalance = 0.1 ether */\n    tag_23:\n      callvalue\n      dup1\n      iszero\n      tag_118\n      jumpi\n      0x00\n      dup1\n      revert\n    tag_118:\n      pop\n      tag_119\n      tag_120\n      jump\t// in\n    tag_119:\n      mload(0x40)\n      tag_121\n      swap2\n      swap1\n      tag_42\n      jump\t// in\n    tag_121:\n      mload(0x40)\n      dup1\n      swap2\n      sub\n      swap1\n      return\n        /* \"@openzeppelin/contracts/access/Ownable.sol\":2543:2758  function transferOwnership(address newOwner) public virtual onlyOwner {... */\n    tag_24:\n      callvalue\n      dup1\n      iszero\n      tag_122\n      jumpi\n      0x00\n      dup1\n      revert\n    tag_122:\n      pop\n      tag_123\n      0x04\n      dup1\n      calldatasize\n      sub\n      dup2\n      add\n      swap1\n      tag_124\n      swap2\n      swap1\n      tag_61\n      jump\t// in\n    tag_124:\n      tag_125\n      jump\t// in\n    tag_123:\n      stop\n        /* \"SafeArbTraderETH.sol\":8125:8233  function recoverETH() external onlyOwner {... */\n    tag_32:\n        /* \"@openzeppelin/contracts/access/Ownable.sol\":1531:1544  _checkOwner() */\n      tag_127\n        /* \"@openzeppelin/contracts/access/Ownable.sol\":1531:1542  _checkOwner */\n      tag_128\n        /* \"@openzeppelin/contracts/access/Ownable.sol\":1531:1544  _checkOwner() */\n      jump\t// in\n    tag_127:\n        /* \"SafeArbTraderETH.sol\":8185:8192  owner() */\n      tag_130\n        /* \"SafeArbTraderETH.sol\":8185:8190  owner */\n      tag_90\n        /* \"SafeArbTraderETH.sol\":8185:8192  owner() */\n      jump\t// in\n    tag_130:\n        /* \"SafeArbTraderETH.sol\":8177:8202  payable(owner()).transfer */\n      0xffffffffffffffffffffffffffffffffffffffff\n      and\n        /* \"SafeArbTraderETH.sol\":8177:8225  payable(owner()).transfer(address(this).balance) */\n      0x08fc\n        /* \"SafeArbTraderETH.sol\":8203:8224  address(this).balance */\n      selfbalance\n        /* \"SafeArbTraderETH.sol\":8177:8225  payable(owner()).transfer(address(this).balance) */\n      swap1\n      dup2\n      iszero\n      mul\n      swap1\n      mload(0x40)\n      0x00\n      mload(0x40)\n      dup1\n      dup4\n      sub\n      dup2\n      dup6\n      dup9\n      dup9\n      call\n      swap4\n      pop\n      pop\n      pop\n      pop\n      iszero\n      dup1\n      iszero\n      tag_132\n      jumpi\n      returndatasize\n      0x00\n      dup1\n      returndatacopy\n      revert(0x00, returndatasize)\n    tag_132:\n      pop\n        /* \"SafeArbTraderETH.sol\":8125:8233  function recoverETH() external onlyOwner {... */\n      jump\t// out\n        /* \"SafeArbTraderETH.sol\":3058:3300  function setTokenApproval(address _token, bool _approved) external onlyOwner {... */\n    tag_37:\n        /* \"@openzeppelin/contracts/access/Ownable.sol\":1531:1544  _checkOwner() */\n      tag_134\n        /* \"@openzeppelin/contracts/access/Ownable.sol\":1531:1542  _checkOwner */\n      tag_128\n        /* \"@openzeppelin/contracts/access/Ownable.sol\":1531:1544  _checkOwner() */\n      jump\t// in\n    tag_134:\n        /* \"SafeArbTraderETH.sol\":3172:3173  0 */\n      0x00\n        /* \"SafeArbTraderETH.sol\":3154:3174  _token != address(0) */\n      0xffffffffffffffffffffffffffffffffffffffff\n      and\n        /* \"SafeArbTraderETH.sol\":3154:3160  _token */\n      dup3\n        /* \"SafeArbTraderETH.sol\":3154:3174  _token != address(0) */\n      0xffffffffffffffffffffffffffffffffffffffff\n      and\n      sub\n        /* \"SafeArbTraderETH.sol\":3146:3200  require(_token != address(0), \"Invalid token address\") */\n      tag_136\n      jumpi\n      mload(0x40)\n      0x08c379a000000000000000000000000000000000000000000000000000000000\n      dup2\n      mstore\n      0x04\n      add\n      tag_137\n      swap1\n      tag_138\n      jump\t// in\n    tag_137:\n      mload(0x40)\n      dup1\n      swap2\n      sub\n      swap1\n      revert\n    tag_136:\n        /* \"SafeArbTraderETH.sol\":3236:3245  _approved */\n      dup1\n        /* \"SafeArbTraderETH.sol\":3211:3225  approvedTokens */\n      0x06\n        /* \"SafeArbTraderETH.sol\":3211:3233  approvedTokens[_token] */\n      0x00\n        /* \"SafeArbTraderETH.sol\":3226:3232  _token */\n      dup5\n        /* \"SafeArbTraderETH.sol\":3211:3233  approvedTokens[_token] */\n      0xffffffffffffffffffffffffffffffffffffffff\n      and\n      0xffffffffffffffffffffffffffffffffffffffff\n      and\n      dup2\n      mstore\n      0x20\n      add\n      swap1\n      dup2\n      mstore\n      0x20\n      add\n      0x00\n      keccak256\n      0x00\n        /* \"SafeArbTraderETH.sol\":3211:3245  approvedTokens[_token] = _approved */\n      0x0100\n      exp\n      dup2\n      sload\n      dup2\n      0xff\n      mul\n      not\n      and\n      swap1\n      dup4\n      iszero\n      iszero\n      mul\n      or\n      swap1\n      sstore\n      pop\n        /* \"SafeArbTraderETH.sol\":3261:3292  TokenUpdated(_token, _approved) */\n      0xdcb2804db02b95bdd568fd11a31c5577ffdf36538c0f670e92930d9c1e8518ab\n        /* \"SafeArbTraderETH.sol\":3274:3280  _token */\n      dup3\n        /* \"SafeArbTraderETH.sol\":3282:3291  _approved */\n      dup3\n        /* \"SafeArbTraderETH.sol\":3261:3292  TokenUpdated(_token, _approved) */\n      mload(0x40)\n      tag_139\n      swap3\n      swap2\n      swap1\n      tag_140\n      jump\t// in\n    tag_139:\n      mload(0x40)\n      dup1\n      swap2\n      sub\n      swap1\n      log1\n        /* \"SafeArbTraderETH.sol\":3058:3300  function setTokenApproval(address _token, bool _approved) external onlyOwner {... */\n      pop\n      pop\n      jump\t// out\n        /* \"SafeArbTraderETH.sol\":1232:1266  uint256 public minProfitMargin = 1 */\n    tag_40:\n      sload(0x03)\n      dup2\n      jump\t// out\n        /* \"SafeArbTraderETH.sol\":2341:2513  function setMinProfitMargin(uint256 _margin) external onlyOwner {... */\n    tag_47:\n        /* \"@openzeppelin/contracts/access/Ownable.sol\":1531:1544  _checkOwner() */\n      tag_142\n        /* \"@openzeppelin/contracts/access/Ownable.sol\":1531:1542  _checkOwner */\n      tag_128\n        /* \"@openzeppelin/contracts/access/Ownable.sol\":1531:1544  _checkOwner() */\n      jump\t// in\n    tag_142:\n        /* \"SafeArbTraderETH.sol\":2434:2435  0 */\n      0x00\n        /* \"SafeArbTraderETH.sol\":2424:2431  _margin */\n      dup2\n        /* \"SafeArbTraderETH.sol\":2424:2435  _margin > 0 */\n      gt\n        /* \"SafeArbTraderETH.sol\":2416:2469  require(_margin > 0, \"Margin must be greater than 0\") */\n      tag_144\n      jumpi\n      mload(0x40)\n      0x08c379a000000000000000000000000000000000000000000000000000000000\n      dup2\n      mstore\n      0x04\n      add\n      tag_145\n      swap1\n      tag_146\n      jump\t// in\n    tag_145:\n      mload(0x40)\n      dup1\n      swap2\n      sub\n      swap1\n      revert\n    tag_144:\n        /* \"SafeArbTraderETH.sol\":2498:2505  _margin */\n      dup1\n        /* \"SafeArbTraderETH.sol\":2480:2495  minProfitMargin */\n      0x03\n        /* \"SafeArbTraderETH.sol\":2480:2505  minProfitMargin = _margin */\n      dup2\n      swap1\n      sstore\n      pop\n        /* \"SafeArbTraderETH.sol\":2341:2513  function setMinProfitMargin(uint256 _margin) external onlyOwner {... */\n      pop\n      jump\t// out\n        /* \"SafeArbTraderETH.sol\":3331:4610  function checkETHArbitrageProfitability(... */\n    tag_52:\n        /* \"SafeArbTraderETH.sol\":3503:3518  bool profitable */\n      0x00\n        /* \"SafeArbTraderETH.sol\":3520:3543  uint256 potentialProfit */\n      dup1\n        /* \"SafeArbTraderETH.sol\":3564:3579  approvedRouters */\n      0x05\n        /* \"SafeArbTraderETH.sol\":3564:3588  approvedRouters[router1] */\n      0x00\n        /* \"SafeArbTraderETH.sol\":3580:3587  router1 */\n      dup8\n        /* \"SafeArbTraderETH.sol\":3564:3588  approvedRouters[router1] */\n      0xffffffffffffffffffffffffffffffffffffffff\n      and\n      0xffffffffffffffffffffffffffffffffffffffff\n      and\n      dup2\n      mstore\n      0x20\n      add\n      swap1\n      dup2\n      mstore\n      0x20\n      add\n      0x00\n      keccak256\n      0x00\n      swap1\n      sload\n      swap1\n      0x0100\n      exp\n      swap1\n      div\n      0xff\n      and\n        /* \"SafeArbTraderETH.sol\":3564:3616  approvedRouters[router1] && approvedRouters[router2] */\n      dup1\n      iszero\n      tag_148\n      jumpi\n      pop\n        /* \"SafeArbTraderETH.sol\":3592:3607  approvedRouters */\n      0x05\n        /* \"SafeArbTraderETH.sol\":3592:3616  approvedRouters[router2] */\n      0x00\n        /* \"SafeArbTraderETH.sol\":3608:3615  router2 */\n      dup7\n        /* \"SafeArbTraderETH.sol\":3592:3616  approvedRouters[router2] */\n      0xffffffffffffffffffffffffffffffffffffffff\n      and\n      0xffffffffffffffffffffffffffffffffffffffff\n      and\n      dup2\n      mstore\n      0x20\n      add\n      swap1\n      dup2\n      mstore\n      0x20\n      add\n      0x00\n      keccak256\n      0x00\n      swap1\n      sload\n      swap1\n      0x0100\n      exp\n      swap1\n      div\n      0xff\n      and\n        /* \"SafeArbTraderETH.sol\":3564:3616  approvedRouters[router1] && approvedRouters[router2] */\n    tag_148:\n        /* \"SafeArbTraderETH.sol\":3556:3639  require(approvedRouters[router1] && approvedRouters[router2], \"Unapproved routers\") */\n      tag_149\n      jumpi\n      mload(0x40)\n      0x08c379a000000000000000000000000000000000000000000000000000000000\n      dup2\n      mstore\n      0x04\n      add\n      tag_150\n      swap1\n      tag_151\n      jump\t// in\n    tag_150:\n      mload(0x40)\n      dup1\n      swap2\n      sub\n      swap1\n      revert\n    tag_149:\n        /* \"SafeArbTraderETH.sol\":3658:3672  approvedTokens */\n      0x06\n        /* \"SafeArbTraderETH.sol\":3658:3679  approvedTokens[token] */\n      0x00\n        /* \"SafeArbTraderETH.sol\":3673:3678  token */\n      dup6\n        /* \"SafeArbTraderETH.sol\":3658:3679  approvedTokens[token] */\n      0xffffffffffffffffffffffffffffffffffffffff\n      and\n      0xffffffffffffffffffffffffffffffffffffffff\n      and\n      dup2\n      mstore\n      0x20\n      add\n      swap1\n      dup2\n      mstore\n      0x20\n      add\n      0x00\n      keccak256\n      0x00\n      swap1\n      sload\n      swap1\n      0x0100\n      exp\n      swap1\n      div\n      0xff\n      and\n        /* \"SafeArbTraderETH.sol\":3650:3700  require(approvedTokens[token], \"Unapproved token\") */\n      tag_152\n      jumpi\n      mload(0x40)\n      0x08c379a000000000000000000000000000000000000000000000000000000000\n      dup2\n      mstore\n      0x04\n      add\n      tag_153\n      swap1\n      tag_154\n      jump\t// in\n    tag_153:\n      mload(0x40)\n      dup1\n      swap2\n      sub\n      swap1\n      revert\n    tag_152:\n        /* \"SafeArbTraderETH.sol\":3713:3725  address weth */\n      0x00\n        /* \"SafeArbTraderETH.sol\":3745:3752  router1 */\n      dup7\n        /* \"SafeArbTraderETH.sol\":3728:3758  IUniswapV2Router(router1).WETH */\n      0xffffffffffffffffffffffffffffffffffffffff\n      and\n      0xad5c4648\n        /* \"SafeArbTraderETH.sol\":3728:3760  IUniswapV2Router(router1).WETH() */\n      mload(0x40)\n      dup2\n      0xffffffff\n      and\n      0xe0\n      shl\n      dup2\n      mstore\n      0x04\n      add\n      0x20\n      mload(0x40)\n      dup1\n      dup4\n      sub\n      dup2\n      dup7\n      gas\n      staticcall\n      iszero\n      dup1\n      iszero\n      tag_156\n      jumpi\n      returndatasize\n      0x00\n      dup1\n      returndatacopy\n      revert(0x00, returndatasize)\n    tag_156:\n      pop\n      pop\n      pop\n      pop\n      mload(0x40)\n      returndatasize\n      not(0x1f)\n      0x1f\n      dup3\n      add\n      and\n      dup3\n      add\n      dup1\n      0x40\n      mstore\n      pop\n      dup2\n      add\n      swap1\n      tag_157\n      swap2\n      swap1\n      tag_158\n      jump\t// in\n    tag_157:\n        /* \"SafeArbTraderETH.sol\":3713:3760  address weth = IUniswapV2Router(router1).WETH() */\n      swap1\n      pop\n        /* \"SafeArbTraderETH.sol\":3821:3843  address[] memory path1 */\n      0x00\n        /* \"SafeArbTraderETH.sol\":3860:3861  2 */\n      0x02\n        /* \"SafeArbTraderETH.sol\":3846:3862  new address[](2) */\n      0xffffffffffffffff\n      dup2\n      gt\n      iszero\n      tag_159\n      jumpi\n      tag_160\n      tag_161\n      jump\t// in\n    tag_160:\n    tag_159:\n      mload(0x40)\n      swap1\n      dup1\n      dup3\n      mstore\n      dup1\n      0x20\n      mul\n      0x20\n      add\n      dup3\n      add\n      0x40\n      mstore\n      dup1\n      iszero\n      tag_162\n      jumpi\n      dup2\n      0x20\n      add\n      0x20\n      dup3\n      mul\n      dup1\n      calldatasize\n      dup4\n      calldatacopy\n      dup1\n      dup3\n      add\n      swap2\n      pop\n      pop\n      swap1\n      pop\n    tag_162:\n      pop\n        /* \"SafeArbTraderETH.sol\":3821:3862  address[] memory path1 = new address[](2) */\n      swap1\n      pop\n        /* \"SafeArbTraderETH.sol\":3884:3888  weth */\n      dup2\n        /* \"SafeArbTraderETH.sol\":3873:3878  path1 */\n      dup2\n        /* \"SafeArbTraderETH.sol\":3879:3880  0 */\n      0x00\n        /* \"SafeArbTraderETH.sol\":3873:3881  path1[0] */\n      dup2\n      mload\n      dup2\n      lt\n      tag_163\n      jumpi\n      tag_164\n      tag_165\n      jump\t// in\n    tag_164:\n    tag_163:\n      0x20\n      mul\n      0x20\n      add\n      add\n        /* \"SafeArbTraderETH.sol\":3873:3888  path1[0] = weth */\n      swap1\n      0xffffffffffffffffffffffffffffffffffffffff\n      and\n      swap1\n      dup2\n      0xffffffffffffffffffffffffffffffffffffffff\n      and\n      dup2\n      mstore\n      pop\n      pop\n        /* \"SafeArbTraderETH.sol\":3910:3915  token */\n      dup6\n        /* \"SafeArbTraderETH.sol\":3899:3904  path1 */\n      dup2\n        /* \"SafeArbTraderETH.sol\":3905:3906  1 */\n      0x01\n        /* \"SafeArbTraderETH.sol\":3899:3907  path1[1] */\n      dup2\n      mload\n      dup2\n      lt\n      tag_166\n      jumpi\n      tag_167\n      tag_165\n      jump\t// in\n    tag_167:\n    tag_166:\n      0x20\n      mul\n      0x20\n      add\n      add\n        /* \"SafeArbTraderETH.sol\":3899:3915  path1[1] = token */\n      swap1\n      0xffffffffffffffffffffffffffffffffffffffff\n      and\n      swap1\n      dup2\n      0xffffffffffffffffffffffffffffffffffffffff\n      and\n      dup2\n      mstore\n      pop\n      pop\n        /* \"SafeArbTraderETH.sol\":3926:3954  uint256[] memory amountsOut1 */\n      0x00\n        /* \"SafeArbTraderETH.sol\":3974:3981  router1 */\n      dup9\n        /* \"SafeArbTraderETH.sol\":3957:3996  IUniswapV2Router(router1).getAmountsOut */\n      0xffffffffffffffffffffffffffffffffffffffff\n      and\n      0xd06ca61f\n        /* \"SafeArbTraderETH.sol\":3997:4006  ethAmount */\n      dup8\n        /* \"SafeArbTraderETH.sol\":4008:4013  path1 */\n      dup5\n        /* \"SafeArbTraderETH.sol\":3957:4014  IUniswapV2Router(router1).getAmountsOut(ethAmount, path1) */\n      mload(0x40)\n      dup4\n      0xffffffff\n      and\n      0xe0\n      shl\n      dup2\n      mstore\n      0x04\n      add\n      tag_168\n      swap3\n      swap2\n      swap1\n      tag_169\n      jump\t// in\n    tag_168:\n      0x00\n      mload(0x40)\n      dup1\n      dup4\n      sub\n      dup2\n      dup7\n      gas\n      staticcall\n      iszero\n      dup1\n      iszero\n      tag_171\n      jumpi\n      returndatasize\n      0x00\n      dup1\n      returndatacopy\n      revert(0x00, returndatasize)\n    tag_171:\n      pop\n      pop\n      pop\n      pop\n      mload(0x40)\n      returndatasize\n      0x00\n      dup3\n      returndatacopy\n      returndatasize\n      not(0x1f)\n      0x1f\n      dup3\n      add\n      and\n      dup3\n      add\n      dup1\n      0x40\n      mstore\n      pop\n      dup2\n      add\n      swap1\n      tag_172\n      swap2\n      swap1\n      tag_173\n      jump\t// in\n    tag_172:\n        /* \"SafeArbTraderETH.sol\":3926:4014  uint256[] memory amountsOut1 = IUniswapV2Router(router1).getAmountsOut(ethAmount, path1) */\n      swap1\n      pop\n        /* \"SafeArbTraderETH.sol\":4067:4089  address[] memory path2 */\n      0x00\n        /* \"SafeArbTraderETH.sol\":4106:4107  2 */\n      0x02\n        /* \"SafeArbTraderETH.sol\":4092:4108  new address[](2) */\n      0xffffffffffffffff\n      dup2\n      gt\n      iszero\n      tag_174\n      jumpi\n      tag_175\n      tag_161\n      jump\t// in\n    tag_175:\n    tag_174:\n      mload(0x40)\n      swap1\n      dup1\n      dup3\n      mstore\n      dup1\n      0x20\n      mul\n      0x20\n      add\n      dup3\n      add\n      0x40\n      mstore\n      dup1\n      iszero\n      tag_176\n      jumpi\n      dup2\n      0x20\n      add\n      0x20\n      dup3\n      mul\n      dup1\n      calldatasize\n      dup4\n      calldatacopy\n      dup1\n      dup3\n      add\n      swap2\n      pop\n      pop\n      swap1\n      pop\n    tag_176:\n      pop\n        /* \"SafeArbTraderETH.sol\":4067:4108  address[] memory path2 = new address[](2) */\n      swap1\n      pop\n        /* \"SafeArbTraderETH.sol\":4130:4135  token */\n      dup8\n        /* \"SafeArbTraderETH.sol\":4119:4124  path2 */\n      dup2\n        /* \"SafeArbTraderETH.sol\":4125:4126  0 */\n      0x00\n        /* \"SafeArbTraderETH.sol\":4119:4127  path2[0] */\n      dup2\n      mload\n      dup2\n      lt\n      tag_177\n      jumpi\n      tag_178\n      tag_165\n      jump\t// in\n    tag_178:\n    tag_177:\n      0x20\n      mul\n      0x20\n      add\n      add\n        /* \"SafeArbTraderETH.sol\":4119:4135  path2[0] = token */\n      swap1\n      0xffffffffffffffffffffffffffffffffffffffff\n      and\n      swap1\n      dup2\n      0xffffffffffffffffffffffffffffffffffffffff\n      and\n      dup2\n      mstore\n      pop\n      pop\n        /* \"SafeArbTraderETH.sol\":4157:4161  weth */\n      dup4\n        /* \"SafeArbTraderETH.sol\":4146:4151  path2 */\n      dup2\n        /* \"SafeArbTraderETH.sol\":4152:4153  1 */\n      0x01\n        /* \"SafeArbTraderETH.sol\":4146:4154  path2[1] */\n      dup2\n      mload\n      dup2\n      lt\n      tag_179\n      jumpi\n      tag_180\n      tag_165\n      jump\t// in\n    tag_180:\n    tag_179:\n      0x20\n      mul\n      0x20\n      add\n      add\n        /* \"SafeArbTraderETH.sol\":4146:4161  path2[1] = weth */\n      swap1\n      0xffffffffffffffffffffffffffffffffffffffff\n      and\n      swap1\n      dup2\n      0xffffffffffffffffffffffffffffffffffffffff\n      and\n      dup2\n      mstore\n      pop\n      pop\n        /* \"SafeArbTraderETH.sol\":4172:4200  uint256[] memory amountsOut2 */\n      0x00\n        /* \"SafeArbTraderETH.sol\":4220:4227  router2 */\n      dup10\n        /* \"SafeArbTraderETH.sol\":4203:4242  IUniswapV2Router(router2).getAmountsOut */\n      0xffffffffffffffffffffffffffffffffffffffff\n      and\n      0xd06ca61f\n        /* \"SafeArbTraderETH.sol\":4243:4254  amountsOut1 */\n      dup5\n        /* \"SafeArbTraderETH.sol\":4255:4256  1 */\n      0x01\n        /* \"SafeArbTraderETH.sol\":4243:4257  amountsOut1[1] */\n      dup2\n      mload\n      dup2\n      lt\n      tag_181\n      jumpi\n      tag_182\n      tag_165\n      jump\t// in\n    tag_182:\n    tag_181:\n      0x20\n      mul\n      0x20\n      add\n      add\n      mload\n        /* \"SafeArbTraderETH.sol\":4259:4264  path2 */\n      dup5\n        /* \"SafeArbTraderETH.sol\":4203:4265  IUniswapV2Router(router2).getAmountsOut(amountsOut1[1], path2) */\n      mload(0x40)\n      dup4\n      0xffffffff\n      and\n      0xe0\n      shl\n      dup2\n      mstore\n      0x04\n      add\n      tag_183\n      swap3\n      swap2\n      swap1\n      tag_169\n      jump\t// in\n    tag_183:\n      0x00\n      mload(0x40)\n      dup1\n      dup4\n      sub\n      dup2\n      dup7\n      gas\n      staticcall\n      iszero\n      dup1\n      iszero\n      tag_185\n      jumpi\n      returndatasize\n      0x00\n      dup1\n      returndatacopy\n      revert(0x00, returndatasize)\n    tag_185:\n      pop\n      pop\n      pop\n      pop\n      mload(0x40)\n      returndatasize\n      0x00\n      dup3\n      returndatacopy\n      returndatasize\n      not(0x1f)\n      0x1f\n      dup3\n      add\n      and\n      dup3\n      add\n      dup1\n      0x40\n      mstore\n      pop\n      dup2\n      add\n      swap1\n      tag_186\n      swap2\n      swap1\n      tag_173\n      jump\t// in\n    tag_186:\n        /* \"SafeArbTraderETH.sol\":4172:4265  uint256[] memory amountsOut2 = IUniswapV2Router(router2).getAmountsOut(amountsOut1[1], path2) */\n      swap1\n      pop\n        /* \"SafeArbTraderETH.sol\":4331:4340  ethAmount */\n      dup8\n        /* \"SafeArbTraderETH.sol\":4314:4325  amountsOut2 */\n      dup2\n        /* \"SafeArbTraderETH.sol\":4326:4327  1 */\n      0x01\n        /* \"SafeArbTraderETH.sol\":4314:4328  amountsOut2[1] */\n      dup2\n      mload\n      dup2\n      lt\n      tag_187\n      jumpi\n      tag_188\n      tag_165\n      jump\t// in\n    tag_188:\n    tag_187:\n      0x20\n      mul\n      0x20\n      add\n      add\n      mload\n        /* \"SafeArbTraderETH.sol\":4314:4340  amountsOut2[1] > ethAmount */\n      gt\n        /* \"SafeArbTraderETH.sol\":4310:4554  if (amountsOut2[1] > ethAmount) {... */\n      iszero\n      tag_189\n      jumpi\n        /* \"SafeArbTraderETH.sol\":4392:4401  ethAmount */\n      dup8\n        /* \"SafeArbTraderETH.sol\":4375:4386  amountsOut2 */\n      dup2\n        /* \"SafeArbTraderETH.sol\":4387:4388  1 */\n      0x01\n        /* \"SafeArbTraderETH.sol\":4375:4389  amountsOut2[1] */\n      dup2\n      mload\n      dup2\n      lt\n      tag_190\n      jumpi\n      tag_191\n      tag_165\n      jump\t// in\n    tag_191:\n    tag_190:\n      0x20\n      mul\n      0x20\n      add\n      add\n      mload\n        /* \"SafeArbTraderETH.sol\":4375:4401  amountsOut2[1] - ethAmount */\n      tag_192\n      swap2\n      swap1\n      tag_193\n      jump\t// in\n    tag_192:\n        /* \"SafeArbTraderETH.sol\":4357:4401  potentialProfit = amountsOut2[1] - ethAmount */\n      swap6\n      pop\n        /* \"SafeArbTraderETH.sol\":4416:4440  uint256 profitPercentage */\n      0x00\n        /* \"SafeArbTraderETH.sol\":4470:4479  ethAmount */\n      dup9\n        /* \"SafeArbTraderETH.sol\":4462:4466  1000 */\n      0x03e8\n        /* \"SafeArbTraderETH.sol\":4444:4459  potentialProfit */\n      dup9\n        /* \"SafeArbTraderETH.sol\":4444:4466  potentialProfit * 1000 */\n      tag_194\n      swap2\n      swap1\n      tag_195\n      jump\t// in\n    tag_194:\n        /* \"SafeArbTraderETH.sol\":4443:4479  (potentialProfit * 1000) / ethAmount */\n      tag_196\n      swap2\n      swap1\n      tag_197\n      jump\t// in\n    tag_196:\n        /* \"SafeArbTraderETH.sol\":4416:4479  uint256 profitPercentage = (potentialProfit * 1000) / ethAmount */\n      swap1\n      pop\n        /* \"SafeArbTraderETH.sol\":4527:4542  minProfitMargin */\n      sload(0x03)\n        /* \"SafeArbTraderETH.sol\":4507:4523  profitPercentage */\n      dup2\n        /* \"SafeArbTraderETH.sol\":4507:4542  profitPercentage >= minProfitMargin */\n      lt\n      iszero\n        /* \"SafeArbTraderETH.sol\":4494:4542  profitable = profitPercentage >= minProfitMargin */\n      swap8\n      pop\n        /* \"SafeArbTraderETH.sol\":4342:4554  {... */\n      pop\n        /* \"SafeArbTraderETH.sol\":4310:4554  if (amountsOut2[1] > ethAmount) {... */\n    tag_189:\n        /* \"SafeArbTraderETH.sol\":4566:4602  return (profitable, potentialProfit) */\n      pop\n      pop\n      pop\n      pop\n      pop\n        /* \"SafeArbTraderETH.sol\":3331:4610  function checkETHArbitrageProfitability(... */\n      swap5\n      pop\n      swap5\n      swap3\n      pop\n      pop\n      pop\n      jump\t// out\n        /* \"SafeArbTraderETH.sol\":8019:8086  function unpause() external onlyOwner {... */\n    tag_57:\n        /* \"@openzeppelin/contracts/access/Ownable.sol\":1531:1544  _checkOwner() */\n      tag_199\n        /* \"@openzeppelin/contracts/access/Ownable.sol\":1531:1542  _checkOwner */\n      tag_128\n        /* \"@openzeppelin/contracts/access/Ownable.sol\":1531:1544  _checkOwner() */\n      jump\t// in\n    tag_199:\n        /* \"SafeArbTraderETH.sol\":8068:8078  _unpause() */\n      tag_201\n        /* \"SafeArbTraderETH.sol\":8068:8076  _unpause */\n      tag_202\n        /* \"SafeArbTraderETH.sol\":8068:8078  _unpause() */\n      jump\t// in\n    tag_201:\n        /* \"SafeArbTraderETH.sol\":8019:8086  function unpause() external onlyOwner {... */\n      jump\t// out\n        /* \"SafeArbTraderETH.sol\":1381:1428  mapping(address => bool) public approvedRouters */\n    tag_62:\n      mstore(0x20, 0x05)\n      dup1\n      0x00\n      mstore\n      keccak256(0x00, 0x40)\n      0x00\n      swap2\n      pop\n      sload\n      swap1\n      0x0100\n      exp\n      swap1\n      div\n      0xff\n      and\n      dup2\n      jump\t// out\n        /* \"SafeArbTraderETH.sol\":2800:3050  function setRouterApproval(address _router, bool _approved) external onlyOwner {... */\n    tag_68:\n        /* \"@openzeppelin/contracts/access/Ownable.sol\":1531:1544  _checkOwner() */\n      tag_204\n        /* \"@openzeppelin/contracts/access/Ownable.sol\":1531:1542  _checkOwner */\n      tag_128\n        /* \"@openzeppelin/contracts/access/Ownable.sol\":1531:1544  _checkOwner() */\n      jump\t// in\n    tag_204:\n        /* \"SafeArbTraderETH.sol\":2917:2918  0 */\n      0x00\n        /* \"SafeArbTraderETH.sol\":2898:2919  _router != address(0) */\n      0xffffffffffffffffffffffffffffffffffffffff\n      and\n        /* \"SafeArbTraderETH.sol\":2898:2905  _router */\n      dup3\n        /* \"SafeArbTraderETH.sol\":2898:2919  _router != address(0) */\n      0xffffffffffffffffffffffffffffffffffffffff\n      and\n      sub\n        /* \"SafeArbTraderETH.sol\":2890:2946  require(_router != address(0), \"Invalid router address\") */\n      tag_206\n      jumpi\n      mload(0x40)\n      0x08c379a000000000000000000000000000000000000000000000000000000000\n      dup2\n      mstore\n      0x04\n      add\n      tag_207\n      swap1\n      tag_208\n      jump\t// in\n    tag_207:\n      mload(0x40)\n      dup1\n      swap2\n      sub\n      swap1\n      revert\n    tag_206:\n        /* \"SafeArbTraderETH.sol\":2984:2993  _approved */\n      dup1\n        /* \"SafeArbTraderETH.sol\":2957:2972  approvedRouters */\n      0x05\n        /* \"SafeArbTraderETH.sol\":2957:2981  approvedRouters[_router] */\n      0x00\n        /* \"SafeArbTraderETH.sol\":2973:2980  _router */\n      dup5\n        /* \"SafeArbTraderETH.sol\":2957:2981  approvedRouters[_router] */\n      0xffffffffffffffffffffffffffffffffffffffff\n      and\n      0xffffffffffffffffffffffffffffffffffffffff\n      and\n      dup2\n      mstore\n      0x20\n      add\n      swap1\n      dup2\n      mstore\n      0x20\n      add\n      0x00\n      keccak256\n      0x00\n        /* \"SafeArbTraderETH.sol\":2957:2993  approvedRouters[_router] = _approved */\n      0x0100\n      exp\n      dup2\n      sload\n      dup2\n      0xff\n      mul\n      not\n      and\n      swap1\n      dup4\n      iszero\n      iszero\n      mul\n      or\n      swap1\n      sstore\n      pop\n        /* \"SafeArbTraderETH.sol\":3009:3042  RouterUpdated(_router, _approved) */\n      0xab5814e9f0dc78998a367cdeb77f1143370431cce307f90adb6db02f49fd768a\n        /* \"SafeArbTraderETH.sol\":3023:3030  _router */\n      dup3\n        /* \"SafeArbTraderETH.sol\":3032:3041  _approved */\n      dup3\n        /* \"SafeArbTraderETH.sol\":3009:3042  RouterUpdated(_router, _approved) */\n      mload(0x40)\n      tag_209\n      swap3\n      swap2\n      swap1\n      tag_140\n      jump\t// in\n    tag_209:\n      mload(0x40)\n      dup1\n      swap2\n      sub\n      swap1\n      log1\n        /* \"SafeArbTraderETH.sol\":2800:3050  function setRouterApproval(address _router, bool _approved) external onlyOwner {... */\n      pop\n      pop\n      jump\t// out\n        /* \"@openzeppelin/contracts/security/Pausable.sol\":1615:1699  function paused() public view virtual returns (bool) {... */\n    tag_71:\n        /* \"@openzeppelin/contracts/security/Pausable.sol\":1662:1666  bool */\n      0x00\n        /* \"@openzeppelin/contracts/security/Pausable.sol\":1685:1692  _paused */\n      0x02\n      0x00\n      swap1\n      sload\n      swap1\n      0x0100\n      exp\n      swap1\n      div\n      0xff\n      and\n        /* \"@openzeppelin/contracts/security/Pausable.sol\":1678:1692  return _paused */\n      swap1\n      pop\n        /* \"@openzeppelin/contracts/security/Pausable.sol\":1615:1699  function paused() public view virtual returns (bool) {... */\n      swap1\n      jump\t// out\n        /* \"SafeArbTraderETH.sol\":1435:1481  mapping(address => bool) public approvedTokens */\n    tag_76:\n      mstore(0x20, 0x06)\n      dup1\n      0x00\n      mstore\n      keccak256(0x00, 0x40)\n      0x00\n      swap2\n      pop\n      sload\n      swap1\n      0x0100\n      exp\n      swap1\n      div\n      0xff\n      and\n      dup2\n      jump\t// out\n        /* \"@openzeppelin/contracts/access/Ownable.sol\":2293:2394  function renounceOwnership() public virtual onlyOwner {... */\n    tag_80:\n        /* \"@openzeppelin/contracts/access/Ownable.sol\":1531:1544  _checkOwner() */\n      tag_212\n        /* \"@openzeppelin/contracts/access/Ownable.sol\":1531:1542  _checkOwner */\n      tag_128\n        /* \"@openzeppelin/contracts/access/Ownable.sol\":1531:1544  _checkOwner() */\n      jump\t// in\n    tag_212:\n        /* \"@openzeppelin/contracts/access/Ownable.sol\":2357:2387  _transferOwnership(address(0)) */\n      tag_214\n        /* \"@openzeppelin/contracts/access/Ownable.sol\":2384:2385  0 */\n      0x00\n        /* \"@openzeppelin/contracts/access/Ownable.sol\":2357:2375  _transferOwnership */\n      tag_215\n        /* \"@openzeppelin/contracts/access/Ownable.sol\":2357:2387  _transferOwnership(address(0)) */\n      jump\t// in\n    tag_214:\n        /* \"@openzeppelin/contracts/access/Ownable.sol\":2293:2394  function renounceOwnership() public virtual onlyOwner {... */\n      jump\t// out\n        /* \"SafeArbTraderETH.sol\":1842:1874  uint256 public lastExecutionTime */\n    tag_83:\n      sload(0x08)\n      dup2\n      jump\t// out\n        /* \"SafeArbTraderETH.sol\":7948:8011  function pause() external onlyOwner {... */\n    tag_87:\n        /* \"@openzeppelin/contracts/access/Ownable.sol\":1531:1544  _checkOwner() */\n      tag_217\n        /* \"@openzeppelin/contracts/access/Ownable.sol\":1531:1542  _checkOwner */\n      tag_128\n        /* \"@openzeppelin/contracts/access/Ownable.sol\":1531:1544  _checkOwner() */\n      jump\t// in\n    tag_217:\n        /* \"SafeArbTraderETH.sol\":7995:8003  _pause() */\n      tag_219\n        /* \"SafeArbTraderETH.sol\":7995:8001  _pause */\n      tag_220\n        /* \"SafeArbTraderETH.sol\":7995:8003  _pause() */\n      jump\t// in\n    tag_219:\n        /* \"SafeArbTraderETH.sol\":7948:8011  function pause() external onlyOwner {... */\n      jump\t// out\n        /* \"@openzeppelin/contracts/access/Ownable.sol\":1638:1723  function owner() public view virtual returns (address) {... */\n    tag_90:\n        /* \"@openzeppelin/contracts/access/Ownable.sol\":1684:1691  address */\n      0x00\n        /* \"@openzeppelin/contracts/access/Ownable.sol\":1710:1716  _owner */\n      dup1\n      0x00\n      swap1\n      sload\n      swap1\n      0x0100\n      exp\n      swap1\n      div\n      0xffffffffffffffffffffffffffffffffffffffff\n      and\n        /* \"@openzeppelin/contracts/access/Ownable.sol\":1703:1716  return _owner */\n      swap1\n      pop\n        /* \"@openzeppelin/contracts/access/Ownable.sol\":1638:1723  function owner() public view virtual returns (address) {... */\n      swap1\n      jump\t// out\n        /* \"SafeArbTraderETH.sol\":1807:1835  bool public autoTradeEnabled */\n    tag_95:\n      0x07\n      0x00\n      swap1\n      sload\n      swap1\n      0x0100\n      exp\n      swap1\n      div\n      0xff\n      and\n      dup2\n      jump\t// out\n        /* \"SafeArbTraderETH.sol\":2641:2792  function setAutoTradeEnabled(bool _enabled) external onlyOwner {... */\n    tag_101:\n        /* \"@openzeppelin/contracts/access/Ownable.sol\":1531:1544  _checkOwner() */\n      tag_223\n        /* \"@openzeppelin/contracts/access/Ownable.sol\":1531:1542  _checkOwner */\n      tag_128\n        /* \"@openzeppelin/contracts/access/Ownable.sol\":1531:1544  _checkOwner() */\n      jump\t// in\n    tag_223:\n        /* \"SafeArbTraderETH.sol\":2734:2742  _enabled */\n      dup1\n        /* \"SafeArbTraderETH.sol\":2715:2731  autoTradeEnabled */\n      0x07\n      0x00\n        /* \"SafeArbTraderETH.sol\":2715:2742  autoTradeEnabled = _enabled */\n      0x0100\n      exp\n      dup2\n      sload\n      dup2\n      0xff\n      mul\n      not\n      and\n      swap1\n      dup4\n      iszero\n      iszero\n      mul\n      or\n      swap1\n      sstore\n      pop\n        /* \"SafeArbTraderETH.sol\":2758:2784  AutoTradeEnabled(_enabled) */\n      0x1c3ca67fa4c57ac8e623908e48d84072e553df9a9042d4c3f5c1f1b011cc521a\n        /* \"SafeArbTraderETH.sol\":2775:2783  _enabled */\n      dup2\n        /* \"SafeArbTraderETH.sol\":2758:2784  AutoTradeEnabled(_enabled) */\n      mload(0x40)\n      tag_225\n      swap2\n      swap1\n      tag_64\n      jump\t// in\n    tag_225:\n      mload(0x40)\n      dup1\n      swap2\n      sub\n      swap1\n      log1\n        /* \"SafeArbTraderETH.sol\":2641:2792  function setAutoTradeEnabled(bool _enabled) external onlyOwner {... */\n      pop\n      jump\t// out\n        /* \"SafeArbTraderETH.sol\":8274:8456  function recoverToken(address token) external onlyOwner {... */\n    tag_105:\n        /* \"@openzeppelin/contracts/access/Ownable.sol\":1531:1544  _checkOwner() */\n      tag_227\n        /* \"@openzeppelin/contracts/access/Ownable.sol\":1531:1542  _checkOwner */\n      tag_128\n        /* \"@openzeppelin/contracts/access/Ownable.sol\":1531:1544  _checkOwner() */\n      jump\t// in\n    tag_227:\n        /* \"SafeArbTraderETH.sol\":8341:8356  uint256 balance */\n      0x00\n        /* \"SafeArbTraderETH.sol\":8366:8371  token */\n      dup2\n        /* \"SafeArbTraderETH.sol\":8359:8382  IERC20(token).balanceOf */\n      0xffffffffffffffffffffffffffffffffffffffff\n      and\n      0x70a08231\n        /* \"SafeArbTraderETH.sol\":8391:8395  this */\n      address\n        /* \"SafeArbTraderETH.sol\":8359:8397  IERC20(token).balanceOf(address(this)) */\n      mload(0x40)\n      dup3\n      0xffffffff\n      and\n      0xe0\n      shl\n      dup2\n      mstore\n      0x04\n      add\n      tag_229\n      swap2\n      swap1\n      tag_92\n      jump\t// in\n    tag_229:\n      0x20\n      mload(0x40)\n      dup1\n      dup4\n      sub\n      dup2\n      dup7\n      gas\n      staticcall\n      iszero\n      dup1\n      iszero\n      tag_231\n      jumpi\n      returndatasize\n      0x00\n      dup1\n      returndatacopy\n      revert(0x00, returndatasize)\n    tag_231:\n      pop\n      pop\n      pop\n      pop\n      mload(0x40)\n      returndatasize\n      not(0x1f)\n      0x1f\n      dup3\n      add\n      and\n      dup3\n      add\n      dup1\n      0x40\n      mstore\n      pop\n      dup2\n      add\n      swap1\n      tag_232\n      swap2\n      swap1\n      tag_233\n      jump\t// in\n    tag_232:\n        /* \"SafeArbTraderETH.sol\":8341:8397  uint256 balance = IERC20(token).balanceOf(address(this)) */\n      swap1\n      pop\n        /* \"SafeArbTraderETH.sol\":8415:8420  token */\n      dup2\n        /* \"SafeArbTraderETH.sol\":8408:8430  IERC20(token).transfer */\n      0xffffffffffffffffffffffffffffffffffffffff\n      and\n      0xa9059cbb\n        /* \"SafeArbTraderETH.sol\":8431:8438  owner() */\n      tag_234\n        /* \"SafeArbTraderETH.sol\":8431:8436  owner */\n      tag_90\n        /* \"SafeArbTraderETH.sol\":8431:8438  owner() */\n      jump\t// in\n    tag_234:\n        /* \"SafeArbTraderETH.sol\":8440:8447  balance */\n      dup4\n        /* \"SafeArbTraderETH.sol\":8408:8448  IERC20(token).transfer(owner(), balance) */\n      mload(0x40)\n      dup4\n      0xffffffff\n      and\n      0xe0\n      shl\n      dup2\n      mstore\n      0x04\n      add\n      tag_235\n      swap3\n      swap2\n      swap1\n      tag_236\n      jump\t// in\n    tag_235:\n      0x20\n      mload(0x40)\n      dup1\n      dup4\n      sub\n      dup2\n      0x00\n      dup8\n      gas\n      call\n      iszero\n      dup1\n      iszero\n      tag_238\n      jumpi\n      returndatasize\n      0x00\n      dup1\n      returndatacopy\n      revert(0x00, returndatasize)\n    tag_238:\n      pop\n      pop\n      pop\n      pop\n      mload(0x40)\n      returndatasize\n      not(0x1f)\n      0x1f\n      dup3\n      add\n      and\n      dup3\n      add\n      dup1\n      0x40\n      mstore\n      pop\n      dup2\n      add\n      swap1\n      tag_239\n      swap2\n      swap1\n      tag_240\n      jump\t// in\n    tag_239:\n      pop\n        /* \"SafeArbTraderETH.sol\":8330:8456  {... */\n      pop\n        /* \"SafeArbTraderETH.sol\":8274:8456  function recoverToken(address token) external onlyOwner {... */\n      pop\n      jump\t// out\n        /* \"SafeArbTraderETH.sol\":1881:1936  uint256 public constant MIN_EXECUTION_DELAY = 1 minutes */\n    tag_108:\n        /* \"SafeArbTraderETH.sol\":1927:1936  1 minutes */\n      0x3c\n        /* \"SafeArbTraderETH.sol\":1881:1936  uint256 public constant MIN_EXECUTION_DELAY = 1 minutes */\n      dup2\n      jump\t// out\n        /* \"SafeArbTraderETH.sol\":6902:7912  function checkAndExecuteArbitrage(... */\n    tag_113:\n        /* \"SafeArbTraderETH.sol\":7055:7071  autoTradeEnabled */\n      0x07\n      0x00\n      swap1\n      sload\n      swap1\n      0x0100\n      exp\n      swap1\n      div\n      0xff\n      and\n        /* \"SafeArbTraderETH.sol\":7047:7098  require(autoTradeEnabled, \"Auto-trade is disabled\") */\n      tag_242\n      jumpi\n      mload(0x40)\n      0x08c379a000000000000000000000000000000000000000000000000000000000\n      dup2\n      mstore\n      0x04\n      add\n      tag_243\n      swap1\n      tag_244\n      jump\t// in\n    tag_243:\n      mload(0x40)\n      dup1\n      swap2\n      sub\n      swap1\n      revert\n    tag_242:\n        /* \"SafeArbTraderETH.sol\":7130:7143  minETHBalance */\n      sload(0x04)\n        /* \"SafeArbTraderETH.sol\":7117:7126  msg.value */\n      callvalue\n        /* \"SafeArbTraderETH.sol\":7117:7143  msg.value >= minETHBalance */\n      lt\n      iszero\n        /* \"SafeArbTraderETH.sol\":7109:7169  require(msg.value >= minETHBalance, \"Insufficient ETH sent\") */\n      tag_245\n      jumpi\n      mload(0x40)\n      0x08c379a000000000000000000000000000000000000000000000000000000000\n      dup2\n      mstore\n      0x04\n      add\n      tag_246\n      swap1\n      tag_247\n      jump\t// in\n    tag_246:\n      mload(0x40)\n      dup1\n      swap2\n      sub\n      swap1\n      revert\n    tag_245:\n        /* \"SafeArbTraderETH.sol\":7183:7198  bool profitable */\n      0x00\n        /* \"SafeArbTraderETH.sol\":7200:7223  uint256 potentialProfit */\n      dup1\n        /* \"SafeArbTraderETH.sol\":7227:7356  checkETHArbitrageProfitability(... */\n      tag_248\n        /* \"SafeArbTraderETH.sol\":7272:7279  router1 */\n      dup6\n        /* \"SafeArbTraderETH.sol\":7294:7301  router2 */\n      dup6\n        /* \"SafeArbTraderETH.sol\":7316:7321  token */\n      dup6\n        /* \"SafeArbTraderETH.sol\":7336:7345  msg.value */\n      callvalue\n        /* \"SafeArbTraderETH.sol\":7227:7257  checkETHArbitrageProfitability */\n      tag_52\n        /* \"SafeArbTraderETH.sol\":7227:7356  checkETHArbitrageProfitability(... */\n      jump\t// in\n    tag_248:\n        /* \"SafeArbTraderETH.sol\":7182:7356  (bool profitable, uint256 potentialProfit) = checkETHArbitrageProfitability(... */\n      swap2\n      pop\n      swap2\n      pop\n        /* \"SafeArbTraderETH.sol\":7373:7383  profitable */\n      dup2\n        /* \"SafeArbTraderETH.sol\":7369:7905  if (profitable) {... */\n      iszero\n      tag_249\n      jumpi\n        /* \"SafeArbTraderETH.sol\":7408:7469  executeETHArbitrage(router1, router2, token, potentialProfit) */\n      tag_250\n        /* \"SafeArbTraderETH.sol\":7428:7435  router1 */\n      dup6\n        /* \"SafeArbTraderETH.sol\":7437:7444  router2 */\n      dup6\n        /* \"SafeArbTraderETH.sol\":7446:7451  token */\n      dup6\n        /* \"SafeArbTraderETH.sol\":7453:7468  potentialProfit */\n      dup5\n        /* \"SafeArbTraderETH.sol\":7408:7427  executeETHArbitrage */\n      tag_251\n        /* \"SafeArbTraderETH.sol\":7408:7469  executeETHArbitrage(router1, router2, token, potentialProfit) */\n      jump\t// in\n    tag_250:\n        /* \"SafeArbTraderETH.sol\":7400:7500  require(executeETHArbitrage(router1, router2, token, potentialProfit), \"Arbitrage execution failed\") */\n      tag_252\n      jumpi\n      mload(0x40)\n      0x08c379a000000000000000000000000000000000000000000000000000000000\n      dup2\n      mstore\n      0x04\n      add\n      tag_253\n      swap1\n      tag_254\n      jump\t// in\n    tag_253:\n      mload(0x40)\n      dup1\n      swap2\n      sub\n      swap1\n      revert\n    tag_252:\n        /* \"SafeArbTraderETH.sol\":7575:7587  bool success */\n      0x00\n        /* \"SafeArbTraderETH.sol\":7593:7603  msg.sender */\n      caller\n        /* \"SafeArbTraderETH.sol\":7593:7608  msg.sender.call */\n      0xffffffffffffffffffffffffffffffffffffffff\n      and\n        /* \"SafeArbTraderETH.sol\":7616:7637  address(this).balance */\n      selfbalance\n        /* \"SafeArbTraderETH.sol\":7593:7642  msg.sender.call{value: address(this).balance}(\"\") */\n      mload(0x40)\n      tag_255\n      swap1\n      tag_256\n      jump\t// in\n    tag_255:\n      0x00\n      mload(0x40)\n      dup1\n      dup4\n      sub\n      dup2\n      dup6\n      dup8\n      gas\n      call\n      swap3\n      pop\n      pop\n      pop\n      returndatasize\n      dup1\n      0x00\n      dup2\n      eq\n      tag_259\n      jumpi\n      mload(0x40)\n      swap2\n      pop\n      and(add(returndatasize, 0x3f), not(0x1f))\n      dup3\n      add\n      0x40\n      mstore\n      returndatasize\n      dup3\n      mstore\n      returndatasize\n      0x00\n      0x20\n      dup5\n      add\n      returndatacopy\n      jump(tag_258)\n    tag_259:\n      0x60\n      swap2\n      pop\n    tag_258:\n      pop\n        /* \"SafeArbTraderETH.sol\":7574:7642  (bool success, ) = msg.sender.call{value: address(this).balance}(\"\") */\n      pop\n      swap1\n      pop\n        /* \"SafeArbTraderETH.sol\":7665:7672  success */\n      dup1\n        /* \"SafeArbTraderETH.sol\":7657:7696  require(success, \"ETH transfer failed\") */\n      tag_260\n      jumpi\n      mload(0x40)\n      0x08c379a000000000000000000000000000000000000000000000000000000000\n      dup2\n      mstore\n      0x04\n      add\n      tag_261\n      swap1\n      tag_262\n      jump\t// in\n    tag_261:\n      mload(0x40)\n      dup1\n      swap2\n      sub\n      swap1\n      revert\n    tag_260:\n        /* \"SafeArbTraderETH.sol\":7385:7708  {... */\n      pop\n        /* \"SafeArbTraderETH.sol\":7369:7905  if (profitable) {... */\n      jump(tag_263)\n    tag_249:\n        /* \"SafeArbTraderETH.sol\":7786:7798  bool success */\n      0x00\n        /* \"SafeArbTraderETH.sol\":7804:7814  msg.sender */\n      caller\n        /* \"SafeArbTraderETH.sol\":7804:7819  msg.sender.call */\n      0xffffffffffffffffffffffffffffffffffffffff\n      and\n        /* \"SafeArbTraderETH.sol\":7827:7836  msg.value */\n      callvalue\n        /* \"SafeArbTraderETH.sol\":7804:7841  msg.sender.call{value: msg.value}(\"\") */\n      mload(0x40)\n      tag_264\n      swap1\n      tag_256\n      jump\t// in\n    tag_264:\n      0x00\n      mload(0x40)\n      dup1\n      dup4\n      sub\n      dup2\n      dup6\n      dup8\n      gas\n      call\n      swap3\n      pop\n      pop\n      pop\n      returndatasize\n      dup1\n      0x00\n      dup2\n      eq\n      tag_267\n      jumpi\n      mload(0x40)\n      swap2\n      pop\n      and(add(returndatasize, 0x3f), not(0x1f))\n      dup3\n      add\n      0x40\n      mstore\n      returndatasize\n      dup3\n      mstore\n      returndatasize\n      0x00\n      0x20\n      dup5\n      add\n      returndatacopy\n      jump(tag_266)\n    tag_267:\n      0x60\n      swap2\n      pop\n    tag_266:\n      pop\n        /* \"SafeArbTraderETH.sol\":7785:7841  (bool success, ) = msg.sender.call{value: msg.value}(\"\") */\n      pop\n      swap1\n      pop\n        /* \"SafeArbTraderETH.sol\":7864:7871  success */\n      dup1\n        /* \"SafeArbTraderETH.sol\":7856:7893  require(success, \"ETH return failed\") */\n      tag_268\n      jumpi\n      mload(0x40)\n      0x08c379a000000000000000000000000000000000000000000000000000000000\n      dup2\n      mstore\n      0x04\n      add\n      tag_269\n      swap1\n      tag_270\n      jump\t// in\n    tag_269:\n      mload(0x40)\n      dup1\n      swap2\n      sub\n      swap1\n      revert\n    tag_268:\n        /* \"SafeArbTraderETH.sol\":7714:7905  {... */\n      pop\n        /* \"SafeArbTraderETH.sol\":7369:7905  if (profitable) {... */\n    tag_263:\n        /* \"SafeArbTraderETH.sol\":7036:7912  {... */\n      pop\n      pop\n        /* \"SafeArbTraderETH.sol\":6902:7912  function checkAndExecuteArbitrage(... */\n      pop\n      pop\n      pop\n      jump\t// out\n        /* \"SafeArbTraderETH.sol\":2521:2633  function setMinETHBalance(uint256 _minBalance) external onlyOwner {... */\n    tag_117:\n        /* \"@openzeppelin/contracts/access/Ownable.sol\":1531:1544  _checkOwner() */\n      tag_272\n        /* \"@openzeppelin/contracts/access/Ownable.sol\":1531:1542  _checkOwner */\n      tag_128\n        /* \"@openzeppelin/contracts/access/Ownable.sol\":1531:1544  _checkOwner() */\n      jump\t// in\n    tag_272:\n        /* \"SafeArbTraderETH.sol\":2614:2625  _minBalance */\n      dup1\n        /* \"SafeArbTraderETH.sol\":2598:2611  minETHBalance */\n      0x04\n        /* \"SafeArbTraderETH.sol\":2598:2625  minETHBalance = _minBalance */\n      dup2\n      swap1\n      sstore\n      pop\n        /* \"SafeArbTraderETH.sol\":2521:2633  function setMinETHBalance(uint256 _minBalance) external onlyOwner {... */\n      pop\n      jump\t// out\n        /* \"SafeArbTraderETH.sol\":1303:1343  uint256 public minETHBalance = 0.1 ether */\n    tag_120:\n      sload(0x04)\n      dup2\n      jump\t// out\n        /* \"@openzeppelin/contracts/access/Ownable.sol\":2543:2758  function transferOwnership(address newOwner) public virtual onlyOwner {... */\n    tag_125:\n        /* \"@openzeppelin/contracts/access/Ownable.sol\":1531:1544  _checkOwner() */\n      tag_275\n        /* \"@openzeppelin/contracts/access/Ownable.sol\":1531:1542  _checkOwner */\n      tag_128\n        /* \"@openzeppelin/contracts/access/Ownable.sol\":1531:1544  _checkOwner() */\n      jump\t// in\n    tag_275:\n        /* \"@openzeppelin/contracts/access/Ownable.sol\":2647:2648  0 */\n      0x00\n        /* \"@openzeppelin/contracts/access/Ownable.sol\":2627:2649  newOwner == address(0) */\n      0xffffffffffffffffffffffffffffffffffffffff\n      and\n        /* \"@openzeppelin/contracts/access/Ownable.sol\":2627:2635  newOwner */\n      dup2\n        /* \"@openzeppelin/contracts/access/Ownable.sol\":2627:2649  newOwner == address(0) */\n      0xffffffffffffffffffffffffffffffffffffffff\n      and\n      sub\n        /* \"@openzeppelin/contracts/access/Ownable.sol\":2623:2714  if (newOwner == address(0)) {... */\n      tag_277\n      jumpi\n        /* \"@openzeppelin/contracts/access/Ownable.sol\":2700:2701  0 */\n      0x00\n        /* \"@openzeppelin/contracts/access/Ownable.sol\":2672:2703  OwnableInvalidOwner(address(0)) */\n      mload(0x40)\n      0x1e4fbdf700000000000000000000000000000000000000000000000000000000\n      dup2\n      mstore\n      0x04\n      add\n      tag_278\n      swap2\n      swap1\n      tag_92\n      jump\t// in\n    tag_278:\n      mload(0x40)\n      dup1\n      swap2\n      sub\n      swap1\n      revert\n        /* \"@openzeppelin/contracts/access/Ownable.sol\":2623:2714  if (newOwner == address(0)) {... */\n    tag_277:\n        /* \"@openzeppelin/contracts/access/Ownable.sol\":2723:2751  _transferOwnership(newOwner) */\n      tag_279\n        /* \"@openzeppelin/contracts/access/Ownable.sol\":2742:2750  newOwner */\n      dup2\n        /* \"@openzeppelin/contracts/access/Ownable.sol\":2723:2741  _transferOwnership */\n      tag_215\n        /* \"@openzeppelin/contracts/access/Ownable.sol\":2723:2751  _transferOwnership(newOwner) */\n      jump\t// in\n    tag_279:\n        /* \"@openzeppelin/contracts/access/Ownable.sol\":2543:2758  function transferOwnership(address newOwner) public virtual onlyOwner {... */\n      pop\n      jump\t// out\n        /* \"@openzeppelin/contracts/access/Ownable.sol\":1796:1958  function _checkOwner() internal view virtual {... */\n    tag_128:\n        /* \"@openzeppelin/contracts/access/Ownable.sol\":1866:1878  _msgSender() */\n      tag_281\n        /* \"@openzeppelin/contracts/access/Ownable.sol\":1866:1876  _msgSender */\n      tag_282\n        /* \"@openzeppelin/contracts/access/Ownable.sol\":1866:1878  _msgSender() */\n      jump\t// in\n    tag_281:\n        /* \"@openzeppelin/contracts/access/Ownable.sol\":1855:1878  owner() != _msgSender() */\n      0xffffffffffffffffffffffffffffffffffffffff\n      and\n        /* \"@openzeppelin/contracts/access/Ownable.sol\":1855:1862  owner() */\n      tag_283\n        /* \"@openzeppelin/contracts/access/Ownable.sol\":1855:1860  owner */\n      tag_90\n        /* \"@openzeppelin/contracts/access/Ownable.sol\":1855:1862  owner() */\n      jump\t// in\n    tag_283:\n        /* \"@openzeppelin/contracts/access/Ownable.sol\":1855:1878  owner() != _msgSender() */\n      0xffffffffffffffffffffffffffffffffffffffff\n      and\n      eq\n        /* \"@openzeppelin/contracts/access/Ownable.sol\":1851:1952  if (owner() != _msgSender()) {... */\n      tag_284\n      jumpi\n        /* \"@openzeppelin/contracts/access/Ownable.sol\":1928:1940  _msgSender() */\n      tag_285\n        /* \"@openzeppelin/contracts/access/Ownable.sol\":1928:1938  _msgSender */\n      tag_282\n        /* \"@openzeppelin/contracts/access/Ownable.sol\":1928:1940  _msgSender() */\n      jump\t// in\n    tag_285:\n        /* \"@openzeppelin/contracts/access/Ownable.sol\":1901:1941  OwnableUnauthorizedAccount(_msgSender()) */\n      mload(0x40)\n      0x118cdaa700000000000000000000000000000000000000000000000000000000\n      dup2\n      mstore\n      0x04\n      add\n      tag_286\n      swap2\n      swap1\n      tag_92\n      jump\t// in\n    tag_286:\n      mload(0x40)\n      dup1\n      swap2\n      sub\n      swap1\n      revert\n        /* \"@openzeppelin/contracts/access/Ownable.sol\":1851:1952  if (owner() != _msgSender()) {... */\n    tag_284:\n        /* \"@openzeppelin/contracts/access/Ownable.sol\":1796:1958  function _checkOwner() internal view virtual {... */\n      jump\t// out\n        /* \"@openzeppelin/contracts/security/Pausable.sol\":2433:2550  function _unpause() internal virtual whenPaused {... */\n    tag_202:\n        /* \"@openzeppelin/contracts/security/Pausable.sol\":1486:1502  _requirePaused() */\n      tag_288\n        /* \"@openzeppelin/contracts/security/Pausable.sol\":1486:1500  _requirePaused */\n      tag_289\n        /* \"@openzeppelin/contracts/security/Pausable.sol\":1486:1502  _requirePaused() */\n      jump\t// in\n    tag_288:\n        /* \"@openzeppelin/contracts/security/Pausable.sol\":2501:2506  false */\n      0x00\n        /* \"@openzeppelin/contracts/security/Pausable.sol\":2491:2498  _paused */\n      0x02\n      0x00\n        /* \"@openzeppelin/contracts/security/Pausable.sol\":2491:2506  _paused = false */\n      0x0100\n      exp\n      dup2\n      sload\n      dup2\n      0xff\n      mul\n      not\n      and\n      swap1\n      dup4\n      iszero\n      iszero\n      mul\n      or\n      swap1\n      sstore\n      pop\n        /* \"@openzeppelin/contracts/security/Pausable.sol\":2521:2543  Unpaused(_msgSender()) */\n      0x5db9ee0a495bf2e6ff9c91a7834c1ba4fdd244a5e8aa4e537bd38aeae4b073aa\n        /* \"@openzeppelin/contracts/security/Pausable.sol\":2530:2542  _msgSender() */\n      tag_291\n        /* \"@openzeppelin/contracts/security/Pausable.sol\":2530:2540  _msgSender */\n      tag_282\n        /* \"@openzeppelin/contracts/security/Pausable.sol\":2530:2542  _msgSender() */\n      jump\t// in\n    tag_291:\n        /* \"@openzeppelin/contracts/security/Pausable.sol\":2521:2543  Unpaused(_msgSender()) */\n      mload(0x40)\n      tag_292\n      swap2\n      swap1\n      tag_92\n      jump\t// in\n    tag_292:\n      mload(0x40)\n      dup1\n      swap2\n      sub\n      swap1\n      log1\n        /* \"@openzeppelin/contracts/security/Pausable.sol\":2433:2550  function _unpause() internal virtual whenPaused {... */\n      jump\t// out\n        /* \"@openzeppelin/contracts/access/Ownable.sol\":2912:3099  function _transferOwnership(address newOwner) internal virtual {... */\n    tag_215:\n        /* \"@openzeppelin/contracts/access/Ownable.sol\":2985:3001  address oldOwner */\n      0x00\n        /* \"@openzeppelin/contracts/access/Ownable.sol\":3004:3010  _owner */\n      dup1\n      0x00\n      swap1\n      sload\n      swap1\n      0x0100\n      exp\n      swap1\n      div\n      0xffffffffffffffffffffffffffffffffffffffff\n      and\n        /* \"@openzeppelin/contracts/access/Ownable.sol\":2985:3010  address oldOwner = _owner */\n      swap1\n      pop\n        /* \"@openzeppelin/contracts/access/Ownable.sol\":3029:3037  newOwner */\n      dup2\n        /* \"@openzeppelin/contracts/access/Ownable.sol\":3020:3026  _owner */\n      0x00\n      dup1\n        /* \"@openzeppelin/contracts/access/Ownable.sol\":3020:3037  _owner = newOwner */\n      0x0100\n      exp\n      dup2\n      sload\n      dup2\n      0xffffffffffffffffffffffffffffffffffffffff\n      mul\n      not\n      and\n      swap1\n      dup4\n      0xffffffffffffffffffffffffffffffffffffffff\n      and\n      mul\n      or\n      swap1\n      sstore\n      pop\n        /* \"@openzeppelin/contracts/access/Ownable.sol\":3083:3091  newOwner */\n      dup2\n        /* \"@openzeppelin/contracts/access/Ownable.sol\":3052:3092  OwnershipTransferred(oldOwner, newOwner) */\n      0xffffffffffffffffffffffffffffffffffffffff\n      and\n        /* \"@openzeppelin/contracts/access/Ownable.sol\":3073:3081  oldOwner */\n      dup2\n        /* \"@openzeppelin/contracts/access/Ownable.sol\":3052:3092  OwnershipTransferred(oldOwner, newOwner) */\n      0xffffffffffffffffffffffffffffffffffffffff\n      and\n      0x8be0079c531659141344cd1fd0a4f28419497f9722a3daafe3b4186f6b6457e0\n      mload(0x40)\n      mload(0x40)\n      dup1\n      swap2\n      sub\n      swap1\n      log3\n        /* \"@openzeppelin/contracts/access/Ownable.sol\":2975:3099  {... */\n      pop\n        /* \"@openzeppelin/contracts/access/Ownable.sol\":2912:3099  function _transferOwnership(address newOwner) internal virtual {... */\n      pop\n      jump\t// out\n        /* \"@openzeppelin/contracts/security/Pausable.sol\":2186:2301  function _pause() internal virtual whenNotPaused {... */\n    tag_220:\n        /* \"@openzeppelin/contracts/security/Pausable.sol\":1239:1258  _requireNotPaused() */\n      tag_295\n        /* \"@openzeppelin/contracts/security/Pausable.sol\":1239:1256  _requireNotPaused */\n      tag_296\n        /* \"@openzeppelin/contracts/security/Pausable.sol\":1239:1258  _requireNotPaused() */\n      jump\t// in\n    tag_295:\n        /* \"@openzeppelin/contracts/security/Pausable.sol\":2255:2259  true */\n      0x01\n        /* \"@openzeppelin/contracts/security/Pausable.sol\":2245:2252  _paused */\n      0x02\n      0x00\n        /* \"@openzeppelin/contracts/security/Pausable.sol\":2245:2259  _paused = true */\n      0x0100\n      exp\n      dup2\n      sload\n      dup2\n      0xff\n      mul\n      not\n      and\n      swap1\n      dup4\n      iszero\n      iszero\n      mul\n      or\n      swap1\n      sstore\n      pop\n        /* \"@openzeppelin/contracts/security/Pausable.sol\":2274:2294  Paused(_msgSender()) */\n      0x62e78cea01bee320cd4e420270b5ea74000d11b0c9f74754ebdbfc544b05a258\n        /* \"@openzeppelin/contracts/security/Pausable.sol\":2281:2293  _msgSender() */\n      tag_298\n        /* \"@openzeppelin/contracts/security/Pausable.sol\":2281:2291  _msgSender */\n      tag_282\n        /* \"@openzeppelin/contracts/security/Pausable.sol\":2281:2293  _msgSender() */\n      jump\t// in\n    tag_298:\n        /* \"@openzeppelin/contracts/security/Pausable.sol\":2274:2294  Paused(_msgSender()) */\n      mload(0x40)\n      tag_299\n      swap2\n      swap1\n      tag_92\n      jump\t// in\n    tag_299:\n      mload(0x40)\n      dup1\n      swap2\n      sub\n      swap1\n      log1\n        /* \"@openzeppelin/contracts/security/Pausable.sol\":2186:2301  function _pause() internal virtual whenNotPaused {... */\n      jump\t// out\n        /* \"SafeArbTraderETH.sol\":4660:6818  function executeETHArbitrage(... */\n    tag_251:\n        /* \"SafeArbTraderETH.sol\":4845:4849  bool */\n      0x00\n        /* \"@openzeppelin/contracts/security/ReentrancyGuard.sol\":2261:2282  _nonReentrantBefore() */\n      tag_301\n        /* \"@openzeppelin/contracts/security/ReentrancyGuard.sol\":2261:2280  _nonReentrantBefore */\n      tag_302\n        /* \"@openzeppelin/contracts/security/ReentrancyGuard.sol\":2261:2282  _nonReentrantBefore() */\n      jump\t// in\n    tag_301:\n        /* \"@openzeppelin/contracts/security/Pausable.sol\":1239:1258  _requireNotPaused() */\n      tag_304\n        /* \"@openzeppelin/contracts/security/Pausable.sol\":1239:1256  _requireNotPaused */\n      tag_296\n        /* \"@openzeppelin/contracts/security/Pausable.sol\":1239:1258  _requireNotPaused() */\n      jump\t// in\n    tag_304:\n        /* \"SafeArbTraderETH.sol\":4894:4907  minETHBalance */\n      sload(0x04)\n        /* \"SafeArbTraderETH.sol\":4870:4891  address(this).balance */\n      selfbalance\n        /* \"SafeArbTraderETH.sol\":4870:4907  address(this).balance > minETHBalance */\n      gt\n        /* \"SafeArbTraderETH.sol\":4862:4936  require(address(this).balance > minETHBalance, \"Insufficient ETH balance\") */\n      tag_306\n      jumpi\n      mload(0x40)\n      0x08c379a000000000000000000000000000000000000000000000000000000000\n      dup2\n      mstore\n      0x04\n      add\n      tag_307\n      swap1\n      tag_308\n      jump\t// in\n    tag_307:\n      mload(0x40)\n      dup1\n      swap2\n      sub\n      swap1\n      revert\n    tag_306:\n        /* \"SafeArbTraderETH.sol\":4955:4970  approvedRouters */\n      0x05\n        /* \"SafeArbTraderETH.sol\":4955:4979  approvedRouters[router1] */\n      0x00\n        /* \"SafeArbTraderETH.sol\":4971:4978  router1 */\n      dup7\n        /* \"SafeArbTraderETH.sol\":4955:4979  approvedRouters[router1] */\n      0xffffffffffffffffffffffffffffffffffffffff\n      and\n      0xffffffffffffffffffffffffffffffffffffffff\n      and\n      dup2\n      mstore\n      0x20\n      add\n      swap1\n      dup2\n      mstore\n      0x20\n      add\n      0x00\n      keccak256\n      0x00\n      swap1\n      sload\n      swap1\n      0x0100\n      exp\n      swap1\n      div\n      0xff\n      and\n        /* \"SafeArbTraderETH.sol\":4955:5007  approvedRouters[router1] && approvedRouters[router2] */\n      dup1\n      iszero\n      tag_309\n      jumpi\n      pop\n        /* \"SafeArbTraderETH.sol\":4983:4998  approvedRouters */\n      0x05\n        /* \"SafeArbTraderETH.sol\":4983:5007  approvedRouters[router2] */\n      0x00\n        /* \"SafeArbTraderETH.sol\":4999:5006  router2 */\n      dup6\n        /* \"SafeArbTraderETH.sol\":4983:5007  approvedRouters[router2] */\n      0xffffffffffffffffffffffffffffffffffffffff\n      and\n      0xffffffffffffffffffffffffffffffffffffffff\n      and\n      dup2\n      mstore\n      0x20\n      add\n      swap1\n      dup2\n      mstore\n      0x20\n      add\n      0x00\n      keccak256\n      0x00\n      swap1\n      sload\n      swap1\n      0x0100\n      exp\n      swap1\n      div\n      0xff\n      and\n        /* \"SafeArbTraderETH.sol\":4955:5007  approvedRouters[router1] && approvedRouters[router2] */\n    tag_309:\n        /* \"SafeArbTraderETH.sol\":4947:5030  require(approvedRouters[router1] && approvedRouters[router2], \"Unapproved routers\") */\n      tag_310\n      jumpi\n      mload(0x40)\n      0x08c379a000000000000000000000000000000000000000000000000000000000\n      dup2\n      mstore\n      0x04\n      add\n      tag_311\n      swap1\n      tag_151\n      jump\t// in\n    tag_311:\n      mload(0x40)\n      dup1\n      swap2\n      sub\n      swap1\n      revert\n    tag_310:\n        /* \"SafeArbTraderETH.sol\":5049:5063  approvedTokens */\n      0x06\n        /* \"SafeArbTraderETH.sol\":5049:5070  approvedTokens[token] */\n      0x00\n        /* \"SafeArbTraderETH.sol\":5064:5069  token */\n      dup5\n        /* \"SafeArbTraderETH.sol\":5049:5070  approvedTokens[token] */\n      0xffffffffffffffffffffffffffffffffffffffff\n      and\n      0xffffffffffffffffffffffffffffffffffffffff\n      and\n      dup2\n      mstore\n      0x20\n      add\n      swap1\n      dup2\n      mstore\n      0x20\n      add\n      0x00\n      keccak256\n      0x00\n      swap1\n      sload\n      swap1\n      0x0100\n      exp\n      swap1\n      div\n      0xff\n      and\n        /* \"SafeArbTraderETH.sol\":5041:5091  require(approvedTokens[token], \"Unapproved token\") */\n      tag_312\n      jumpi\n      mload(0x40)\n      0x08c379a000000000000000000000000000000000000000000000000000000000\n      dup2\n      mstore\n      0x04\n      add\n      tag_313\n      swap1\n      tag_154\n      jump\t// in\n    tag_313:\n      mload(0x40)\n      dup1\n      swap2\n      sub\n      swap1\n      revert\n    tag_312:\n        /* \"SafeArbTraderETH.sol\":1927:1936  1 minutes */\n      0x3c\n        /* \"SafeArbTraderETH.sol\":5129:5146  lastExecutionTime */\n      sload(0x08)\n        /* \"SafeArbTraderETH.sol\":5129:5168  lastExecutionTime + MIN_EXECUTION_DELAY */\n      tag_314\n      swap2\n      swap1\n      tag_315\n      jump\t// in\n    tag_314:\n        /* \"SafeArbTraderETH.sol\":5110:5125  block.timestamp */\n      timestamp\n        /* \"SafeArbTraderETH.sol\":5110:5168  block.timestamp >= lastExecutionTime + MIN_EXECUTION_DELAY */\n      lt\n      iszero\n        /* \"SafeArbTraderETH.sol\":5102:5192  require(block.timestamp >= lastExecutionTime + MIN_EXECUTION_DELAY, \"Too soon to execute\") */\n      tag_316\n      jumpi\n      mload(0x40)\n      0x08c379a000000000000000000000000000000000000000000000000000000000\n      dup2\n      mstore\n      0x04\n      add\n      tag_317\n      swap1\n      tag_318\n      jump\t// in\n    tag_317:\n      mload(0x40)\n      dup1\n      swap2\n      sub\n      swap1\n      revert\n    tag_316:\n        /* \"SafeArbTraderETH.sol\":5205:5223  uint256 ethToTrade */\n      0x00\n        /* \"SafeArbTraderETH.sol\":5226:5247  address(this).balance */\n      selfbalance\n        /* \"SafeArbTraderETH.sol\":5205:5247  uint256 ethToTrade = address(this).balance */\n      swap1\n      pop\n        /* \"SafeArbTraderETH.sol\":5258:5270  address weth */\n      0x00\n        /* \"SafeArbTraderETH.sol\":5290:5297  router1 */\n      dup7\n        /* \"SafeArbTraderETH.sol\":5273:5303  IUniswapV2Router(router1).WETH */\n      0xffffffffffffffffffffffffffffffffffffffff\n      and\n      0xad5c4648\n        /* \"SafeArbTraderETH.sol\":5273:5305  IUniswapV2Router(router1).WETH() */\n      mload(0x40)\n      dup2\n      0xffffffff\n      and\n      0xe0\n      shl\n      dup2\n      mstore\n      0x04\n      add\n      0x20\n      mload(0x40)\n      dup1\n      dup4\n      sub\n      dup2\n      dup7\n      gas\n      staticcall\n      iszero\n      dup1\n      iszero\n      tag_320\n      jumpi\n      returndatasize\n      0x00\n      dup1\n      returndatacopy\n      revert(0x00, returndatasize)\n    tag_320:\n      pop\n      pop\n      pop\n      pop\n      mload(0x40)\n      returndatasize\n      not(0x1f)\n      0x1f\n      dup3\n      add\n      and\n      dup3\n      add\n      dup1\n      0x40\n      mstore\n      pop\n      dup2\n      add\n      swap1\n      tag_321\n      swap2\n      swap1\n      tag_158\n      jump\t// in\n    tag_321:\n        /* \"SafeArbTraderETH.sol\":5258:5305  address weth = IUniswapV2Router(router1).WETH() */\n      swap1\n      pop\n        /* \"SafeArbTraderETH.sol\":5316:5332  uint256 deadline */\n      0x00\n        /* \"SafeArbTraderETH.sol\":5353:5356  300 */\n      0x012c\n        /* \"SafeArbTraderETH.sol\":5335:5350  block.timestamp */\n      timestamp\n        /* \"SafeArbTraderETH.sol\":5335:5356  block.timestamp + 300 */\n      tag_322\n      swap2\n      swap1\n      tag_315\n      jump\t// in\n    tag_322:\n        /* \"SafeArbTraderETH.sol\":5316:5356  uint256 deadline = block.timestamp + 300 */\n      swap1\n      pop\n        /* \"SafeArbTraderETH.sol\":5428:5450  address[] memory path1 */\n      0x00\n        /* \"SafeArbTraderETH.sol\":5467:5468  2 */\n      0x02\n        /* \"SafeArbTraderETH.sol\":5453:5469  new address[](2) */\n      0xffffffffffffffff\n      dup2\n      gt\n      iszero\n      tag_323\n      jumpi\n      tag_324\n      tag_161\n      jump\t// in\n    tag_324:\n    tag_323:\n      mload(0x40)\n      swap1\n      dup1\n      dup3\n      mstore\n      dup1\n      0x20\n      mul\n      0x20\n      add\n      dup3\n      add\n      0x40\n      mstore\n      dup1\n      iszero\n      tag_325\n      jumpi\n      dup2\n      0x20\n      add\n      0x20\n      dup3\n      mul\n      dup1\n      calldatasize\n      dup4\n      calldatacopy\n      dup1\n      dup3\n      add\n      swap2\n      pop\n      pop\n      swap1\n      pop\n    tag_325:\n      pop\n        /* \"SafeArbTraderETH.sol\":5428:5469  address[] memory path1 = new address[](2) */\n      swap1\n      pop\n        /* \"SafeArbTraderETH.sol\":5491:5495  weth */\n      dup3\n        /* \"SafeArbTraderETH.sol\":5480:5485  path1 */\n      dup2\n        /* \"SafeArbTraderETH.sol\":5486:5487  0 */\n      0x00\n        /* \"SafeArbTraderETH.sol\":5480:5488  path1[0] */\n      dup2\n      mload\n      dup2\n      lt\n      tag_326\n      jumpi\n      tag_327\n      tag_165\n      jump\t// in\n    tag_327:\n    tag_326:\n      0x20\n      mul\n      0x20\n      add\n      add\n        /* \"SafeArbTraderETH.sol\":5480:5495  path1[0] = weth */\n      swap1\n      0xffffffffffffffffffffffffffffffffffffffff\n      and\n      swap1\n      dup2\n      0xffffffffffffffffffffffffffffffffffffffff\n      and\n      dup2\n      mstore\n      pop\n      pop\n        /* \"SafeArbTraderETH.sol\":5517:5522  token */\n      dup7\n        /* \"SafeArbTraderETH.sol\":5506:5511  path1 */\n      dup2\n        /* \"SafeArbTraderETH.sol\":5512:5513  1 */\n      0x01\n        /* \"SafeArbTraderETH.sol\":5506:5514  path1[1] */\n      dup2\n      mload\n      dup2\n      lt\n      tag_328\n      jumpi\n      tag_329\n      tag_165\n      jump\t// in\n    tag_329:\n    tag_328:\n      0x20\n      mul\n      0x20\n      add\n      add\n        /* \"SafeArbTraderETH.sol\":5506:5522  path1[1] = token */\n      swap1\n      0xffffffffffffffffffffffffffffffffffffffff\n      and\n      swap1\n      dup2\n      0xffffffffffffffffffffffffffffffffffffffff\n      and\n      dup2\n      mstore\n      pop\n      pop\n        /* \"SafeArbTraderETH.sol\":5535:5560  uint256[] memory amounts1 */\n      0x00\n        /* \"SafeArbTraderETH.sol\":5580:5587  router1 */\n      dup10\n        /* \"SafeArbTraderETH.sol\":5563:5610  IUniswapV2Router(router1).swapExactETHForTokens */\n      0xffffffffffffffffffffffffffffffffffffffff\n      and\n      0x7ff36ab5\n        /* \"SafeArbTraderETH.sol\":5618:5628  ethToTrade */\n      dup7\n        /* \"SafeArbTraderETH.sol\":5644:5645  0 */\n      0x00\n        /* \"SafeArbTraderETH.sol\":5691:5696  path1 */\n      dup6\n        /* \"SafeArbTraderETH.sol\":5719:5723  this */\n      address\n        /* \"SafeArbTraderETH.sol\":5739:5747  deadline */\n      dup9\n        /* \"SafeArbTraderETH.sol\":5563:5758  IUniswapV2Router(router1).swapExactETHForTokens{value: ethToTrade}(... */\n      mload(0x40)\n      dup7\n      0xffffffff\n      and\n      0xe0\n      shl\n      dup2\n      mstore\n      0x04\n      add\n      tag_330\n      swap5\n      swap4\n      swap3\n      swap2\n      swap1\n      tag_331\n      jump\t// in\n    tag_330:\n      0x00\n      mload(0x40)\n      dup1\n      dup4\n      sub\n      dup2\n      dup6\n      dup9\n      gas\n      call\n      iszero\n      dup1\n      iszero\n      tag_333\n      jumpi\n      returndatasize\n      0x00\n      dup1\n      returndatacopy\n      revert(0x00, returndatasize)\n    tag_333:\n      pop\n      pop\n      pop\n      pop\n      pop\n      mload(0x40)\n      returndatasize\n      0x00\n      dup3\n      returndatacopy\n      returndatasize\n      not(0x1f)\n      0x1f\n      dup3\n      add\n      and\n      dup3\n      add\n      dup1\n      0x40\n      mstore\n      pop\n      dup2\n      add\n      swap1\n      tag_334\n      swap2\n      swap1\n      tag_173\n      jump\t// in\n    tag_334:\n        /* \"SafeArbTraderETH.sol\":5535:5758  uint256[] memory amounts1 = IUniswapV2Router(router1).swapExactETHForTokens{value: ethToTrade}(... */\n      swap1\n      pop\n        /* \"SafeArbTraderETH.sol\":5818:5838  uint256 tokenBalance */\n      0x00\n        /* \"SafeArbTraderETH.sol\":5848:5853  token */\n      dup9\n        /* \"SafeArbTraderETH.sol\":5841:5864  IERC20(token).balanceOf */\n      0xffffffffffffffffffffffffffffffffffffffff\n      and\n      0x70a08231\n        /* \"SafeArbTraderETH.sol\":5873:5877  this */\n      address\n        /* \"SafeArbTraderETH.sol\":5841:5879  IERC20(token).balanceOf(address(this)) */\n      mload(0x40)\n      dup3\n      0xffffffff\n      and\n      0xe0\n      shl\n      dup2\n      mstore\n      0x04\n      add\n      tag_335\n      swap2\n      swap1\n      tag_92\n      jump\t// in\n    tag_335:\n      0x20\n      mload(0x40)\n      dup1\n      dup4\n      sub\n      dup2\n      dup7\n      gas\n      staticcall\n      iszero\n      dup1\n      iszero\n      tag_337\n      jumpi\n      returndatasize\n      0x00\n      dup1\n      returndatacopy\n      revert(0x00, returndatasize)\n    tag_337:\n      pop\n      pop\n      pop\n      pop\n      mload(0x40)\n      returndatasize\n      not(0x1f)\n      0x1f\n      dup3\n      add\n      and\n      dup3\n      add\n      dup1\n      0x40\n      mstore\n      pop\n      dup2\n      add\n      swap1\n      tag_338\n      swap2\n      swap1\n      tag_233\n      jump\t// in\n    tag_338:\n        /* \"SafeArbTraderETH.sol\":5818:5879  uint256 tokenBalance = IERC20(token).balanceOf(address(this)) */\n      swap1\n      pop\n        /* \"SafeArbTraderETH.sol\":5957:5962  token */\n      dup9\n        /* \"SafeArbTraderETH.sol\":5950:5971  IERC20(token).approve */\n      0xffffffffffffffffffffffffffffffffffffffff\n      and\n      0x095ea7b3\n        /* \"SafeArbTraderETH.sol\":5972:5979  router2 */\n      dup12\n        /* \"SafeArbTraderETH.sol\":5981:5993  tokenBalance */\n      dup4\n        /* \"SafeArbTraderETH.sol\":5950:5994  IERC20(token).approve(router2, tokenBalance) */\n      mload(0x40)\n      dup4\n      0xffffffff\n      and\n      0xe0\n      shl\n      dup2\n      mstore\n      0x04\n      add\n      tag_339\n      swap3\n      swap2\n      swap1\n      tag_236\n      jump\t// in\n    tag_339:\n      0x20\n      mload(0x40)\n      dup1\n      dup4\n      sub\n      dup2\n      0x00\n      dup8\n      gas\n      call\n      iszero\n      dup1\n      iszero\n      tag_341\n      jumpi\n      returndatasize\n      0x00\n      dup1\n      returndatacopy\n      revert(0x00, returndatasize)\n    tag_341:\n      pop\n      pop\n      pop\n      pop\n      mload(0x40)\n      returndatasize\n      not(0x1f)\n      0x1f\n      dup3\n      add\n      and\n      dup3\n      add\n      dup1\n      0x40\n      mstore\n      pop\n      dup2\n      add\n      swap1\n      tag_342\n      swap2\n      swap1\n      tag_240\n      jump\t// in\n    tag_342:\n      pop\n        /* \"SafeArbTraderETH.sol\":6045:6067  address[] memory path2 */\n      0x00\n        /* \"SafeArbTraderETH.sol\":6084:6085  2 */\n      0x02\n        /* \"SafeArbTraderETH.sol\":6070:6086  new address[](2) */\n      0xffffffffffffffff\n      dup2\n      gt\n      iszero\n      tag_343\n      jumpi\n      tag_344\n      tag_161\n      jump\t// in\n    tag_344:\n    tag_343:\n      mload(0x40)\n      swap1\n      dup1\n      dup3\n      mstore\n      dup1\n      0x20\n      mul\n      0x20\n      add\n      dup3\n      add\n      0x40\n      mstore\n      dup1\n      iszero\n      tag_345\n      jumpi\n      dup2\n      0x20\n      add\n      0x20\n      dup3\n      mul\n      dup1\n      calldatasize\n      dup4\n      calldatacopy\n      dup1\n      dup3\n      add\n      swap2\n      pop\n      pop\n      swap1\n      pop\n    tag_345:\n      pop\n        /* \"SafeArbTraderETH.sol\":6045:6086  address[] memory path2 = new address[](2) */\n      swap1\n      pop\n        /* \"SafeArbTraderETH.sol\":6108:6113  token */\n      dup10\n        /* \"SafeArbTraderETH.sol\":6097:6102  path2 */\n      dup2\n        /* \"SafeArbTraderETH.sol\":6103:6104  0 */\n      0x00\n        /* \"SafeArbTraderETH.sol\":6097:6105  path2[0] */\n      dup2\n      mload\n      dup2\n      lt\n      tag_346\n      jumpi\n      tag_347\n      tag_165\n      jump\t// in\n    tag_347:\n    tag_346:\n      0x20\n      mul\n      0x20\n      add\n      add\n        /* \"SafeArbTraderETH.sol\":6097:6113  path2[0] = token */\n      swap1\n      0xffffffffffffffffffffffffffffffffffffffff\n      and\n      swap1\n      dup2\n      0xffffffffffffffffffffffffffffffffffffffff\n      and\n      dup2\n      mstore\n      pop\n      pop\n        /* \"SafeArbTraderETH.sol\":6135:6139  weth */\n      dup6\n        /* \"SafeArbTraderETH.sol\":6124:6129  path2 */\n      dup2\n        /* \"SafeArbTraderETH.sol\":6130:6131  1 */\n      0x01\n        /* \"SafeArbTraderETH.sol\":6124:6132  path2[1] */\n      dup2\n      mload\n      dup2\n      lt\n      tag_348\n      jumpi\n      tag_349\n      tag_165\n      jump\t// in\n    tag_349:\n    tag_348:\n      0x20\n      mul\n      0x20\n      add\n      add\n        /* \"SafeArbTraderETH.sol\":6124:6139  path2[1] = weth */\n      swap1\n      0xffffffffffffffffffffffffffffffffffffffff\n      and\n      swap1\n      dup2\n      0xffffffffffffffffffffffffffffffffffffffff\n      and\n      dup2\n      mstore\n      pop\n      pop\n        /* \"SafeArbTraderETH.sol\":6152:6177  uint256[] memory amounts2 */\n      0x00\n        /* \"SafeArbTraderETH.sol\":6197:6204  router2 */\n      dup12\n        /* \"SafeArbTraderETH.sol\":6180:6227  IUniswapV2Router(router2).swapExactTokensForETH */\n      0xffffffffffffffffffffffffffffffffffffffff\n      and\n      0x18cbafe5\n        /* \"SafeArbTraderETH.sol\":6242:6254  tokenBalance */\n      dup5\n        /* \"SafeArbTraderETH.sol\":6282:6291  minProfit */\n      dup13\n        /* \"SafeArbTraderETH.sol\":6269:6279  ethToTrade */\n      dup12\n        /* \"SafeArbTraderETH.sol\":6269:6291  ethToTrade + minProfit */\n      tag_350\n      swap2\n      swap1\n      tag_315\n      jump\t// in\n    tag_350:\n        /* \"SafeArbTraderETH.sol\":6331:6336  path2 */\n      dup6\n        /* \"SafeArbTraderETH.sol\":6359:6363  this */\n      address\n        /* \"SafeArbTraderETH.sol\":6379:6387  deadline */\n      dup12\n        /* \"SafeArbTraderETH.sol\":6180:6398  IUniswapV2Router(router2).swapExactTokensForETH(... */\n      mload(0x40)\n      dup7\n      0xffffffff\n      and\n      0xe0\n      shl\n      dup2\n      mstore\n      0x04\n      add\n      tag_351\n      swap6\n      swap5\n      swap4\n      swap3\n      swap2\n      swap1\n      tag_352\n      jump\t// in\n    tag_351:\n      0x00\n      mload(0x40)\n      dup1\n      dup4\n      sub\n      dup2\n      0x00\n      dup8\n      gas\n      call\n      iszero\n      dup1\n      iszero\n      tag_354\n      jumpi\n      returndatasize\n      0x00\n      dup1\n      returndatacopy\n      revert(0x00, returndatasize)\n    tag_354:\n      pop\n      pop\n      pop\n      pop\n      mload(0x40)\n      returndatasize\n      0x00\n      dup3\n      returndatacopy\n      returndatasize\n      not(0x1f)\n      0x1f\n      dup3\n      add\n      and\n      dup3\n      add\n      dup1\n      0x40\n      mstore\n      pop\n      dup2\n      add\n      swap1\n      tag_355\n      swap2\n      swap1\n      tag_173\n      jump\t// in\n    tag_355:\n        /* \"SafeArbTraderETH.sol\":6152:6398  uint256[] memory amounts2 = IUniswapV2Router(router2).swapExactTokensForETH(... */\n      swap1\n      pop\n        /* \"SafeArbTraderETH.sol\":6440:6460  uint256 finalBalance */\n      0x00\n        /* \"SafeArbTraderETH.sol\":6463:6484  address(this).balance */\n      selfbalance\n        /* \"SafeArbTraderETH.sol\":6440:6484  uint256 finalBalance = address(this).balance */\n      swap1\n      pop\n        /* \"SafeArbTraderETH.sol\":6518:6528  ethToTrade */\n      dup9\n        /* \"SafeArbTraderETH.sol\":6503:6515  finalBalance */\n      dup2\n        /* \"SafeArbTraderETH.sol\":6503:6528  finalBalance > ethToTrade */\n      gt\n        /* \"SafeArbTraderETH.sol\":6495:6547  require(finalBalance > ethToTrade, \"No profit made\") */\n      tag_356\n      jumpi\n      mload(0x40)\n      0x08c379a000000000000000000000000000000000000000000000000000000000\n      dup2\n      mstore\n      0x04\n      add\n      tag_357\n      swap1\n      tag_358\n      jump\t// in\n    tag_357:\n      mload(0x40)\n      dup1\n      swap2\n      sub\n      swap1\n      revert\n    tag_356:\n        /* \"SafeArbTraderETH.sol\":6558:6572  uint256 profit */\n      0x00\n        /* \"SafeArbTraderETH.sol\":6590:6600  ethToTrade */\n      dup10\n        /* \"SafeArbTraderETH.sol\":6575:6587  finalBalance */\n      dup3\n        /* \"SafeArbTraderETH.sol\":6575:6600  finalBalance - ethToTrade */\n      tag_359\n      swap2\n      swap1\n      tag_193\n      jump\t// in\n    tag_359:\n        /* \"SafeArbTraderETH.sol\":6558:6600  uint256 profit = finalBalance - ethToTrade */\n      swap1\n      pop\n        /* \"SafeArbTraderETH.sol\":6629:6638  minProfit */\n      dup12\n        /* \"SafeArbTraderETH.sol\":6619:6625  profit */\n      dup2\n        /* \"SafeArbTraderETH.sol\":6619:6638  profit >= minProfit */\n      lt\n      iszero\n        /* \"SafeArbTraderETH.sol\":6611:6662  require(profit >= minProfit, \"Insufficient profit\") */\n      tag_360\n      jumpi\n      mload(0x40)\n      0x08c379a000000000000000000000000000000000000000000000000000000000\n      dup2\n      mstore\n      0x04\n      add\n      tag_361\n      swap1\n      tag_362\n      jump\t// in\n    tag_361:\n      mload(0x40)\n      dup1\n      swap2\n      sub\n      swap1\n      revert\n    tag_360:\n        /* \"SafeArbTraderETH.sol\":6695:6710  block.timestamp */\n      timestamp\n        /* \"SafeArbTraderETH.sol\":6675:6692  lastExecutionTime */\n      0x08\n        /* \"SafeArbTraderETH.sol\":6675:6710  lastExecutionTime = block.timestamp */\n      dup2\n      swap1\n      sstore\n      pop\n        /* \"SafeArbTraderETH.sol\":6748:6753  token */\n      dup13\n        /* \"SafeArbTraderETH.sol\":6736:6788  ArbExecuted(token, ethToTrade, finalBalance, profit) */\n      0xffffffffffffffffffffffffffffffffffffffff\n      and\n      0x67d289db9c9172dcc30bb1eb4d3288969aee73297a720ba599c033df5ad4b478\n        /* \"SafeArbTraderETH.sol\":6755:6765  ethToTrade */\n      dup12\n        /* \"SafeArbTraderETH.sol\":6767:6779  finalBalance */\n      dup5\n        /* \"SafeArbTraderETH.sol\":6781:6787  profit */\n      dup5\n        /* \"SafeArbTraderETH.sol\":6736:6788  ArbExecuted(token, ethToTrade, finalBalance, profit) */\n      mload(0x40)\n      tag_363\n      swap4\n      swap3\n      swap2\n      swap1\n      tag_364\n      jump\t// in\n    tag_363:\n      mload(0x40)\n      dup1\n      swap2\n      sub\n      swap1\n      log2\n        /* \"SafeArbTraderETH.sol\":6806:6810  true */\n      0x01\n        /* \"SafeArbTraderETH.sol\":6799:6810  return true */\n      swap11\n      pop\n      pop\n      pop\n      pop\n      pop\n      pop\n      pop\n      pop\n      pop\n      pop\n      pop\n        /* \"@openzeppelin/contracts/security/ReentrancyGuard.sol\":2303:2323  _nonReentrantAfter() */\n      tag_365\n        /* \"@openzeppelin/contracts/security/ReentrancyGuard.sol\":2303:2321  _nonReentrantAfter */\n      tag_366\n        /* \"@openzeppelin/contracts/security/ReentrancyGuard.sol\":2303:2323  _nonReentrantAfter() */\n      jump\t// in\n    tag_365:\n        /* \"SafeArbTraderETH.sol\":4660:6818  function executeETHArbitrage(... */\n      swap5\n      swap4\n      pop\n      pop\n      pop\n      pop\n      jump\t// out\n        /* \"@openzeppelin/contracts/utils/Context.sol\":656:752  function _msgSender() internal view virtual returns (address) {... */\n    tag_282:\n        /* \"@openzeppelin/contracts/utils/Context.sol\":709:716  address */\n      0x00\n        /* \"@openzeppelin/contracts/utils/Context.sol\":735:745  msg.sender */\n      caller\n        /* \"@openzeppelin/contracts/utils/Context.sol\":728:745  return msg.sender */\n      swap1\n      pop\n        /* \"@openzeppelin/contracts/utils/Context.sol\":656:752  function _msgSender() internal view virtual returns (address) {... */\n      swap1\n      jump\t// out\n        /* \"@openzeppelin/contracts/security/Pausable.sol\":1945:2051  function _requirePaused() internal view virtual {... */\n    tag_289:\n        /* \"@openzeppelin/contracts/security/Pausable.sol\":2011:2019  paused() */\n      tag_369\n        /* \"@openzeppelin/contracts/security/Pausable.sol\":2011:2017  paused */\n      tag_71\n        /* \"@openzeppelin/contracts/security/Pausable.sol\":2011:2019  paused() */\n      jump\t// in\n    tag_369:\n        /* \"@openzeppelin/contracts/security/Pausable.sol\":2003:2044  require(paused(), \"Pausable: not paused\") */\n      tag_370\n      jumpi\n      mload(0x40)\n      0x08c379a000000000000000000000000000000000000000000000000000000000\n      dup2\n      mstore\n      0x04\n      add\n      tag_371\n      swap1\n      tag_372\n      jump\t// in\n    tag_371:\n      mload(0x40)\n      dup1\n      swap2\n      sub\n      swap1\n      revert\n    tag_370:\n        /* \"@openzeppelin/contracts/security/Pausable.sol\":1945:2051  function _requirePaused() internal view virtual {... */\n      jump\t// out\n        /* \"@openzeppelin/contracts/security/Pausable.sol\":1767:1873  function _requireNotPaused() internal view virtual {... */\n    tag_296:\n        /* \"@openzeppelin/contracts/security/Pausable.sol\":1837:1845  paused() */\n      tag_374\n        /* \"@openzeppelin/contracts/security/Pausable.sol\":1837:1843  paused */\n      tag_71\n        /* \"@openzeppelin/contracts/security/Pausable.sol\":1837:1845  paused() */\n      jump\t// in\n    tag_374:\n        /* \"@openzeppelin/contracts/security/Pausable.sol\":1836:1845  !paused() */\n      iszero\n        /* \"@openzeppelin/contracts/security/Pausable.sol\":1828:1866  require(!paused(), \"Pausable: paused\") */\n      tag_375\n      jumpi\n      mload(0x40)\n      0x08c379a000000000000000000000000000000000000000000000000000000000\n      dup2\n      mstore\n      0x04\n      add\n      tag_376\n      swap1\n      tag_377\n      jump\t// in\n    tag_376:\n      mload(0x40)\n      dup1\n      swap2\n      sub\n      swap1\n      revert\n    tag_375:\n        /* \"@openzeppelin/contracts/security/Pausable.sol\":1767:1873  function _requireNotPaused() internal view virtual {... */\n      jump\t// out\n        /* \"@openzeppelin/contracts/security/ReentrancyGuard.sol\":2336:2623  function _nonReentrantBefore() private {... */\n    tag_302:\n        /* \"@openzeppelin/contracts/security/ReentrancyGuard.sol\":1759:1760  2 */\n      0x02\n        /* \"@openzeppelin/contracts/security/ReentrancyGuard.sol\":2468:2475  _status */\n      sload(0x01)\n        /* \"@openzeppelin/contracts/security/ReentrancyGuard.sol\":2468:2487  _status != _ENTERED */\n      sub\n        /* \"@openzeppelin/contracts/security/ReentrancyGuard.sol\":2460:2523  require(_status != _ENTERED, \"ReentrancyGuard: reentrant call\") */\n      tag_379\n      jumpi\n      mload(0x40)\n      0x08c379a000000000000000000000000000000000000000000000000000000000\n      dup2\n      mstore\n      0x04\n      add\n      tag_380\n      swap1\n      tag_381\n      jump\t// in\n    tag_380:\n      mload(0x40)\n      dup1\n      swap2\n      sub\n      swap1\n      revert\n    tag_379:\n        /* \"@openzeppelin/contracts/security/ReentrancyGuard.sol\":1759:1760  2 */\n      0x02\n        /* \"@openzeppelin/contracts/security/ReentrancyGuard.sol\":2598:2605  _status */\n      0x01\n        /* \"@openzeppelin/contracts/security/ReentrancyGuard.sol\":2598:2616  _status = _ENTERED */\n      dup2\n      swap1\n      sstore\n      pop\n        /* \"@openzeppelin/contracts/security/ReentrancyGuard.sol\":2336:2623  function _nonReentrantBefore() private {... */\n      jump\t// out\n        /* \"@openzeppelin/contracts/security/ReentrancyGuard.sol\":2629:2838  function _nonReentrantAfter() private {... */\n    tag_366:\n        /* \"@openzeppelin/contracts/security/ReentrancyGuard.sol\":1716:1717  1 */\n      0x01\n        /* \"@openzeppelin/contracts/security/ReentrancyGuard.sol\":2809:2816  _status */\n      dup1\n        /* \"@openzeppelin/contracts/security/ReentrancyGuard.sol\":2809:2831  _status = _NOT_ENTERED */\n      dup2\n      swap1\n      sstore\n      pop\n        /* \"@openzeppelin/contracts/security/ReentrancyGuard.sol\":2629:2838  function _nonReentrantAfter() private {... */\n      jump\t// out\n        /* \"#utility.yul\":7:82   */\n    tag_383:\n        /* \"#utility.yul\":40:46   */\n      0x00\n        /* \"#utility.yul\":73:75   */\n      0x40\n        /* \"#utility.yul\":67:76   */\n      mload\n        /* \"#utility.yul\":57:76   */\n      swap1\n      pop\n        /* \"#utility.yul\":7:82   */\n      swap1\n      jump\t// out\n        /* \"#utility.yul\":88:205   */\n    tag_384:\n        /* \"#utility.yul\":197:198   */\n      0x00\n        /* \"#utility.yul\":194:195   */\n      dup1\n        /* \"#utility.yul\":187:199   */\n      revert\n        /* \"#utility.yul\":211:328   */\n    tag_385:\n        /* \"#utility.yul\":320:321   */\n      0x00\n        /* \"#utility.yul\":317:318   */\n      dup1\n        /* \"#utility.yul\":310:322   */\n      revert\n        /* \"#utility.yul\":334:460   */\n    tag_386:\n        /* \"#utility.yul\":371:378   */\n      0x00\n        /* \"#utility.yul\":411:453   */\n      0xffffffffffffffffffffffffffffffffffffffff\n        /* \"#utility.yul\":404:409   */\n      dup3\n        /* \"#utility.yul\":400:454   */\n      and\n        /* \"#utility.yul\":389:454   */\n      swap1\n      pop\n        /* \"#utility.yul\":334:460   */\n      swap2\n      swap1\n      pop\n      jump\t// out\n        /* \"#utility.yul\":466:562   */\n    tag_387:\n        /* \"#utility.yul\":503:510   */\n      0x00\n        /* \"#utility.yul\":532:556   */\n      tag_467\n        /* \"#utility.yul\":550:555   */\n      dup3\n        /* \"#utility.yul\":532:556   */\n      tag_386\n      jump\t// in\n    tag_467:\n        /* \"#utility.yul\":521:556   */\n      swap1\n      pop\n        /* \"#utility.yul\":466:562   */\n      swap2\n      swap1\n      pop\n      jump\t// out\n        /* \"#utility.yul\":568:690   */\n    tag_388:\n        /* \"#utility.yul\":641:665   */\n      tag_469\n        /* \"#utility.yul\":659:664   */\n      dup2\n        /* \"#utility.yul\":641:665   */\n      tag_387\n      jump\t// in\n    tag_469:\n        /* \"#utility.yul\":634:639   */\n      dup2\n        /* \"#utility.yul\":631:666   */\n      eq\n        /* \"#utility.yul\":621:684   */\n      tag_470\n      jumpi\n        /* \"#utility.yul\":680:681   */\n      0x00\n        /* \"#utility.yul\":677:678   */\n      dup1\n        /* \"#utility.yul\":670:682   */\n      revert\n        /* \"#utility.yul\":621:684   */\n    tag_470:\n        /* \"#utility.yul\":568:690   */\n      pop\n      jump\t// out\n        /* \"#utility.yul\":696:835   */\n    tag_389:\n        /* \"#utility.yul\":742:747   */\n      0x00\n        /* \"#utility.yul\":780:786   */\n      dup2\n        /* \"#utility.yul\":767:787   */\n      calldataload\n        /* \"#utility.yul\":758:787   */\n      swap1\n      pop\n        /* \"#utility.yul\":796:829   */\n      tag_472\n        /* \"#utility.yul\":823:828   */\n      dup2\n        /* \"#utility.yul\":796:829   */\n      tag_388\n      jump\t// in\n    tag_472:\n        /* \"#utility.yul\":696:835   */\n      swap3\n      swap2\n      pop\n      pop\n      jump\t// out\n        /* \"#utility.yul\":841:931   */\n    tag_390:\n        /* \"#utility.yul\":875:882   */\n      0x00\n        /* \"#utility.yul\":918:923   */\n      dup2\n        /* \"#utility.yul\":911:924   */\n      iszero\n        /* \"#utility.yul\":904:925   */\n      iszero\n        /* \"#utility.yul\":893:925   */\n      swap1\n      pop\n        /* \"#utility.yul\":841:931   */\n      swap2\n      swap1\n      pop\n      jump\t// out\n        /* \"#utility.yul\":937:1053   */\n    tag_391:\n        /* \"#utility.yul\":1007:1028   */\n      tag_475\n        /* \"#utility.yul\":1022:1027   */\n      dup2\n        /* \"#utility.yul\":1007:1028   */\n      tag_390\n      jump\t// in\n    tag_475:\n        /* \"#utility.yul\":1000:1005   */\n      dup2\n        /* \"#utility.yul\":997:1029   */\n      eq\n        /* \"#utility.yul\":987:1047   */\n      tag_476\n      jumpi\n        /* \"#utility.yul\":1043:1044   */\n      0x00\n        /* \"#utility.yul\":1040:1041   */\n      dup1\n        /* \"#utility.yul\":1033:1045   */\n      revert\n        /* \"#utility.yul\":987:1047   */\n    tag_476:\n        /* \"#utility.yul\":937:1053   */\n      pop\n      jump\t// out\n        /* \"#utility.yul\":1059:1192   */\n    tag_392:\n        /* \"#utility.yul\":1102:1107   */\n      0x00\n        /* \"#utility.yul\":1140:1146   */\n      dup2\n        /* \"#utility.yul\":1127:1147   */\n      calldataload\n        /* \"#utility.yul\":1118:1147   */\n      swap1\n      pop\n        /* \"#utility.yul\":1156:1186   */\n      tag_478\n        /* \"#utility.yul\":1180:1185   */\n      dup2\n        /* \"#utility.yul\":1156:1186   */\n      tag_391\n      jump\t// in\n    tag_478:\n        /* \"#utility.yul\":1059:1192   */\n      swap3\n      swap2\n      pop\n      pop\n      jump\t// out\n        /* \"#utility.yul\":1198:1666   */\n    tag_36:\n        /* \"#utility.yul\":1263:1269   */\n      0x00\n        /* \"#utility.yul\":1271:1277   */\n      dup1\n        /* \"#utility.yul\":1320:1322   */\n      0x40\n        /* \"#utility.yul\":1308:1317   */\n      dup4\n        /* \"#utility.yul\":1299:1306   */\n      dup6\n        /* \"#utility.yul\":1295:1318   */\n      sub\n        /* \"#utility.yul\":1291:1323   */\n      slt\n        /* \"#utility.yul\":1288:1407   */\n      iszero\n      tag_480\n      jumpi\n        /* \"#utility.yul\":1326:1405   */\n      tag_481\n      tag_384\n      jump\t// in\n    tag_481:\n        /* \"#utility.yul\":1288:1407   */\n    tag_480:\n        /* \"#utility.yul\":1446:1447   */\n      0x00\n        /* \"#utility.yul\":1471:1524   */\n      tag_482\n        /* \"#utility.yul\":1516:1523   */\n      dup6\n        /* \"#utility.yul\":1507:1513   */\n      dup3\n        /* \"#utility.yul\":1496:1505   */\n      dup7\n        /* \"#utility.yul\":1492:1514   */\n      add\n        /* \"#utility.yul\":1471:1524   */\n      tag_389\n      jump\t// in\n    tag_482:\n        /* \"#utility.yul\":1461:1524   */\n      swap3\n      pop\n        /* \"#utility.yul\":1417:1534   */\n      pop\n        /* \"#utility.yul\":1573:1575   */\n      0x20\n        /* \"#utility.yul\":1599:1649   */\n      tag_483\n        /* \"#utility.yul\":1641:1648   */\n      dup6\n        /* \"#utility.yul\":1632:1638   */\n      dup3\n        /* \"#utility.yul\":1621:1630   */\n      dup7\n        /* \"#utility.yul\":1617:1639   */\n      add\n        /* \"#utility.yul\":1599:1649   */\n      tag_392\n      jump\t// in\n    tag_483:\n        /* \"#utility.yul\":1589:1649   */\n      swap2\n      pop\n        /* \"#utility.yul\":1544:1659   */\n      pop\n        /* \"#utility.yul\":1198:1666   */\n      swap3\n      pop\n      swap3\n      swap1\n      pop\n      jump\t// out\n        /* \"#utility.yul\":1672:1749   */\n    tag_393:\n        /* \"#utility.yul\":1709:1716   */\n      0x00\n        /* \"#utility.yul\":1738:1743   */\n      dup2\n        /* \"#utility.yul\":1727:1743   */\n      swap1\n      pop\n        /* \"#utility.yul\":1672:1749   */\n      swap2\n      swap1\n      pop\n      jump\t// out\n        /* \"#utility.yul\":1755:1873   */\n    tag_394:\n        /* \"#utility.yul\":1842:1866   */\n      tag_486\n        /* \"#utility.yul\":1860:1865   */\n      dup2\n        /* \"#utility.yul\":1842:1866   */\n      tag_393\n      jump\t// in\n    tag_486:\n        /* \"#utility.yul\":1837:1840   */\n      dup3\n        /* \"#utility.yul\":1830:1867   */\n      mstore\n        /* \"#utility.yul\":1755:1873   */\n      pop\n      pop\n      jump\t// out\n        /* \"#utility.yul\":1879:2101   */\n    tag_42:\n        /* \"#utility.yul\":1972:1976   */\n      0x00\n        /* \"#utility.yul\":2010:2012   */\n      0x20\n        /* \"#utility.yul\":1999:2008   */\n      dup3\n        /* \"#utility.yul\":1995:2013   */\n      add\n        /* \"#utility.yul\":1987:2013   */\n      swap1\n      pop\n        /* \"#utility.yul\":2023:2094   */\n      tag_488\n        /* \"#utility.yul\":2091:2092   */\n      0x00\n        /* \"#utility.yul\":2080:2089   */\n      dup4\n        /* \"#utility.yul\":2076:2093   */\n      add\n        /* \"#utility.yul\":2067:2073   */\n      dup5\n        /* \"#utility.yul\":2023:2094   */\n      tag_394\n      jump\t// in\n    tag_488:\n        /* \"#utility.yul\":1879:2101   */\n      swap3\n      swap2\n      pop\n      pop\n      jump\t// out\n        /* \"#utility.yul\":2107:2229   */\n    tag_395:\n        /* \"#utility.yul\":2180:2204   */\n      tag_490\n        /* \"#utility.yul\":2198:2203   */\n      dup2\n        /* \"#utility.yul\":2180:2204   */\n      tag_393\n      jump\t// in\n    tag_490:\n        /* \"#utility.yul\":2173:2178   */\n      dup2\n        /* \"#utility.yul\":2170:2205   */\n      eq\n        /* \"#utility.yul\":2160:2223   */\n      tag_491\n      jumpi\n        /* \"#utility.yul\":2219:2220   */\n      0x00\n        /* \"#utility.yul\":2216:2217   */\n      dup1\n        /* \"#utility.yul\":2209:2221   */\n      revert\n        /* \"#utility.yul\":2160:2223   */\n    tag_491:\n        /* \"#utility.yul\":2107:2229   */\n      pop\n      jump\t// out\n        /* \"#utility.yul\":2235:2374   */\n    tag_396:\n        /* \"#utility.yul\":2281:2286   */\n      0x00\n        /* \"#utility.yul\":2319:2325   */\n      dup2\n        /* \"#utility.yul\":2306:2326   */\n      calldataload\n        /* \"#utility.yul\":2297:2326   */\n      swap1\n      pop\n        /* \"#utility.yul\":2335:2368   */\n      tag_493\n        /* \"#utility.yul\":2362:2367   */\n      dup2\n        /* \"#utility.yul\":2335:2368   */\n      tag_395\n      jump\t// in\n    tag_493:\n        /* \"#utility.yul\":2235:2374   */\n      swap3\n      swap2\n      pop\n      pop\n      jump\t// out\n        /* \"#utility.yul\":2380:2709   */\n    tag_46:\n        /* \"#utility.yul\":2439:2445   */\n      0x00\n        /* \"#utility.yul\":2488:2490   */\n      0x20\n        /* \"#utility.yul\":2476:2485   */\n      dup3\n        /* \"#utility.yul\":2467:2474   */\n      dup5\n        /* \"#utility.yul\":2463:2486   */\n      sub\n        /* \"#utility.yul\":2459:2491   */\n      slt\n        /* \"#utility.yul\":2456:2575   */\n      iszero\n      tag_495\n      jumpi\n        /* \"#utility.yul\":2494:2573   */\n      tag_496\n      tag_384\n      jump\t// in\n    tag_496:\n        /* \"#utility.yul\":2456:2575   */\n    tag_495:\n        /* \"#utility.yul\":2614:2615   */\n      0x00\n        /* \"#utility.yul\":2639:2692   */\n      tag_497\n        /* \"#utility.yul\":2684:2691   */\n      dup5\n        /* \"#utility.yul\":2675:2681   */\n      dup3\n        /* \"#utility.yul\":2664:2673   */\n      dup6\n        /* \"#utility.yul\":2660:2682   */\n      add\n        /* \"#utility.yul\":2639:2692   */\n      tag_396\n      jump\t// in\n    tag_497:\n        /* \"#utility.yul\":2629:2692   */\n      swap2\n      pop\n        /* \"#utility.yul\":2585:2702   */\n      pop\n        /* \"#utility.yul\":2380:2709   */\n      swap3\n      swap2\n      pop\n      pop\n      jump\t// out\n        /* \"#utility.yul\":2715:3480   */\n    tag_51:\n        /* \"#utility.yul\":2801:2807   */\n      0x00\n        /* \"#utility.yul\":2809:2815   */\n      dup1\n        /* \"#utility.yul\":2817:2823   */\n      0x00\n        /* \"#utility.yul\":2825:2831   */\n      dup1\n        /* \"#utility.yul\":2874:2877   */\n      0x80\n        /* \"#utility.yul\":2862:2871   */\n      dup6\n        /* \"#utility.yul\":2853:2860   */\n      dup8\n        /* \"#utility.yul\":2849:2872   */\n      sub\n        /* \"#utility.yul\":2845:2878   */\n      slt\n        /* \"#utility.yul\":2842:2962   */\n      iszero\n      tag_499\n      jumpi\n        /* \"#utility.yul\":2881:2960   */\n      tag_500\n      tag_384\n      jump\t// in\n    tag_500:\n        /* \"#utility.yul\":2842:2962   */\n    tag_499:\n        /* \"#utility.yul\":3001:3002   */\n      0x00\n        /* \"#utility.yul\":3026:3079   */\n      tag_501\n        /* \"#utility.yul\":3071:3078   */\n      dup8\n        /* \"#utility.yul\":3062:3068   */\n      dup3\n        /* \"#utility.yul\":3051:3060   */\n      dup9\n        /* \"#utility.yul\":3047:3069   */\n      add\n        /* \"#utility.yul\":3026:3079   */\n      tag_389\n      jump\t// in\n    tag_501:\n        /* \"#utility.yul\":3016:3079   */\n      swap5\n      pop\n        /* \"#utility.yul\":2972:3089   */\n      pop\n        /* \"#utility.yul\":3128:3130   */\n      0x20\n        /* \"#utility.yul\":3154:3207   */\n      tag_502\n        /* \"#utility.yul\":3199:3206   */\n      dup8\n        /* \"#utility.yul\":3190:3196   */\n      dup3\n        /* \"#utility.yul\":3179:3188   */\n      dup9\n        /* \"#utility.yul\":3175:3197   */\n      add\n        /* \"#utility.yul\":3154:3207   */\n      tag_389\n      jump\t// in\n    tag_502:\n        /* \"#utility.yul\":3144:3207   */\n      swap4\n      pop\n        /* \"#utility.yul\":3099:3217   */\n      pop\n        /* \"#utility.yul\":3256:3258   */\n      0x40\n        /* \"#utility.yul\":3282:3335   */\n      tag_503\n        /* \"#utility.yul\":3327:3334   */\n      dup8\n        /* \"#utility.yul\":3318:3324   */\n      dup3\n        /* \"#utility.yul\":3307:3316   */\n      dup9\n        /* \"#utility.yul\":3303:3325   */\n      add\n        /* \"#utility.yul\":3282:3335   */\n      tag_389\n      jump\t// in\n    tag_503:\n        /* \"#utility.yul\":3272:3335   */\n      swap3\n      pop\n        /* \"#utility.yul\":3227:3345   */\n      pop\n        /* \"#utility.yul\":3384:3386   */\n      0x60\n        /* \"#utility.yul\":3410:3463   */\n      tag_504\n        /* \"#utility.yul\":3455:3462   */\n      dup8\n        /* \"#utility.yul\":3446:3452   */\n      dup3\n        /* \"#utility.yul\":3435:3444   */\n      dup9\n        /* \"#utility.yul\":3431:3453   */\n      add\n        /* \"#utility.yul\":3410:3463   */\n      tag_396\n      jump\t// in\n    tag_504:\n        /* \"#utility.yul\":3400:3463   */\n      swap2\n      pop\n        /* \"#utility.yul\":3355:3473   */\n      pop\n        /* \"#utility.yul\":2715:3480   */\n      swap3\n      swap6\n      swap2\n      swap5\n      pop\n      swap3\n      pop\n      jump\t// out\n        /* \"#utility.yul\":3486:3595   */\n    tag_397:\n        /* \"#utility.yul\":3567:3588   */\n      tag_506\n        /* \"#utility.yul\":3582:3587   */\n      dup2\n        /* \"#utility.yul\":3567:3588   */\n      tag_390\n      jump\t// in\n    tag_506:\n        /* \"#utility.yul\":3562:3565   */\n      dup3\n        /* \"#utility.yul\":3555:3589   */\n      mstore\n        /* \"#utility.yul\":3486:3595   */\n      pop\n      pop\n      jump\t// out\n        /* \"#utility.yul\":3601:3921   */\n    tag_54:\n        /* \"#utility.yul\":3716:3720   */\n      0x00\n        /* \"#utility.yul\":3754:3756   */\n      0x40\n        /* \"#utility.yul\":3743:3752   */\n      dup3\n        /* \"#utility.yul\":3739:3757   */\n      add\n        /* \"#utility.yul\":3731:3757   */\n      swap1\n      pop\n        /* \"#utility.yul\":3767:3832   */\n      tag_508\n        /* \"#utility.yul\":3829:3830   */\n      0x00\n        /* \"#utility.yul\":3818:3827   */\n      dup4\n        /* \"#utility.yul\":3814:3831   */\n      add\n        /* \"#utility.yul\":3805:3811   */\n      dup6\n        /* \"#utility.yul\":3767:3832   */\n      tag_397\n      jump\t// in\n    tag_508:\n        /* \"#utility.yul\":3842:3914   */\n      tag_509\n        /* \"#utility.yul\":3910:3912   */\n      0x20\n        /* \"#utility.yul\":3899:3908   */\n      dup4\n        /* \"#utility.yul\":3895:3913   */\n      add\n        /* \"#utility.yul\":3886:3892   */\n      dup5\n        /* \"#utility.yul\":3842:3914   */\n      tag_394\n      jump\t// in\n    tag_509:\n        /* \"#utility.yul\":3601:3921   */\n      swap4\n      swap3\n      pop\n      pop\n      pop\n      jump\t// out\n        /* \"#utility.yul\":3927:4256   */\n    tag_61:\n        /* \"#utility.yul\":3986:3992   */\n      0x00\n        /* \"#utility.yul\":4035:4037   */\n      0x20\n        /* \"#utility.yul\":4023:4032   */\n      dup3\n        /* \"#utility.yul\":4014:4021   */\n      dup5\n        /* \"#utility.yul\":4010:4033   */\n      sub\n        /* \"#utility.yul\":4006:4038   */\n      slt\n        /* \"#utility.yul\":4003:4122   */\n      iszero\n      tag_511\n      jumpi\n        /* \"#utility.yul\":4041:4120   */\n      tag_512\n      tag_384\n      jump\t// in\n    tag_512:\n        /* \"#utility.yul\":4003:4122   */\n    tag_511:\n        /* \"#utility.yul\":4161:4162   */\n      0x00\n        /* \"#utility.yul\":4186:4239   */\n      tag_513\n        /* \"#utility.yul\":4231:4238   */\n      dup5\n        /* \"#utility.yul\":4222:4228   */\n      dup3\n        /* \"#utility.yul\":4211:4220   */\n      dup6\n        /* \"#utility.yul\":4207:4229   */\n      add\n        /* \"#utility.yul\":4186:4239   */\n      tag_389\n      jump\t// in\n    tag_513:\n        /* \"#utility.yul\":4176:4239   */\n      swap2\n      pop\n        /* \"#utility.yul\":4132:4249   */\n      pop\n        /* \"#utility.yul\":3927:4256   */\n      swap3\n      swap2\n      pop\n      pop\n      jump\t// out\n        /* \"#utility.yul\":4262:4472   */\n    tag_64:\n        /* \"#utility.yul\":4349:4353   */\n      0x00\n        /* \"#utility.yul\":4387:4389   */\n      0x20\n        /* \"#utility.yul\":4376:4385   */\n      dup3\n        /* \"#utility.yul\":4372:4390   */\n      add\n        /* \"#utility.yul\":4364:4390   */\n      swap1\n      pop\n        /* \"#utility.yul\":4400:4465   */\n      tag_515\n        /* \"#utility.yul\":4462:4463   */\n      0x00\n        /* \"#utility.yul\":4451:4460   */\n      dup4\n        /* \"#utility.yul\":4447:4464   */\n      add\n        /* \"#utility.yul\":4438:4444   */\n      dup5\n        /* \"#utility.yul\":4400:4465   */\n      tag_397\n      jump\t// in\n    tag_515:\n        /* \"#utility.yul\":4262:4472   */\n      swap3\n      swap2\n      pop\n      pop\n      jump\t// out\n        /* \"#utility.yul\":4478:4596   */\n    tag_398:\n        /* \"#utility.yul\":4565:4589   */\n      tag_517\n        /* \"#utility.yul\":4583:4588   */\n      dup2\n        /* \"#utility.yul\":4565:4589   */\n      tag_387\n      jump\t// in\n    tag_517:\n        /* \"#utility.yul\":4560:4563   */\n      dup3\n        /* \"#utility.yul\":4553:4590   */\n      mstore\n        /* \"#utility.yul\":4478:4596   */\n      pop\n      pop\n      jump\t// out\n        /* \"#utility.yul\":4602:4824   */\n    tag_92:\n        /* \"#utility.yul\":4695:4699   */\n      0x00\n        /* \"#utility.yul\":4733:4735   */\n      0x20\n        /* \"#utility.yul\":4722:4731   */\n      dup3\n        /* \"#utility.yul\":4718:4736   */\n      add\n        /* \"#utility.yul\":4710:4736   */\n      swap1\n      pop\n        /* \"#utility.yul\":4746:4817   */\n      tag_519\n        /* \"#utility.yul\":4814:4815   */\n      0x00\n        /* \"#utility.yul\":4803:4812   */\n      dup4\n        /* \"#utility.yul\":4799:4816   */\n      add\n        /* \"#utility.yul\":4790:4796   */\n      dup5\n        /* \"#utility.yul\":4746:4817   */\n      tag_398\n      jump\t// in\n    tag_519:\n        /* \"#utility.yul\":4602:4824   */\n      swap3\n      swap2\n      pop\n      pop\n      jump\t// out\n        /* \"#utility.yul\":4830:5153   */\n    tag_100:\n        /* \"#utility.yul\":4886:4892   */\n      0x00\n        /* \"#utility.yul\":4935:4937   */\n      0x20\n        /* \"#utility.yul\":4923:4932   */\n      dup3\n        /* \"#utility.yul\":4914:4921   */\n      dup5\n        /* \"#utility.yul\":4910:4933   */\n      sub\n        /* \"#utility.yul\":4906:4938   */\n      slt\n        /* \"#utility.yul\":4903:5022   */\n      iszero\n      tag_521\n      jumpi\n        /* \"#utility.yul\":4941:5020   */\n      tag_522\n      tag_384\n      jump\t// in\n    tag_522:\n        /* \"#utility.yul\":4903:5022   */\n    tag_521:\n        /* \"#utility.yul\":5061:5062   */\n      0x00\n        /* \"#utility.yul\":5086:5136   */\n      tag_523\n        /* \"#utility.yul\":5128:5135   */\n      dup5\n        /* \"#utility.yul\":5119:5125   */\n      dup3\n        /* \"#utility.yul\":5108:5117   */\n      dup6\n        /* \"#utility.yul\":5104:5126   */\n      add\n        /* \"#utility.yul\":5086:5136   */\n      tag_392\n      jump\t// in\n    tag_523:\n        /* \"#utility.yul\":5076:5136   */\n      swap2\n      pop\n        /* \"#utility.yul\":5032:5146   */\n      pop\n        /* \"#utility.yul\":4830:5153   */\n      swap3\n      swap2\n      pop\n      pop\n      jump\t// out\n        /* \"#utility.yul\":5159:5778   */\n    tag_112:\n        /* \"#utility.yul\":5236:5242   */\n      0x00\n        /* \"#utility.yul\":5244:5250   */\n      dup1\n        /* \"#utility.yul\":5252:5258   */\n      0x00\n        /* \"#utility.yul\":5301:5303   */\n      0x60\n        /* \"#utility.yul\":5289:5298   */\n      dup5\n        /* \"#utility.yul\":5280:5287   */\n      dup7\n        /* \"#utility.yul\":5276:5299   */\n      sub\n        /* \"#utility.yul\":5272:5304   */\n      slt\n        /* \"#utility.yul\":5269:5388   */\n      iszero\n      tag_525\n      jumpi\n        /* \"#utility.yul\":5307:5386   */\n      tag_526\n      tag_384\n      jump\t// in\n    tag_526:\n        /* \"#utility.yul\":5269:5388   */\n    tag_525:\n        /* \"#utility.yul\":5427:5428   */\n      0x00\n        /* \"#utility.yul\":5452:5505   */\n      tag_527\n        /* \"#utility.yul\":5497:5504   */\n      dup7\n        /* \"#utility.yul\":5488:5494   */\n      dup3\n        /* \"#utility.yul\":5477:5486   */\n      dup8\n        /* \"#utility.yul\":5473:5495   */\n      add\n        /* \"#utility.yul\":5452:5505   */\n      tag_389\n      jump\t// in\n    tag_527:\n        /* \"#utility.yul\":5442:5505   */\n      swap4\n      pop\n        /* \"#utility.yul\":5398:5515   */\n      pop\n        /* \"#utility.yul\":5554:5556   */\n      0x20\n        /* \"#utility.yul\":5580:5633   */\n      tag_528\n        /* \"#utility.yul\":5625:5632   */\n      dup7\n        /* \"#utility.yul\":5616:5622   */\n      dup3\n        /* \"#utility.yul\":5605:5614   */\n      dup8\n        /* \"#utility.yul\":5601:5623   */\n      add\n        /* \"#utility.yul\":5580:5633   */\n      tag_389\n      jump\t// in\n    tag_528:\n        /* \"#utility.yul\":5570:5633   */\n      swap3\n      pop\n        /* \"#utility.yul\":5525:5643   */\n      pop\n        /* \"#utility.yul\":5682:5684   */\n      0x40\n        /* \"#utility.yul\":5708:5761   */\n      tag_529\n        /* \"#utility.yul\":5753:5760   */\n      dup7\n        /* \"#utility.yul\":5744:5750   */\n      dup3\n        /* \"#utility.yul\":5733:5742   */\n      dup8\n        /* \"#utility.yul\":5729:5751   */\n      add\n        /* \"#utility.yul\":5708:5761   */\n      tag_389\n      jump\t// in\n    tag_529:\n        /* \"#utility.yul\":5698:5761   */\n      swap2\n      pop\n        /* \"#utility.yul\":5653:5771   */\n      pop\n        /* \"#utility.yul\":5159:5778   */\n      swap3\n      pop\n      swap3\n      pop\n      swap3\n      jump\t// out\n        /* \"#utility.yul\":5784:5953   */\n    tag_399:\n        /* \"#utility.yul\":5868:5879   */\n      0x00\n        /* \"#utility.yul\":5902:5908   */\n      dup3\n        /* \"#utility.yul\":5897:5900   */\n      dup3\n        /* \"#utility.yul\":5890:5909   */\n      mstore\n        /* \"#utility.yul\":5942:5946   */\n      0x20\n        /* \"#utility.yul\":5937:5940   */\n      dup3\n        /* \"#utility.yul\":5933:5947   */\n      add\n        /* \"#utility.yul\":5918:5947   */\n      swap1\n      pop\n        /* \"#utility.yul\":5784:5953   */\n      swap3\n      swap2\n      pop\n      pop\n      jump\t// out\n        /* \"#utility.yul\":5959:6130   */\n    tag_400:\n        /* \"#utility.yul\":6099:6122   */\n      0x496e76616c696420746f6b656e20616464726573730000000000000000000000\n        /* \"#utility.yul\":6095:6096   */\n      0x00\n        /* \"#utility.yul\":6087:6093   */\n      dup3\n        /* \"#utility.yul\":6083:6097   */\n      add\n        /* \"#utility.yul\":6076:6123   */\n      mstore\n        /* \"#utility.yul\":5959:6130   */\n      pop\n      jump\t// out\n        /* \"#utility.yul\":6136:6502   */\n    tag_401:\n        /* \"#utility.yul\":6278:6281   */\n      0x00\n        /* \"#utility.yul\":6299:6366   */\n      tag_533\n        /* \"#utility.yul\":6363:6365   */\n      0x15\n        /* \"#utility.yul\":6358:6361   */\n      dup4\n        /* \"#utility.yul\":6299:6366   */\n      tag_399\n      jump\t// in\n    tag_533:\n        /* \"#utility.yul\":6292:6366   */\n      swap2\n      pop\n        /* \"#utility.yul\":6375:6468   */\n      tag_534\n        /* \"#utility.yul\":6464:6467   */\n      dup3\n        /* \"#utility.yul\":6375:6468   */\n      tag_400\n      jump\t// in\n    tag_534:\n        /* \"#utility.yul\":6493:6495   */\n      0x20\n        /* \"#utility.yul\":6488:6491   */\n      dup3\n        /* \"#utility.yul\":6484:6496   */\n      add\n        /* \"#utility.yul\":6477:6496   */\n      swap1\n      pop\n        /* \"#utility.yul\":6136:6502   */\n      swap2\n      swap1\n      pop\n      jump\t// out\n        /* \"#utility.yul\":6508:6927   */\n    tag_138:\n        /* \"#utility.yul\":6674:6678   */\n      0x00\n        /* \"#utility.yul\":6712:6714   */\n      0x20\n        /* \"#utility.yul\":6701:6710   */\n      dup3\n        /* \"#utility.yul\":6697:6715   */\n      add\n        /* \"#utility.yul\":6689:6715   */\n      swap1\n      pop\n        /* \"#utility.yul\":6761:6770   */\n      dup2\n        /* \"#utility.yul\":6755:6759   */\n      dup2\n        /* \"#utility.yul\":6751:6771   */\n      sub\n        /* \"#utility.yul\":6747:6748   */\n      0x00\n        /* \"#utility.yul\":6736:6745   */\n      dup4\n        /* \"#utility.yul\":6732:6749   */\n      add\n        /* \"#utility.yul\":6725:6772   */\n      mstore\n        /* \"#utility.yul\":6789:6920   */\n      tag_536\n        /* \"#utility.yul\":6915:6919   */\n      dup2\n        /* \"#utility.yul\":6789:6920   */\n      tag_401\n      jump\t// in\n    tag_536:\n        /* \"#utility.yul\":6781:6920   */\n      swap1\n      pop\n        /* \"#utility.yul\":6508:6927   */\n      swap2\n      swap1\n      pop\n      jump\t// out\n        /* \"#utility.yul\":6933:7253   */\n    tag_140:\n        /* \"#utility.yul\":7048:7052   */\n      0x00\n        /* \"#utility.yul\":7086:7088   */\n      0x40\n        /* \"#utility.yul\":7075:7084   */\n      dup3\n        /* \"#utility.yul\":7071:7089   */\n      add\n        /* \"#utility.yul\":7063:7089   */\n      swap1\n      pop\n        /* \"#utility.yul\":7099:7170   */\n      tag_538\n        /* \"#utility.yul\":7167:7168   */\n      0x00\n        /* \"#utility.yul\":7156:7165   */\n      dup4\n        /* \"#utility.yul\":7152:7169   */\n      add\n        /* \"#utility.yul\":7143:7149   */\n      dup6\n        /* \"#utility.yul\":7099:7170   */\n      tag_398\n      jump\t// in\n    tag_538:\n        /* \"#utility.yul\":7180:7246   */\n      tag_539\n        /* \"#utility.yul\":7242:7244   */\n      0x20\n        /* \"#utility.yul\":7231:7240   */\n      dup4\n        /* \"#utility.yul\":7227:7245   */\n      add\n        /* \"#utility.yul\":7218:7224   */\n      dup5\n        /* \"#utility.yul\":7180:7246   */\n      tag_397\n      jump\t// in\n    tag_539:\n        /* \"#utility.yul\":6933:7253   */\n      swap4\n      swap3\n      pop\n      pop\n      pop\n      jump\t// out\n        /* \"#utility.yul\":7259:7438   */\n    tag_402:\n        /* \"#utility.yul\":7399:7430   */\n      0x4d617267696e206d7573742062652067726561746572207468616e2030000000\n        /* \"#utility.yul\":7395:7396   */\n      0x00\n        /* \"#utility.yul\":7387:7393   */\n      dup3\n        /* \"#utility.yul\":7383:7397   */\n      add\n        /* \"#utility.yul\":7376:7431   */\n      mstore\n        /* \"#utility.yul\":7259:7438   */\n      pop\n      jump\t// out\n        /* \"#utility.yul\":7444:7810   */\n    tag_403:\n        /* \"#utility.yul\":7586:7589   */\n      0x00\n        /* \"#utility.yul\":7607:7674   */\n      tag_542\n        /* \"#utility.yul\":7671:7673   */\n      0x1d\n        /* \"#utility.yul\":7666:7669   */\n      dup4\n        /* \"#utility.yul\":7607:7674   */\n      tag_399\n      jump\t// in\n    tag_542:\n        /* \"#utility.yul\":7600:7674   */\n      swap2\n      pop\n        /* \"#utility.yul\":7683:7776   */\n      tag_543\n        /* \"#utility.yul\":7772:7775   */\n      dup3\n        /* \"#utility.yul\":7683:7776   */\n      tag_402\n      jump\t// in\n    tag_543:\n        /* \"#utility.yul\":7801:7803   */\n      0x20\n        /* \"#utility.yul\":7796:7799   */\n      dup3\n        /* \"#utility.yul\":7792:7804   */\n      add\n        /* \"#utility.yul\":7785:7804   */\n      swap1\n      pop\n        /* \"#utility.yul\":7444:7810   */\n      swap2\n      swap1\n      pop\n      jump\t// out\n        /* \"#utility.yul\":7816:8235   */\n    tag_146:\n        /* \"#utility.yul\":7982:7986   */\n      0x00\n        /* \"#utility.yul\":8020:8022   */\n      0x20\n        /* \"#utility.yul\":8009:8018   */\n      dup3\n        /* \"#utility.yul\":8005:8023   */\n      add\n        /* \"#utility.yul\":7997:8023   */\n      swap1\n      pop\n        /* \"#utility.yul\":8069:8078   */\n      dup2\n        /* \"#utility.yul\":8063:8067   */\n      dup2\n        /* \"#utility.yul\":8059:8079   */\n      sub\n        /* \"#utility.yul\":8055:8056   */\n      0x00\n        /* \"#utility.yul\":8044:8053   */\n      dup4\n        /* \"#utility.yul\":8040:8057   */\n      add\n        /* \"#utility.yul\":8033:8080   */\n      mstore\n        /* \"#utility.yul\":8097:8228   */\n      tag_545\n        /* \"#utility.yul\":8223:8227   */\n      dup2\n        /* \"#utility.yul\":8097:8228   */\n      tag_403\n      jump\t// in\n    tag_545:\n        /* \"#utility.yul\":8089:8228   */\n      swap1\n      pop\n        /* \"#utility.yul\":7816:8235   */\n      swap2\n      swap1\n      pop\n      jump\t// out\n        /* \"#utility.yul\":8241:8409   */\n    tag_404:\n        /* \"#utility.yul\":8381:8401   */\n      0x556e617070726f76656420726f75746572730000000000000000000000000000\n        /* \"#utility.yul\":8377:8378   */\n      0x00\n        /* \"#utility.yul\":8369:8375   */\n      dup3\n        /* \"#utility.yul\":8365:8379   */\n      add\n        /* \"#utility.yul\":8358:8402   */\n      mstore\n        /* \"#utility.yul\":8241:8409   */\n      pop\n      jump\t// out\n        /* \"#utility.yul\":8415:8781   */\n    tag_405:\n        /* \"#utility.yul\":8557:8560   */\n      0x00\n        /* \"#utility.yul\":8578:8645   */\n      tag_548\n        /* \"#utility.yul\":8642:8644   */\n      0x12\n        /* \"#utility.yul\":8637:8640   */\n      dup4\n        /* \"#utility.yul\":8578:8645   */\n      tag_399\n      jump\t// in\n    tag_548:\n        /* \"#utility.yul\":8571:8645   */\n      swap2\n      pop\n        /* \"#utility.yul\":8654:8747   */\n      tag_549\n        /* \"#utility.yul\":8743:8746   */\n      dup3\n        /* \"#utility.yul\":8654:8747   */\n      tag_404\n      jump\t// in\n    tag_549:\n        /* \"#utility.yul\":8772:8774   */\n      0x20\n        /* \"#utility.yul\":8767:8770   */\n      dup3\n        /* \"#utility.yul\":8763:8775   */\n      add\n        /* \"#utility.yul\":8756:8775   */\n      swap1\n      pop\n        /* \"#utility.yul\":8415:8781   */\n      swap2\n      swap1\n      pop\n      jump\t// out\n        /* \"#utility.yul\":8787:9206   */\n    tag_151:\n        /* \"#utility.yul\":8953:8957   */\n      0x00\n        /* \"#utility.yul\":8991:8993   */\n      0x20\n        /* \"#utility.yul\":8980:8989   */\n      dup3\n        /* \"#utility.yul\":8976:8994   */\n      add\n        /* \"#utility.yul\":8968:8994   */\n      swap1\n      pop\n        /* \"#utility.yul\":9040:9049   */\n      dup2\n        /* \"#utility.yul\":9034:9038   */\n      dup2\n        /* \"#utility.yul\":9030:9050   */\n      sub\n        /* \"#utility.yul\":9026:9027   */\n      0x00\n        /* \"#utility.yul\":9015:9024   */\n      dup4\n        /* \"#utility.yul\":9011:9028   */\n      add\n        /* \"#utility.yul\":9004:9051   */\n      mstore\n        /* \"#utility.yul\":9068:9199   */\n      tag_551\n        /* \"#utility.yul\":9194:9198   */\n      dup2\n        /* \"#utility.yul\":9068:9199   */\n      tag_405\n      jump\t// in\n    tag_551:\n        /* \"#utility.yul\":9060:9199   */\n      swap1\n      pop\n        /* \"#utility.yul\":8787:9206   */\n      swap2\n      swap1\n      pop\n      jump\t// out\n        /* \"#utility.yul\":9212:9378   */\n    tag_406:\n        /* \"#utility.yul\":9352:9370   */\n      0x556e617070726f76656420746f6b656e00000000000000000000000000000000\n        /* \"#utility.yul\":9348:9349   */\n      0x00\n        /* \"#utility.yul\":9340:9346   */\n      dup3\n        /* \"#utility.yul\":9336:9350   */\n      add\n        /* \"#utility.yul\":9329:9371   */\n      mstore\n        /* \"#utility.yul\":9212:9378   */\n      pop\n      jump\t// out\n        /* \"#utility.yul\":9384:9750   */\n    tag_407:\n        /* \"#utility.yul\":9526:9529   */\n      0x00\n        /* \"#utility.yul\":9547:9614   */\n      tag_554\n        /* \"#utility.yul\":9611:9613   */\n      0x10\n        /* \"#utility.yul\":9606:9609   */\n      dup4\n        /* \"#utility.yul\":9547:9614   */\n      tag_399\n      jump\t// in\n    tag_554:\n        /* \"#utility.yul\":9540:9614   */\n      swap2\n      pop\n        /* \"#utility.yul\":9623:9716   */\n      tag_555\n        /* \"#utility.yul\":9712:9715   */\n      dup3\n        /* \"#utility.yul\":9623:9716   */\n      tag_406\n      jump\t// in\n    tag_555:\n        /* \"#utility.yul\":9741:9743   */\n      0x20\n        /* \"#utility.yul\":9736:9739   */\n      dup3\n        /* \"#utility.yul\":9732:9744   */\n      add\n        /* \"#utility.yul\":9725:9744   */\n      swap1\n      pop\n        /* \"#utility.yul\":9384:9750   */\n      swap2\n      swap1\n      pop\n      jump\t// out\n        /* \"#utility.yul\":9756:10175   */\n    tag_154:\n        /* \"#utility.yul\":9922:9926   */\n      0x00\n        /* \"#utility.yul\":9960:9962   */\n      0x20\n        /* \"#utility.yul\":9949:9958   */\n      dup3\n        /* \"#utility.yul\":9945:9963   */\n      add\n        /* \"#utility.yul\":9937:9963   */\n      swap1\n      pop\n        /* \"#utility.yul\":10009:10018   */\n      dup2\n        /* \"#utility.yul\":10003:10007   */\n      dup2\n        /* \"#utility.yul\":9999:10019   */\n      sub\n        /* \"#utility.yul\":9995:9996   */\n      0x00\n        /* \"#utility.yul\":9984:9993   */\n      dup4\n        /* \"#utility.yul\":9980:9997   */\n      add\n        /* \"#utility.yul\":9973:10020   */\n      mstore\n        /* \"#utility.yul\":10037:10168   */\n      tag_557\n        /* \"#utility.yul\":10163:10167   */\n      dup2\n        /* \"#utility.yul\":10037:10168   */\n      tag_407\n      jump\t// in\n    tag_557:\n        /* \"#utility.yul\":10029:10168   */\n      swap1\n      pop\n        /* \"#utility.yul\":9756:10175   */\n      swap2\n      swap1\n      pop\n      jump\t// out\n        /* \"#utility.yul\":10181:10324   */\n    tag_408:\n        /* \"#utility.yul\":10238:10243   */\n      0x00\n        /* \"#utility.yul\":10269:10275   */\n      dup2\n        /* \"#utility.yul\":10263:10276   */\n      mload\n        /* \"#utility.yul\":10254:10276   */\n      swap1\n      pop\n        /* \"#utility.yul\":10285:10318   */\n      tag_559\n        /* \"#utility.yul\":10312:10317   */\n      dup2\n        /* \"#utility.yul\":10285:10318   */\n      tag_388\n      jump\t// in\n    tag_559:\n        /* \"#utility.yul\":10181:10324   */\n      swap3\n      swap2\n      pop\n      pop\n      jump\t// out\n        /* \"#utility.yul\":10330:10681   */\n    tag_158:\n        /* \"#utility.yul\":10400:10406   */\n      0x00\n        /* \"#utility.yul\":10449:10451   */\n      0x20\n        /* \"#utility.yul\":10437:10446   */\n      dup3\n        /* \"#utility.yul\":10428:10435   */\n      dup5\n        /* \"#utility.yul\":10424:10447   */\n      sub\n        /* \"#utility.yul\":10420:10452   */\n      slt\n        /* \"#utility.yul\":10417:10536   */\n      iszero\n      tag_561\n      jumpi\n        /* \"#utility.yul\":10455:10534   */\n      tag_562\n      tag_384\n      jump\t// in\n    tag_562:\n        /* \"#utility.yul\":10417:10536   */\n    tag_561:\n        /* \"#utility.yul\":10575:10576   */\n      0x00\n        /* \"#utility.yul\":10600:10664   */\n      tag_563\n        /* \"#utility.yul\":10656:10663   */\n      dup5\n        /* \"#utility.yul\":10647:10653   */\n      dup3\n        /* \"#utility.yul\":10636:10645   */\n      dup6\n        /* \"#utility.yul\":10632:10654   */\n      add\n        /* \"#utility.yul\":10600:10664   */\n      tag_408\n      jump\t// in\n    tag_563:\n        /* \"#utility.yul\":10590:10664   */\n      swap2\n      pop\n        /* \"#utility.yul\":10546:10674   */\n      pop\n        /* \"#utility.yul\":10330:10681   */\n      swap3\n      swap2\n      pop\n      pop\n      jump\t// out\n        /* \"#utility.yul\":10687:10867   */\n    tag_161:\n        /* \"#utility.yul\":10735:10812   */\n      0x4e487b7100000000000000000000000000000000000000000000000000000000\n        /* \"#utility.yul\":10732:10733   */\n      0x00\n        /* \"#utility.yul\":10725:10813   */\n      mstore\n        /* \"#utility.yul\":10832:10836   */\n      0x41\n        /* \"#utility.yul\":10829:10830   */\n      0x04\n        /* \"#utility.yul\":10822:10837   */\n      mstore\n        /* \"#utility.yul\":10856:10860   */\n      0x24\n        /* \"#utility.yul\":10853:10854   */\n      0x00\n        /* \"#utility.yul\":10846:10861   */\n      revert\n        /* \"#utility.yul\":10873:11053   */\n    tag_165:\n        /* \"#utility.yul\":10921:10998   */\n      0x4e487b7100000000000000000000000000000000000000000000000000000000\n        /* \"#utility.yul\":10918:10919   */\n      0x00\n        /* \"#utility.yul\":10911:10999   */\n      mstore\n        /* \"#utility.yul\":11018:11022   */\n      0x32\n        /* \"#utility.yul\":11015:11016   */\n      0x04\n        /* \"#utility.yul\":11008:11023   */\n      mstore\n        /* \"#utility.yul\":11042:11046   */\n      0x24\n        /* \"#utility.yul\":11039:11040   */\n      0x00\n        /* \"#utility.yul\":11032:11047   */\n      revert\n        /* \"#utility.yul\":11059:11173   */\n    tag_409:\n        /* \"#utility.yul\":11126:11132   */\n      0x00\n        /* \"#utility.yul\":11160:11165   */\n      dup2\n        /* \"#utility.yul\":11154:11166   */\n      mload\n        /* \"#utility.yul\":11144:11166   */\n      swap1\n      pop\n        /* \"#utility.yul\":11059:11173   */\n      swap2\n      swap1\n      pop\n      jump\t// out\n        /* \"#utility.yul\":11179:11363   */\n    tag_410:\n        /* \"#utility.yul\":11278:11289   */\n      0x00\n        /* \"#utility.yul\":11312:11318   */\n      dup3\n        /* \"#utility.yul\":11307:11310   */\n      dup3\n        /* \"#utility.yul\":11300:11319   */\n      mstore\n        /* \"#utility.yul\":11352:11356   */\n      0x20\n        /* \"#utility.yul\":11347:11350   */\n      dup3\n        /* \"#utility.yul\":11343:11357   */\n      add\n        /* \"#utility.yul\":11328:11357   */\n      swap1\n      pop\n        /* \"#utility.yul\":11179:11363   */\n      swap3\n      swap2\n      pop\n      pop\n      jump\t// out\n        /* \"#utility.yul\":11369:11501   */\n    tag_411:\n        /* \"#utility.yul\":11436:11440   */\n      0x00\n        /* \"#utility.yul\":11459:11462   */\n      dup2\n        /* \"#utility.yul\":11451:11462   */\n      swap1\n      pop\n        /* \"#utility.yul\":11489:11493   */\n      0x20\n        /* \"#utility.yul\":11484:11487   */\n      dup3\n        /* \"#utility.yul\":11480:11494   */\n      add\n        /* \"#utility.yul\":11472:11494   */\n      swap1\n      pop\n        /* \"#utility.yul\":11369:11501   */\n      swap2\n      swap1\n      pop\n      jump\t// out\n        /* \"#utility.yul\":11507:11615   */\n    tag_412:\n        /* \"#utility.yul\":11584:11608   */\n      tag_570\n        /* \"#utility.yul\":11602:11607   */\n      dup2\n        /* \"#utility.yul\":11584:11608   */\n      tag_387\n      jump\t// in\n    tag_570:\n        /* \"#utility.yul\":11579:11582   */\n      dup3\n        /* \"#utility.yul\":11572:11609   */\n      mstore\n        /* \"#utility.yul\":11507:11615   */\n      pop\n      pop\n      jump\t// out\n        /* \"#utility.yul\":11621:11800   */\n    tag_413:\n        /* \"#utility.yul\":11690:11700   */\n      0x00\n        /* \"#utility.yul\":11711:11757   */\n      tag_572\n        /* \"#utility.yul\":11753:11756   */\n      dup4\n        /* \"#utility.yul\":11745:11751   */\n      dup4\n        /* \"#utility.yul\":11711:11757   */\n      tag_412\n      jump\t// in\n    tag_572:\n        /* \"#utility.yul\":11789:11793   */\n      0x20\n        /* \"#utility.yul\":11784:11787   */\n      dup4\n        /* \"#utility.yul\":11780:11794   */\n      add\n        /* \"#utility.yul\":11766:11794   */\n      swap1\n      pop\n        /* \"#utility.yul\":11621:11800   */\n      swap3\n      swap2\n      pop\n      pop\n      jump\t// out\n        /* \"#utility.yul\":11806:11919   */\n    tag_414:\n        /* \"#utility.yul\":11876:11880   */\n      0x00\n        /* \"#utility.yul\":11908:11912   */\n      0x20\n        /* \"#utility.yul\":11903:11906   */\n      dup3\n        /* \"#utility.yul\":11899:11913   */\n      add\n        /* \"#utility.yul\":11891:11913   */\n      swap1\n      pop\n        /* \"#utility.yul\":11806:11919   */\n      swap2\n      swap1\n      pop\n      jump\t// out\n        /* \"#utility.yul\":11955:12687   */\n    tag_415:\n        /* \"#utility.yul\":12074:12077   */\n      0x00\n        /* \"#utility.yul\":12103:12157   */\n      tag_575\n        /* \"#utility.yul\":12151:12156   */\n      dup3\n        /* \"#utility.yul\":12103:12157   */\n      tag_409\n      jump\t// in\n    tag_575:\n        /* \"#utility.yul\":12173:12259   */\n      tag_576\n        /* \"#utility.yul\":12252:12258   */\n      dup2\n        /* \"#utility.yul\":12247:12250   */\n      dup6\n        /* \"#utility.yul\":12173:12259   */\n      tag_410\n      jump\t// in\n    tag_576:\n        /* \"#utility.yul\":12166:12259   */\n      swap4\n      pop\n        /* \"#utility.yul\":12283:12339   */\n      tag_577\n        /* \"#utility.yul\":12333:12338   */\n      dup4\n        /* \"#utility.yul\":12283:12339   */\n      tag_411\n      jump\t// in\n    tag_577:\n        /* \"#utility.yul\":12362:12369   */\n      dup1\n        /* \"#utility.yul\":12393:12394   */\n      0x00\n        /* \"#utility.yul\":12378:12662   */\n    tag_578:\n        /* \"#utility.yul\":12403:12409   */\n      dup4\n        /* \"#utility.yul\":12400:12401   */\n      dup2\n        /* \"#utility.yul\":12397:12410   */\n      lt\n        /* \"#utility.yul\":12378:12662   */\n      iszero\n      tag_580\n      jumpi\n        /* \"#utility.yul\":12479:12485   */\n      dup2\n        /* \"#utility.yul\":12473:12486   */\n      mload\n        /* \"#utility.yul\":12506:12569   */\n      tag_581\n        /* \"#utility.yul\":12565:12568   */\n      dup9\n        /* \"#utility.yul\":12550:12563   */\n      dup3\n        /* \"#utility.yul\":12506:12569   */\n      tag_413\n      jump\t// in\n    tag_581:\n        /* \"#utility.yul\":12499:12569   */\n      swap8\n      pop\n        /* \"#utility.yul\":12592:12652   */\n      tag_582\n        /* \"#utility.yul\":12645:12651   */\n      dup4\n        /* \"#utility.yul\":12592:12652   */\n      tag_414\n      jump\t// in\n    tag_582:\n        /* \"#utility.yul\":12582:12652   */\n      swap3\n      pop\n        /* \"#utility.yul\":12438:12662   */\n      pop\n        /* \"#utility.yul\":12425:12426   */\n      0x01\n        /* \"#utility.yul\":12422:12423   */\n      dup2\n        /* \"#utility.yul\":12418:12427   */\n      add\n        /* \"#utility.yul\":12413:12427   */\n      swap1\n      pop\n        /* \"#utility.yul\":12378:12662   */\n      jump(tag_578)\n    tag_580:\n        /* \"#utility.yul\":12382:12396   */\n      pop\n        /* \"#utility.yul\":12678:12681   */\n      dup6\n        /* \"#utility.yul\":12671:12681   */\n      swap4\n      pop\n        /* \"#utility.yul\":12079:12687   */\n      pop\n      pop\n      pop\n        /* \"#utility.yul\":11955:12687   */\n      swap3\n      swap2\n      pop\n      pop\n      jump\t// out\n        /* \"#utility.yul\":12693:13176   */\n    tag_169:\n        /* \"#utility.yul\":12864:12868   */\n      0x00\n        /* \"#utility.yul\":12902:12904   */\n      0x40\n        /* \"#utility.yul\":12891:12900   */\n      dup3\n        /* \"#utility.yul\":12887:12905   */\n      add\n        /* \"#utility.yul\":12879:12905   */\n      swap1\n      pop\n        /* \"#utility.yul\":12915:12986   */\n      tag_584\n        /* \"#utility.yul\":12983:12984   */\n      0x00\n        /* \"#utility.yul\":12972:12981   */\n      dup4\n        /* \"#utility.yul\":12968:12985   */\n      add\n        /* \"#utility.yul\":12959:12965   */\n      dup6\n        /* \"#utility.yul\":12915:12986   */\n      tag_394\n      jump\t// in\n    tag_584:\n        /* \"#utility.yul\":13033:13042   */\n      dup2\n        /* \"#utility.yul\":13027:13031   */\n      dup2\n        /* \"#utility.yul\":13023:13043   */\n      sub\n        /* \"#utility.yul\":13018:13020   */\n      0x20\n        /* \"#utility.yul\":13007:13016   */\n      dup4\n        /* \"#utility.yul\":13003:13021   */\n      add\n        /* \"#utility.yul\":12996:13044   */\n      mstore\n        /* \"#utility.yul\":13061:13169   */\n      tag_585\n        /* \"#utility.yul\":13164:13168   */\n      dup2\n        /* \"#utility.yul\":13155:13161   */\n      dup5\n        /* \"#utility.yul\":13061:13169   */\n      tag_415\n      jump\t// in\n    tag_585:\n        /* \"#utility.yul\":13053:13169   */\n      swap1\n      pop\n        /* \"#utility.yul\":12693:13176   */\n      swap4\n      swap3\n      pop\n      pop\n      pop\n      jump\t// out\n        /* \"#utility.yul\":13182:13299   */\n    tag_416:\n        /* \"#utility.yul\":13291:13292   */\n      0x00\n        /* \"#utility.yul\":13288:13289   */\n      dup1\n        /* \"#utility.yul\":13281:13293   */\n      revert\n        /* \"#utility.yul\":13305:13407   */\n    tag_417:\n        /* \"#utility.yul\":13346:13352   */\n      0x00\n        /* \"#utility.yul\":13397:13399   */\n      0x1f\n        /* \"#utility.yul\":13393:13400   */\n      not\n        /* \"#utility.yul\":13388:13390   */\n      0x1f\n        /* \"#utility.yul\":13381:13386   */\n      dup4\n        /* \"#utility.yul\":13377:13391   */\n      add\n        /* \"#utility.yul\":13373:13401   */\n      and\n        /* \"#utility.yul\":13363:13401   */\n      swap1\n      pop\n        /* \"#utility.yul\":13305:13407   */\n      swap2\n      swap1\n      pop\n      jump\t// out\n        /* \"#utility.yul\":13413:13694   */\n    tag_418:\n        /* \"#utility.yul\":13496:13523   */\n      tag_589\n        /* \"#utility.yul\":13518:13522   */\n      dup3\n        /* \"#utility.yul\":13496:13523   */\n      tag_417\n      jump\t// in\n    tag_589:\n        /* \"#utility.yul\":13488:13494   */\n      dup2\n        /* \"#utility.yul\":13484:13524   */\n      add\n        /* \"#utility.yul\":13626:13632   */\n      dup2\n        /* \"#utility.yul\":13614:13624   */\n      dup2\n        /* \"#utility.yul\":13611:13633   */\n      lt\n        /* \"#utility.yul\":13590:13608   */\n      0xffffffffffffffff\n        /* \"#utility.yul\":13578:13588   */\n      dup3\n        /* \"#utility.yul\":13575:13609   */\n      gt\n        /* \"#utility.yul\":13572:13634   */\n      or\n        /* \"#utility.yul\":13569:13657   */\n      iszero\n      tag_590\n      jumpi\n        /* \"#utility.yul\":13637:13655   */\n      tag_591\n      tag_161\n      jump\t// in\n    tag_591:\n        /* \"#utility.yul\":13569:13657   */\n    tag_590:\n        /* \"#utility.yul\":13677:13687   */\n      dup1\n        /* \"#utility.yul\":13673:13675   */\n      0x40\n        /* \"#utility.yul\":13666:13688   */\n      mstore\n        /* \"#utility.yul\":13456:13694   */\n      pop\n        /* \"#utility.yul\":13413:13694   */\n      pop\n      pop\n      jump\t// out\n        /* \"#utility.yul\":13700:13829   */\n    tag_419:\n        /* \"#utility.yul\":13734:13740   */\n      0x00\n        /* \"#utility.yul\":13761:13781   */\n      tag_593\n      tag_383\n      jump\t// in\n    tag_593:\n        /* \"#utility.yul\":13751:13781   */\n      swap1\n      pop\n        /* \"#utility.yul\":13790:13823   */\n      tag_594\n        /* \"#utility.yul\":13818:13822   */\n      dup3\n        /* \"#utility.yul\":13810:13816   */\n      dup3\n        /* \"#utility.yul\":13790:13823   */\n      tag_418\n      jump\t// in\n    tag_594:\n        /* \"#utility.yul\":13700:13829   */\n      swap2\n      swap1\n      pop\n      jump\t// out\n        /* \"#utility.yul\":13835:14146   */\n    tag_420:\n        /* \"#utility.yul\":13912:13916   */\n      0x00\n        /* \"#utility.yul\":14002:14020   */\n      0xffffffffffffffff\n        /* \"#utility.yul\":13994:14000   */\n      dup3\n        /* \"#utility.yul\":13991:14021   */\n      gt\n        /* \"#utility.yul\":13988:14044   */\n      iszero\n      tag_596\n      jumpi\n        /* \"#utility.yul\":14024:14042   */\n      tag_597\n      tag_161\n      jump\t// in\n    tag_597:\n        /* \"#utility.yul\":13988:14044   */\n    tag_596:\n        /* \"#utility.yul\":14074:14078   */\n      0x20\n        /* \"#utility.yul\":14066:14072   */\n      dup3\n        /* \"#utility.yul\":14062:14079   */\n      mul\n        /* \"#utility.yul\":14054:14079   */\n      swap1\n      pop\n        /* \"#utility.yul\":14134:14138   */\n      0x20\n        /* \"#utility.yul\":14128:14132   */\n      dup2\n        /* \"#utility.yul\":14124:14139   */\n      add\n        /* \"#utility.yul\":14116:14139   */\n      swap1\n      pop\n        /* \"#utility.yul\":13835:14146   */\n      swap2\n      swap1\n      pop\n      jump\t// out\n        /* \"#utility.yul\":14152:14269   */\n    tag_421:\n        /* \"#utility.yul\":14261:14262   */\n      0x00\n        /* \"#utility.yul\":14258:14259   */\n      dup1\n        /* \"#utility.yul\":14251:14263   */\n      revert\n        /* \"#utility.yul\":14275:14418   */\n    tag_422:\n        /* \"#utility.yul\":14332:14337   */\n      0x00\n        /* \"#utility.yul\":14363:14369   */\n      dup2\n        /* \"#utility.yul\":14357:14370   */\n      mload\n        /* \"#utility.yul\":14348:14370   */\n      swap1\n      pop\n        /* \"#utility.yul\":14379:14412   */\n      tag_600\n        /* \"#utility.yul\":14406:14411   */\n      dup2\n        /* \"#utility.yul\":14379:14412   */\n      tag_395\n      jump\t// in\n    tag_600:\n        /* \"#utility.yul\":14275:14418   */\n      swap3\n      swap2\n      pop\n      pop\n      jump\t// out\n        /* \"#utility.yul\":14441:15173   */\n    tag_423:\n        /* \"#utility.yul\":14548:14553   */\n      0x00\n        /* \"#utility.yul\":14573:14654   */\n      tag_602\n        /* \"#utility.yul\":14589:14653   */\n      tag_603\n        /* \"#utility.yul\":14646:14652   */\n      dup5\n        /* \"#utility.yul\":14589:14653   */\n      tag_420\n      jump\t// in\n    tag_603:\n        /* \"#utility.yul\":14573:14654   */\n      tag_419\n      jump\t// in\n    tag_602:\n        /* \"#utility.yul\":14564:14654   */\n      swap1\n      pop\n        /* \"#utility.yul\":14674:14679   */\n      dup1\n        /* \"#utility.yul\":14703:14709   */\n      dup4\n        /* \"#utility.yul\":14696:14701   */\n      dup3\n        /* \"#utility.yul\":14689:14710   */\n      mstore\n        /* \"#utility.yul\":14737:14741   */\n      0x20\n        /* \"#utility.yul\":14730:14735   */\n      dup3\n        /* \"#utility.yul\":14726:14742   */\n      add\n        /* \"#utility.yul\":14719:14742   */\n      swap1\n      pop\n        /* \"#utility.yul\":14790:14794   */\n      0x20\n        /* \"#utility.yul\":14782:14788   */\n      dup5\n        /* \"#utility.yul\":14778:14795   */\n      mul\n        /* \"#utility.yul\":14770:14776   */\n      dup4\n        /* \"#utility.yul\":14766:14796   */\n      add\n        /* \"#utility.yul\":14819:14822   */\n      dup6\n        /* \"#utility.yul\":14811:14817   */\n      dup2\n        /* \"#utility.yul\":14808:14823   */\n      gt\n        /* \"#utility.yul\":14805:14927   */\n      iszero\n      tag_604\n      jumpi\n        /* \"#utility.yul\":14838:14917   */\n      tag_605\n      tag_421\n      jump\t// in\n    tag_605:\n        /* \"#utility.yul\":14805:14927   */\n    tag_604:\n        /* \"#utility.yul\":14953:14959   */\n      dup4\n        /* \"#utility.yul\":14936:15167   */\n    tag_606:\n        /* \"#utility.yul\":14970:14976   */\n      dup2\n        /* \"#utility.yul\":14965:14968   */\n      dup2\n        /* \"#utility.yul\":14962:14977   */\n      lt\n        /* \"#utility.yul\":14936:15167   */\n      iszero\n      tag_608\n      jumpi\n        /* \"#utility.yul\":15045:15048   */\n      dup1\n        /* \"#utility.yul\":15074:15122   */\n      tag_609\n        /* \"#utility.yul\":15118:15121   */\n      dup9\n        /* \"#utility.yul\":15106:15116   */\n      dup3\n        /* \"#utility.yul\":15074:15122   */\n      tag_422\n      jump\t// in\n    tag_609:\n        /* \"#utility.yul\":15069:15072   */\n      dup5\n        /* \"#utility.yul\":15062:15123   */\n      mstore\n        /* \"#utility.yul\":15152:15156   */\n      0x20\n        /* \"#utility.yul\":15147:15150   */\n      dup5\n        /* \"#utility.yul\":15143:15157   */\n      add\n        /* \"#utility.yul\":15136:15157   */\n      swap4\n      pop\n        /* \"#utility.yul\":15012:15167   */\n      pop\n        /* \"#utility.yul\":14996:15000   */\n      0x20\n        /* \"#utility.yul\":14991:14994   */\n      dup2\n        /* \"#utility.yul\":14987:15001   */\n      add\n        /* \"#utility.yul\":14980:15001   */\n      swap1\n      pop\n        /* \"#utility.yul\":14936:15167   */\n      jump(tag_606)\n    tag_608:\n        /* \"#utility.yul\":14940:14961   */\n      pop\n        /* \"#utility.yul\":14554:15173   */\n      pop\n      pop\n        /* \"#utility.yul\":14441:15173   */\n      swap4\n      swap3\n      pop\n      pop\n      pop\n      jump\t// out\n        /* \"#utility.yul\":15196:15581   */\n    tag_424:\n        /* \"#utility.yul\":15278:15283   */\n      0x00\n        /* \"#utility.yul\":15327:15330   */\n      dup3\n        /* \"#utility.yul\":15320:15324   */\n      0x1f\n        /* \"#utility.yul\":15312:15318   */\n      dup4\n        /* \"#utility.yul\":15308:15325   */\n      add\n        /* \"#utility.yul\":15304:15331   */\n      slt\n        /* \"#utility.yul\":15294:15416   */\n      tag_611\n      jumpi\n        /* \"#utility.yul\":15335:15414   */\n      tag_612\n      tag_416\n      jump\t// in\n    tag_612:\n        /* \"#utility.yul\":15294:15416   */\n    tag_611:\n        /* \"#utility.yul\":15445:15451   */\n      dup2\n        /* \"#utility.yul\":15439:15452   */\n      mload\n        /* \"#utility.yul\":15470:15575   */\n      tag_613\n        /* \"#utility.yul\":15571:15574   */\n      dup5\n        /* \"#utility.yul\":15563:15569   */\n      dup3\n        /* \"#utility.yul\":15556:15560   */\n      0x20\n        /* \"#utility.yul\":15548:15554   */\n      dup7\n        /* \"#utility.yul\":15544:15561   */\n      add\n        /* \"#utility.yul\":15470:15575   */\n      tag_423\n      jump\t// in\n    tag_613:\n        /* \"#utility.yul\":15461:15575   */\n      swap2\n      pop\n        /* \"#utility.yul\":15284:15581   */\n      pop\n        /* \"#utility.yul\":15196:15581   */\n      swap3\n      swap2\n      pop\n      pop\n      jump\t// out\n        /* \"#utility.yul\":15587:16141   */\n    tag_173:\n        /* \"#utility.yul\":15682:15688   */\n      0x00\n        /* \"#utility.yul\":15731:15733   */\n      0x20\n        /* \"#utility.yul\":15719:15728   */\n      dup3\n        /* \"#utility.yul\":15710:15717   */\n      dup5\n        /* \"#utility.yul\":15706:15729   */\n      sub\n        /* \"#utility.yul\":15702:15734   */\n      slt\n        /* \"#utility.yul\":15699:15818   */\n      iszero\n      tag_615\n      jumpi\n        /* \"#utility.yul\":15737:15816   */\n      tag_616\n      tag_384\n      jump\t// in\n    tag_616:\n        /* \"#utility.yul\":15699:15818   */\n    tag_615:\n        /* \"#utility.yul\":15878:15879   */\n      0x00\n        /* \"#utility.yul\":15867:15876   */\n      dup3\n        /* \"#utility.yul\":15863:15880   */\n      add\n        /* \"#utility.yul\":15857:15881   */\n      mload\n        /* \"#utility.yul\":15908:15926   */\n      0xffffffffffffffff\n        /* \"#utility.yul\":15900:15906   */\n      dup2\n        /* \"#utility.yul\":15897:15927   */\n      gt\n        /* \"#utility.yul\":15894:16011   */\n      iszero\n      tag_617\n      jumpi\n        /* \"#utility.yul\":15930:16009   */\n      tag_618\n      tag_385\n      jump\t// in\n    tag_618:\n        /* \"#utility.yul\":15894:16011   */\n    tag_617:\n        /* \"#utility.yul\":16035:16124   */\n      tag_619\n        /* \"#utility.yul\":16116:16123   */\n      dup5\n        /* \"#utility.yul\":16107:16113   */\n      dup3\n        /* \"#utility.yul\":16096:16105   */\n      dup6\n        /* \"#utility.yul\":16092:16114   */\n      add\n        /* \"#utility.yul\":16035:16124   */\n      tag_424\n      jump\t// in\n    tag_619:\n        /* \"#utility.yul\":16025:16124   */\n      swap2\n      pop\n        /* \"#utility.yul\":15828:16134   */\n      pop\n        /* \"#utility.yul\":15587:16141   */\n      swap3\n      swap2\n      pop\n      pop\n      jump\t// out\n        /* \"#utility.yul\":16147:16327   */\n    tag_425:\n        /* \"#utility.yul\":16195:16272   */\n      0x4e487b7100000000000000000000000000000000000000000000000000000000\n        /* \"#utility.yul\":16192:16193   */\n      0x00\n        /* \"#utility.yul\":16185:16273   */\n      mstore\n        /* \"#utility.yul\":16292:16296   */\n      0x11\n        /* \"#utility.yul\":16289:16290   */\n      0x04\n        /* \"#utility.yul\":16282:16297   */\n      mstore\n        /* \"#utility.yul\":16316:16320   */\n      0x24\n        /* \"#utility.yul\":16313:16314   */\n      0x00\n        /* \"#utility.yul\":16306:16321   */\n      revert\n        /* \"#utility.yul\":16333:16527   */\n    tag_193:\n        /* \"#utility.yul\":16373:16377   */\n      0x00\n        /* \"#utility.yul\":16393:16413   */\n      tag_622\n        /* \"#utility.yul\":16411:16412   */\n      dup3\n        /* \"#utility.yul\":16393:16413   */\n      tag_393\n      jump\t// in\n    tag_622:\n        /* \"#utility.yul\":16388:16413   */\n      swap2\n      pop\n        /* \"#utility.yul\":16427:16447   */\n      tag_623\n        /* \"#utility.yul\":16445:16446   */\n      dup4\n        /* \"#utility.yul\":16427:16447   */\n      tag_393\n      jump\t// in\n    tag_623:\n        /* \"#utility.yul\":16422:16447   */\n      swap3\n      pop\n        /* \"#utility.yul\":16471:16472   */\n      dup3\n        /* \"#utility.yul\":16468:16469   */\n      dup3\n        /* \"#utility.yul\":16464:16473   */\n      sub\n        /* \"#utility.yul\":16456:16473   */\n      swap1\n      pop\n        /* \"#utility.yul\":16495:16496   */\n      dup2\n        /* \"#utility.yul\":16489:16493   */\n      dup2\n        /* \"#utility.yul\":16486:16497   */\n      gt\n        /* \"#utility.yul\":16483:16520   */\n      iszero\n      tag_624\n      jumpi\n        /* \"#utility.yul\":16500:16518   */\n      tag_625\n      tag_425\n      jump\t// in\n    tag_625:\n        /* \"#utility.yul\":16483:16520   */\n    tag_624:\n        /* \"#utility.yul\":16333:16527   */\n      swap3\n      swap2\n      pop\n      pop\n      jump\t// out\n        /* \"#utility.yul\":16533:16943   */\n    tag_195:\n        /* \"#utility.yul\":16573:16580   */\n      0x00\n        /* \"#utility.yul\":16596:16616   */\n      tag_627\n        /* \"#utility.yul\":16614:16615   */\n      dup3\n        /* \"#utility.yul\":16596:16616   */\n      tag_393\n      jump\t// in\n    tag_627:\n        /* \"#utility.yul\":16591:16616   */\n      swap2\n      pop\n        /* \"#utility.yul\":16630:16650   */\n      tag_628\n        /* \"#utility.yul\":16648:16649   */\n      dup4\n        /* \"#utility.yul\":16630:16650   */\n      tag_393\n      jump\t// in\n    tag_628:\n        /* \"#utility.yul\":16625:16650   */\n      swap3\n      pop\n        /* \"#utility.yul\":16685:16686   */\n      dup3\n        /* \"#utility.yul\":16682:16683   */\n      dup3\n        /* \"#utility.yul\":16678:16687   */\n      mul\n        /* \"#utility.yul\":16707:16737   */\n      tag_629\n        /* \"#utility.yul\":16725:16736   */\n      dup2\n        /* \"#utility.yul\":16707:16737   */\n      tag_393\n      jump\t// in\n    tag_629:\n        /* \"#utility.yul\":16696:16737   */\n      swap2\n      pop\n        /* \"#utility.yul\":16886:16887   */\n      dup3\n        /* \"#utility.yul\":16877:16884   */\n      dup3\n        /* \"#utility.yul\":16873:16888   */\n      div\n        /* \"#utility.yul\":16870:16871   */\n      dup5\n        /* \"#utility.yul\":16867:16889   */\n      eq\n        /* \"#utility.yul\":16847:16848   */\n      dup4\n        /* \"#utility.yul\":16840:16849   */\n      iszero\n        /* \"#utility.yul\":16820:16903   */\n      or\n        /* \"#utility.yul\":16797:16936   */\n      tag_630\n      jumpi\n        /* \"#utility.yul\":16916:16934   */\n      tag_631\n      tag_425\n      jump\t// in\n    tag_631:\n        /* \"#utility.yul\":16797:16936   */\n    tag_630:\n        /* \"#utility.yul\":16581:16943   */\n      pop\n        /* \"#utility.yul\":16533:16943   */\n      swap3\n      swap2\n      pop\n      pop\n      jump\t// out\n        /* \"#utility.yul\":16949:17129   */\n    tag_426:\n        /* \"#utility.yul\":16997:17074   */\n      0x4e487b7100000000000000000000000000000000000000000000000000000000\n        /* \"#utility.yul\":16994:16995   */\n      0x00\n        /* \"#utility.yul\":16987:17075   */\n      mstore\n        /* \"#utility.yul\":17094:17098   */\n      0x12\n        /* \"#utility.yul\":17091:17092   */\n      0x04\n        /* \"#utility.yul\":17084:17099   */\n      mstore\n        /* \"#utility.yul\":17118:17122   */\n      0x24\n        /* \"#utility.yul\":17115:17116   */\n      0x00\n        /* \"#utility.yul\":17108:17123   */\n      revert\n        /* \"#utility.yul\":17135:17320   */\n    tag_197:\n        /* \"#utility.yul\":17175:17176   */\n      0x00\n        /* \"#utility.yul\":17192:17212   */\n      tag_634\n        /* \"#utility.yul\":17210:17211   */\n      dup3\n        /* \"#utility.yul\":17192:17212   */\n      tag_393\n      jump\t// in\n    tag_634:\n        /* \"#utility.yul\":17187:17212   */\n      swap2\n      pop\n        /* \"#utility.yul\":17226:17246   */\n      tag_635\n        /* \"#utility.yul\":17244:17245   */\n      dup4\n        /* \"#utility.yul\":17226:17246   */\n      tag_393\n      jump\t// in\n    tag_635:\n        /* \"#utility.yul\":17221:17246   */\n      swap3\n      pop\n        /* \"#utility.yul\":17265:17266   */\n      dup3\n        /* \"#utility.yul\":17255:17290   */\n      tag_636\n      jumpi\n        /* \"#utility.yul\":17270:17288   */\n      tag_637\n      tag_426\n      jump\t// in\n    tag_637:\n        /* \"#utility.yul\":17255:17290   */\n    tag_636:\n        /* \"#utility.yul\":17312:17313   */\n      dup3\n        /* \"#utility.yul\":17309:17310   */\n      dup3\n        /* \"#utility.yul\":17305:17314   */\n      div\n        /* \"#utility.yul\":17300:17314   */\n      swap1\n      pop\n        /* \"#utility.yul\":17135:17320   */\n      swap3\n      swap2\n      pop\n      pop\n      jump\t// out\n        /* \"#utility.yul\":17326:17498   */\n    tag_427:\n        /* \"#utility.yul\":17466:17490   */\n      0x496e76616c696420726f75746572206164647265737300000000000000000000\n        /* \"#utility.yul\":17462:17463   */\n      0x00\n        /* \"#utility.yul\":17454:17460   */\n      dup3\n        /* \"#utility.yul\":17450:17464   */\n      add\n        /* \"#utility.yul\":17443:17491   */\n      mstore\n        /* \"#utility.yul\":17326:17498   */\n      pop\n      jump\t// out\n        /* \"#utility.yul\":17504:17870   */\n    tag_428:\n        /* \"#utility.yul\":17646:17649   */\n      0x00\n        /* \"#utility.yul\":17667:17734   */\n      tag_640\n        /* \"#utility.yul\":17731:17733   */\n      0x16\n        /* \"#utility.yul\":17726:17729   */\n      dup4\n        /* \"#utility.yul\":17667:17734   */\n      tag_399\n      jump\t// in\n    tag_640:\n        /* \"#utility.yul\":17660:17734   */\n      swap2\n      pop\n        /* \"#utility.yul\":17743:17836   */\n      tag_641\n        /* \"#utility.yul\":17832:17835   */\n      dup3\n        /* \"#utility.yul\":17743:17836   */\n      tag_427\n      jump\t// in\n    tag_641:\n        /* \"#utility.yul\":17861:17863   */\n      0x20\n        /* \"#utility.yul\":17856:17859   */\n      dup3\n        /* \"#utility.yul\":17852:17864   */\n      add\n        /* \"#utility.yul\":17845:17864   */\n      swap1\n      pop\n        /* \"#utility.yul\":17504:17870   */\n      swap2\n      swap1\n      pop\n      jump\t// out\n        /* \"#utility.yul\":17876:18295   */\n    tag_208:\n        /* \"#utility.yul\":18042:18046   */\n      0x00\n        /* \"#utility.yul\":18080:18082   */\n      0x20\n        /* \"#utility.yul\":18069:18078   */\n      dup3\n        /* \"#utility.yul\":18065:18083   */\n      add\n        /* \"#utility.yul\":18057:18083   */\n      swap1\n      pop\n        /* \"#utility.yul\":18129:18138   */\n      dup2\n        /* \"#utility.yul\":18123:18127   */\n      dup2\n        /* \"#utility.yul\":18119:18139   */\n      sub\n        /* \"#utility.yul\":18115:18116   */\n      0x00\n        /* \"#utility.yul\":18104:18113   */\n      dup4\n        /* \"#utility.yul\":18100:18117   */\n      add\n        /* \"#utility.yul\":18093:18140   */\n      mstore\n        /* \"#utility.yul\":18157:18288   */\n      tag_643\n        /* \"#utility.yul\":18283:18287   */\n      dup2\n        /* \"#utility.yul\":18157:18288   */\n      tag_428\n      jump\t// in\n    tag_643:\n        /* \"#utility.yul\":18149:18288   */\n      swap1\n      pop\n        /* \"#utility.yul\":17876:18295   */\n      swap2\n      swap1\n      pop\n      jump\t// out\n        /* \"#utility.yul\":18301:18652   */\n    tag_233:\n        /* \"#utility.yul\":18371:18377   */\n      0x00\n        /* \"#utility.yul\":18420:18422   */\n      0x20\n        /* \"#utility.yul\":18408:18417   */\n      dup3\n        /* \"#utility.yul\":18399:18406   */\n      dup5\n        /* \"#utility.yul\":18395:18418   */\n      sub\n        /* \"#utility.yul\":18391:18423   */\n      slt\n        /* \"#utility.yul\":18388:18507   */\n      iszero\n      tag_645\n      jumpi\n        /* \"#utility.yul\":18426:18505   */\n      tag_646\n      tag_384\n      jump\t// in\n    tag_646:\n        /* \"#utility.yul\":18388:18507   */\n    tag_645:\n        /* \"#utility.yul\":18546:18547   */\n      0x00\n        /* \"#utility.yul\":18571:18635   */\n      tag_647\n        /* \"#utility.yul\":18627:18634   */\n      dup5\n        /* \"#utility.yul\":18618:18624   */\n      dup3\n        /* \"#utility.yul\":18607:18616   */\n      dup6\n        /* \"#utility.yul\":18603:18625   */\n      add\n        /* \"#utility.yul\":18571:18635   */\n      tag_422\n      jump\t// in\n    tag_647:\n        /* \"#utility.yul\":18561:18635   */\n      swap2\n      pop\n        /* \"#utility.yul\":18517:18645   */\n      pop\n        /* \"#utility.yul\":18301:18652   */\n      swap3\n      swap2\n      pop\n      pop\n      jump\t// out\n        /* \"#utility.yul\":18658:18990   */\n    tag_236:\n        /* \"#utility.yul\":18779:18783   */\n      0x00\n        /* \"#utility.yul\":18817:18819   */\n      0x40\n        /* \"#utility.yul\":18806:18815   */\n      dup3\n        /* \"#utility.yul\":18802:18820   */\n      add\n        /* \"#utility.yul\":18794:18820   */\n      swap1\n      pop\n        /* \"#utility.yul\":18830:18901   */\n      tag_649\n        /* \"#utility.yul\":18898:18899   */\n      0x00\n        /* \"#utility.yul\":18887:18896   */\n      dup4\n        /* \"#utility.yul\":18883:18900   */\n      add\n        /* \"#utility.yul\":18874:18880   */\n      dup6\n        /* \"#utility.yul\":18830:18901   */\n      tag_398\n      jump\t// in\n    tag_649:\n        /* \"#utility.yul\":18911:18983   */\n      tag_650\n        /* \"#utility.yul\":18979:18981   */\n      0x20\n        /* \"#utility.yul\":18968:18977   */\n      dup4\n        /* \"#utility.yul\":18964:18982   */\n      add\n        /* \"#utility.yul\":18955:18961   */\n      dup5\n        /* \"#utility.yul\":18911:18983   */\n      tag_394\n      jump\t// in\n    tag_650:\n        /* \"#utility.yul\":18658:18990   */\n      swap4\n      swap3\n      pop\n      pop\n      pop\n      jump\t// out\n        /* \"#utility.yul\":18996:19133   */\n    tag_429:\n        /* \"#utility.yul\":19050:19055   */\n      0x00\n        /* \"#utility.yul\":19081:19087   */\n      dup2\n        /* \"#utility.yul\":19075:19088   */\n      mload\n        /* \"#utility.yul\":19066:19088   */\n      swap1\n      pop\n        /* \"#utility.yul\":19097:19127   */\n      tag_652\n        /* \"#utility.yul\":19121:19126   */\n      dup2\n        /* \"#utility.yul\":19097:19127   */\n      tag_391\n      jump\t// in\n    tag_652:\n        /* \"#utility.yul\":18996:19133   */\n      swap3\n      swap2\n      pop\n      pop\n      jump\t// out\n        /* \"#utility.yul\":19139:19484   */\n    tag_240:\n        /* \"#utility.yul\":19206:19212   */\n      0x00\n        /* \"#utility.yul\":19255:19257   */\n      0x20\n        /* \"#utility.yul\":19243:19252   */\n      dup3\n        /* \"#utility.yul\":19234:19241   */\n      dup5\n        /* \"#utility.yul\":19230:19253   */\n      sub\n        /* \"#utility.yul\":19226:19258   */\n      slt\n        /* \"#utility.yul\":19223:19342   */\n      iszero\n      tag_654\n      jumpi\n        /* \"#utility.yul\":19261:19340   */\n      tag_655\n      tag_384\n      jump\t// in\n    tag_655:\n        /* \"#utility.yul\":19223:19342   */\n    tag_654:\n        /* \"#utility.yul\":19381:19382   */\n      0x00\n        /* \"#utility.yul\":19406:19467   */\n      tag_656\n        /* \"#utility.yul\":19459:19466   */\n      dup5\n        /* \"#utility.yul\":19450:19456   */\n      dup3\n        /* \"#utility.yul\":19439:19448   */\n      dup6\n        /* \"#utility.yul\":19435:19457   */\n      add\n        /* \"#utility.yul\":19406:19467   */\n      tag_429\n      jump\t// in\n    tag_656:\n        /* \"#utility.yul\":19396:19467   */\n      swap2\n      pop\n        /* \"#utility.yul\":19352:19477   */\n      pop\n        /* \"#utility.yul\":19139:19484   */\n      swap3\n      swap2\n      pop\n      pop\n      jump\t// out\n        /* \"#utility.yul\":19490:19662   */\n    tag_430:\n        /* \"#utility.yul\":19630:19654   */\n      0x4175746f2d74726164652069732064697361626c656400000000000000000000\n        /* \"#utility.yul\":19626:19627   */\n      0x00\n        /* \"#utility.yul\":19618:19624   */\n      dup3\n        /* \"#utility.yul\":19614:19628   */\n      add\n        /* \"#utility.yul\":19607:19655   */\n      mstore\n        /* \"#utility.yul\":19490:19662   */\n      pop\n      jump\t// out\n        /* \"#utility.yul\":19668:20034   */\n    tag_431:\n        /* \"#utility.yul\":19810:19813   */\n      0x00\n        /* \"#utility.yul\":19831:19898   */\n      tag_659\n        /* \"#utility.yul\":19895:19897   */\n      0x16\n        /* \"#utility.yul\":19890:19893   */\n      dup4\n        /* \"#utility.yul\":19831:19898   */\n      tag_399\n      jump\t// in\n    tag_659:\n        /* \"#utility.yul\":19824:19898   */\n      swap2\n      pop\n        /* \"#utility.yul\":19907:20000   */\n      tag_660\n        /* \"#utility.yul\":19996:19999   */\n      dup3\n        /* \"#utility.yul\":19907:20000   */\n      tag_430\n      jump\t// in\n    tag_660:\n        /* \"#utility.yul\":20025:20027   */\n      0x20\n        /* \"#utility.yul\":20020:20023   */\n      dup3\n        /* \"#utility.yul\":20016:20028   */\n      add\n        /* \"#utility.yul\":20009:20028   */\n      swap1\n      pop\n        /* \"#utility.yul\":19668:20034   */\n      swap2\n      swap1\n      pop\n      jump\t// out\n        /* \"#utility.yul\":20040:20459   */\n    tag_244:\n        /* \"#utility.yul\":20206:20210   */\n      0x00\n        /* \"#utility.yul\":20244:20246   */\n      0x20\n        /* \"#utility.yul\":20233:20242   */\n      dup3\n        /* \"#utility.yul\":20229:20247   */\n      add\n        /* \"#utility.yul\":20221:20247   */\n      swap1\n      pop\n        /* \"#utility.yul\":20293:20302   */\n      dup2\n        /* \"#utility.yul\":20287:20291   */\n      dup2\n        /* \"#utility.yul\":20283:20303   */\n      sub\n        /* \"#utility.yul\":20279:20280   */\n      0x00\n        /* \"#utility.yul\":20268:20277   */\n      dup4\n        /* \"#utility.yul\":20264:20281   */\n      add\n        /* \"#utility.yul\":20257:20304   */\n      mstore\n        /* \"#utility.yul\":20321:20452   */\n      tag_662\n        /* \"#utility.yul\":20447:20451   */\n      dup2\n        /* \"#utility.yul\":20321:20452   */\n      tag_431\n      jump\t// in\n    tag_662:\n        /* \"#utility.yul\":20313:20452   */\n      swap1\n      pop\n        /* \"#utility.yul\":20040:20459   */\n      swap2\n      swap1\n      pop\n      jump\t// out\n        /* \"#utility.yul\":20465:20636   */\n    tag_432:\n        /* \"#utility.yul\":20605:20628   */\n      0x496e73756666696369656e74204554482073656e740000000000000000000000\n        /* \"#utility.yul\":20601:20602   */\n      0x00\n        /* \"#utility.yul\":20593:20599   */\n      dup3\n        /* \"#utility.yul\":20589:20603   */\n      add\n        /* \"#utility.yul\":20582:20629   */\n      mstore\n        /* \"#utility.yul\":20465:20636   */\n      pop\n      jump\t// out\n        /* \"#utility.yul\":20642:21008   */\n    tag_433:\n        /* \"#utility.yul\":20784:20787   */\n      0x00\n        /* \"#utility.yul\":20805:20872   */\n      tag_665\n        /* \"#utility.yul\":20869:20871   */\n      0x15\n        /* \"#utility.yul\":20864:20867   */\n      dup4\n        /* \"#utility.yul\":20805:20872   */\n      tag_399\n      jump\t// in\n    tag_665:\n        /* \"#utility.yul\":20798:20872   */\n      swap2\n      pop\n        /* \"#utility.yul\":20881:20974   */\n      tag_666\n        /* \"#utility.yul\":20970:20973   */\n      dup3\n        /* \"#utility.yul\":20881:20974   */\n      tag_432\n      jump\t// in\n    tag_666:\n        /* \"#utility.yul\":20999:21001   */\n      0x20\n        /* \"#utility.yul\":20994:20997   */\n      dup3\n        /* \"#utility.yul\":20990:21002   */\n      add\n        /* \"#utility.yul\":20983:21002   */\n      swap1\n      pop\n        /* \"#utility.yul\":20642:21008   */\n      swap2\n      swap1\n      pop\n      jump\t// out\n        /* \"#utility.yul\":21014:21433   */\n    tag_247:\n        /* \"#utility.yul\":21180:21184   */\n      0x00\n        /* \"#utility.yul\":21218:21220   */\n      0x20\n        /* \"#utility.yul\":21207:21216   */\n      dup3\n        /* \"#utility.yul\":21203:21221   */\n      add\n        /* \"#utility.yul\":21195:21221   */\n      swap1\n      pop\n        /* \"#utility.yul\":21267:21276   */\n      dup2\n        /* \"#utility.yul\":21261:21265   */\n      dup2\n        /* \"#utility.yul\":21257:21277   */\n      sub\n        /* \"#utility.yul\":21253:21254   */\n      0x00\n        /* \"#utility.yul\":21242:21251   */\n      dup4\n        /* \"#utility.yul\":21238:21255   */\n      add\n        /* \"#utility.yul\":21231:21278   */\n      mstore\n        /* \"#utility.yul\":21295:21426   */\n      tag_668\n        /* \"#utility.yul\":21421:21425   */\n      dup2\n        /* \"#utility.yul\":21295:21426   */\n      tag_433\n      jump\t// in\n    tag_668:\n        /* \"#utility.yul\":21287:21426   */\n      swap1\n      pop\n        /* \"#utility.yul\":21014:21433   */\n      swap2\n      swap1\n      pop\n      jump\t// out\n        /* \"#utility.yul\":21439:21615   */\n    tag_434:\n        /* \"#utility.yul\":21579:21607   */\n      0x41726269747261676520657865637574696f6e206661696c6564000000000000\n        /* \"#utility.yul\":21575:21576   */\n      0x00\n        /* \"#utility.yul\":21567:21573   */\n      dup3\n        /* \"#utility.yul\":21563:21577   */\n      add\n        /* \"#utility.yul\":21556:21608   */\n      mstore\n        /* \"#utility.yul\":21439:21615   */\n      pop\n      jump\t// out\n        /* \"#utility.yul\":21621:21987   */\n    tag_435:\n        /* \"#utility.yul\":21763:21766   */\n      0x00\n        /* \"#utility.yul\":21784:21851   */\n      tag_671\n        /* \"#utility.yul\":21848:21850   */\n      0x1a\n        /* \"#utility.yul\":21843:21846   */\n      dup4\n        /* \"#utility.yul\":21784:21851   */\n      tag_399\n      jump\t// in\n    tag_671:\n        /* \"#utility.yul\":21777:21851   */\n      swap2\n      pop\n        /* \"#utility.yul\":21860:21953   */\n      tag_672\n        /* \"#utility.yul\":21949:21952   */\n      dup3\n        /* \"#utility.yul\":21860:21953   */\n      tag_434\n      jump\t// in\n    tag_672:\n        /* \"#utility.yul\":21978:21980   */\n      0x20\n        /* \"#utility.yul\":21973:21976   */\n      dup3\n        /* \"#utility.yul\":21969:21981   */\n      add\n        /* \"#utility.yul\":21962:21981   */\n      swap1\n      pop\n        /* \"#utility.yul\":21621:21987   */\n      swap2\n      swap1\n      pop\n      jump\t// out\n        /* \"#utility.yul\":21993:22412   */\n    tag_254:\n        /* \"#utility.yul\":22159:22163   */\n      0x00\n        /* \"#utility.yul\":22197:22199   */\n      0x20\n        /* \"#utility.yul\":22186:22195   */\n      dup3\n        /* \"#utility.yul\":22182:22200   */\n      add\n        /* \"#utility.yul\":22174:22200   */\n      swap1\n      pop\n        /* \"#utility.yul\":22246:22255   */\n      dup2\n        /* \"#utility.yul\":22240:22244   */\n      dup2\n        /* \"#utility.yul\":22236:22256   */\n      sub\n        /* \"#utility.yul\":22232:22233   */\n      0x00\n        /* \"#utility.yul\":22221:22230   */\n      dup4\n        /* \"#utility.yul\":22217:22234   */\n      add\n        /* \"#utility.yul\":22210:22257   */\n      mstore\n        /* \"#utility.yul\":22274:22405   */\n      tag_674\n        /* \"#utility.yul\":22400:22404   */\n      dup2\n        /* \"#utility.yul\":22274:22405   */\n      tag_435\n      jump\t// in\n    tag_674:\n        /* \"#utility.yul\":22266:22405   */\n      swap1\n      pop\n        /* \"#utility.yul\":21993:22412   */\n      swap2\n      swap1\n      pop\n      jump\t// out\n        /* \"#utility.yul\":22418:22565   */\n    tag_436:\n        /* \"#utility.yul\":22519:22530   */\n      0x00\n        /* \"#utility.yul\":22556:22559   */\n      dup2\n        /* \"#utility.yul\":22541:22559   */\n      swap1\n      pop\n        /* \"#utility.yul\":22418:22565   */\n      swap3\n      swap2\n      pop\n      pop\n      jump\t// out\n        /* \"#utility.yul\":22571:22685   */\n    tag_437:\n      pop\n      jump\t// out\n        /* \"#utility.yul\":22691:23089   */\n    tag_438:\n        /* \"#utility.yul\":22850:22853   */\n      0x00\n        /* \"#utility.yul\":22871:22954   */\n      tag_678\n        /* \"#utility.yul\":22952:22953   */\n      0x00\n        /* \"#utility.yul\":22947:22950   */\n      dup4\n        /* \"#utility.yul\":22871:22954   */\n      tag_436\n      jump\t// in\n    tag_678:\n        /* \"#utility.yul\":22864:22954   */\n      swap2\n      pop\n        /* \"#utility.yul\":22963:23056   */\n      tag_679\n        /* \"#utility.yul\":23052:23055   */\n      dup3\n        /* \"#utility.yul\":22963:23056   */\n      tag_437\n      jump\t// in\n    tag_679:\n        /* \"#utility.yul\":23081:23082   */\n      0x00\n        /* \"#utility.yul\":23076:23079   */\n      dup3\n        /* \"#utility.yul\":23072:23083   */\n      add\n        /* \"#utility.yul\":23065:23083   */\n      swap1\n      pop\n        /* \"#utility.yul\":22691:23089   */\n      swap2\n      swap1\n      pop\n      jump\t// out\n        /* \"#utility.yul\":23095:23474   */\n    tag_256:\n        /* \"#utility.yul\":23279:23282   */\n      0x00\n        /* \"#utility.yul\":23301:23448   */\n      tag_681\n        /* \"#utility.yul\":23444:23447   */\n      dup3\n        /* \"#utility.yul\":23301:23448   */\n      tag_438\n      jump\t// in\n    tag_681:\n        /* \"#utility.yul\":23294:23448   */\n      swap2\n      pop\n        /* \"#utility.yul\":23465:23468   */\n      dup2\n        /* \"#utility.yul\":23458:23468   */\n      swap1\n      pop\n        /* \"#utility.yul\":23095:23474   */\n      swap2\n      swap1\n      pop\n      jump\t// out\n        /* \"#utility.yul\":23480:23649   */\n    tag_439:\n        /* \"#utility.yul\":23620:23641   */\n      0x455448207472616e73666572206661696c656400000000000000000000000000\n        /* \"#utility.yul\":23616:23617   */\n      0x00\n        /* \"#utility.yul\":23608:23614   */\n      dup3\n        /* \"#utility.yul\":23604:23618   */\n      add\n        /* \"#utility.yul\":23597:23642   */\n      mstore\n        /* \"#utility.yul\":23480:23649   */\n      pop\n      jump\t// out\n        /* \"#utility.yul\":23655:24021   */\n    tag_440:\n        /* \"#utility.yul\":23797:23800   */\n      0x00\n        /* \"#utility.yul\":23818:23885   */\n      tag_684\n        /* \"#utility.yul\":23882:23884   */\n      0x13\n        /* \"#utility.yul\":23877:23880   */\n      dup4\n        /* \"#utility.yul\":23818:23885   */\n      tag_399\n      jump\t// in\n    tag_684:\n        /* \"#utility.yul\":23811:23885   */\n      swap2\n      pop\n        /* \"#utility.yul\":23894:23987   */\n      tag_685\n        /* \"#utility.yul\":23983:23986   */\n      dup3\n        /* \"#utility.yul\":23894:23987   */\n      tag_439\n      jump\t// in\n    tag_685:\n        /* \"#utility.yul\":24012:24014   */\n      0x20\n        /* \"#utility.yul\":24007:24010   */\n      dup3\n        /* \"#utility.yul\":24003:24015   */\n      add\n        /* \"#utility.yul\":23996:24015   */\n      swap1\n      pop\n        /* \"#utility.yul\":23655:24021   */\n      swap2\n      swap1\n      pop\n      jump\t// out\n        /* \"#utility.yul\":24027:24446   */\n    tag_262:\n        /* \"#utility.yul\":24193:24197   */\n      0x00\n        /* \"#utility.yul\":24231:24233   */\n      0x20\n        /* \"#utility.yul\":24220:24229   */\n      dup3\n        /* \"#utility.yul\":24216:24234   */\n      add\n        /* \"#utility.yul\":24208:24234   */\n      swap1\n      pop\n        /* \"#utility.yul\":24280:24289   */\n      dup2\n        /* \"#utility.yul\":24274:24278   */\n      dup2\n        /* \"#utility.yul\":24270:24290   */\n      sub\n        /* \"#utility.yul\":24266:24267   */\n      0x00\n        /* \"#utility.yul\":24255:24264   */\n      dup4\n        /* \"#utility.yul\":24251:24268   */\n      add\n        /* \"#utility.yul\":24244:24291   */\n      mstore\n        /* \"#utility.yul\":24308:24439   */\n      tag_687\n        /* \"#utility.yul\":24434:24438   */\n      dup2\n        /* \"#utility.yul\":24308:24439   */\n      tag_440\n      jump\t// in\n    tag_687:\n        /* \"#utility.yul\":24300:24439   */\n      swap1\n      pop\n        /* \"#utility.yul\":24027:24446   */\n      swap2\n      swap1\n      pop\n      jump\t// out\n        /* \"#utility.yul\":24452:24619   */\n    tag_441:\n        /* \"#utility.yul\":24592:24611   */\n      0x4554482072657475726e206661696c6564000000000000000000000000000000\n        /* \"#utility.yul\":24588:24589   */\n      0x00\n        /* \"#utility.yul\":24580:24586   */\n      dup3\n        /* \"#utility.yul\":24576:24590   */\n      add\n        /* \"#utility.yul\":24569:24612   */\n      mstore\n        /* \"#utility.yul\":24452:24619   */\n      pop\n      jump\t// out\n        /* \"#utility.yul\":24625:24991   */\n    tag_442:\n        /* \"#utility.yul\":24767:24770   */\n      0x00\n        /* \"#utility.yul\":24788:24855   */\n      tag_690\n        /* \"#utility.yul\":24852:24854   */\n      0x11\n        /* \"#utility.yul\":24847:24850   */\n      dup4\n        /* \"#utility.yul\":24788:24855   */\n      tag_399\n      jump\t// in\n    tag_690:\n        /* \"#utility.yul\":24781:24855   */\n      swap2\n      pop\n        /* \"#utility.yul\":24864:24957   */\n      tag_691\n        /* \"#utility.yul\":24953:24956   */\n      dup3\n        /* \"#utility.yul\":24864:24957   */\n      tag_441\n      jump\t// in\n    tag_691:\n        /* \"#utility.yul\":24982:24984   */\n      0x20\n        /* \"#utility.yul\":24977:24980   */\n      dup3\n        /* \"#utility.yul\":24973:24985   */\n      add\n        /* \"#utility.yul\":24966:24985   */\n      swap1\n      pop\n        /* \"#utility.yul\":24625:24991   */\n      swap2\n      swap1\n      pop\n      jump\t// out\n        /* \"#utility.yul\":24997:25416   */\n    tag_270:\n        /* \"#utility.yul\":25163:25167   */\n      0x00\n        /* \"#utility.yul\":25201:25203   */\n      0x20\n        /* \"#utility.yul\":25190:25199   */\n      dup3\n        /* \"#utility.yul\":25186:25204   */\n      add\n        /* \"#utility.yul\":25178:25204   */\n      swap1\n      pop\n        /* \"#utility.yul\":25250:25259   */\n      dup2\n        /* \"#utility.yul\":25244:25248   */\n      dup2\n        /* \"#utility.yul\":25240:25260   */\n      sub\n        /* \"#utility.yul\":25236:25237   */\n      0x00\n        /* \"#utility.yul\":25225:25234   */\n      dup4\n        /* \"#utility.yul\":25221:25238   */\n      add\n        /* \"#utility.yul\":25214:25261   */\n      mstore\n        /* \"#utility.yul\":25278:25409   */\n      tag_693\n        /* \"#utility.yul\":25404:25408   */\n      dup2\n        /* \"#utility.yul\":25278:25409   */\n      tag_442\n      jump\t// in\n    tag_693:\n        /* \"#utility.yul\":25270:25409   */\n      swap1\n      pop\n        /* \"#utility.yul\":24997:25416   */\n      swap2\n      swap1\n      pop\n      jump\t// out\n        /* \"#utility.yul\":25422:25596   */\n    tag_443:\n        /* \"#utility.yul\":25562:25588   */\n      0x496e73756666696369656e74204554482062616c616e63650000000000000000\n        /* \"#utility.yul\":25558:25559   */\n      0x00\n        /* \"#utility.yul\":25550:25556   */\n      dup3\n        /* \"#utility.yul\":25546:25560   */\n      add\n        /* \"#utility.yul\":25539:25589   */\n      mstore\n        /* \"#utility.yul\":25422:25596   */\n      pop\n      jump\t// out\n        /* \"#utility.yul\":25602:25968   */\n    tag_444:\n        /* \"#utility.yul\":25744:25747   */\n      0x00\n        /* \"#utility.yul\":25765:25832   */\n      tag_696\n        /* \"#utility.yul\":25829:25831   */\n      0x18\n        /* \"#utility.yul\":25824:25827   */\n      dup4\n        /* \"#utility.yul\":25765:25832   */\n      tag_399\n      jump\t// in\n    tag_696:\n        /* \"#utility.yul\":25758:25832   */\n      swap2\n      pop\n        /* \"#utility.yul\":25841:25934   */\n      tag_697\n        /* \"#utility.yul\":25930:25933   */\n      dup3\n        /* \"#utility.yul\":25841:25934   */\n      tag_443\n      jump\t// in\n    tag_697:\n        /* \"#utility.yul\":25959:25961   */\n      0x20\n        /* \"#utility.yul\":25954:25957   */\n      dup3\n        /* \"#utility.yul\":25950:25962   */\n      add\n        /* \"#utility.yul\":25943:25962   */\n      swap1\n      pop\n        /* \"#utility.yul\":25602:25968   */\n      swap2\n      swap1\n      pop\n      jump\t// out\n        /* \"#utility.yul\":25974:26393   */\n    tag_308:\n        /* \"#utility.yul\":26140:26144   */\n      0x00\n        /* \"#utility.yul\":26178:26180   */\n      0x20\n        /* \"#utility.yul\":26167:26176   */\n      dup3\n        /* \"#utility.yul\":26163:26181   */\n      add\n        /* \"#utility.yul\":26155:26181   */\n      swap1\n      pop\n        /* \"#utility.yul\":26227:26236   */\n      dup2\n        /* \"#utility.yul\":26221:26225   */\n      dup2\n        /* \"#utility.yul\":26217:26237   */\n      sub\n        /* \"#utility.yul\":26213:26214   */\n      0x00\n        /* \"#utility.yul\":26202:26211   */\n      dup4\n        /* \"#utility.yul\":26198:26215   */\n      add\n        /* \"#utility.yul\":26191:26238   */\n      mstore\n        /* \"#utility.yul\":26255:26386   */\n      tag_699\n        /* \"#utility.yul\":26381:26385   */\n      dup2\n        /* \"#utility.yul\":26255:26386   */\n      tag_444\n      jump\t// in\n    tag_699:\n        /* \"#utility.yul\":26247:26386   */\n      swap1\n      pop\n        /* \"#utility.yul\":25974:26393   */\n      swap2\n      swap1\n      pop\n      jump\t// out\n        /* \"#utility.yul\":26399:26590   */\n    tag_315:\n        /* \"#utility.yul\":26439:26442   */\n      0x00\n        /* \"#utility.yul\":26458:26478   */\n      tag_701\n        /* \"#utility.yul\":26476:26477   */\n      dup3\n        /* \"#utility.yul\":26458:26478   */\n      tag_393\n      jump\t// in\n    tag_701:\n        /* \"#utility.yul\":26453:26478   */\n      swap2\n      pop\n        /* \"#utility.yul\":26492:26512   */\n      tag_702\n        /* \"#utility.yul\":26510:26511   */\n      dup4\n        /* \"#utility.yul\":26492:26512   */\n      tag_393\n      jump\t// in\n    tag_702:\n        /* \"#utility.yul\":26487:26512   */\n      swap3\n      pop\n        /* \"#utility.yul\":26535:26536   */\n      dup3\n        /* \"#utility.yul\":26532:26533   */\n      dup3\n        /* \"#utility.yul\":26528:26537   */\n      add\n        /* \"#utility.yul\":26521:26537   */\n      swap1\n      pop\n        /* \"#utility.yul\":26556:26559   */\n      dup1\n        /* \"#utility.yul\":26553:26554   */\n      dup3\n        /* \"#utility.yul\":26550:26560   */\n      gt\n        /* \"#utility.yul\":26547:26583   */\n      iszero\n      tag_703\n      jumpi\n        /* \"#utility.yul\":26563:26581   */\n      tag_704\n      tag_425\n      jump\t// in\n    tag_704:\n        /* \"#utility.yul\":26547:26583   */\n    tag_703:\n        /* \"#utility.yul\":26399:26590   */\n      swap3\n      swap2\n      pop\n      pop\n      jump\t// out\n        /* \"#utility.yul\":26596:26765   */\n    tag_445:\n        /* \"#utility.yul\":26736:26757   */\n      0x546f6f20736f6f6e20746f206578656375746500000000000000000000000000\n        /* \"#utility.yul\":26732:26733   */\n      0x00\n        /* \"#utility.yul\":26724:26730   */\n      dup3\n        /* \"#utility.yul\":26720:26734   */\n      add\n        /* \"#utility.yul\":26713:26758   */\n      mstore\n        /* \"#utility.yul\":26596:26765   */\n      pop\n      jump\t// out\n        /* \"#utility.yul\":26771:27137   */\n    tag_446:\n        /* \"#utility.yul\":26913:26916   */\n      0x00\n        /* \"#utility.yul\":26934:27001   */\n      tag_707\n        /* \"#utility.yul\":26998:27000   */\n      0x13\n        /* \"#utility.yul\":26993:26996   */\n      dup4\n        /* \"#utility.yul\":26934:27001   */\n      tag_399\n      jump\t// in\n    tag_707:\n        /* \"#utility.yul\":26927:27001   */\n      swap2\n      pop\n        /* \"#utility.yul\":27010:27103   */\n      tag_708\n        /* \"#utility.yul\":27099:27102   */\n      dup3\n        /* \"#utility.yul\":27010:27103   */\n      tag_445\n      jump\t// in\n    tag_708:\n        /* \"#utility.yul\":27128:27130   */\n      0x20\n        /* \"#utility.yul\":27123:27126   */\n      dup3\n        /* \"#utility.yul\":27119:27131   */\n      add\n        /* \"#utility.yul\":27112:27131   */\n      swap1\n      pop\n        /* \"#utility.yul\":26771:27137   */\n      swap2\n      swap1\n      pop\n      jump\t// out\n        /* \"#utility.yul\":27143:27562   */\n    tag_318:\n        /* \"#utility.yul\":27309:27313   */\n      0x00\n        /* \"#utility.yul\":27347:27349   */\n      0x20\n        /* \"#utility.yul\":27336:27345   */\n      dup3\n        /* \"#utility.yul\":27332:27350   */\n      add\n        /* \"#utility.yul\":27324:27350   */\n      swap1\n      pop\n        /* \"#utility.yul\":27396:27405   */\n      dup2\n        /* \"#utility.yul\":27390:27394   */\n      dup2\n        /* \"#utility.yul\":27386:27406   */\n      sub\n        /* \"#utility.yul\":27382:27383   */\n      0x00\n        /* \"#utility.yul\":27371:27380   */\n      dup4\n        /* \"#utility.yul\":27367:27384   */\n      add\n        /* \"#utility.yul\":27360:27407   */\n      mstore\n        /* \"#utility.yul\":27424:27555   */\n      tag_710\n        /* \"#utility.yul\":27550:27554   */\n      dup2\n        /* \"#utility.yul\":27424:27555   */\n      tag_446\n      jump\t// in\n    tag_710:\n        /* \"#utility.yul\":27416:27555   */\n      swap1\n      pop\n        /* \"#utility.yul\":27143:27562   */\n      swap2\n      swap1\n      pop\n      jump\t// out\n        /* \"#utility.yul\":27568:27653   */\n    tag_447:\n        /* \"#utility.yul\":27613:27620   */\n      0x00\n        /* \"#utility.yul\":27642:27647   */\n      dup2\n        /* \"#utility.yul\":27631:27647   */\n      swap1\n      pop\n        /* \"#utility.yul\":27568:27653   */\n      swap2\n      swap1\n      pop\n      jump\t// out\n        /* \"#utility.yul\":27659:27719   */\n    tag_448:\n        /* \"#utility.yul\":27687:27690   */\n      0x00\n        /* \"#utility.yul\":27708:27713   */\n      dup2\n        /* \"#utility.yul\":27701:27713   */\n      swap1\n      pop\n        /* \"#utility.yul\":27659:27719   */\n      swap2\n      swap1\n      pop\n      jump\t// out\n        /* \"#utility.yul\":27725:27883   */\n    tag_449:\n        /* \"#utility.yul\":27783:27792   */\n      0x00\n        /* \"#utility.yul\":27816:27877   */\n      tag_714\n        /* \"#utility.yul\":27834:27876   */\n      tag_715\n        /* \"#utility.yul\":27843:27875   */\n      tag_716\n        /* \"#utility.yul\":27869:27874   */\n      dup5\n        /* \"#utility.yul\":27843:27875   */\n      tag_447\n      jump\t// in\n    tag_716:\n        /* \"#utility.yul\":27834:27876   */\n      tag_448\n      jump\t// in\n    tag_715:\n        /* \"#utility.yul\":27816:27877   */\n      tag_393\n      jump\t// in\n    tag_714:\n        /* \"#utility.yul\":27803:27877   */\n      swap1\n      pop\n        /* \"#utility.yul\":27725:27883   */\n      swap2\n      swap1\n      pop\n      jump\t// out\n        /* \"#utility.yul\":27889:28036   */\n    tag_450:\n        /* \"#utility.yul\":27984:28029   */\n      tag_718\n        /* \"#utility.yul\":28023:28028   */\n      dup2\n        /* \"#utility.yul\":27984:28029   */\n      tag_449\n      jump\t// in\n    tag_718:\n        /* \"#utility.yul\":27979:27982   */\n      dup3\n        /* \"#utility.yul\":27972:28030   */\n      mstore\n        /* \"#utility.yul\":27889:28036   */\n      pop\n      pop\n      jump\t// out\n        /* \"#utility.yul\":28042:28762   */\n    tag_331:\n        /* \"#utility.yul\":28277:28281   */\n      0x00\n        /* \"#utility.yul\":28315:28318   */\n      0x80\n        /* \"#utility.yul\":28304:28313   */\n      dup3\n        /* \"#utility.yul\":28300:28319   */\n      add\n        /* \"#utility.yul\":28292:28319   */\n      swap1\n      pop\n        /* \"#utility.yul\":28329:28408   */\n      tag_720\n        /* \"#utility.yul\":28405:28406   */\n      0x00\n        /* \"#utility.yul\":28394:28403   */\n      dup4\n        /* \"#utility.yul\":28390:28407   */\n      add\n        /* \"#utility.yul\":28381:28387   */\n      dup8\n        /* \"#utility.yul\":28329:28408   */\n      tag_450\n      jump\t// in\n    tag_720:\n        /* \"#utility.yul\":28455:28464   */\n      dup2\n        /* \"#utility.yul\":28449:28453   */\n      dup2\n        /* \"#utility.yul\":28445:28465   */\n      sub\n        /* \"#utility.yul\":28440:28442   */\n      0x20\n        /* \"#utility.yul\":28429:28438   */\n      dup4\n        /* \"#utility.yul\":28425:28443   */\n      add\n        /* \"#utility.yul\":28418:28466   */\n      mstore\n        /* \"#utility.yul\":28483:28591   */\n      tag_721\n        /* \"#utility.yul\":28586:28590   */\n      dup2\n        /* \"#utility.yul\":28577:28583   */\n      dup7\n        /* \"#utility.yul\":28483:28591   */\n      tag_415\n      jump\t// in\n    tag_721:\n        /* \"#utility.yul\":28475:28591   */\n      swap1\n      pop\n        /* \"#utility.yul\":28601:28673   */\n      tag_722\n        /* \"#utility.yul\":28669:28671   */\n      0x40\n        /* \"#utility.yul\":28658:28667   */\n      dup4\n        /* \"#utility.yul\":28654:28672   */\n      add\n        /* \"#utility.yul\":28645:28651   */\n      dup6\n        /* \"#utility.yul\":28601:28673   */\n      tag_398\n      jump\t// in\n    tag_722:\n        /* \"#utility.yul\":28683:28755   */\n      tag_723\n        /* \"#utility.yul\":28751:28753   */\n      0x60\n        /* \"#utility.yul\":28740:28749   */\n      dup4\n        /* \"#utility.yul\":28736:28754   */\n      add\n        /* \"#utility.yul\":28727:28733   */\n      dup5\n        /* \"#utility.yul\":28683:28755   */\n      tag_394\n      jump\t// in\n    tag_723:\n        /* \"#utility.yul\":28042:28762   */\n      swap6\n      swap5\n      pop\n      pop\n      pop\n      pop\n      pop\n      jump\t// out\n        /* \"#utility.yul\":28768:29583   */\n    tag_352:\n        /* \"#utility.yul\":29023:29027   */\n      0x00\n        /* \"#utility.yul\":29061:29064   */\n      0xa0\n        /* \"#utility.yul\":29050:29059   */\n      dup3\n        /* \"#utility.yul\":29046:29065   */\n      add\n        /* \"#utility.yul\":29038:29065   */\n      swap1\n      pop\n        /* \"#utility.yul\":29075:29146   */\n      tag_725\n        /* \"#utility.yul\":29143:29144   */\n      0x00\n        /* \"#utility.yul\":29132:29141   */\n      dup4\n        /* \"#utility.yul\":29128:29145   */\n      add\n        /* \"#utility.yul\":29119:29125   */\n      dup9\n        /* \"#utility.yul\":29075:29146   */\n      tag_394\n      jump\t// in\n    tag_725:\n        /* \"#utility.yul\":29156:29228   */\n      tag_726\n        /* \"#utility.yul\":29224:29226   */\n      0x20\n        /* \"#utility.yul\":29213:29222   */\n      dup4\n        /* \"#utility.yul\":29209:29227   */\n      add\n        /* \"#utility.yul\":29200:29206   */\n      dup8\n        /* \"#utility.yul\":29156:29228   */\n      tag_394\n      jump\t// in\n    tag_726:\n        /* \"#utility.yul\":29275:29284   */\n      dup2\n        /* \"#utility.yul\":29269:29273   */\n      dup2\n        /* \"#utility.yul\":29265:29285   */\n      sub\n        /* \"#utility.yul\":29260:29262   */\n      0x40\n        /* \"#utility.yul\":29249:29258   */\n      dup4\n        /* \"#utility.yul\":29245:29263   */\n      add\n        /* \"#utility.yul\":29238:29286   */\n      mstore\n        /* \"#utility.yul\":29303:29411   */\n      tag_727\n        /* \"#utility.yul\":29406:29410   */\n      dup2\n        /* \"#utility.yul\":29397:29403   */\n      dup7\n        /* \"#utility.yul\":29303:29411   */\n      tag_415\n      jump\t// in\n    tag_727:\n        /* \"#utility.yul\":29295:29411   */\n      swap1\n      pop\n        /* \"#utility.yul\":29421:29493   */\n      tag_728\n        /* \"#utility.yul\":29489:29491   */\n      0x60\n        /* \"#utility.yul\":29478:29487   */\n      dup4\n        /* \"#utility.yul\":29474:29492   */\n      add\n        /* \"#utility.yul\":29465:29471   */\n      dup6\n        /* \"#utility.yul\":29421:29493   */\n      tag_398\n      jump\t// in\n    tag_728:\n        /* \"#utility.yul\":29503:29576   */\n      tag_729\n        /* \"#utility.yul\":29571:29574   */\n      0x80\n        /* \"#utility.yul\":29560:29569   */\n      dup4\n        /* \"#utility.yul\":29556:29575   */\n      add\n        /* \"#utility.yul\":29547:29553   */\n      dup5\n        /* \"#utility.yul\":29503:29576   */\n      tag_394\n      jump\t// in\n    tag_729:\n        /* \"#utility.yul\":28768:29583   */\n      swap7\n      swap6\n      pop\n      pop\n      pop\n      pop\n      pop\n      pop\n      jump\t// out\n        /* \"#utility.yul\":29589:29753   */\n    tag_451:\n        /* \"#utility.yul\":29729:29745   */\n      0x4e6f2070726f666974206d616465000000000000000000000000000000000000\n        /* \"#utility.yul\":29725:29726   */\n      0x00\n        /* \"#utility.yul\":29717:29723   */\n      dup3\n        /* \"#utility.yul\":29713:29727   */\n      add\n        /* \"#utility.yul\":29706:29746   */\n      mstore\n        /* \"#utility.yul\":29589:29753   */\n      pop\n      jump\t// out\n        /* \"#utility.yul\":29759:30125   */\n    tag_452:\n        /* \"#utility.yul\":29901:29904   */\n      0x00\n        /* \"#utility.yul\":29922:29989   */\n      tag_732\n        /* \"#utility.yul\":29986:29988   */\n      0x0e\n        /* \"#utility.yul\":29981:29984   */\n      dup4\n        /* \"#utility.yul\":29922:29989   */\n      tag_399\n      jump\t// in\n    tag_732:\n        /* \"#utility.yul\":29915:29989   */\n      swap2\n      pop\n        /* \"#utility.yul\":29998:30091   */\n      tag_733\n        /* \"#utility.yul\":30087:30090   */\n      dup3\n        /* \"#utility.yul\":29998:30091   */\n      tag_451\n      jump\t// in\n    tag_733:\n        /* \"#utility.yul\":30116:30118   */\n      0x20\n        /* \"#utility.yul\":30111:30114   */\n      dup3\n        /* \"#utility.yul\":30107:30119   */\n      add\n        /* \"#utility.yul\":30100:30119   */\n      swap1\n      pop\n        /* \"#utility.yul\":29759:30125   */\n      swap2\n      swap1\n      pop\n      jump\t// out\n        /* \"#utility.yul\":30131:30550   */\n    tag_358:\n        /* \"#utility.yul\":30297:30301   */\n      0x00\n        /* \"#utility.yul\":30335:30337   */\n      0x20\n        /* \"#utility.yul\":30324:30333   */\n      dup3\n        /* \"#utility.yul\":30320:30338   */\n      add\n        /* \"#utility.yul\":30312:30338   */\n      swap1\n      pop\n        /* \"#utility.yul\":30384:30393   */\n      dup2\n        /* \"#utility.yul\":30378:30382   */\n      dup2\n        /* \"#utility.yul\":30374:30394   */\n      sub\n        /* \"#utility.yul\":30370:30371   */\n      0x00\n        /* \"#utility.yul\":30359:30368   */\n      dup4\n        /* \"#utility.yul\":30355:30372   */\n      add\n        /* \"#utility.yul\":30348:30395   */\n      mstore\n        /* \"#utility.yul\":30412:30543   */\n      tag_735\n        /* \"#utility.yul\":30538:30542   */\n      dup2\n        /* \"#utility.yul\":30412:30543   */\n      tag_452\n      jump\t// in\n    tag_735:\n        /* \"#utility.yul\":30404:30543   */\n      swap1\n      pop\n        /* \"#utility.yul\":30131:30550   */\n      swap2\n      swap1\n      pop\n      jump\t// out\n        /* \"#utility.yul\":30556:30725   */\n    tag_453:\n        /* \"#utility.yul\":30696:30717   */\n      0x496e73756666696369656e742070726f66697400000000000000000000000000\n        /* \"#utility.yul\":30692:30693   */\n      0x00\n        /* \"#utility.yul\":30684:30690   */\n      dup3\n        /* \"#utility.yul\":30680:30694   */\n      add\n        /* \"#utility.yul\":30673:30718   */\n      mstore\n        /* \"#utility.yul\":30556:30725   */\n      pop\n      jump\t// out\n        /* \"#utility.yul\":30731:31097   */\n    tag_454:\n        /* \"#utility.yul\":30873:30876   */\n      0x00\n        /* \"#utility.yul\":30894:30961   */\n      tag_738\n        /* \"#utility.yul\":30958:30960   */\n      0x13\n        /* \"#utility.yul\":30953:30956   */\n      dup4\n        /* \"#utility.yul\":30894:30961   */\n      tag_399\n      jump\t// in\n    tag_738:\n        /* \"#utility.yul\":30887:30961   */\n      swap2\n      pop\n        /* \"#utility.yul\":30970:31063   */\n      tag_739\n        /* \"#utility.yul\":31059:31062   */\n      dup3\n        /* \"#utility.yul\":30970:31063   */\n      tag_453\n      jump\t// in\n    tag_739:\n        /* \"#utility.yul\":31088:31090   */\n      0x20\n        /* \"#utility.yul\":31083:31086   */\n      dup3\n        /* \"#utility.yul\":31079:31091   */\n      add\n        /* \"#utility.yul\":31072:31091   */\n      swap1\n      pop\n        /* \"#utility.yul\":30731:31097   */\n      swap2\n      swap1\n      pop\n      jump\t// out\n        /* \"#utility.yul\":31103:31522   */\n    tag_362:\n        /* \"#utility.yul\":31269:31273   */\n      0x00\n        /* \"#utility.yul\":31307:31309   */\n      0x20\n        /* \"#utility.yul\":31296:31305   */\n      dup3\n        /* \"#utility.yul\":31292:31310   */\n      add\n        /* \"#utility.yul\":31284:31310   */\n      swap1\n      pop\n        /* \"#utility.yul\":31356:31365   */\n      dup2\n        /* \"#utility.yul\":31350:31354   */\n      dup2\n        /* \"#utility.yul\":31346:31366   */\n      sub\n        /* \"#utility.yul\":31342:31343   */\n      0x00\n        /* \"#utility.yul\":31331:31340   */\n      dup4\n        /* \"#utility.yul\":31327:31344   */\n      add\n        /* \"#utility.yul\":31320:31367   */\n      mstore\n        /* \"#utility.yul\":31384:31515   */\n      tag_741\n        /* \"#utility.yul\":31510:31514   */\n      dup2\n        /* \"#utility.yul\":31384:31515   */\n      tag_454\n      jump\t// in\n    tag_741:\n        /* \"#utility.yul\":31376:31515   */\n      swap1\n      pop\n        /* \"#utility.yul\":31103:31522   */\n      swap2\n      swap1\n      pop\n      jump\t// out\n        /* \"#utility.yul\":31528:31970   */\n    tag_364:\n        /* \"#utility.yul\":31677:31681   */\n      0x00\n        /* \"#utility.yul\":31715:31717   */\n      0x60\n        /* \"#utility.yul\":31704:31713   */\n      dup3\n        /* \"#utility.yul\":31700:31718   */\n      add\n        /* \"#utility.yul\":31692:31718   */\n      swap1\n      pop\n        /* \"#utility.yul\":31728:31799   */\n      tag_743\n        /* \"#utility.yul\":31796:31797   */\n      0x00\n        /* \"#utility.yul\":31785:31794   */\n      dup4\n        /* \"#utility.yul\":31781:31798   */\n      add\n        /* \"#utility.yul\":31772:31778   */\n      dup7\n        /* \"#utility.yul\":31728:31799   */\n      tag_394\n      jump\t// in\n    tag_743:\n        /* \"#utility.yul\":31809:31881   */\n      tag_744\n        /* \"#utility.yul\":31877:31879   */\n      0x20\n        /* \"#utility.yul\":31866:31875   */\n      dup4\n        /* \"#utility.yul\":31862:31880   */\n      add\n        /* \"#utility.yul\":31853:31859   */\n      dup6\n        /* \"#utility.yul\":31809:31881   */\n      tag_394\n      jump\t// in\n    tag_744:\n        /* \"#utility.yul\":31891:31963   */\n      tag_745\n        /* \"#utility.yul\":31959:31961   */\n      0x40\n        /* \"#utility.yul\":31948:31957   */\n      dup4\n        /* \"#utility.yul\":31944:31962   */\n      add\n        /* \"#utility.yul\":31935:31941   */\n      dup5\n        /* \"#utility.yul\":31891:31963   */\n      tag_394\n      jump\t// in\n    tag_745:\n        /* \"#utility.yul\":31528:31970   */\n      swap5\n      swap4\n      pop\n      pop\n      pop\n      pop\n      jump\t// out\n        /* \"#utility.yul\":31976:32146   */\n    tag_455:\n        /* \"#utility.yul\":32116:32138   */\n      0x5061757361626c653a206e6f7420706175736564000000000000000000000000\n        /* \"#utility.yul\":32112:32113   */\n      0x00\n        /* \"#utility.yul\":32104:32110   */\n      dup3\n        /* \"#utility.yul\":32100:32114   */\n      add\n        /* \"#utility.yul\":32093:32139   */\n      mstore\n        /* \"#utility.yul\":31976:32146   */\n      pop\n      jump\t// out\n        /* \"#utility.yul\":32152:32518   */\n    tag_456:\n        /* \"#utility.yul\":32294:32297   */\n      0x00\n        /* \"#utility.yul\":32315:32382   */\n      tag_748\n        /* \"#utility.yul\":32379:32381   */\n      0x14\n        /* \"#utility.yul\":32374:32377   */\n      dup4\n        /* \"#utility.yul\":32315:32382   */\n      tag_399\n      jump\t// in\n    tag_748:\n        /* \"#utility.yul\":32308:32382   */\n      swap2\n      pop\n        /* \"#utility.yul\":32391:32484   */\n      tag_749\n        /* \"#utility.yul\":32480:32483   */\n      dup3\n        /* \"#utility.yul\":32391:32484   */\n      tag_455\n      jump\t// in\n    tag_749:\n        /* \"#utility.yul\":32509:32511   */\n      0x20\n        /* \"#utility.yul\":32504:32507   */\n      dup3\n        /* \"#utility.yul\":32500:32512   */\n      add\n        /* \"#utility.yul\":32493:32512   */\n      swap1\n      pop\n        /* \"#utility.yul\":32152:32518   */\n      swap2\n      swap1\n      pop\n      jump\t// out\n        /* \"#utility.yul\":32524:32943   */\n    tag_372:\n        /* \"#utility.yul\":32690:32694   */\n      0x00\n        /* \"#utility.yul\":32728:32730   */\n      0x20\n        /* \"#utility.yul\":32717:32726   */\n      dup3\n        /* \"#utility.yul\":32713:32731   */\n      add\n        /* \"#utility.yul\":32705:32731   */\n      swap1\n      pop\n        /* \"#utility.yul\":32777:32786   */\n      dup2\n        /* \"#utility.yul\":32771:32775   */\n      dup2\n        /* \"#utility.yul\":32767:32787   */\n      sub\n        /* \"#utility.yul\":32763:32764   */\n      0x00\n        /* \"#utility.yul\":32752:32761   */\n      dup4\n        /* \"#utility.yul\":32748:32765   */\n      add\n        /* \"#utility.yul\":32741:32788   */\n      mstore\n        /* \"#utility.yul\":32805:32936   */\n      tag_751\n        /* \"#utility.yul\":32931:32935   */\n      dup2\n        /* \"#utility.yul\":32805:32936   */\n      tag_456\n      jump\t// in\n    tag_751:\n        /* \"#utility.yul\":32797:32936   */\n      swap1\n      pop\n        /* \"#utility.yul\":32524:32943   */\n      swap2\n      swap1\n      pop\n      jump\t// out\n        /* \"#utility.yul\":32949:33115   */\n    tag_457:\n        /* \"#utility.yul\":33089:33107   */\n      0x5061757361626c653a2070617573656400000000000000000000000000000000\n        /* \"#utility.yul\":33085:33086   */\n      0x00\n        /* \"#utility.yul\":33077:33083   */\n      dup3\n        /* \"#utility.yul\":33073:33087   */\n      add\n        /* \"#utility.yul\":33066:33108   */\n      mstore\n        /* \"#utility.yul\":32949:33115   */\n      pop\n      jump\t// out\n        /* \"#utility.yul\":33121:33487   */\n    tag_458:\n        /* \"#utility.yul\":33263:33266   */\n      0x00\n        /* \"#utility.yul\":33284:33351   */\n      tag_754\n        /* \"#utility.yul\":33348:33350   */\n      0x10\n        /* \"#utility.yul\":33343:33346   */\n      dup4\n        /* \"#utility.yul\":33284:33351   */\n      tag_399\n      jump\t// in\n    tag_754:\n        /* \"#utility.yul\":33277:33351   */\n      swap2\n      pop\n        /* \"#utility.yul\":33360:33453   */\n      tag_755\n        /* \"#utility.yul\":33449:33452   */\n      dup3\n        /* \"#utility.yul\":33360:33453   */\n      tag_457\n      jump\t// in\n    tag_755:\n        /* \"#utility.yul\":33478:33480   */\n      0x20\n        /* \"#utility.yul\":33473:33476   */\n      dup3\n        /* \"#utility.yul\":33469:33481   */\n      add\n        /* \"#utility.yul\":33462:33481   */\n      swap1\n      pop\n        /* \"#utility.yul\":33121:33487   */\n      swap2\n      swap1\n      pop\n      jump\t// out\n        /* \"#utility.yul\":33493:33912   */\n    tag_377:\n        /* \"#utility.yul\":33659:33663   */\n      0x00\n        /* \"#utility.yul\":33697:33699   */\n      0x20\n        /* \"#utility.yul\":33686:33695   */\n      dup3\n        /* \"#utility.yul\":33682:33700   */\n      add\n        /* \"#utility.yul\":33674:33700   */\n      swap1\n      pop\n        /* \"#utility.yul\":33746:33755   */\n      dup2\n        /* \"#utility.yul\":33740:33744   */\n      dup2\n        /* \"#utility.yul\":33736:33756   */\n      sub\n        /* \"#utility.yul\":33732:33733   */\n      0x00\n        /* \"#utility.yul\":33721:33730   */\n      dup4\n        /* \"#utility.yul\":33717:33734   */\n      add\n        /* \"#utility.yul\":33710:33757   */\n      mstore\n        /* \"#utility.yul\":33774:33905   */\n      tag_757\n        /* \"#utility.yul\":33900:33904   */\n      dup2\n        /* \"#utility.yul\":33774:33905   */\n      tag_458\n      jump\t// in\n    tag_757:\n        /* \"#utility.yul\":33766:33905   */\n      swap1\n      pop\n        /* \"#utility.yul\":33493:33912   */\n      swap2\n      swap1\n      pop\n      jump\t// out\n        /* \"#utility.yul\":33918:34099   */\n    tag_459:\n        /* \"#utility.yul\":34058:34091   */\n      0x5265656e7472616e637947756172643a207265656e7472616e742063616c6c00\n        /* \"#utility.yul\":34054:34055   */\n      0x00\n        /* \"#utility.yul\":34046:34052   */\n      dup3\n        /* \"#utility.yul\":34042:34056   */\n      add\n        /* \"#utility.yul\":34035:34092   */\n      mstore\n        /* \"#utility.yul\":33918:34099   */\n      pop\n      jump\t// out\n        /* \"#utility.yul\":34105:34471   */\n    tag_460:\n        /* \"#utility.yul\":34247:34250   */\n      0x00\n        /* \"#utility.yul\":34268:34335   */\n      tag_760\n        /* \"#utility.yul\":34332:34334   */\n      0x1f\n        /* \"#utility.yul\":34327:34330   */\n      dup4\n        /* \"#utility.yul\":34268:34335   */\n      tag_399\n      jump\t// in\n    tag_760:\n        /* \"#utility.yul\":34261:34335   */\n      swap2\n      pop\n        /* \"#utility.yul\":34344:34437   */\n      tag_761\n        /* \"#utility.yul\":34433:34436   */\n      dup3\n        /* \"#utility.yul\":34344:34437   */\n      tag_459\n      jump\t// in\n    tag_761:\n        /* \"#utility.yul\":34462:34464   */\n      0x20\n        /* \"#utility.yul\":34457:34460   */\n      dup3\n        /* \"#utility.yul\":34453:34465   */\n      add\n        /* \"#utility.yul\":34446:34465   */\n      swap1\n      pop\n        /* \"#utility.yul\":34105:34471   */\n      swap2\n      swap1\n      pop\n      jump\t// out\n        /* \"#utility.yul\":34477:34896   */\n    tag_381:\n        /* \"#utility.yul\":34643:34647   */\n      0x00\n        /* \"#utility.yul\":34681:34683   */\n      0x20\n        /* \"#utility.yul\":34670:34679   */\n      dup3\n        /* \"#utility.yul\":34666:34684   */\n      add\n        /* \"#utility.yul\":34658:34684   */\n      swap1\n      pop\n        /* \"#utility.yul\":34730:34739   */\n      dup2\n        /* \"#utility.yul\":34724:34728   */\n      dup2\n        /* \"#utility.yul\":34720:34740   */\n      sub\n        /* \"#utility.yul\":34716:34717   */\n      0x00\n        /* \"#utility.yul\":34705:34714   */\n      dup4\n        /* \"#utility.yul\":34701:34718   */\n      add\n        /* \"#utility.yul\":34694:34741   */\n      mstore\n        /* \"#utility.yul\":34758:34889   */\n      tag_763\n        /* \"#utility.yul\":34884:34888   */\n      dup2\n        /* \"#utility.yul\":34758:34889   */\n      tag_460\n      jump\t// in\n    tag_763:\n        /* \"#utility.yul\":34750:34889   */\n      swap1\n      pop\n        /* \"#utility.yul\":34477:34896   */\n      swap2\n      swap1\n      pop\n      jump\t// out\n\n    auxdata: 0xa2646970667358221220045fa995566baa2fc11338be397688632007d263d07d3e4090ff0aa9f9a0b6fe64736f6c63430008140033\n}\n",
				"bytecode": {
					"linkReferences": {},
					"object": "6080604052600160035567016345785d8a000060045534801562000021575f80fd5b50335f73ffffffffffffffffffffffffffffffffffffffff168173ffffffffffffffffffffffffffffffffffffffff160362000096575f6040517f1e4fbdf70000000000000000000000000000000000000000000000000000000081526004016200008d9190620002a4565b60405180910390fd5b620000a781620001a060201b60201c565b50600180819055505f60025f6101000a81548160ff021916908315150217905550600160055f737a250d5630b4cf539739df2c5dacb4c659f2488d73ffffffffffffffffffffffffffffffffffffffff1673ffffffffffffffffffffffffffffffffffffffff1681526020019081526020015f205f6101000a81548160ff021916908315150217905550600160055f73d9e1ce17f2641f24ae83637ab66a2cca9c378b9f73ffffffffffffffffffffffffffffffffffffffff1673ffffffffffffffffffffffffffffffffffffffff1681526020019081526020015f205f6101000a81548160ff021916908315150217905550620002bf565b5f805f9054906101000a900473ffffffffffffffffffffffffffffffffffffffff169050815f806101000a81548173ffffffffffffffffffffffffffffffffffffffff021916908373ffffffffffffffffffffffffffffffffffffffff1602179055508173ffffffffffffffffffffffffffffffffffffffff168173ffffffffffffffffffffffffffffffffffffffff167f8be0079c531659141344cd1fd0a4f28419497f9722a3daafe3b4186f6b6457e060405160405180910390a35050565b5f73ffffffffffffffffffffffffffffffffffffffff82169050919050565b5f6200028c8262000261565b9050919050565b6200029e8162000280565b82525050565b5f602082019050620002b95f83018462000293565b92915050565b612c9d80620002cd5f395ff3fe608060405260043610610138575f3560e01c806373b379bd116100aa5780639be65a601161006e5780639be65a60146103c2578063bcbde212146103ea578063d2e3112514610414578063d82c204914610430578063eb17fa1314610458578063f2fde38b146104825761013f565b806373b379bd146103065780638456cb59146103305780638da5cb5b1461034657806390cc5c901461037057806391451be41461039a5761013f565b80633f4ba83a116100fc5780633f4ba83a14610210578063445b1e4b1461022657806347c1a9be146102625780635c975abb1461028a5780636d1ea3fa146102b4578063715018a6146102f05761013f565b80630614117a1461014357806314d91c84146101595780631899363914610181578063258d0c34146101ab5780632fc95cd7146101d35761013f565b3661013f57005b5f80fd5b34801561014e575f80fd5b506101576104aa565b005b348015610164575f80fd5b5061017f600480360381019061017a9190611ceb565b6104ff565b005b34801561018c575f80fd5b50610195610606565b6040516101a29190611d41565b60405180910390f35b3480156101b6575f80fd5b506101d160048036038101906101cc9190611d84565b61060c565b005b3480156101de575f80fd5b506101f960048036038101906101f49190611daf565b610660565b604051610207929190611e22565b60405180910390f35b34801561021b575f80fd5b50610224610ba5565b005b348015610231575f80fd5b5061024c60048036038101906102479190611e49565b610bb7565b6040516102599190611e74565b60405180910390f35b34801561026d575f80fd5b5061028860048036038101906102839190611ceb565b610bd4565b005b348015610295575f80fd5b5061029e610cdb565b6040516102ab9190611e74565b60405180910390f35b3480156102bf575f80fd5b506102da60048036038101906102d59190611e49565b610cf0565b6040516102e79190611e74565b60405180910390f35b3480156102fb575f80fd5b50610304610d0d565b005b348015610311575f80fd5b5061031a610d20565b6040516103279190611d41565b60405180910390f35b34801561033b575f80fd5b50610344610d26565b005b348015610351575f80fd5b5061035a610d38565b6040516103679190611e9c565b60405180910390f35b34801561037b575f80fd5b50610384610d5f565b6040516103919190611e74565b60405180910390f35b3480156103a5575f80fd5b506103c060048036038101906103bb9190611eb5565b610d71565b005b3480156103cd575f80fd5b506103e860048036038101906103e39190611e49565b610dcc565b005b3480156103f5575f80fd5b506103fe610ed6565b60405161040b9190611d41565b60405180910390f35b61042e60048036038101906104299190611ee0565b610edb565b005b34801561043b575f80fd5b5061045660048036038101906104519190611d84565b611130565b005b348015610463575f80fd5b5061046c611142565b6040516104799190611d41565b60405180910390f35b34801561048d575f80fd5b506104a860048036038101906104a39190611e49565b611148565b005b6104b26111cc565b6104ba610d38565b73ffffffffffffffffffffffffffffffffffffffff166108fc4790811502906040515f60405180830381858888f193505050501580156104fc573d5f803e3d5ffd5b50565b6105076111cc565b5f73ffffffffffffffffffffffffffffffffffffffff168273ffffffffffffffffffffffffffffffffffffffff1603610575576040517f08c379a000000000000000000000000000000000000000000000000000000000815260040161056c90611f8a565b60405180910390fd5b8060065f8473ffffffffffffffffffffffffffffffffffffffff1673ffffffffffffffffffffffffffffffffffffffff1681526020019081526020015f205f6101000a81548160ff0219169083151502179055507fdcb2804db02b95bdd568fd11a31c5577ffdf36538c0f670e92930d9c1e8518ab82826040516105fa929190611fa8565b60405180910390a15050565b60035481565b6106146111cc565b5f8111610656576040517f08c379a000000000000000000000000000000000000000000000000000000000815260040161064d90612019565b60405180910390fd5b8060038190555050565b5f8060055f8773ffffffffffffffffffffffffffffffffffffffff1673ffffffffffffffffffffffffffffffffffffffff1681526020019081526020015f205f9054906101000a900460ff1680156106fe575060055f8673ffffffffffffffffffffffffffffffffffffffff1673ffffffffffffffffffffffffffffffffffffffff1681526020019081526020015f205f9054906101000a900460ff165b61073d576040517f08c379a000000000000000000000000000000000000000000000000000000000815260040161073490612081565b60405180910390fd5b60065f8573ffffffffffffffffffffffffffffffffffffffff1673ffffffffffffffffffffffffffffffffffffffff1681526020019081526020015f205f9054906101000a900460ff166107c6576040517f08c379a00000000000000000000000000000000000000000000000000000000081526004016107bd906120e9565b60405180910390fd5b5f8673ffffffffffffffffffffffffffffffffffffffff1663ad5c46486040518163ffffffff1660e01b8152600401602060405180830381865afa158015610810573d5f803e3d5ffd5b505050506040513d601f19601f82011682018060405250810190610834919061211b565b90505f600267ffffffffffffffff81111561085257610851612146565b5b6040519080825280602002602001820160405280156108805781602001602082028036833780820191505090505b50905081815f8151811061089757610896612173565b5b602002602001019073ffffffffffffffffffffffffffffffffffffffff16908173ffffffffffffffffffffffffffffffffffffffff168152505085816001815181106108e6576108e5612173565b5b602002602001019073ffffffffffffffffffffffffffffffffffffffff16908173ffffffffffffffffffffffffffffffffffffffff16815250505f8873ffffffffffffffffffffffffffffffffffffffff1663d06ca61f87846040518363ffffffff1660e01b815260040161095c929190612257565b5f60405180830381865afa158015610976573d5f803e3d5ffd5b505050506040513d5f823e3d601f19601f8201168201806040525081019061099e91906123bc565b90505f600267ffffffffffffffff8111156109bc576109bb612146565b5b6040519080825280602002602001820160405280156109ea5781602001602082028036833780820191505090505b50905087815f81518110610a0157610a00612173565b5b602002602001019073ffffffffffffffffffffffffffffffffffffffff16908173ffffffffffffffffffffffffffffffffffffffff16815250508381600181518110610a5057610a4f612173565b5b602002602001019073ffffffffffffffffffffffffffffffffffffffff16908173ffffffffffffffffffffffffffffffffffffffff16815250505f8973ffffffffffffffffffffffffffffffffffffffff1663d06ca61f84600181518110610abb57610aba612173565b5b6020026020010151846040518363ffffffff1660e01b8152600401610ae1929190612257565b5f60405180830381865afa158015610afb573d5f803e3d5ffd5b505050506040513d5f823e3d601f19601f82011682018060405250810190610b2391906123bc565b90508781600181518110610b3a57610b39612173565b5b60200260200101511115610b97578781600181518110610b5d57610b5c612173565b5b6020026020010151610b6f9190612430565b95505f886103e888610b819190612463565b610b8b91906124d1565b90506003548110159750505b505050505094509492505050565b610bad6111cc565b610bb5611253565b565b6005602052805f5260405f205f915054906101000a900460ff1681565b610bdc6111cc565b5f73ffffffffffffffffffffffffffffffffffffffff168273ffffffffffffffffffffffffffffffffffffffff1603610c4a576040517f08c379a0000000000000000000000000000000000000000000000000000000008152600401610c419061254b565b60405180910390fd5b8060055f8473ffffffffffffffffffffffffffffffffffffffff1673ffffffffffffffffffffffffffffffffffffffff1681526020019081526020015f205f6101000a81548160ff0219169083151502179055507fab5814e9f0dc78998a367cdeb77f1143370431cce307f90adb6db02f49fd768a8282604051610ccf929190611fa8565b60405180910390a15050565b5f60025f9054906101000a900460ff16905090565b6006602052805f5260405f205f915054906101000a900460ff1681565b610d156111cc565b610d1e5f6112b4565b565b60085481565b610d2e6111cc565b610d36611375565b565b5f805f9054906101000a900473ffffffffffffffffffffffffffffffffffffffff16905090565b60075f9054906101000a900460ff1681565b610d796111cc565b8060075f6101000a81548160ff0219169083151502179055507f1c3ca67fa4c57ac8e623908e48d84072e553df9a9042d4c3f5c1f1b011cc521a81604051610dc19190611e74565b60405180910390a150565b610dd46111cc565b5f8173ffffffffffffffffffffffffffffffffffffffff166370a08231306040518263ffffffff1660e01b8152600401610e0e9190611e9c565b602060405180830381865afa158015610e29573d5f803e3d5ffd5b505050506040513d601f19601f82011682018060405250810190610e4d9190612569565b90508173ffffffffffffffffffffffffffffffffffffffff1663a9059cbb610e73610d38565b836040518363ffffffff1660e01b8152600401610e91929190612594565b6020604051808303815f875af1158015610ead573d5f803e3d5ffd5b505050506040513d601f19601f82011682018060405250810190610ed191906125cf565b505050565b603c81565b60075f9054906101000a900460ff16610f29576040517f08c379a0000000000000000000000000000000000000000000000000000000008152600401610f2090612644565b60405180910390fd5b600454341015610f6e576040517f08c379a0000000000000000000000000000000000000000000000000000000008152600401610f65906126ac565b60405180910390fd5b5f80610f7c85858534610660565b91509150811561107f57610f92858585846113d7565b610fd1576040517f08c379a0000000000000000000000000000000000000000000000000000000008152600401610fc890612714565b60405180910390fd5b5f3373ffffffffffffffffffffffffffffffffffffffff1647604051610ff69061275f565b5f6040518083038185875af1925050503d805f8114611030576040519150601f19603f3d011682016040523d82523d5f602084013e611035565b606091505b5050905080611079576040517f08c379a0000000000000000000000000000000000000000000000000000000008152600401611070906127bd565b60405180910390fd5b50611129565b5f3373ffffffffffffffffffffffffffffffffffffffff16346040516110a49061275f565b5f6040518083038185875af1925050503d805f81146110de576040519150601f19603f3d011682016040523d82523d5f602084013e6110e3565b606091505b5050905080611127576040517f08c379a000000000000000000000000000000000000000000000000000000000815260040161111e90612825565b60405180910390fd5b505b5050505050565b6111386111cc565b8060048190555050565b60045481565b6111506111cc565b5f73ffffffffffffffffffffffffffffffffffffffff168173ffffffffffffffffffffffffffffffffffffffff16036111c0575f6040517f1e4fbdf70000000000000000000000000000000000000000000000000000000081526004016111b79190611e9c565b60405180910390fd5b6111c9816112b4565b50565b6111d4611b59565b73ffffffffffffffffffffffffffffffffffffffff166111f2610d38565b73ffffffffffffffffffffffffffffffffffffffff161461125157611215611b59565b6040517f118cdaa70000000000000000000000000000000000000000000000000000000081526004016112489190611e9c565b60405180910390fd5b565b61125b611b60565b5f60025f6101000a81548160ff0219169083151502179055507f5db9ee0a495bf2e6ff9c91a7834c1ba4fdd244a5e8aa4e537bd38aeae4b073aa61129d611b59565b6040516112aa9190611e9c565b60405180910390a1565b5f805f9054906101000a900473ffffffffffffffffffffffffffffffffffffffff169050815f806101000a81548173ffffffffffffffffffffffffffffffffffffffff021916908373ffffffffffffffffffffffffffffffffffffffff1602179055508173ffffffffffffffffffffffffffffffffffffffff168173ffffffffffffffffffffffffffffffffffffffff167f8be0079c531659141344cd1fd0a4f28419497f9722a3daafe3b4186f6b6457e060405160405180910390a35050565b61137d611ba9565b600160025f6101000a81548160ff0219169083151502179055507f62e78cea01bee320cd4e420270b5ea74000d11b0c9f74754ebdbfc544b05a2586113c0611b59565b6040516113cd9190611e9c565b60405180910390a1565b5f6113e0611bf3565b6113e8611ba9565b600454471161142c576040517f08c379a00000000000000000000000000000000000000000000000000000000081526004016114239061288d565b60405180910390fd5b60055f8673ffffffffffffffffffffffffffffffffffffffff1673ffffffffffffffffffffffffffffffffffffffff1681526020019081526020015f205f9054906101000a900460ff1680156114c8575060055f8573ffffffffffffffffffffffffffffffffffffffff1673ffffffffffffffffffffffffffffffffffffffff1681526020019081526020015f205f9054906101000a900460ff165b611507576040517f08c379a00000000000000000000000000000000000000000000000000000000081526004016114fe90612081565b60405180910390fd5b60065f8473ffffffffffffffffffffffffffffffffffffffff1673ffffffffffffffffffffffffffffffffffffffff1681526020019081526020015f205f9054906101000a900460ff16611590576040517f08c379a0000000000000000000000000000000000000000000000000000000008152600401611587906120e9565b60405180910390fd5b603c60085461159f91906128ab565b4210156115e1576040517f08c379a00000000000000000000000000000000000000000000000000000000081526004016115d890612928565b60405180910390fd5b5f4790505f8673ffffffffffffffffffffffffffffffffffffffff1663ad5c46486040518163ffffffff1660e01b8152600401602060405180830381865afa15801561162f573d5f803e3d5ffd5b505050506040513d601f19601f82011682018060405250810190611653919061211b565b90505f61012c4261166491906128ab565b90505f600267ffffffffffffffff81111561168257611681612146565b5b6040519080825280602002602001820160405280156116b05781602001602082028036833780820191505090505b50905082815f815181106116c7576116c6612173565b5b602002602001019073ffffffffffffffffffffffffffffffffffffffff16908173ffffffffffffffffffffffffffffffffffffffff1681525050868160018151811061171657611715612173565b5b602002602001019073ffffffffffffffffffffffffffffffffffffffff16908173ffffffffffffffffffffffffffffffffffffffff16815250505f8973ffffffffffffffffffffffffffffffffffffffff16637ff36ab5865f8530886040518663ffffffff1660e01b81526004016117919493929190612988565b5f6040518083038185885af11580156117ac573d5f803e3d5ffd5b50505050506040513d5f823e3d601f19601f820116820180604052508101906117d591906123bc565b90505f8873ffffffffffffffffffffffffffffffffffffffff166370a08231306040518263ffffffff1660e01b81526004016118119190611e9c565b602060405180830381865afa15801561182c573d5f803e3d5ffd5b505050506040513d601f19601f820116820180604052508101906118509190612569565b90508873ffffffffffffffffffffffffffffffffffffffff1663095ea7b38b836040518363ffffffff1660e01b815260040161188d929190612594565b6020604051808303815f875af11580156118a9573d5f803e3d5ffd5b505050506040513d601f19601f820116820180604052508101906118cd91906125cf565b505f600267ffffffffffffffff8111156118ea576118e9612146565b5b6040519080825280602002602001820160405280156119185781602001602082028036833780820191505090505b50905089815f8151811061192f5761192e612173565b5b602002602001019073ffffffffffffffffffffffffffffffffffffffff16908173ffffffffffffffffffffffffffffffffffffffff1681525050858160018151811061197e5761197d612173565b5b602002602001019073ffffffffffffffffffffffffffffffffffffffff16908173ffffffffffffffffffffffffffffffffffffffff16815250505f8b73ffffffffffffffffffffffffffffffffffffffff166318cbafe5848c8b6119e291906128ab565b85308b6040518663ffffffff1660e01b8152600401611a059594939291906129d2565b5f604051808303815f875af1158015611a20573d5f803e3d5ffd5b505050506040513d5f823e3d601f19601f82011682018060405250810190611a4891906123bc565b90505f479050888111611a90576040517f08c379a0000000000000000000000000000000000000000000000000000000008152600401611a8790612a74565b60405180910390fd5b5f8982611a9d9190612430565b90508b811015611ae2576040517f08c379a0000000000000000000000000000000000000000000000000000000008152600401611ad990612adc565b60405180910390fd5b426008819055508c73ffffffffffffffffffffffffffffffffffffffff167f67d289db9c9172dcc30bb1eb4d3288969aee73297a720ba599c033df5ad4b4788b8484604051611b3393929190612afa565b60405180910390a260019a5050505050505050505050611b51611c42565b949350505050565b5f33905090565b611b68610cdb565b611ba7576040517f08c379a0000000000000000000000000000000000000000000000000000000008152600401611b9e90612b79565b60405180910390fd5b565b611bb1610cdb565b15611bf1576040517f08c379a0000000000000000000000000000000000000000000000000000000008152600401611be890612be1565b60405180910390fd5b565b600260015403611c38576040517f08c379a0000000000000000000000000000000000000000000000000000000008152600401611c2f90612c49565b60405180910390fd5b6002600181905550565b60018081905550565b5f604051905090565b5f80fd5b5f80fd5b5f73ffffffffffffffffffffffffffffffffffffffff82169050919050565b5f611c8582611c5c565b9050919050565b611c9581611c7b565b8114611c9f575f80fd5b50565b5f81359050611cb081611c8c565b92915050565b5f8115159050919050565b611cca81611cb6565b8114611cd4575f80fd5b50565b5f81359050611ce581611cc1565b92915050565b5f8060408385031215611d0157611d00611c54565b5b5f611d0e85828601611ca2565b9250506020611d1f85828601611cd7565b9150509250929050565b5f819050919050565b611d3b81611d29565b82525050565b5f602082019050611d545f830184611d32565b92915050565b611d6381611d29565b8114611d6d575f80fd5b50565b5f81359050611d7e81611d5a565b92915050565b5f60208284031215611d9957611d98611c54565b5b5f611da684828501611d70565b91505092915050565b5f805f8060808587031215611dc757611dc6611c54565b5b5f611dd487828801611ca2565b9450506020611de587828801611ca2565b9350506040611df687828801611ca2565b9250506060611e0787828801611d70565b91505092959194509250565b611e1c81611cb6565b82525050565b5f604082019050611e355f830185611e13565b611e426020830184611d32565b9392505050565b5f60208284031215611e5e57611e5d611c54565b5b5f611e6b84828501611ca2565b91505092915050565b5f602082019050611e875f830184611e13565b92915050565b611e9681611c7b565b82525050565b5f602082019050611eaf5f830184611e8d565b92915050565b5f60208284031215611eca57611ec9611c54565b5b5f611ed784828501611cd7565b91505092915050565b5f805f60608486031215611ef757611ef6611c54565b5b5f611f0486828701611ca2565b9350506020611f1586828701611ca2565b9250506040611f2686828701611ca2565b9150509250925092565b5f82825260208201905092915050565b7f496e76616c696420746f6b656e206164647265737300000000000000000000005f82015250565b5f611f74601583611f30565b9150611f7f82611f40565b602082019050919050565b5f6020820190508181035f830152611fa181611f68565b9050919050565b5f604082019050611fbb5f830185611e8d565b611fc86020830184611e13565b9392505050565b7f4d617267696e206d7573742062652067726561746572207468616e20300000005f82015250565b5f612003601d83611f30565b915061200e82611fcf565b602082019050919050565b5f6020820190508181035f83015261203081611ff7565b9050919050565b7f556e617070726f76656420726f757465727300000000000000000000000000005f82015250565b5f61206b601283611f30565b915061207682612037565b602082019050919050565b5f6020820190508181035f8301526120988161205f565b9050919050565b7f556e617070726f76656420746f6b656e000000000000000000000000000000005f82015250565b5f6120d3601083611f30565b91506120de8261209f565b602082019050919050565b5f6020820190508181035f830152612100816120c7565b9050919050565b5f8151905061211581611c8c565b92915050565b5f602082840312156121305761212f611c54565b5b5f61213d84828501612107565b91505092915050565b7f4e487b71000000000000000000000000000000000000000000000000000000005f52604160045260245ffd5b7f4e487b71000000000000000000000000000000000000000000000000000000005f52603260045260245ffd5b5f81519050919050565b5f82825260208201905092915050565b5f819050602082019050919050565b6121d281611c7b565b82525050565b5f6121e383836121c9565b60208301905092915050565b5f602082019050919050565b5f612205826121a0565b61220f81856121aa565b935061221a836121ba565b805f5b8381101561224a57815161223188826121d8565b975061223c836121ef565b92505060018101905061221d565b5085935050505092915050565b5f60408201905061226a5f830185611d32565b818103602083015261227c81846121fb565b90509392505050565b5f80fd5b5f601f19601f8301169050919050565b6122a282612289565b810181811067ffffffffffffffff821117156122c1576122c0612146565b5b80604052505050565b5f6122d3611c4b565b90506122df8282612299565b919050565b5f67ffffffffffffffff8211156122fe576122fd612146565b5b602082029050602081019050919050565b5f80fd5b5f8151905061232181611d5a565b92915050565b5f612339612334846122e4565b6122ca565b9050808382526020820190506020840283018581111561235c5761235b61230f565b5b835b8181101561238557806123718882612313565b84526020840193505060208101905061235e565b5050509392505050565b5f82601f8301126123a3576123a2612285565b5b81516123b3848260208601612327565b91505092915050565b5f602082840312156123d1576123d0611c54565b5b5f82015167ffffffffffffffff8111156123ee576123ed611c58565b5b6123fa8482850161238f565b91505092915050565b7f4e487b71000000000000000000000000000000000000000000000000000000005f52601160045260245ffd5b5f61243a82611d29565b915061244583611d29565b925082820390508181111561245d5761245c612403565b5b92915050565b5f61246d82611d29565b915061247883611d29565b925082820261248681611d29565b9150828204841483151761249d5761249c612403565b5b5092915050565b7f4e487b71000000000000000000000000000000000000000000000000000000005f52601260045260245ffd5b5f6124db82611d29565b91506124e683611d29565b9250826124f6576124f56124a4565b5b828204905092915050565b7f496e76616c696420726f757465722061646472657373000000000000000000005f82015250565b5f612535601683611f30565b915061254082612501565b602082019050919050565b5f6020820190508181035f83015261256281612529565b9050919050565b5f6020828403121561257e5761257d611c54565b5b5f61258b84828501612313565b91505092915050565b5f6040820190506125a75f830185611e8d565b6125b46020830184611d32565b9392505050565b5f815190506125c981611cc1565b92915050565b5f602082840312156125e4576125e3611c54565b5b5f6125f1848285016125bb565b91505092915050565b7f4175746f2d74726164652069732064697361626c6564000000000000000000005f82015250565b5f61262e601683611f30565b9150612639826125fa565b602082019050919050565b5f6020820190508181035f83015261265b81612622565b9050919050565b7f496e73756666696369656e74204554482073656e7400000000000000000000005f82015250565b5f612696601583611f30565b91506126a182612662565b602082019050919050565b5f6020820190508181035f8301526126c38161268a565b9050919050565b7f41726269747261676520657865637574696f6e206661696c65640000000000005f82015250565b5f6126fe601a83611f30565b9150612709826126ca565b602082019050919050565b5f6020820190508181035f83015261272b816126f2565b9050919050565b5f81905092915050565b50565b5f61274a5f83612732565b91506127558261273c565b5f82019050919050565b5f6127698261273f565b9150819050919050565b7f455448207472616e73666572206661696c6564000000000000000000000000005f82015250565b5f6127a7601383611f30565b91506127b282612773565b602082019050919050565b5f6020820190508181035f8301526127d48161279b565b9050919050565b7f4554482072657475726e206661696c65640000000000000000000000000000005f82015250565b5f61280f601183611f30565b915061281a826127db565b602082019050919050565b5f6020820190508181035f83015261283c81612803565b9050919050565b7f496e73756666696369656e74204554482062616c616e636500000000000000005f82015250565b5f612877601883611f30565b915061288282612843565b602082019050919050565b5f6020820190508181035f8301526128a48161286b565b9050919050565b5f6128b582611d29565b91506128c083611d29565b92508282019050808211156128d8576128d7612403565b5b92915050565b7f546f6f20736f6f6e20746f2065786563757465000000000000000000000000005f82015250565b5f612912601383611f30565b915061291d826128de565b602082019050919050565b5f6020820190508181035f83015261293f81612906565b9050919050565b5f819050919050565b5f819050919050565b5f61297261296d61296884612946565b61294f565b611d29565b9050919050565b61298281612958565b82525050565b5f60808201905061299b5f830187612979565b81810360208301526129ad81866121fb565b90506129bc6040830185611e8d565b6129c96060830184611d32565b95945050505050565b5f60a0820190506129e55f830188611d32565b6129f26020830187611d32565b8181036040830152612a0481866121fb565b9050612a136060830185611e8d565b612a206080830184611d32565b9695505050505050565b7f4e6f2070726f666974206d6164650000000000000000000000000000000000005f82015250565b5f612a5e600e83611f30565b9150612a6982612a2a565b602082019050919050565b5f6020820190508181035f830152612a8b81612a52565b9050919050565b7f496e73756666696369656e742070726f666974000000000000000000000000005f82015250565b5f612ac6601383611f30565b9150612ad182612a92565b602082019050919050565b5f6020820190508181035f830152612af381612aba565b9050919050565b5f606082019050612b0d5f830186611d32565b612b1a6020830185611d32565b612b276040830184611d32565b949350505050565b7f5061757361626c653a206e6f74207061757365640000000000000000000000005f82015250565b5f612b63601483611f30565b9150612b6e82612b2f565b602082019050919050565b5f6020820190508181035f830152612b9081612b57565b9050919050565b7f5061757361626c653a20706175736564000000000000000000000000000000005f82015250565b5f612bcb601083611f30565b9150612bd682612b97565b602082019050919050565b5f6020820190508181035f830152612bf881612bbf565b9050919050565b7f5265656e7472616e637947756172643a207265656e7472616e742063616c6c005f82015250565b5f612c33601f83611f30565b9150612c3e82612bff565b602082019050919050565b5f6020820190508181035f830152612c6081612c27565b905091905056fea2646970667358221220045fa995566baa2fc11338be397688632007d263d07d3e4090ff0aa9f9a0b6fe64736f6c63430008140033",
					"opcodes": "PUSH1 0x80 PUSH1 0x40 MSTORE PUSH1 0x1 PUSH1 0x3 SSTORE PUSH8 0x16345785D8A0000 PUSH1 0x4 SSTORE CALLVALUE DUP1 ISZERO PUSH3 0x21 JUMPI PUSH0 DUP1 REVERT JUMPDEST POP CALLER PUSH0 PUSH20 0xFFFFFFFFFFFFFFFFFFFFFFFFFFFFFFFFFFFFFFFF AND DUP2 PUSH20 0xFFFFFFFFFFFFFFFFFFFFFFFFFFFFFFFFFFFFFFFF AND SUB PUSH3 0x96 JUMPI PUSH0 PUSH1 0x40 MLOAD PUSH32 0x1E4FBDF700000000000000000000000000000000000000000000000000000000 DUP2 MSTORE PUSH1 0x4 ADD PUSH3 0x8D SWAP2 SWAP1 PUSH3 0x2A4 JUMP JUMPDEST PUSH1 0x40 MLOAD DUP1 SWAP2 SUB SWAP1 REVERT JUMPDEST PUSH3 0xA7 DUP2 PUSH3 0x1A0 PUSH1 0x20 SHL PUSH1 0x20 SHR JUMP JUMPDEST POP PUSH1 0x1 DUP1 DUP2 SWAP1 SSTORE POP PUSH0 PUSH1 0x2 PUSH0 PUSH2 0x100 EXP DUP2 SLOAD DUP2 PUSH1 0xFF MUL NOT AND SWAP1 DUP4 ISZERO ISZERO MUL OR SWAP1 SSTORE POP PUSH1 0x1 PUSH1 0x5 PUSH0 PUSH20 0x7A250D5630B4CF539739DF2C5DACB4C659F2488D PUSH20 0xFFFFFFFFFFFFFFFFFFFFFFFFFFFFFFFFFFFFFFFF AND PUSH20 0xFFFFFFFFFFFFFFFFFFFFFFFFFFFFFFFFFFFFFFFF AND DUP2 MSTORE PUSH1 0x20 ADD SWAP1 DUP2 MSTORE PUSH1 0x20 ADD PUSH0 KECCAK256 PUSH0 PUSH2 0x100 EXP DUP2 SLOAD DUP2 PUSH1 0xFF MUL NOT AND SWAP1 DUP4 ISZERO ISZERO MUL OR SWAP1 SSTORE POP PUSH1 0x1 PUSH1 0x5 PUSH0 PUSH20 0xD9E1CE17F2641F24AE83637AB66A2CCA9C378B9F PUSH20 0xFFFFFFFFFFFFFFFFFFFFFFFFFFFFFFFFFFFFFFFF AND PUSH20 0xFFFFFFFFFFFFFFFFFFFFFFFFFFFFFFFFFFFFFFFF AND DUP2 MSTORE PUSH1 0x20 ADD SWAP1 DUP2 MSTORE PUSH1 0x20 ADD PUSH0 KECCAK256 PUSH0 PUSH2 0x100 EXP DUP2 SLOAD DUP2 PUSH1 0xFF MUL NOT AND SWAP1 DUP4 ISZERO ISZERO MUL OR SWAP1 SSTORE POP PUSH3 0x2BF JUMP JUMPDEST PUSH0 DUP1 PUSH0 SWAP1 SLOAD SWAP1 PUSH2 0x100 EXP SWAP1 DIV PUSH20 0xFFFFFFFFFFFFFFFFFFFFFFFFFFFFFFFFFFFFFFFF AND SWAP1 POP DUP2 PUSH0 DUP1 PUSH2 0x100 EXP DUP2 SLOAD DUP2 PUSH20 0xFFFFFFFFFFFFFFFFFFFFFFFFFFFFFFFFFFFFFFFF MUL NOT AND SWAP1 DUP4 PUSH20 0xFFFFFFFFFFFFFFFFFFFFFFFFFFFFFFFFFFFFFFFF AND MUL OR SWAP1 SSTORE POP DUP2 PUSH20 0xFFFFFFFFFFFFFFFFFFFFFFFFFFFFFFFFFFFFFFFF AND DUP2 PUSH20 0xFFFFFFFFFFFFFFFFFFFFFFFFFFFFFFFFFFFFFFFF AND PUSH32 0x8BE0079C531659141344CD1FD0A4F28419497F9722A3DAAFE3B4186F6B6457E0 PUSH1 0x40 MLOAD PUSH1 0x40 MLOAD DUP1 SWAP2 SUB SWAP1 LOG3 POP POP JUMP JUMPDEST PUSH0 PUSH20 0xFFFFFFFFFFFFFFFFFFFFFFFFFFFFFFFFFFFFFFFF DUP3 AND SWAP1 POP SWAP2 SWAP1 POP JUMP JUMPDEST PUSH0 PUSH3 0x28C DUP3 PUSH3 0x261 JUMP JUMPDEST SWAP1 POP SWAP2 SWAP1 POP JUMP JUMPDEST PUSH3 0x29E DUP2 PUSH3 0x280 JUMP JUMPDEST DUP3 MSTORE POP POP JUMP JUMPDEST PUSH0 PUSH1 0x20 DUP3 ADD SWAP1 POP PUSH3 0x2B9 PUSH0 DUP4 ADD DUP5 PUSH3 0x293 JUMP JUMPDEST SWAP3 SWAP2 POP POP JUMP JUMPDEST PUSH2 0x2C9D DUP1 PUSH3 0x2CD PUSH0 CODECOPY PUSH0 RETURN INVALID PUSH1 0x80 PUSH1 0x40 MSTORE PUSH1 0x4 CALLDATASIZE LT PUSH2 0x138 JUMPI PUSH0 CALLDATALOAD PUSH1 0xE0 SHR DUP1 PUSH4 0x73B379BD GT PUSH2 0xAA JUMPI DUP1 PUSH4 0x9BE65A60 GT PUSH2 0x6E JUMPI DUP1 PUSH4 0x9BE65A60 EQ PUSH2 0x3C2 JUMPI DUP1 PUSH4 0xBCBDE212 EQ PUSH2 0x3EA JUMPI DUP1 PUSH4 0xD2E31125 EQ PUSH2 0x414 JUMPI DUP1 PUSH4 0xD82C2049 EQ PUSH2 0x430 JUMPI DUP1 PUSH4 0xEB17FA13 EQ PUSH2 0x458 JUMPI DUP1 PUSH4 0xF2FDE38B EQ PUSH2 0x482 JUMPI PUSH2 0x13F JUMP JUMPDEST DUP1 PUSH4 0x73B379BD EQ PUSH2 0x306 JUMPI DUP1 PUSH4 0x8456CB59 EQ PUSH2 0x330 JUMPI DUP1 PUSH4 0x8DA5CB5B EQ PUSH2 0x346 JUMPI DUP1 PUSH4 0x90CC5C90 EQ PUSH2 0x370 JUMPI DUP1 PUSH4 0x91451BE4 EQ PUSH2 0x39A JUMPI PUSH2 0x13F JUMP JUMPDEST DUP1 PUSH4 0x3F4BA83A GT PUSH2 0xFC JUMPI DUP1 PUSH4 0x3F4BA83A EQ PUSH2 0x210 JUMPI DUP1 PUSH4 0x445B1E4B EQ PUSH2 0x226 JUMPI DUP1 PUSH4 0x47C1A9BE EQ PUSH2 0x262 JUMPI DUP1 PUSH4 0x5C975ABB EQ PUSH2 0x28A JUMPI DUP1 PUSH4 0x6D1EA3FA EQ PUSH2 0x2B4 JUMPI DUP1 PUSH4 0x715018A6 EQ PUSH2 0x2F0 JUMPI PUSH2 0x13F JUMP JUMPDEST DUP1 PUSH4 0x614117A EQ PUSH2 0x143 JUMPI DUP1 PUSH4 0x14D91C84 EQ PUSH2 0x159 JUMPI DUP1 PUSH4 0x18993639 EQ PUSH2 0x181 JUMPI DUP1 PUSH4 0x258D0C34 EQ PUSH2 0x1AB JUMPI DUP1 PUSH4 0x2FC95CD7 EQ PUSH2 0x1D3 JUMPI PUSH2 0x13F JUMP JUMPDEST CALLDATASIZE PUSH2 0x13F JUMPI STOP JUMPDEST PUSH0 DUP1 REVERT JUMPDEST CALLVALUE DUP1 ISZERO PUSH2 0x14E JUMPI PUSH0 DUP1 REVERT JUMPDEST POP PUSH2 0x157 PUSH2 0x4AA JUMP JUMPDEST STOP JUMPDEST CALLVALUE DUP1 ISZERO PUSH2 0x164 JUMPI PUSH0 DUP1 REVERT JUMPDEST POP PUSH2 0x17F PUSH1 0x4 DUP1 CALLDATASIZE SUB DUP2 ADD SWAP1 PUSH2 0x17A SWAP2 SWAP1 PUSH2 0x1CEB JUMP JUMPDEST PUSH2 0x4FF JUMP JUMPDEST STOP JUMPDEST CALLVALUE DUP1 ISZERO PUSH2 0x18C JUMPI PUSH0 DUP1 REVERT JUMPDEST POP PUSH2 0x195 PUSH2 0x606 JUMP JUMPDEST PUSH1 0x40 MLOAD PUSH2 0x1A2 SWAP2 SWAP1 PUSH2 0x1D41 JUMP JUMPDEST PUSH1 0x40 MLOAD DUP1 SWAP2 SUB SWAP1 RETURN JUMPDEST CALLVALUE DUP1 ISZERO PUSH2 0x1B6 JUMPI PUSH0 DUP1 REVERT JUMPDEST POP PUSH2 0x1D1 PUSH1 0x4 DUP1 CALLDATASIZE SUB DUP2 ADD SWAP1 PUSH2 0x1CC SWAP2 SWAP1 PUSH2 0x1D84 JUMP JUMPDEST PUSH2 0x60C JUMP JUMPDEST STOP JUMPDEST CALLVALUE DUP1 ISZERO PUSH2 0x1DE JUMPI PUSH0 DUP1 REVERT JUMPDEST POP PUSH2 0x1F9 PUSH1 0x4 DUP1 CALLDATASIZE SUB DUP2 ADD SWAP1 PUSH2 0x1F4 SWAP2 SWAP1 PUSH2 0x1DAF JUMP JUMPDEST PUSH2 0x660 JUMP JUMPDEST PUSH1 0x40 MLOAD PUSH2 0x207 SWAP3 SWAP2 SWAP1 PUSH2 0x1E22 JUMP JUMPDEST PUSH1 0x40 MLOAD DUP1 SWAP2 SUB SWAP1 RETURN JUMPDEST CALLVALUE DUP1 ISZERO PUSH2 0x21B JUMPI PUSH0 DUP1 REVERT JUMPDEST POP PUSH2 0x224 PUSH2 0xBA5 JUMP JUMPDEST STOP JUMPDEST CALLVALUE DUP1 ISZERO PUSH2 0x231 JUMPI PUSH0 DUP1 REVERT JUMPDEST POP PUSH2 0x24C PUSH1 0x4 DUP1 CALLDATASIZE SUB DUP2 ADD SWAP1 PUSH2 0x247 SWAP2 SWAP1 PUSH2 0x1E49 JUMP JUMPDEST PUSH2 0xBB7 JUMP JUMPDEST PUSH1 0x40 MLOAD PUSH2 0x259 SWAP2 SWAP1 PUSH2 0x1E74 JUMP JUMPDEST PUSH1 0x40 MLOAD DUP1 SWAP2 SUB SWAP1 RETURN JUMPDEST CALLVALUE DUP1 ISZERO PUSH2 0x26D JUMPI PUSH0 DUP1 REVERT JUMPDEST POP PUSH2 0x288 PUSH1 0x4 DUP1 CALLDATASIZE SUB DUP2 ADD SWAP1 PUSH2 0x283 SWAP2 SWAP1 PUSH2 0x1CEB JUMP JUMPDEST PUSH2 0xBD4 JUMP JUMPDEST STOP JUMPDEST CALLVALUE DUP1 ISZERO PUSH2 0x295 JUMPI PUSH0 DUP1 REVERT JUMPDEST POP PUSH2 0x29E PUSH2 0xCDB JUMP JUMPDEST PUSH1 0x40 MLOAD PUSH2 0x2AB SWAP2 SWAP1 PUSH2 0x1E74 JUMP JUMPDEST PUSH1 0x40 MLOAD DUP1 SWAP2 SUB SWAP1 RETURN JUMPDEST CALLVALUE DUP1 ISZERO PUSH2 0x2BF JUMPI PUSH0 DUP1 REVERT JUMPDEST POP PUSH2 0x2DA PUSH1 0x4 DUP1 CALLDATASIZE SUB DUP2 ADD SWAP1 PUSH2 0x2D5 SWAP2 SWAP1 PUSH2 0x1E49 JUMP JUMPDEST PUSH2 0xCF0 JUMP JUMPDEST PUSH1 0x40 MLOAD PUSH2 0x2E7 SWAP2 SWAP1 PUSH2 0x1E74 JUMP JUMPDEST PUSH1 0x40 MLOAD DUP1 SWAP2 SUB SWAP1 RETURN JUMPDEST CALLVALUE DUP1 ISZERO PUSH2 0x2FB JUMPI PUSH0 DUP1 REVERT JUMPDEST POP PUSH2 0x304 PUSH2 0xD0D JUMP JUMPDEST STOP JUMPDEST CALLVALUE DUP1 ISZERO PUSH2 0x311 JUMPI PUSH0 DUP1 REVERT JUMPDEST POP PUSH2 0x31A PUSH2 0xD20 JUMP JUMPDEST PUSH1 0x40 MLOAD PUSH2 0x327 SWAP2 SWAP1 PUSH2 0x1D41 JUMP JUMPDEST PUSH1 0x40 MLOAD DUP1 SWAP2 SUB SWAP1 RETURN JUMPDEST CALLVALUE DUP1 ISZERO PUSH2 0x33B JUMPI PUSH0 DUP1 REVERT JUMPDEST POP PUSH2 0x344 PUSH2 0xD26 JUMP JUMPDEST STOP JUMPDEST CALLVALUE DUP1 ISZERO PUSH2 0x351 JUMPI PUSH0 DUP1 REVERT JUMPDEST POP PUSH2 0x35A PUSH2 0xD38 JUMP JUMPDEST PUSH1 0x40 MLOAD PUSH2 0x367 SWAP2 SWAP1 PUSH2 0x1E9C JUMP JUMPDEST PUSH1 0x40 MLOAD DUP1 SWAP2 SUB SWAP1 RETURN JUMPDEST CALLVALUE DUP1 ISZERO PUSH2 0x37B JUMPI PUSH0 DUP1 REVERT JUMPDEST POP PUSH2 0x384 PUSH2 0xD5F JUMP JUMPDEST PUSH1 0x40 MLOAD PUSH2 0x391 SWAP2 SWAP1 PUSH2 0x1E74 JUMP JUMPDEST PUSH1 0x40 MLOAD DUP1 SWAP2 SUB SWAP1 RETURN JUMPDEST CALLVALUE DUP1 ISZERO PUSH2 0x3A5 JUMPI PUSH0 DUP1 REVERT JUMPDEST POP PUSH2 0x3C0 PUSH1 0x4 DUP1 CALLDATASIZE SUB DUP2 ADD SWAP1 PUSH2 0x3BB SWAP2 SWAP1 PUSH2 0x1EB5 JUMP JUMPDEST PUSH2 0xD71 JUMP JUMPDEST STOP JUMPDEST CALLVALUE DUP1 ISZERO PUSH2 0x3CD JUMPI PUSH0 DUP1 REVERT JUMPDEST POP PUSH2 0x3E8 PUSH1 0x4 DUP1 CALLDATASIZE SUB DUP2 ADD SWAP1 PUSH2 0x3E3 SWAP2 SWAP1 PUSH2 0x1E49 JUMP JUMPDEST PUSH2 0xDCC JUMP JUMPDEST STOP JUMPDEST CALLVALUE DUP1 ISZERO PUSH2 0x3F5 JUMPI PUSH0 DUP1 REVERT JUMPDEST POP PUSH2 0x3FE PUSH2 0xED6 JUMP JUMPDEST PUSH1 0x40 MLOAD PUSH2 0x40B SWAP2 SWAP1 PUSH2 0x1D41 JUMP JUMPDEST PUSH1 0x40 MLOAD DUP1 SWAP2 SUB SWAP1 RETURN JUMPDEST PUSH2 0x42E PUSH1 0x4 DUP1 CALLDATASIZE SUB DUP2 ADD SWAP1 PUSH2 0x429 SWAP2 SWAP1 PUSH2 0x1EE0 JUMP JUMPDEST PUSH2 0xEDB JUMP JUMPDEST STOP JUMPDEST CALLVALUE DUP1 ISZERO PUSH2 0x43B JUMPI PUSH0 DUP1 REVERT JUMPDEST POP PUSH2 0x456 PUSH1 0x4 DUP1 CALLDATASIZE SUB DUP2 ADD SWAP1 PUSH2 0x451 SWAP2 SWAP1 PUSH2 0x1D84 JUMP JUMPDEST PUSH2 0x1130 JUMP JUMPDEST STOP JUMPDEST CALLVALUE DUP1 ISZERO PUSH2 0x463 JUMPI PUSH0 DUP1 REVERT JUMPDEST POP PUSH2 0x46C PUSH2 0x1142 JUMP JUMPDEST PUSH1 0x40 MLOAD PUSH2 0x479 SWAP2 SWAP1 PUSH2 0x1D41 JUMP JUMPDEST PUSH1 0x40 MLOAD DUP1 SWAP2 SUB SWAP1 RETURN JUMPDEST CALLVALUE DUP1 ISZERO PUSH2 0x48D JUMPI PUSH0 DUP1 REVERT JUMPDEST POP PUSH2 0x4A8 PUSH1 0x4 DUP1 CALLDATASIZE SUB DUP2 ADD SWAP1 PUSH2 0x4A3 SWAP2 SWAP1 PUSH2 0x1E49 JUMP JUMPDEST PUSH2 0x1148 JUMP JUMPDEST STOP JUMPDEST PUSH2 0x4B2 PUSH2 0x11CC JUMP JUMPDEST PUSH2 0x4BA PUSH2 0xD38 JUMP JUMPDEST PUSH20 0xFFFFFFFFFFFFFFFFFFFFFFFFFFFFFFFFFFFFFFFF AND PUSH2 0x8FC SELFBALANCE SWAP1 DUP2 ISZERO MUL SWAP1 PUSH1 0x40 MLOAD PUSH0 PUSH1 0x40 MLOAD DUP1 DUP4 SUB DUP2 DUP6 DUP9 DUP9 CALL SWAP4 POP POP POP POP ISZERO DUP1 ISZERO PUSH2 0x4FC JUMPI RETURNDATASIZE PUSH0 DUP1 RETURNDATACOPY RETURNDATASIZE PUSH0 REVERT JUMPDEST POP JUMP JUMPDEST PUSH2 0x507 PUSH2 0x11CC JUMP JUMPDEST PUSH0 PUSH20 0xFFFFFFFFFFFFFFFFFFFFFFFFFFFFFFFFFFFFFFFF AND DUP3 PUSH20 0xFFFFFFFFFFFFFFFFFFFFFFFFFFFFFFFFFFFFFFFF AND SUB PUSH2 0x575 JUMPI PUSH1 0x40 MLOAD PUSH32 0x8C379A000000000000000000000000000000000000000000000000000000000 DUP2 MSTORE PUSH1 0x4 ADD PUSH2 0x56C SWAP1 PUSH2 0x1F8A JUMP JUMPDEST PUSH1 0x40 MLOAD DUP1 SWAP2 SUB SWAP1 REVERT JUMPDEST DUP1 PUSH1 0x6 PUSH0 DUP5 PUSH20 0xFFFFFFFFFFFFFFFFFFFFFFFFFFFFFFFFFFFFFFFF AND PUSH20 0xFFFFFFFFFFFFFFFFFFFFFFFFFFFFFFFFFFFFFFFF AND DUP2 MSTORE PUSH1 0x20 ADD SWAP1 DUP2 MSTORE PUSH1 0x20 ADD PUSH0 KECCAK256 PUSH0 PUSH2 0x100 EXP DUP2 SLOAD DUP2 PUSH1 0xFF MUL NOT AND SWAP1 DUP4 ISZERO ISZERO MUL OR SWAP1 SSTORE POP PUSH32 0xDCB2804DB02B95BDD568FD11A31C5577FFDF36538C0F670E92930D9C1E8518AB DUP3 DUP3 PUSH1 0x40 MLOAD PUSH2 0x5FA SWAP3 SWAP2 SWAP1 PUSH2 0x1FA8 JUMP JUMPDEST PUSH1 0x40 MLOAD DUP1 SWAP2 SUB SWAP1 LOG1 POP POP JUMP JUMPDEST PUSH1 0x3 SLOAD DUP2 JUMP JUMPDEST PUSH2 0x614 PUSH2 0x11CC JUMP JUMPDEST PUSH0 DUP2 GT PUSH2 0x656 JUMPI PUSH1 0x40 MLOAD PUSH32 0x8C379A000000000000000000000000000000000000000000000000000000000 DUP2 MSTORE PUSH1 0x4 ADD PUSH2 0x64D SWAP1 PUSH2 0x2019 JUMP JUMPDEST PUSH1 0x40 MLOAD DUP1 SWAP2 SUB SWAP1 REVERT JUMPDEST DUP1 PUSH1 0x3 DUP2 SWAP1 SSTORE POP POP JUMP JUMPDEST PUSH0 DUP1 PUSH1 0x5 PUSH0 DUP8 PUSH20 0xFFFFFFFFFFFFFFFFFFFFFFFFFFFFFFFFFFFFFFFF AND PUSH20 0xFFFFFFFFFFFFFFFFFFFFFFFFFFFFFFFFFFFFFFFF AND DUP2 MSTORE PUSH1 0x20 ADD SWAP1 DUP2 MSTORE PUSH1 0x20 ADD PUSH0 KECCAK256 PUSH0 SWAP1 SLOAD SWAP1 PUSH2 0x100 EXP SWAP1 DIV PUSH1 0xFF AND DUP1 ISZERO PUSH2 0x6FE JUMPI POP PUSH1 0x5 PUSH0 DUP7 PUSH20 0xFFFFFFFFFFFFFFFFFFFFFFFFFFFFFFFFFFFFFFFF AND PUSH20 0xFFFFFFFFFFFFFFFFFFFFFFFFFFFFFFFFFFFFFFFF AND DUP2 MSTORE PUSH1 0x20 ADD SWAP1 DUP2 MSTORE PUSH1 0x20 ADD PUSH0 KECCAK256 PUSH0 SWAP1 SLOAD SWAP1 PUSH2 0x100 EXP SWAP1 DIV PUSH1 0xFF AND JUMPDEST PUSH2 0x73D JUMPI PUSH1 0x40 MLOAD PUSH32 0x8C379A000000000000000000000000000000000000000000000000000000000 DUP2 MSTORE PUSH1 0x4 ADD PUSH2 0x734 SWAP1 PUSH2 0x2081 JUMP JUMPDEST PUSH1 0x40 MLOAD DUP1 SWAP2 SUB SWAP1 REVERT JUMPDEST PUSH1 0x6 PUSH0 DUP6 PUSH20 0xFFFFFFFFFFFFFFFFFFFFFFFFFFFFFFFFFFFFFFFF AND PUSH20 0xFFFFFFFFFFFFFFFFFFFFFFFFFFFFFFFFFFFFFFFF AND DUP2 MSTORE PUSH1 0x20 ADD SWAP1 DUP2 MSTORE PUSH1 0x20 ADD PUSH0 KECCAK256 PUSH0 SWAP1 SLOAD SWAP1 PUSH2 0x100 EXP SWAP1 DIV PUSH1 0xFF AND PUSH2 0x7C6 JUMPI PUSH1 0x40 MLOAD PUSH32 0x8C379A000000000000000000000000000000000000000000000000000000000 DUP2 MSTORE PUSH1 0x4 ADD PUSH2 0x7BD SWAP1 PUSH2 0x20E9 JUMP JUMPDEST PUSH1 0x40 MLOAD DUP1 SWAP2 SUB SWAP1 REVERT JUMPDEST PUSH0 DUP7 PUSH20 0xFFFFFFFFFFFFFFFFFFFFFFFFFFFFFFFFFFFFFFFF AND PUSH4 0xAD5C4648 PUSH1 0x40 MLOAD DUP2 PUSH4 0xFFFFFFFF AND PUSH1 0xE0 SHL DUP2 MSTORE PUSH1 0x4 ADD PUSH1 0x20 PUSH1 0x40 MLOAD DUP1 DUP4 SUB DUP2 DUP7 GAS STATICCALL ISZERO DUP1 ISZERO PUSH2 0x810 JUMPI RETURNDATASIZE PUSH0 DUP1 RETURNDATACOPY RETURNDATASIZE PUSH0 REVERT JUMPDEST POP POP POP POP PUSH1 0x40 MLOAD RETURNDATASIZE PUSH1 0x1F NOT PUSH1 0x1F DUP3 ADD AND DUP3 ADD DUP1 PUSH1 0x40 MSTORE POP DUP2 ADD SWAP1 PUSH2 0x834 SWAP2 SWAP1 PUSH2 0x211B JUMP JUMPDEST SWAP1 POP PUSH0 PUSH1 0x2 PUSH8 0xFFFFFFFFFFFFFFFF DUP2 GT ISZERO PUSH2 0x852 JUMPI PUSH2 0x851 PUSH2 0x2146 JUMP JUMPDEST JUMPDEST PUSH1 0x40 MLOAD SWAP1 DUP1 DUP3 MSTORE DUP1 PUSH1 0x20 MUL PUSH1 0x20 ADD DUP3 ADD PUSH1 0x40 MSTORE DUP1 ISZERO PUSH2 0x880 JUMPI DUP2 PUSH1 0x20 ADD PUSH1 0x20 DUP3 MUL DUP1 CALLDATASIZE DUP4 CALLDATACOPY DUP1 DUP3 ADD SWAP2 POP POP SWAP1 POP JUMPDEST POP SWAP1 POP DUP2 DUP2 PUSH0 DUP2 MLOAD DUP2 LT PUSH2 0x897 JUMPI PUSH2 0x896 PUSH2 0x2173 JUMP JUMPDEST JUMPDEST PUSH1 0x20 MUL PUSH1 0x20 ADD ADD SWAP1 PUSH20 0xFFFFFFFFFFFFFFFFFFFFFFFFFFFFFFFFFFFFFFFF AND SWAP1 DUP2 PUSH20 0xFFFFFFFFFFFFFFFFFFFFFFFFFFFFFFFFFFFFFFFF AND DUP2 MSTORE POP POP DUP6 DUP2 PUSH1 0x1 DUP2 MLOAD DUP2 LT PUSH2 0x8E6 JUMPI PUSH2 0x8E5 PUSH2 0x2173 JUMP JUMPDEST JUMPDEST PUSH1 0x20 MUL PUSH1 0x20 ADD ADD SWAP1 PUSH20 0xFFFFFFFFFFFFFFFFFFFFFFFFFFFFFFFFFFFFFFFF AND SWAP1 DUP2 PUSH20 0xFFFFFFFFFFFFFFFFFFFFFFFFFFFFFFFFFFFFFFFF AND DUP2 MSTORE POP POP PUSH0 DUP9 PUSH20 0xFFFFFFFFFFFFFFFFFFFFFFFFFFFFFFFFFFFFFFFF AND PUSH4 0xD06CA61F DUP8 DUP5 PUSH1 0x40 MLOAD DUP4 PUSH4 0xFFFFFFFF AND PUSH1 0xE0 SHL DUP2 MSTORE PUSH1 0x4 ADD PUSH2 0x95C SWAP3 SWAP2 SWAP1 PUSH2 0x2257 JUMP JUMPDEST PUSH0 PUSH1 0x40 MLOAD DUP1 DUP4 SUB DUP2 DUP7 GAS STATICCALL ISZERO DUP1 ISZERO PUSH2 0x976 JUMPI RETURNDATASIZE PUSH0 DUP1 RETURNDATACOPY RETURNDATASIZE PUSH0 REVERT JUMPDEST POP POP POP POP PUSH1 0x40 MLOAD RETURNDATASIZE PUSH0 DUP3 RETURNDATACOPY RETURNDATASIZE PUSH1 0x1F NOT PUSH1 0x1F DUP3 ADD AND DUP3 ADD DUP1 PUSH1 0x40 MSTORE POP DUP2 ADD SWAP1 PUSH2 0x99E SWAP2 SWAP1 PUSH2 0x23BC JUMP JUMPDEST SWAP1 POP PUSH0 PUSH1 0x2 PUSH8 0xFFFFFFFFFFFFFFFF DUP2 GT ISZERO PUSH2 0x9BC JUMPI PUSH2 0x9BB PUSH2 0x2146 JUMP JUMPDEST JUMPDEST PUSH1 0x40 MLOAD SWAP1 DUP1 DUP3 MSTORE DUP1 PUSH1 0x20 MUL PUSH1 0x20 ADD DUP3 ADD PUSH1 0x40 MSTORE DUP1 ISZERO PUSH2 0x9EA JUMPI DUP2 PUSH1 0x20 ADD PUSH1 0x20 DUP3 MUL DUP1 CALLDATASIZE DUP4 CALLDATACOPY DUP1 DUP3 ADD SWAP2 POP POP SWAP1 POP JUMPDEST POP SWAP1 POP DUP8 DUP2 PUSH0 DUP2 MLOAD DUP2 LT PUSH2 0xA01 JUMPI PUSH2 0xA00 PUSH2 0x2173 JUMP JUMPDEST JUMPDEST PUSH1 0x20 MUL PUSH1 0x20 ADD ADD SWAP1 PUSH20 0xFFFFFFFFFFFFFFFFFFFFFFFFFFFFFFFFFFFFFFFF AND SWAP1 DUP2 PUSH20 0xFFFFFFFFFFFFFFFFFFFFFFFFFFFFFFFFFFFFFFFF AND DUP2 MSTORE POP POP DUP4 DUP2 PUSH1 0x1 DUP2 MLOAD DUP2 LT PUSH2 0xA50 JUMPI PUSH2 0xA4F PUSH2 0x2173 JUMP JUMPDEST JUMPDEST PUSH1 0x20 MUL PUSH1 0x20 ADD ADD SWAP1 PUSH20 0xFFFFFFFFFFFFFFFFFFFFFFFFFFFFFFFFFFFFFFFF AND SWAP1 DUP2 PUSH20 0xFFFFFFFFFFFFFFFFFFFFFFFFFFFFFFFFFFFFFFFF AND DUP2 MSTORE POP POP PUSH0 DUP10 PUSH20 0xFFFFFFFFFFFFFFFFFFFFFFFFFFFFFFFFFFFFFFFF AND PUSH4 0xD06CA61F DUP5 PUSH1 0x1 DUP2 MLOAD DUP2 LT PUSH2 0xABB JUMPI PUSH2 0xABA PUSH2 0x2173 JUMP JUMPDEST JUMPDEST PUSH1 0x20 MUL PUSH1 0x20 ADD ADD MLOAD DUP5 PUSH1 0x40 MLOAD DUP4 PUSH4 0xFFFFFFFF AND PUSH1 0xE0 SHL DUP2 MSTORE PUSH1 0x4 ADD PUSH2 0xAE1 SWAP3 SWAP2 SWAP1 PUSH2 0x2257 JUMP JUMPDEST PUSH0 PUSH1 0x40 MLOAD DUP1 DUP4 SUB DUP2 DUP7 GAS STATICCALL ISZERO DUP1 ISZERO PUSH2 0xAFB JUMPI RETURNDATASIZE PUSH0 DUP1 RETURNDATACOPY RETURNDATASIZE PUSH0 REVERT JUMPDEST POP POP POP POP PUSH1 0x40 MLOAD RETURNDATASIZE PUSH0 DUP3 RETURNDATACOPY RETURNDATASIZE PUSH1 0x1F NOT PUSH1 0x1F DUP3 ADD AND DUP3 ADD DUP1 PUSH1 0x40 MSTORE POP DUP2 ADD SWAP1 PUSH2 0xB23 SWAP2 SWAP1 PUSH2 0x23BC JUMP JUMPDEST SWAP1 POP DUP8 DUP2 PUSH1 0x1 DUP2 MLOAD DUP2 LT PUSH2 0xB3A JUMPI PUSH2 0xB39 PUSH2 0x2173 JUMP JUMPDEST JUMPDEST PUSH1 0x20 MUL PUSH1 0x20 ADD ADD MLOAD GT ISZERO PUSH2 0xB97 JUMPI DUP8 DUP2 PUSH1 0x1 DUP2 MLOAD DUP2 LT PUSH2 0xB5D JUMPI PUSH2 0xB5C PUSH2 0x2173 JUMP JUMPDEST JUMPDEST PUSH1 0x20 MUL PUSH1 0x20 ADD ADD MLOAD PUSH2 0xB6F SWAP2 SWAP1 PUSH2 0x2430 JUMP JUMPDEST SWAP6 POP PUSH0 DUP9 PUSH2 0x3E8 DUP9 PUSH2 0xB81 SWAP2 SWAP1 PUSH2 0x2463 JUMP JUMPDEST PUSH2 0xB8B SWAP2 SWAP1 PUSH2 0x24D1 JUMP JUMPDEST SWAP1 POP PUSH1 0x3 SLOAD DUP2 LT ISZERO SWAP8 POP POP JUMPDEST POP POP POP POP POP SWAP5 POP SWAP5 SWAP3 POP POP POP JUMP JUMPDEST PUSH2 0xBAD PUSH2 0x11CC JUMP JUMPDEST PUSH2 0xBB5 PUSH2 0x1253 JUMP JUMPDEST JUMP JUMPDEST PUSH1 0x5 PUSH1 0x20 MSTORE DUP1 PUSH0 MSTORE PUSH1 0x40 PUSH0 KECCAK256 PUSH0 SWAP2 POP SLOAD SWAP1 PUSH2 0x100 EXP SWAP1 DIV PUSH1 0xFF AND DUP2 JUMP JUMPDEST PUSH2 0xBDC PUSH2 0x11CC JUMP JUMPDEST PUSH0 PUSH20 0xFFFFFFFFFFFFFFFFFFFFFFFFFFFFFFFFFFFFFFFF AND DUP3 PUSH20 0xFFFFFFFFFFFFFFFFFFFFFFFFFFFFFFFFFFFFFFFF AND SUB PUSH2 0xC4A JUMPI PUSH1 0x40 MLOAD PUSH32 0x8C379A000000000000000000000000000000000000000000000000000000000 DUP2 MSTORE PUSH1 0x4 ADD PUSH2 0xC41 SWAP1 PUSH2 0x254B JUMP JUMPDEST PUSH1 0x40 MLOAD DUP1 SWAP2 SUB SWAP1 REVERT JUMPDEST DUP1 PUSH1 0x5 PUSH0 DUP5 PUSH20 0xFFFFFFFFFFFFFFFFFFFFFFFFFFFFFFFFFFFFFFFF AND PUSH20 0xFFFFFFFFFFFFFFFFFFFFFFFFFFFFFFFFFFFFFFFF AND DUP2 MSTORE PUSH1 0x20 ADD SWAP1 DUP2 MSTORE PUSH1 0x20 ADD PUSH0 KECCAK256 PUSH0 PUSH2 0x100 EXP DUP2 SLOAD DUP2 PUSH1 0xFF MUL NOT AND SWAP1 DUP4 ISZERO ISZERO MUL OR SWAP1 SSTORE POP PUSH32 0xAB5814E9F0DC78998A367CDEB77F1143370431CCE307F90ADB6DB02F49FD768A DUP3 DUP3 PUSH1 0x40 MLOAD PUSH2 0xCCF SWAP3 SWAP2 SWAP1 PUSH2 0x1FA8 JUMP JUMPDEST PUSH1 0x40 MLOAD DUP1 SWAP2 SUB SWAP1 LOG1 POP POP JUMP JUMPDEST PUSH0 PUSH1 0x2 PUSH0 SWAP1 SLOAD SWAP1 PUSH2 0x100 EXP SWAP1 DIV PUSH1 0xFF AND SWAP1 POP SWAP1 JUMP JUMPDEST PUSH1 0x6 PUSH1 0x20 MSTORE DUP1 PUSH0 MSTORE PUSH1 0x40 PUSH0 KECCAK256 PUSH0 SWAP2 POP SLOAD SWAP1 PUSH2 0x100 EXP SWAP1 DIV PUSH1 0xFF AND DUP2 JUMP JUMPDEST PUSH2 0xD15 PUSH2 0x11CC JUMP JUMPDEST PUSH2 0xD1E PUSH0 PUSH2 0x12B4 JUMP JUMPDEST JUMP JUMPDEST PUSH1 0x8 SLOAD DUP2 JUMP JUMPDEST PUSH2 0xD2E PUSH2 0x11CC JUMP JUMPDEST PUSH2 0xD36 PUSH2 0x1375 JUMP JUMPDEST JUMP JUMPDEST PUSH0 DUP1 PUSH0 SWAP1 SLOAD SWAP1 PUSH2 0x100 EXP SWAP1 DIV PUSH20 0xFFFFFFFFFFFFFFFFFFFFFFFFFFFFFFFFFFFFFFFF AND SWAP1 POP SWAP1 JUMP JUMPDEST PUSH1 0x7 PUSH0 SWAP1 SLOAD SWAP1 PUSH2 0x100 EXP SWAP1 DIV PUSH1 0xFF AND DUP2 JUMP JUMPDEST PUSH2 0xD79 PUSH2 0x11CC JUMP JUMPDEST DUP1 PUSH1 0x7 PUSH0 PUSH2 0x100 EXP DUP2 SLOAD DUP2 PUSH1 0xFF MUL NOT AND SWAP1 DUP4 ISZERO ISZERO MUL OR SWAP1 SSTORE POP PUSH32 0x1C3CA67FA4C57AC8E623908E48D84072E553DF9A9042D4C3F5C1F1B011CC521A DUP2 PUSH1 0x40 MLOAD PUSH2 0xDC1 SWAP2 SWAP1 PUSH2 0x1E74 JUMP JUMPDEST PUSH1 0x40 MLOAD DUP1 SWAP2 SUB SWAP1 LOG1 POP JUMP JUMPDEST PUSH2 0xDD4 PUSH2 0x11CC JUMP JUMPDEST PUSH0 DUP2 PUSH20 0xFFFFFFFFFFFFFFFFFFFFFFFFFFFFFFFFFFFFFFFF AND PUSH4 0x70A08231 ADDRESS PUSH1 0x40 MLOAD DUP3 PUSH4 0xFFFFFFFF AND PUSH1 0xE0 SHL DUP2 MSTORE PUSH1 0x4 ADD PUSH2 0xE0E SWAP2 SWAP1 PUSH2 0x1E9C JUMP JUMPDEST PUSH1 0x20 PUSH1 0x40 MLOAD DUP1 DUP4 SUB DUP2 DUP7 GAS STATICCALL ISZERO DUP1 ISZERO PUSH2 0xE29 JUMPI RETURNDATASIZE PUSH0 DUP1 RETURNDATACOPY RETURNDATASIZE PUSH0 REVERT JUMPDEST POP POP POP POP PUSH1 0x40 MLOAD RETURNDATASIZE PUSH1 0x1F NOT PUSH1 0x1F DUP3 ADD AND DUP3 ADD DUP1 PUSH1 0x40 MSTORE POP DUP2 ADD SWAP1 PUSH2 0xE4D SWAP2 SWAP1 PUSH2 0x2569 JUMP JUMPDEST SWAP1 POP DUP2 PUSH20 0xFFFFFFFFFFFFFFFFFFFFFFFFFFFFFFFFFFFFFFFF AND PUSH4 0xA9059CBB PUSH2 0xE73 PUSH2 0xD38 JUMP JUMPDEST DUP4 PUSH1 0x40 MLOAD DUP4 PUSH4 0xFFFFFFFF AND PUSH1 0xE0 SHL DUP2 MSTORE PUSH1 0x4 ADD PUSH2 0xE91 SWAP3 SWAP2 SWAP1 PUSH2 0x2594 JUMP JUMPDEST PUSH1 0x20 PUSH1 0x40 MLOAD DUP1 DUP4 SUB DUP2 PUSH0 DUP8 GAS CALL ISZERO DUP1 ISZERO PUSH2 0xEAD JUMPI RETURNDATASIZE PUSH0 DUP1 RETURNDATACOPY RETURNDATASIZE PUSH0 REVERT JUMPDEST POP POP POP POP PUSH1 0x40 MLOAD RETURNDATASIZE PUSH1 0x1F NOT PUSH1 0x1F DUP3 ADD AND DUP3 ADD DUP1 PUSH1 0x40 MSTORE POP DUP2 ADD SWAP1 PUSH2 0xED1 SWAP2 SWAP1 PUSH2 0x25CF JUMP JUMPDEST POP POP POP JUMP JUMPDEST PUSH1 0x3C DUP2 JUMP JUMPDEST PUSH1 0x7 PUSH0 SWAP1 SLOAD SWAP1 PUSH2 0x100 EXP SWAP1 DIV PUSH1 0xFF AND PUSH2 0xF29 JUMPI PUSH1 0x40 MLOAD PUSH32 0x8C379A000000000000000000000000000000000000000000000000000000000 DUP2 MSTORE PUSH1 0x4 ADD PUSH2 0xF20 SWAP1 PUSH2 0x2644 JUMP JUMPDEST PUSH1 0x40 MLOAD DUP1 SWAP2 SUB SWAP1 REVERT JUMPDEST PUSH1 0x4 SLOAD CALLVALUE LT ISZERO PUSH2 0xF6E JUMPI PUSH1 0x40 MLOAD PUSH32 0x8C379A000000000000000000000000000000000000000000000000000000000 DUP2 MSTORE PUSH1 0x4 ADD PUSH2 0xF65 SWAP1 PUSH2 0x26AC JUMP JUMPDEST PUSH1 0x40 MLOAD DUP1 SWAP2 SUB SWAP1 REVERT JUMPDEST PUSH0 DUP1 PUSH2 0xF7C DUP6 DUP6 DUP6 CALLVALUE PUSH2 0x660 JUMP JUMPDEST SWAP2 POP SWAP2 POP DUP2 ISZERO PUSH2 0x107F JUMPI PUSH2 0xF92 DUP6 DUP6 DUP6 DUP5 PUSH2 0x13D7 JUMP JUMPDEST PUSH2 0xFD1 JUMPI PUSH1 0x40 MLOAD PUSH32 0x8C379A000000000000000000000000000000000000000000000000000000000 DUP2 MSTORE PUSH1 0x4 ADD PUSH2 0xFC8 SWAP1 PUSH2 0x2714 JUMP JUMPDEST PUSH1 0x40 MLOAD DUP1 SWAP2 SUB SWAP1 REVERT JUMPDEST PUSH0 CALLER PUSH20 0xFFFFFFFFFFFFFFFFFFFFFFFFFFFFFFFFFFFFFFFF AND SELFBALANCE PUSH1 0x40 MLOAD PUSH2 0xFF6 SWAP1 PUSH2 0x275F JUMP JUMPDEST PUSH0 PUSH1 0x40 MLOAD DUP1 DUP4 SUB DUP2 DUP6 DUP8 GAS CALL SWAP3 POP POP POP RETURNDATASIZE DUP1 PUSH0 DUP2 EQ PUSH2 0x1030 JUMPI PUSH1 0x40 MLOAD SWAP2 POP PUSH1 0x1F NOT PUSH1 0x3F RETURNDATASIZE ADD AND DUP3 ADD PUSH1 0x40 MSTORE RETURNDATASIZE DUP3 MSTORE RETURNDATASIZE PUSH0 PUSH1 0x20 DUP5 ADD RETURNDATACOPY PUSH2 0x1035 JUMP JUMPDEST PUSH1 0x60 SWAP2 POP JUMPDEST POP POP SWAP1 POP DUP1 PUSH2 0x1079 JUMPI PUSH1 0x40 MLOAD PUSH32 0x8C379A000000000000000000000000000000000000000000000000000000000 DUP2 MSTORE PUSH1 0x4 ADD PUSH2 0x1070 SWAP1 PUSH2 0x27BD JUMP JUMPDEST PUSH1 0x40 MLOAD DUP1 SWAP2 SUB SWAP1 REVERT JUMPDEST POP PUSH2 0x1129 JUMP JUMPDEST PUSH0 CALLER PUSH20 0xFFFFFFFFFFFFFFFFFFFFFFFFFFFFFFFFFFFFFFFF AND CALLVALUE PUSH1 0x40 MLOAD PUSH2 0x10A4 SWAP1 PUSH2 0x275F JUMP JUMPDEST PUSH0 PUSH1 0x40 MLOAD DUP1 DUP4 SUB DUP2 DUP6 DUP8 GAS CALL SWAP3 POP POP POP RETURNDATASIZE DUP1 PUSH0 DUP2 EQ PUSH2 0x10DE JUMPI PUSH1 0x40 MLOAD SWAP2 POP PUSH1 0x1F NOT PUSH1 0x3F RETURNDATASIZE ADD AND DUP3 ADD PUSH1 0x40 MSTORE RETURNDATASIZE DUP3 MSTORE RETURNDATASIZE PUSH0 PUSH1 0x20 DUP5 ADD RETURNDATACOPY PUSH2 0x10E3 JUMP JUMPDEST PUSH1 0x60 SWAP2 POP JUMPDEST POP POP SWAP1 POP DUP1 PUSH2 0x1127 JUMPI PUSH1 0x40 MLOAD PUSH32 0x8C379A000000000000000000000000000000000000000000000000000000000 DUP2 MSTORE PUSH1 0x4 ADD PUSH2 0x111E SWAP1 PUSH2 0x2825 JUMP JUMPDEST PUSH1 0x40 MLOAD DUP1 SWAP2 SUB SWAP1 REVERT JUMPDEST POP JUMPDEST POP POP POP POP POP JUMP JUMPDEST PUSH2 0x1138 PUSH2 0x11CC JUMP JUMPDEST DUP1 PUSH1 0x4 DUP2 SWAP1 SSTORE POP POP JUMP JUMPDEST PUSH1 0x4 SLOAD DUP2 JUMP JUMPDEST PUSH2 0x1150 PUSH2 0x11CC JUMP JUMPDEST PUSH0 PUSH20 0xFFFFFFFFFFFFFFFFFFFFFFFFFFFFFFFFFFFFFFFF AND DUP2 PUSH20 0xFFFFFFFFFFFFFFFFFFFFFFFFFFFFFFFFFFFFFFFF AND SUB PUSH2 0x11C0 JUMPI PUSH0 PUSH1 0x40 MLOAD PUSH32 0x1E4FBDF700000000000000000000000000000000000000000000000000000000 DUP2 MSTORE PUSH1 0x4 ADD PUSH2 0x11B7 SWAP2 SWAP1 PUSH2 0x1E9C JUMP JUMPDEST PUSH1 0x40 MLOAD DUP1 SWAP2 SUB SWAP1 REVERT JUMPDEST PUSH2 0x11C9 DUP2 PUSH2 0x12B4 JUMP JUMPDEST POP JUMP JUMPDEST PUSH2 0x11D4 PUSH2 0x1B59 JUMP JUMPDEST PUSH20 0xFFFFFFFFFFFFFFFFFFFFFFFFFFFFFFFFFFFFFFFF AND PUSH2 0x11F2 PUSH2 0xD38 JUMP JUMPDEST PUSH20 0xFFFFFFFFFFFFFFFFFFFFFFFFFFFFFFFFFFFFFFFF AND EQ PUSH2 0x1251 JUMPI PUSH2 0x1215 PUSH2 0x1B59 JUMP JUMPDEST PUSH1 0x40 MLOAD PUSH32 0x118CDAA700000000000000000000000000000000000000000000000000000000 DUP2 MSTORE PUSH1 0x4 ADD PUSH2 0x1248 SWAP2 SWAP1 PUSH2 0x1E9C JUMP JUMPDEST PUSH1 0x40 MLOAD DUP1 SWAP2 SUB SWAP1 REVERT JUMPDEST JUMP JUMPDEST PUSH2 0x125B PUSH2 0x1B60 JUMP JUMPDEST PUSH0 PUSH1 0x2 PUSH0 PUSH2 0x100 EXP DUP2 SLOAD DUP2 PUSH1 0xFF MUL NOT AND SWAP1 DUP4 ISZERO ISZERO MUL OR SWAP1 SSTORE POP PUSH32 0x5DB9EE0A495BF2E6FF9C91A7834C1BA4FDD244A5E8AA4E537BD38AEAE4B073AA PUSH2 0x129D PUSH2 0x1B59 JUMP JUMPDEST PUSH1 0x40 MLOAD PUSH2 0x12AA SWAP2 SWAP1 PUSH2 0x1E9C JUMP JUMPDEST PUSH1 0x40 MLOAD DUP1 SWAP2 SUB SWAP1 LOG1 JUMP JUMPDEST PUSH0 DUP1 PUSH0 SWAP1 SLOAD SWAP1 PUSH2 0x100 EXP SWAP1 DIV PUSH20 0xFFFFFFFFFFFFFFFFFFFFFFFFFFFFFFFFFFFFFFFF AND SWAP1 POP DUP2 PUSH0 DUP1 PUSH2 0x100 EXP DUP2 SLOAD DUP2 PUSH20 0xFFFFFFFFFFFFFFFFFFFFFFFFFFFFFFFFFFFFFFFF MUL NOT AND SWAP1 DUP4 PUSH20 0xFFFFFFFFFFFFFFFFFFFFFFFFFFFFFFFFFFFFFFFF AND MUL OR SWAP1 SSTORE POP DUP2 PUSH20 0xFFFFFFFFFFFFFFFFFFFFFFFFFFFFFFFFFFFFFFFF AND DUP2 PUSH20 0xFFFFFFFFFFFFFFFFFFFFFFFFFFFFFFFFFFFFFFFF AND PUSH32 0x8BE0079C531659141344CD1FD0A4F28419497F9722A3DAAFE3B4186F6B6457E0 PUSH1 0x40 MLOAD PUSH1 0x40 MLOAD DUP1 SWAP2 SUB SWAP1 LOG3 POP POP JUMP JUMPDEST PUSH2 0x137D PUSH2 0x1BA9 JUMP JUMPDEST PUSH1 0x1 PUSH1 0x2 PUSH0 PUSH2 0x100 EXP DUP2 SLOAD DUP2 PUSH1 0xFF MUL NOT AND SWAP1 DUP4 ISZERO ISZERO MUL OR SWAP1 SSTORE POP PUSH32 0x62E78CEA01BEE320CD4E420270B5EA74000D11B0C9F74754EBDBFC544B05A258 PUSH2 0x13C0 PUSH2 0x1B59 JUMP JUMPDEST PUSH1 0x40 MLOAD PUSH2 0x13CD SWAP2 SWAP1 PUSH2 0x1E9C JUMP JUMPDEST PUSH1 0x40 MLOAD DUP1 SWAP2 SUB SWAP1 LOG1 JUMP JUMPDEST PUSH0 PUSH2 0x13E0 PUSH2 0x1BF3 JUMP JUMPDEST PUSH2 0x13E8 PUSH2 0x1BA9 JUMP JUMPDEST PUSH1 0x4 SLOAD SELFBALANCE GT PUSH2 0x142C JUMPI PUSH1 0x40 MLOAD PUSH32 0x8C379A000000000000000000000000000000000000000000000000000000000 DUP2 MSTORE PUSH1 0x4 ADD PUSH2 0x1423 SWAP1 PUSH2 0x288D JUMP JUMPDEST PUSH1 0x40 MLOAD DUP1 SWAP2 SUB SWAP1 REVERT JUMPDEST PUSH1 0x5 PUSH0 DUP7 PUSH20 0xFFFFFFFFFFFFFFFFFFFFFFFFFFFFFFFFFFFFFFFF AND PUSH20 0xFFFFFFFFFFFFFFFFFFFFFFFFFFFFFFFFFFFFFFFF AND DUP2 MSTORE PUSH1 0x20 ADD SWAP1 DUP2 MSTORE PUSH1 0x20 ADD PUSH0 KECCAK256 PUSH0 SWAP1 SLOAD SWAP1 PUSH2 0x100 EXP SWAP1 DIV PUSH1 0xFF AND DUP1 ISZERO PUSH2 0x14C8 JUMPI POP PUSH1 0x5 PUSH0 DUP6 PUSH20 0xFFFFFFFFFFFFFFFFFFFFFFFFFFFFFFFFFFFFFFFF AND PUSH20 0xFFFFFFFFFFFFFFFFFFFFFFFFFFFFFFFFFFFFFFFF AND DUP2 MSTORE PUSH1 0x20 ADD SWAP1 DUP2 MSTORE PUSH1 0x20 ADD PUSH0 KECCAK256 PUSH0 SWAP1 SLOAD SWAP1 PUSH2 0x100 EXP SWAP1 DIV PUSH1 0xFF AND JUMPDEST PUSH2 0x1507 JUMPI PUSH1 0x40 MLOAD PUSH32 0x8C379A000000000000000000000000000000000000000000000000000000000 DUP2 MSTORE PUSH1 0x4 ADD PUSH2 0x14FE SWAP1 PUSH2 0x2081 JUMP JUMPDEST PUSH1 0x40 MLOAD DUP1 SWAP2 SUB SWAP1 REVERT JUMPDEST PUSH1 0x6 PUSH0 DUP5 PUSH20 0xFFFFFFFFFFFFFFFFFFFFFFFFFFFFFFFFFFFFFFFF AND PUSH20 0xFFFFFFFFFFFFFFFFFFFFFFFFFFFFFFFFFFFFFFFF AND DUP2 MSTORE PUSH1 0x20 ADD SWAP1 DUP2 MSTORE PUSH1 0x20 ADD PUSH0 KECCAK256 PUSH0 SWAP1 SLOAD SWAP1 PUSH2 0x100 EXP SWAP1 DIV PUSH1 0xFF AND PUSH2 0x1590 JUMPI PUSH1 0x40 MLOAD PUSH32 0x8C379A000000000000000000000000000000000000000000000000000000000 DUP2 MSTORE PUSH1 0x4 ADD PUSH2 0x1587 SWAP1 PUSH2 0x20E9 JUMP JUMPDEST PUSH1 0x40 MLOAD DUP1 SWAP2 SUB SWAP1 REVERT JUMPDEST PUSH1 0x3C PUSH1 0x8 SLOAD PUSH2 0x159F SWAP2 SWAP1 PUSH2 0x28AB JUMP JUMPDEST TIMESTAMP LT ISZERO PUSH2 0x15E1 JUMPI PUSH1 0x40 MLOAD PUSH32 0x8C379A000000000000000000000000000000000000000000000000000000000 DUP2 MSTORE PUSH1 0x4 ADD PUSH2 0x15D8 SWAP1 PUSH2 0x2928 JUMP JUMPDEST PUSH1 0x40 MLOAD DUP1 SWAP2 SUB SWAP1 REVERT JUMPDEST PUSH0 SELFBALANCE SWAP1 POP PUSH0 DUP7 PUSH20 0xFFFFFFFFFFFFFFFFFFFFFFFFFFFFFFFFFFFFFFFF AND PUSH4 0xAD5C4648 PUSH1 0x40 MLOAD DUP2 PUSH4 0xFFFFFFFF AND PUSH1 0xE0 SHL DUP2 MSTORE PUSH1 0x4 ADD PUSH1 0x20 PUSH1 0x40 MLOAD DUP1 DUP4 SUB DUP2 DUP7 GAS STATICCALL ISZERO DUP1 ISZERO PUSH2 0x162F JUMPI RETURNDATASIZE PUSH0 DUP1 RETURNDATACOPY RETURNDATASIZE PUSH0 REVERT JUMPDEST POP POP POP POP PUSH1 0x40 MLOAD RETURNDATASIZE PUSH1 0x1F NOT PUSH1 0x1F DUP3 ADD AND DUP3 ADD DUP1 PUSH1 0x40 MSTORE POP DUP2 ADD SWAP1 PUSH2 0x1653 SWAP2 SWAP1 PUSH2 0x211B JUMP JUMPDEST SWAP1 POP PUSH0 PUSH2 0x12C TIMESTAMP PUSH2 0x1664 SWAP2 SWAP1 PUSH2 0x28AB JUMP JUMPDEST SWAP1 POP PUSH0 PUSH1 0x2 PUSH8 0xFFFFFFFFFFFFFFFF DUP2 GT ISZERO PUSH2 0x1682 JUMPI PUSH2 0x1681 PUSH2 0x2146 JUMP JUMPDEST JUMPDEST PUSH1 0x40 MLOAD SWAP1 DUP1 DUP3 MSTORE DUP1 PUSH1 0x20 MUL PUSH1 0x20 ADD DUP3 ADD PUSH1 0x40 MSTORE DUP1 ISZERO PUSH2 0x16B0 JUMPI DUP2 PUSH1 0x20 ADD PUSH1 0x20 DUP3 MUL DUP1 CALLDATASIZE DUP4 CALLDATACOPY DUP1 DUP3 ADD SWAP2 POP POP SWAP1 POP JUMPDEST POP SWAP1 POP DUP3 DUP2 PUSH0 DUP2 MLOAD DUP2 LT PUSH2 0x16C7 JUMPI PUSH2 0x16C6 PUSH2 0x2173 JUMP JUMPDEST JUMPDEST PUSH1 0x20 MUL PUSH1 0x20 ADD ADD SWAP1 PUSH20 0xFFFFFFFFFFFFFFFFFFFFFFFFFFFFFFFFFFFFFFFF AND SWAP1 DUP2 PUSH20 0xFFFFFFFFFFFFFFFFFFFFFFFFFFFFFFFFFFFFFFFF AND DUP2 MSTORE POP POP DUP7 DUP2 PUSH1 0x1 DUP2 MLOAD DUP2 LT PUSH2 0x1716 JUMPI PUSH2 0x1715 PUSH2 0x2173 JUMP JUMPDEST JUMPDEST PUSH1 0x20 MUL PUSH1 0x20 ADD ADD SWAP1 PUSH20 0xFFFFFFFFFFFFFFFFFFFFFFFFFFFFFFFFFFFFFFFF AND SWAP1 DUP2 PUSH20 0xFFFFFFFFFFFFFFFFFFFFFFFFFFFFFFFFFFFFFFFF AND DUP2 MSTORE POP POP PUSH0 DUP10 PUSH20 0xFFFFFFFFFFFFFFFFFFFFFFFFFFFFFFFFFFFFFFFF AND PUSH4 0x7FF36AB5 DUP7 PUSH0 DUP6 ADDRESS DUP9 PUSH1 0x40 MLOAD DUP7 PUSH4 0xFFFFFFFF AND PUSH1 0xE0 SHL DUP2 MSTORE PUSH1 0x4 ADD PUSH2 0x1791 SWAP5 SWAP4 SWAP3 SWAP2 SWAP1 PUSH2 0x2988 JUMP JUMPDEST PUSH0 PUSH1 0x40 MLOAD DUP1 DUP4 SUB DUP2 DUP6 DUP9 GAS CALL ISZERO DUP1 ISZERO PUSH2 0x17AC JUMPI RETURNDATASIZE PUSH0 DUP1 RETURNDATACOPY RETURNDATASIZE PUSH0 REVERT JUMPDEST POP POP POP POP POP PUSH1 0x40 MLOAD RETURNDATASIZE PUSH0 DUP3 RETURNDATACOPY RETURNDATASIZE PUSH1 0x1F NOT PUSH1 0x1F DUP3 ADD AND DUP3 ADD DUP1 PUSH1 0x40 MSTORE POP DUP2 ADD SWAP1 PUSH2 0x17D5 SWAP2 SWAP1 PUSH2 0x23BC JUMP JUMPDEST SWAP1 POP PUSH0 DUP9 PUSH20 0xFFFFFFFFFFFFFFFFFFFFFFFFFFFFFFFFFFFFFFFF AND PUSH4 0x70A08231 ADDRESS PUSH1 0x40 MLOAD DUP3 PUSH4 0xFFFFFFFF AND PUSH1 0xE0 SHL DUP2 MSTORE PUSH1 0x4 ADD PUSH2 0x1811 SWAP2 SWAP1 PUSH2 0x1E9C JUMP JUMPDEST PUSH1 0x20 PUSH1 0x40 MLOAD DUP1 DUP4 SUB DUP2 DUP7 GAS STATICCALL ISZERO DUP1 ISZERO PUSH2 0x182C JUMPI RETURNDATASIZE PUSH0 DUP1 RETURNDATACOPY RETURNDATASIZE PUSH0 REVERT JUMPDEST POP POP POP POP PUSH1 0x40 MLOAD RETURNDATASIZE PUSH1 0x1F NOT PUSH1 0x1F DUP3 ADD AND DUP3 ADD DUP1 PUSH1 0x40 MSTORE POP DUP2 ADD SWAP1 PUSH2 0x1850 SWAP2 SWAP1 PUSH2 0x2569 JUMP JUMPDEST SWAP1 POP DUP9 PUSH20 0xFFFFFFFFFFFFFFFFFFFFFFFFFFFFFFFFFFFFFFFF AND PUSH4 0x95EA7B3 DUP12 DUP4 PUSH1 0x40 MLOAD DUP4 PUSH4 0xFFFFFFFF AND PUSH1 0xE0 SHL DUP2 MSTORE PUSH1 0x4 ADD PUSH2 0x188D SWAP3 SWAP2 SWAP1 PUSH2 0x2594 JUMP JUMPDEST PUSH1 0x20 PUSH1 0x40 MLOAD DUP1 DUP4 SUB DUP2 PUSH0 DUP8 GAS CALL ISZERO DUP1 ISZERO PUSH2 0x18A9 JUMPI RETURNDATASIZE PUSH0 DUP1 RETURNDATACOPY RETURNDATASIZE PUSH0 REVERT JUMPDEST POP POP POP POP PUSH1 0x40 MLOAD RETURNDATASIZE PUSH1 0x1F NOT PUSH1 0x1F DUP3 ADD AND DUP3 ADD DUP1 PUSH1 0x40 MSTORE POP DUP2 ADD SWAP1 PUSH2 0x18CD SWAP2 SWAP1 PUSH2 0x25CF JUMP JUMPDEST POP PUSH0 PUSH1 0x2 PUSH8 0xFFFFFFFFFFFFFFFF DUP2 GT ISZERO PUSH2 0x18EA JUMPI PUSH2 0x18E9 PUSH2 0x2146 JUMP JUMPDEST JUMPDEST PUSH1 0x40 MLOAD SWAP1 DUP1 DUP3 MSTORE DUP1 PUSH1 0x20 MUL PUSH1 0x20 ADD DUP3 ADD PUSH1 0x40 MSTORE DUP1 ISZERO PUSH2 0x1918 JUMPI DUP2 PUSH1 0x20 ADD PUSH1 0x20 DUP3 MUL DUP1 CALLDATASIZE DUP4 CALLDATACOPY DUP1 DUP3 ADD SWAP2 POP POP SWAP1 POP JUMPDEST POP SWAP1 POP DUP10 DUP2 PUSH0 DUP2 MLOAD DUP2 LT PUSH2 0x192F JUMPI PUSH2 0x192E PUSH2 0x2173 JUMP JUMPDEST JUMPDEST PUSH1 0x20 MUL PUSH1 0x20 ADD ADD SWAP1 PUSH20 0xFFFFFFFFFFFFFFFFFFFFFFFFFFFFFFFFFFFFFFFF AND SWAP1 DUP2 PUSH20 0xFFFFFFFFFFFFFFFFFFFFFFFFFFFFFFFFFFFFFFFF AND DUP2 MSTORE POP POP DUP6 DUP2 PUSH1 0x1 DUP2 MLOAD DUP2 LT PUSH2 0x197E JUMPI PUSH2 0x197D PUSH2 0x2173 JUMP JUMPDEST JUMPDEST PUSH1 0x20 MUL PUSH1 0x20 ADD ADD SWAP1 PUSH20 0xFFFFFFFFFFFFFFFFFFFFFFFFFFFFFFFFFFFFFFFF AND SWAP1 DUP2 PUSH20 0xFFFFFFFFFFFFFFFFFFFFFFFFFFFFFFFFFFFFFFFF AND DUP2 MSTORE POP POP PUSH0 DUP12 PUSH20 0xFFFFFFFFFFFFFFFFFFFFFFFFFFFFFFFFFFFFFFFF AND PUSH4 0x18CBAFE5 DUP5 DUP13 DUP12 PUSH2 0x19E2 SWAP2 SWAP1 PUSH2 0x28AB JUMP JUMPDEST DUP6 ADDRESS DUP12 PUSH1 0x40 MLOAD DUP7 PUSH4 0xFFFFFFFF AND PUSH1 0xE0 SHL DUP2 MSTORE PUSH1 0x4 ADD PUSH2 0x1A05 SWAP6 SWAP5 SWAP4 SWAP3 SWAP2 SWAP1 PUSH2 0x29D2 JUMP JUMPDEST PUSH0 PUSH1 0x40 MLOAD DUP1 DUP4 SUB DUP2 PUSH0 DUP8 GAS CALL ISZERO DUP1 ISZERO PUSH2 0x1A20 JUMPI RETURNDATASIZE PUSH0 DUP1 RETURNDATACOPY RETURNDATASIZE PUSH0 REVERT JUMPDEST POP POP POP POP PUSH1 0x40 MLOAD RETURNDATASIZE PUSH0 DUP3 RETURNDATACOPY RETURNDATASIZE PUSH1 0x1F NOT PUSH1 0x1F DUP3 ADD AND DUP3 ADD DUP1 PUSH1 0x40 MSTORE POP DUP2 ADD SWAP1 PUSH2 0x1A48 SWAP2 SWAP1 PUSH2 0x23BC JUMP JUMPDEST SWAP1 POP PUSH0 SELFBALANCE SWAP1 POP DUP9 DUP2 GT PUSH2 0x1A90 JUMPI PUSH1 0x40 MLOAD PUSH32 0x8C379A000000000000000000000000000000000000000000000000000000000 DUP2 MSTORE PUSH1 0x4 ADD PUSH2 0x1A87 SWAP1 PUSH2 0x2A74 JUMP JUMPDEST PUSH1 0x40 MLOAD DUP1 SWAP2 SUB SWAP1 REVERT JUMPDEST PUSH0 DUP10 DUP3 PUSH2 0x1A9D SWAP2 SWAP1 PUSH2 0x2430 JUMP JUMPDEST SWAP1 POP DUP12 DUP2 LT ISZERO PUSH2 0x1AE2 JUMPI PUSH1 0x40 MLOAD PUSH32 0x8C379A000000000000000000000000000000000000000000000000000000000 DUP2 MSTORE PUSH1 0x4 ADD PUSH2 0x1AD9 SWAP1 PUSH2 0x2ADC JUMP JUMPDEST PUSH1 0x40 MLOAD DUP1 SWAP2 SUB SWAP1 REVERT JUMPDEST TIMESTAMP PUSH1 0x8 DUP2 SWAP1 SSTORE POP DUP13 PUSH20 0xFFFFFFFFFFFFFFFFFFFFFFFFFFFFFFFFFFFFFFFF AND PUSH32 0x67D289DB9C9172DCC30BB1EB4D3288969AEE73297A720BA599C033DF5AD4B478 DUP12 DUP5 DUP5 PUSH1 0x40 MLOAD PUSH2 0x1B33 SWAP4 SWAP3 SWAP2 SWAP1 PUSH2 0x2AFA JUMP JUMPDEST PUSH1 0x40 MLOAD DUP1 SWAP2 SUB SWAP1 LOG2 PUSH1 0x1 SWAP11 POP POP POP POP POP POP POP POP POP POP POP PUSH2 0x1B51 PUSH2 0x1C42 JUMP JUMPDEST SWAP5 SWAP4 POP POP POP POP JUMP JUMPDEST PUSH0 CALLER SWAP1 POP SWAP1 JUMP JUMPDEST PUSH2 0x1B68 PUSH2 0xCDB JUMP JUMPDEST PUSH2 0x1BA7 JUMPI PUSH1 0x40 MLOAD PUSH32 0x8C379A000000000000000000000000000000000000000000000000000000000 DUP2 MSTORE PUSH1 0x4 ADD PUSH2 0x1B9E SWAP1 PUSH2 0x2B79 JUMP JUMPDEST PUSH1 0x40 MLOAD DUP1 SWAP2 SUB SWAP1 REVERT JUMPDEST JUMP JUMPDEST PUSH2 0x1BB1 PUSH2 0xCDB JUMP JUMPDEST ISZERO PUSH2 0x1BF1 JUMPI PUSH1 0x40 MLOAD PUSH32 0x8C379A000000000000000000000000000000000000000000000000000000000 DUP2 MSTORE PUSH1 0x4 ADD PUSH2 0x1BE8 SWAP1 PUSH2 0x2BE1 JUMP JUMPDEST PUSH1 0x40 MLOAD DUP1 SWAP2 SUB SWAP1 REVERT JUMPDEST JUMP JUMPDEST PUSH1 0x2 PUSH1 0x1 SLOAD SUB PUSH2 0x1C38 JUMPI PUSH1 0x40 MLOAD PUSH32 0x8C379A000000000000000000000000000000000000000000000000000000000 DUP2 MSTORE PUSH1 0x4 ADD PUSH2 0x1C2F SWAP1 PUSH2 0x2C49 JUMP JUMPDEST PUSH1 0x40 MLOAD DUP1 SWAP2 SUB SWAP1 REVERT JUMPDEST PUSH1 0x2 PUSH1 0x1 DUP2 SWAP1 SSTORE POP JUMP JUMPDEST PUSH1 0x1 DUP1 DUP2 SWAP1 SSTORE POP JUMP JUMPDEST PUSH0 PUSH1 0x40 MLOAD SWAP1 POP SWAP1 JUMP JUMPDEST PUSH0 DUP1 REVERT JUMPDEST PUSH0 DUP1 REVERT JUMPDEST PUSH0 PUSH20 0xFFFFFFFFFFFFFFFFFFFFFFFFFFFFFFFFFFFFFFFF DUP3 AND SWAP1 POP SWAP2 SWAP1 POP JUMP JUMPDEST PUSH0 PUSH2 0x1C85 DUP3 PUSH2 0x1C5C JUMP JUMPDEST SWAP1 POP SWAP2 SWAP1 POP JUMP JUMPDEST PUSH2 0x1C95 DUP2 PUSH2 0x1C7B JUMP JUMPDEST DUP2 EQ PUSH2 0x1C9F JUMPI PUSH0 DUP1 REVERT JUMPDEST POP JUMP JUMPDEST PUSH0 DUP2 CALLDATALOAD SWAP1 POP PUSH2 0x1CB0 DUP2 PUSH2 0x1C8C JUMP JUMPDEST SWAP3 SWAP2 POP POP JUMP JUMPDEST PUSH0 DUP2 ISZERO ISZERO SWAP1 POP SWAP2 SWAP1 POP JUMP JUMPDEST PUSH2 0x1CCA DUP2 PUSH2 0x1CB6 JUMP JUMPDEST DUP2 EQ PUSH2 0x1CD4 JUMPI PUSH0 DUP1 REVERT JUMPDEST POP JUMP JUMPDEST PUSH0 DUP2 CALLDATALOAD SWAP1 POP PUSH2 0x1CE5 DUP2 PUSH2 0x1CC1 JUMP JUMPDEST SWAP3 SWAP2 POP POP JUMP JUMPDEST PUSH0 DUP1 PUSH1 0x40 DUP4 DUP6 SUB SLT ISZERO PUSH2 0x1D01 JUMPI PUSH2 0x1D00 PUSH2 0x1C54 JUMP JUMPDEST JUMPDEST PUSH0 PUSH2 0x1D0E DUP6 DUP3 DUP7 ADD PUSH2 0x1CA2 JUMP JUMPDEST SWAP3 POP POP PUSH1 0x20 PUSH2 0x1D1F DUP6 DUP3 DUP7 ADD PUSH2 0x1CD7 JUMP JUMPDEST SWAP2 POP POP SWAP3 POP SWAP3 SWAP1 POP JUMP JUMPDEST PUSH0 DUP2 SWAP1 POP SWAP2 SWAP1 POP JUMP JUMPDEST PUSH2 0x1D3B DUP2 PUSH2 0x1D29 JUMP JUMPDEST DUP3 MSTORE POP POP JUMP JUMPDEST PUSH0 PUSH1 0x20 DUP3 ADD SWAP1 POP PUSH2 0x1D54 PUSH0 DUP4 ADD DUP5 PUSH2 0x1D32 JUMP JUMPDEST SWAP3 SWAP2 POP POP JUMP JUMPDEST PUSH2 0x1D63 DUP2 PUSH2 0x1D29 JUMP JUMPDEST DUP2 EQ PUSH2 0x1D6D JUMPI PUSH0 DUP1 REVERT JUMPDEST POP JUMP JUMPDEST PUSH0 DUP2 CALLDATALOAD SWAP1 POP PUSH2 0x1D7E DUP2 PUSH2 0x1D5A JUMP JUMPDEST SWAP3 SWAP2 POP POP JUMP JUMPDEST PUSH0 PUSH1 0x20 DUP3 DUP5 SUB SLT ISZERO PUSH2 0x1D99 JUMPI PUSH2 0x1D98 PUSH2 0x1C54 JUMP JUMPDEST JUMPDEST PUSH0 PUSH2 0x1DA6 DUP5 DUP3 DUP6 ADD PUSH2 0x1D70 JUMP JUMPDEST SWAP2 POP POP SWAP3 SWAP2 POP POP JUMP JUMPDEST PUSH0 DUP1 PUSH0 DUP1 PUSH1 0x80 DUP6 DUP8 SUB SLT ISZERO PUSH2 0x1DC7 JUMPI PUSH2 0x1DC6 PUSH2 0x1C54 JUMP JUMPDEST JUMPDEST PUSH0 PUSH2 0x1DD4 DUP8 DUP3 DUP9 ADD PUSH2 0x1CA2 JUMP JUMPDEST SWAP5 POP POP PUSH1 0x20 PUSH2 0x1DE5 DUP8 DUP3 DUP9 ADD PUSH2 0x1CA2 JUMP JUMPDEST SWAP4 POP POP PUSH1 0x40 PUSH2 0x1DF6 DUP8 DUP3 DUP9 ADD PUSH2 0x1CA2 JUMP JUMPDEST SWAP3 POP POP PUSH1 0x60 PUSH2 0x1E07 DUP8 DUP3 DUP9 ADD PUSH2 0x1D70 JUMP JUMPDEST SWAP2 POP POP SWAP3 SWAP6 SWAP2 SWAP5 POP SWAP3 POP JUMP JUMPDEST PUSH2 0x1E1C DUP2 PUSH2 0x1CB6 JUMP JUMPDEST DUP3 MSTORE POP POP JUMP JUMPDEST PUSH0 PUSH1 0x40 DUP3 ADD SWAP1 POP PUSH2 0x1E35 PUSH0 DUP4 ADD DUP6 PUSH2 0x1E13 JUMP JUMPDEST PUSH2 0x1E42 PUSH1 0x20 DUP4 ADD DUP5 PUSH2 0x1D32 JUMP JUMPDEST SWAP4 SWAP3 POP POP POP JUMP JUMPDEST PUSH0 PUSH1 0x20 DUP3 DUP5 SUB SLT ISZERO PUSH2 0x1E5E JUMPI PUSH2 0x1E5D PUSH2 0x1C54 JUMP JUMPDEST JUMPDEST PUSH0 PUSH2 0x1E6B DUP5 DUP3 DUP6 ADD PUSH2 0x1CA2 JUMP JUMPDEST SWAP2 POP POP SWAP3 SWAP2 POP POP JUMP JUMPDEST PUSH0 PUSH1 0x20 DUP3 ADD SWAP1 POP PUSH2 0x1E87 PUSH0 DUP4 ADD DUP5 PUSH2 0x1E13 JUMP JUMPDEST SWAP3 SWAP2 POP POP JUMP JUMPDEST PUSH2 0x1E96 DUP2 PUSH2 0x1C7B JUMP JUMPDEST DUP3 MSTORE POP POP JUMP JUMPDEST PUSH0 PUSH1 0x20 DUP3 ADD SWAP1 POP PUSH2 0x1EAF PUSH0 DUP4 ADD DUP5 PUSH2 0x1E8D JUMP JUMPDEST SWAP3 SWAP2 POP POP JUMP JUMPDEST PUSH0 PUSH1 0x20 DUP3 DUP5 SUB SLT ISZERO PUSH2 0x1ECA JUMPI PUSH2 0x1EC9 PUSH2 0x1C54 JUMP JUMPDEST JUMPDEST PUSH0 PUSH2 0x1ED7 DUP5 DUP3 DUP6 ADD PUSH2 0x1CD7 JUMP JUMPDEST SWAP2 POP POP SWAP3 SWAP2 POP POP JUMP JUMPDEST PUSH0 DUP1 PUSH0 PUSH1 0x60 DUP5 DUP7 SUB SLT ISZERO PUSH2 0x1EF7 JUMPI PUSH2 0x1EF6 PUSH2 0x1C54 JUMP JUMPDEST JUMPDEST PUSH0 PUSH2 0x1F04 DUP7 DUP3 DUP8 ADD PUSH2 0x1CA2 JUMP JUMPDEST SWAP4 POP POP PUSH1 0x20 PUSH2 0x1F15 DUP7 DUP3 DUP8 ADD PUSH2 0x1CA2 JUMP JUMPDEST SWAP3 POP POP PUSH1 0x40 PUSH2 0x1F26 DUP7 DUP3 DUP8 ADD PUSH2 0x1CA2 JUMP JUMPDEST SWAP2 POP POP SWAP3 POP SWAP3 POP SWAP3 JUMP JUMPDEST PUSH0 DUP3 DUP3 MSTORE PUSH1 0x20 DUP3 ADD SWAP1 POP SWAP3 SWAP2 POP POP JUMP JUMPDEST PUSH32 0x496E76616C696420746F6B656E20616464726573730000000000000000000000 PUSH0 DUP3 ADD MSTORE POP JUMP JUMPDEST PUSH0 PUSH2 0x1F74 PUSH1 0x15 DUP4 PUSH2 0x1F30 JUMP JUMPDEST SWAP2 POP PUSH2 0x1F7F DUP3 PUSH2 0x1F40 JUMP JUMPDEST PUSH1 0x20 DUP3 ADD SWAP1 POP SWAP2 SWAP1 POP JUMP JUMPDEST PUSH0 PUSH1 0x20 DUP3 ADD SWAP1 POP DUP2 DUP2 SUB PUSH0 DUP4 ADD MSTORE PUSH2 0x1FA1 DUP2 PUSH2 0x1F68 JUMP JUMPDEST SWAP1 POP SWAP2 SWAP1 POP JUMP JUMPDEST PUSH0 PUSH1 0x40 DUP3 ADD SWAP1 POP PUSH2 0x1FBB PUSH0 DUP4 ADD DUP6 PUSH2 0x1E8D JUMP JUMPDEST PUSH2 0x1FC8 PUSH1 0x20 DUP4 ADD DUP5 PUSH2 0x1E13 JUMP JUMPDEST SWAP4 SWAP3 POP POP POP JUMP JUMPDEST PUSH32 0x4D617267696E206D7573742062652067726561746572207468616E2030000000 PUSH0 DUP3 ADD MSTORE POP JUMP JUMPDEST PUSH0 PUSH2 0x2003 PUSH1 0x1D DUP4 PUSH2 0x1F30 JUMP JUMPDEST SWAP2 POP PUSH2 0x200E DUP3 PUSH2 0x1FCF JUMP JUMPDEST PUSH1 0x20 DUP3 ADD SWAP1 POP SWAP2 SWAP1 POP JUMP JUMPDEST PUSH0 PUSH1 0x20 DUP3 ADD SWAP1 POP DUP2 DUP2 SUB PUSH0 DUP4 ADD MSTORE PUSH2 0x2030 DUP2 PUSH2 0x1FF7 JUMP JUMPDEST SWAP1 POP SWAP2 SWAP1 POP JUMP JUMPDEST PUSH32 0x556E617070726F76656420726F75746572730000000000000000000000000000 PUSH0 DUP3 ADD MSTORE POP JUMP JUMPDEST PUSH0 PUSH2 0x206B PUSH1 0x12 DUP4 PUSH2 0x1F30 JUMP JUMPDEST SWAP2 POP PUSH2 0x2076 DUP3 PUSH2 0x2037 JUMP JUMPDEST PUSH1 0x20 DUP3 ADD SWAP1 POP SWAP2 SWAP1 POP JUMP JUMPDEST PUSH0 PUSH1 0x20 DUP3 ADD SWAP1 POP DUP2 DUP2 SUB PUSH0 DUP4 ADD MSTORE PUSH2 0x2098 DUP2 PUSH2 0x205F JUMP JUMPDEST SWAP1 POP SWAP2 SWAP1 POP JUMP JUMPDEST PUSH32 0x556E617070726F76656420746F6B656E00000000000000000000000000000000 PUSH0 DUP3 ADD MSTORE POP JUMP JUMPDEST PUSH0 PUSH2 0x20D3 PUSH1 0x10 DUP4 PUSH2 0x1F30 JUMP JUMPDEST SWAP2 POP PUSH2 0x20DE DUP3 PUSH2 0x209F JUMP JUMPDEST PUSH1 0x20 DUP3 ADD SWAP1 POP SWAP2 SWAP1 POP JUMP JUMPDEST PUSH0 PUSH1 0x20 DUP3 ADD SWAP1 POP DUP2 DUP2 SUB PUSH0 DUP4 ADD MSTORE PUSH2 0x2100 DUP2 PUSH2 0x20C7 JUMP JUMPDEST SWAP1 POP SWAP2 SWAP1 POP JUMP JUMPDEST PUSH0 DUP2 MLOAD SWAP1 POP PUSH2 0x2115 DUP2 PUSH2 0x1C8C JUMP JUMPDEST SWAP3 SWAP2 POP POP JUMP JUMPDEST PUSH0 PUSH1 0x20 DUP3 DUP5 SUB SLT ISZERO PUSH2 0x2130 JUMPI PUSH2 0x212F PUSH2 0x1C54 JUMP JUMPDEST JUMPDEST PUSH0 PUSH2 0x213D DUP5 DUP3 DUP6 ADD PUSH2 0x2107 JUMP JUMPDEST SWAP2 POP POP SWAP3 SWAP2 POP POP JUMP JUMPDEST PUSH32 0x4E487B7100000000000000000000000000000000000000000000000000000000 PUSH0 MSTORE PUSH1 0x41 PUSH1 0x4 MSTORE PUSH1 0x24 PUSH0 REVERT JUMPDEST PUSH32 0x4E487B7100000000000000000000000000000000000000000000000000000000 PUSH0 MSTORE PUSH1 0x32 PUSH1 0x4 MSTORE PUSH1 0x24 PUSH0 REVERT JUMPDEST PUSH0 DUP2 MLOAD SWAP1 POP SWAP2 SWAP1 POP JUMP JUMPDEST PUSH0 DUP3 DUP3 MSTORE PUSH1 0x20 DUP3 ADD SWAP1 POP SWAP3 SWAP2 POP POP JUMP JUMPDEST PUSH0 DUP2 SWAP1 POP PUSH1 0x20 DUP3 ADD SWAP1 POP SWAP2 SWAP1 POP JUMP JUMPDEST PUSH2 0x21D2 DUP2 PUSH2 0x1C7B JUMP JUMPDEST DUP3 MSTORE POP POP JUMP JUMPDEST PUSH0 PUSH2 0x21E3 DUP4 DUP4 PUSH2 0x21C9 JUMP JUMPDEST PUSH1 0x20 DUP4 ADD SWAP1 POP SWAP3 SWAP2 POP POP JUMP JUMPDEST PUSH0 PUSH1 0x20 DUP3 ADD SWAP1 POP SWAP2 SWAP1 POP JUMP JUMPDEST PUSH0 PUSH2 0x2205 DUP3 PUSH2 0x21A0 JUMP JUMPDEST PUSH2 0x220F DUP2 DUP6 PUSH2 0x21AA JUMP JUMPDEST SWAP4 POP PUSH2 0x221A DUP4 PUSH2 0x21BA JUMP JUMPDEST DUP1 PUSH0 JUMPDEST DUP4 DUP2 LT ISZERO PUSH2 0x224A JUMPI DUP2 MLOAD PUSH2 0x2231 DUP9 DUP3 PUSH2 0x21D8 JUMP JUMPDEST SWAP8 POP PUSH2 0x223C DUP4 PUSH2 0x21EF JUMP JUMPDEST SWAP3 POP POP PUSH1 0x1 DUP2 ADD SWAP1 POP PUSH2 0x221D JUMP JUMPDEST POP DUP6 SWAP4 POP POP POP POP SWAP3 SWAP2 POP POP JUMP JUMPDEST PUSH0 PUSH1 0x40 DUP3 ADD SWAP1 POP PUSH2 0x226A PUSH0 DUP4 ADD DUP6 PUSH2 0x1D32 JUMP JUMPDEST DUP2 DUP2 SUB PUSH1 0x20 DUP4 ADD MSTORE PUSH2 0x227C DUP2 DUP5 PUSH2 0x21FB JUMP JUMPDEST SWAP1 POP SWAP4 SWAP3 POP POP POP JUMP JUMPDEST PUSH0 DUP1 REVERT JUMPDEST PUSH0 PUSH1 0x1F NOT PUSH1 0x1F DUP4 ADD AND SWAP1 POP SWAP2 SWAP1 POP JUMP JUMPDEST PUSH2 0x22A2 DUP3 PUSH2 0x2289 JUMP JUMPDEST DUP2 ADD DUP2 DUP2 LT PUSH8 0xFFFFFFFFFFFFFFFF DUP3 GT OR ISZERO PUSH2 0x22C1 JUMPI PUSH2 0x22C0 PUSH2 0x2146 JUMP JUMPDEST JUMPDEST DUP1 PUSH1 0x40 MSTORE POP POP POP JUMP JUMPDEST PUSH0 PUSH2 0x22D3 PUSH2 0x1C4B JUMP JUMPDEST SWAP1 POP PUSH2 0x22DF DUP3 DUP3 PUSH2 0x2299 JUMP JUMPDEST SWAP2 SWAP1 POP JUMP JUMPDEST PUSH0 PUSH8 0xFFFFFFFFFFFFFFFF DUP3 GT ISZERO PUSH2 0x22FE JUMPI PUSH2 0x22FD PUSH2 0x2146 JUMP JUMPDEST JUMPDEST PUSH1 0x20 DUP3 MUL SWAP1 POP PUSH1 0x20 DUP2 ADD SWAP1 POP SWAP2 SWAP1 POP JUMP JUMPDEST PUSH0 DUP1 REVERT JUMPDEST PUSH0 DUP2 MLOAD SWAP1 POP PUSH2 0x2321 DUP2 PUSH2 0x1D5A JUMP JUMPDEST SWAP3 SWAP2 POP POP JUMP JUMPDEST PUSH0 PUSH2 0x2339 PUSH2 0x2334 DUP5 PUSH2 0x22E4 JUMP JUMPDEST PUSH2 0x22CA JUMP JUMPDEST SWAP1 POP DUP1 DUP4 DUP3 MSTORE PUSH1 0x20 DUP3 ADD SWAP1 POP PUSH1 0x20 DUP5 MUL DUP4 ADD DUP6 DUP2 GT ISZERO PUSH2 0x235C JUMPI PUSH2 0x235B PUSH2 0x230F JUMP JUMPDEST JUMPDEST DUP4 JUMPDEST DUP2 DUP2 LT ISZERO PUSH2 0x2385 JUMPI DUP1 PUSH2 0x2371 DUP9 DUP3 PUSH2 0x2313 JUMP JUMPDEST DUP5 MSTORE PUSH1 0x20 DUP5 ADD SWAP4 POP POP PUSH1 0x20 DUP2 ADD SWAP1 POP PUSH2 0x235E JUMP JUMPDEST POP POP POP SWAP4 SWAP3 POP POP POP JUMP JUMPDEST PUSH0 DUP3 PUSH1 0x1F DUP4 ADD SLT PUSH2 0x23A3 JUMPI PUSH2 0x23A2 PUSH2 0x2285 JUMP JUMPDEST JUMPDEST DUP2 MLOAD PUSH2 0x23B3 DUP5 DUP3 PUSH1 0x20 DUP7 ADD PUSH2 0x2327 JUMP JUMPDEST SWAP2 POP POP SWAP3 SWAP2 POP POP JUMP JUMPDEST PUSH0 PUSH1 0x20 DUP3 DUP5 SUB SLT ISZERO PUSH2 0x23D1 JUMPI PUSH2 0x23D0 PUSH2 0x1C54 JUMP JUMPDEST JUMPDEST PUSH0 DUP3 ADD MLOAD PUSH8 0xFFFFFFFFFFFFFFFF DUP2 GT ISZERO PUSH2 0x23EE JUMPI PUSH2 0x23ED PUSH2 0x1C58 JUMP JUMPDEST JUMPDEST PUSH2 0x23FA DUP5 DUP3 DUP6 ADD PUSH2 0x238F JUMP JUMPDEST SWAP2 POP POP SWAP3 SWAP2 POP POP JUMP JUMPDEST PUSH32 0x4E487B7100000000000000000000000000000000000000000000000000000000 PUSH0 MSTORE PUSH1 0x11 PUSH1 0x4 MSTORE PUSH1 0x24 PUSH0 REVERT JUMPDEST PUSH0 PUSH2 0x243A DUP3 PUSH2 0x1D29 JUMP JUMPDEST SWAP2 POP PUSH2 0x2445 DUP4 PUSH2 0x1D29 JUMP JUMPDEST SWAP3 POP DUP3 DUP3 SUB SWAP1 POP DUP2 DUP2 GT ISZERO PUSH2 0x245D JUMPI PUSH2 0x245C PUSH2 0x2403 JUMP JUMPDEST JUMPDEST SWAP3 SWAP2 POP POP JUMP JUMPDEST PUSH0 PUSH2 0x246D DUP3 PUSH2 0x1D29 JUMP JUMPDEST SWAP2 POP PUSH2 0x2478 DUP4 PUSH2 0x1D29 JUMP JUMPDEST SWAP3 POP DUP3 DUP3 MUL PUSH2 0x2486 DUP2 PUSH2 0x1D29 JUMP JUMPDEST SWAP2 POP DUP3 DUP3 DIV DUP5 EQ DUP4 ISZERO OR PUSH2 0x249D JUMPI PUSH2 0x249C PUSH2 0x2403 JUMP JUMPDEST JUMPDEST POP SWAP3 SWAP2 POP POP JUMP JUMPDEST PUSH32 0x4E487B7100000000000000000000000000000000000000000000000000000000 PUSH0 MSTORE PUSH1 0x12 PUSH1 0x4 MSTORE PUSH1 0x24 PUSH0 REVERT JUMPDEST PUSH0 PUSH2 0x24DB DUP3 PUSH2 0x1D29 JUMP JUMPDEST SWAP2 POP PUSH2 0x24E6 DUP4 PUSH2 0x1D29 JUMP JUMPDEST SWAP3 POP DUP3 PUSH2 0x24F6 JUMPI PUSH2 0x24F5 PUSH2 0x24A4 JUMP JUMPDEST JUMPDEST DUP3 DUP3 DIV SWAP1 POP SWAP3 SWAP2 POP POP JUMP JUMPDEST PUSH32 0x496E76616C696420726F75746572206164647265737300000000000000000000 PUSH0 DUP3 ADD MSTORE POP JUMP JUMPDEST PUSH0 PUSH2 0x2535 PUSH1 0x16 DUP4 PUSH2 0x1F30 JUMP JUMPDEST SWAP2 POP PUSH2 0x2540 DUP3 PUSH2 0x2501 JUMP JUMPDEST PUSH1 0x20 DUP3 ADD SWAP1 POP SWAP2 SWAP1 POP JUMP JUMPDEST PUSH0 PUSH1 0x20 DUP3 ADD SWAP1 POP DUP2 DUP2 SUB PUSH0 DUP4 ADD MSTORE PUSH2 0x2562 DUP2 PUSH2 0x2529 JUMP JUMPDEST SWAP1 POP SWAP2 SWAP1 POP JUMP JUMPDEST PUSH0 PUSH1 0x20 DUP3 DUP5 SUB SLT ISZERO PUSH2 0x257E JUMPI PUSH2 0x257D PUSH2 0x1C54 JUMP JUMPDEST JUMPDEST PUSH0 PUSH2 0x258B DUP5 DUP3 DUP6 ADD PUSH2 0x2313 JUMP JUMPDEST SWAP2 POP POP SWAP3 SWAP2 POP POP JUMP JUMPDEST PUSH0 PUSH1 0x40 DUP3 ADD SWAP1 POP PUSH2 0x25A7 PUSH0 DUP4 ADD DUP6 PUSH2 0x1E8D JUMP JUMPDEST PUSH2 0x25B4 PUSH1 0x20 DUP4 ADD DUP5 PUSH2 0x1D32 JUMP JUMPDEST SWAP4 SWAP3 POP POP POP JUMP JUMPDEST PUSH0 DUP2 MLOAD SWAP1 POP PUSH2 0x25C9 DUP2 PUSH2 0x1CC1 JUMP JUMPDEST SWAP3 SWAP2 POP POP JUMP JUMPDEST PUSH0 PUSH1 0x20 DUP3 DUP5 SUB SLT ISZERO PUSH2 0x25E4 JUMPI PUSH2 0x25E3 PUSH2 0x1C54 JUMP JUMPDEST JUMPDEST PUSH0 PUSH2 0x25F1 DUP5 DUP3 DUP6 ADD PUSH2 0x25BB JUMP JUMPDEST SWAP2 POP POP SWAP3 SWAP2 POP POP JUMP JUMPDEST PUSH32 0x4175746F2D74726164652069732064697361626C656400000000000000000000 PUSH0 DUP3 ADD MSTORE POP JUMP JUMPDEST PUSH0 PUSH2 0x262E PUSH1 0x16 DUP4 PUSH2 0x1F30 JUMP JUMPDEST SWAP2 POP PUSH2 0x2639 DUP3 PUSH2 0x25FA JUMP JUMPDEST PUSH1 0x20 DUP3 ADD SWAP1 POP SWAP2 SWAP1 POP JUMP JUMPDEST PUSH0 PUSH1 0x20 DUP3 ADD SWAP1 POP DUP2 DUP2 SUB PUSH0 DUP4 ADD MSTORE PUSH2 0x265B DUP2 PUSH2 0x2622 JUMP JUMPDEST SWAP1 POP SWAP2 SWAP1 POP JUMP JUMPDEST PUSH32 0x496E73756666696369656E74204554482073656E740000000000000000000000 PUSH0 DUP3 ADD MSTORE POP JUMP JUMPDEST PUSH0 PUSH2 0x2696 PUSH1 0x15 DUP4 PUSH2 0x1F30 JUMP JUMPDEST SWAP2 POP PUSH2 0x26A1 DUP3 PUSH2 0x2662 JUMP JUMPDEST PUSH1 0x20 DUP3 ADD SWAP1 POP SWAP2 SWAP1 POP JUMP JUMPDEST PUSH0 PUSH1 0x20 DUP3 ADD SWAP1 POP DUP2 DUP2 SUB PUSH0 DUP4 ADD MSTORE PUSH2 0x26C3 DUP2 PUSH2 0x268A JUMP JUMPDEST SWAP1 POP SWAP2 SWAP1 POP JUMP JUMPDEST PUSH32 0x41726269747261676520657865637574696F6E206661696C6564000000000000 PUSH0 DUP3 ADD MSTORE POP JUMP JUMPDEST PUSH0 PUSH2 0x26FE PUSH1 0x1A DUP4 PUSH2 0x1F30 JUMP JUMPDEST SWAP2 POP PUSH2 0x2709 DUP3 PUSH2 0x26CA JUMP JUMPDEST PUSH1 0x20 DUP3 ADD SWAP1 POP SWAP2 SWAP1 POP JUMP JUMPDEST PUSH0 PUSH1 0x20 DUP3 ADD SWAP1 POP DUP2 DUP2 SUB PUSH0 DUP4 ADD MSTORE PUSH2 0x272B DUP2 PUSH2 0x26F2 JUMP JUMPDEST SWAP1 POP SWAP2 SWAP1 POP JUMP JUMPDEST PUSH0 DUP2 SWAP1 POP SWAP3 SWAP2 POP POP JUMP JUMPDEST POP JUMP JUMPDEST PUSH0 PUSH2 0x274A PUSH0 DUP4 PUSH2 0x2732 JUMP JUMPDEST SWAP2 POP PUSH2 0x2755 DUP3 PUSH2 0x273C JUMP JUMPDEST PUSH0 DUP3 ADD SWAP1 POP SWAP2 SWAP1 POP JUMP JUMPDEST PUSH0 PUSH2 0x2769 DUP3 PUSH2 0x273F JUMP JUMPDEST SWAP2 POP DUP2 SWAP1 POP SWAP2 SWAP1 POP JUMP JUMPDEST PUSH32 0x455448207472616E73666572206661696C656400000000000000000000000000 PUSH0 DUP3 ADD MSTORE POP JUMP JUMPDEST PUSH0 PUSH2 0x27A7 PUSH1 0x13 DUP4 PUSH2 0x1F30 JUMP JUMPDEST SWAP2 POP PUSH2 0x27B2 DUP3 PUSH2 0x2773 JUMP JUMPDEST PUSH1 0x20 DUP3 ADD SWAP1 POP SWAP2 SWAP1 POP JUMP JUMPDEST PUSH0 PUSH1 0x20 DUP3 ADD SWAP1 POP DUP2 DUP2 SUB PUSH0 DUP4 ADD MSTORE PUSH2 0x27D4 DUP2 PUSH2 0x279B JUMP JUMPDEST SWAP1 POP SWAP2 SWAP1 POP JUMP JUMPDEST PUSH32 0x4554482072657475726E206661696C6564000000000000000000000000000000 PUSH0 DUP3 ADD MSTORE POP JUMP JUMPDEST PUSH0 PUSH2 0x280F PUSH1 0x11 DUP4 PUSH2 0x1F30 JUMP JUMPDEST SWAP2 POP PUSH2 0x281A DUP3 PUSH2 0x27DB JUMP JUMPDEST PUSH1 0x20 DUP3 ADD SWAP1 POP SWAP2 SWAP1 POP JUMP JUMPDEST PUSH0 PUSH1 0x20 DUP3 ADD SWAP1 POP DUP2 DUP2 SUB PUSH0 DUP4 ADD MSTORE PUSH2 0x283C DUP2 PUSH2 0x2803 JUMP JUMPDEST SWAP1 POP SWAP2 SWAP1 POP JUMP JUMPDEST PUSH32 0x496E73756666696369656E74204554482062616C616E63650000000000000000 PUSH0 DUP3 ADD MSTORE POP JUMP JUMPDEST PUSH0 PUSH2 0x2877 PUSH1 0x18 DUP4 PUSH2 0x1F30 JUMP JUMPDEST SWAP2 POP PUSH2 0x2882 DUP3 PUSH2 0x2843 JUMP JUMPDEST PUSH1 0x20 DUP3 ADD SWAP1 POP SWAP2 SWAP1 POP JUMP JUMPDEST PUSH0 PUSH1 0x20 DUP3 ADD SWAP1 POP DUP2 DUP2 SUB PUSH0 DUP4 ADD MSTORE PUSH2 0x28A4 DUP2 PUSH2 0x286B JUMP JUMPDEST SWAP1 POP SWAP2 SWAP1 POP JUMP JUMPDEST PUSH0 PUSH2 0x28B5 DUP3 PUSH2 0x1D29 JUMP JUMPDEST SWAP2 POP PUSH2 0x28C0 DUP4 PUSH2 0x1D29 JUMP JUMPDEST SWAP3 POP DUP3 DUP3 ADD SWAP1 POP DUP1 DUP3 GT ISZERO PUSH2 0x28D8 JUMPI PUSH2 0x28D7 PUSH2 0x2403 JUMP JUMPDEST JUMPDEST SWAP3 SWAP2 POP POP JUMP JUMPDEST PUSH32 0x546F6F20736F6F6E20746F206578656375746500000000000000000000000000 PUSH0 DUP3 ADD MSTORE POP JUMP JUMPDEST PUSH0 PUSH2 0x2912 PUSH1 0x13 DUP4 PUSH2 0x1F30 JUMP JUMPDEST SWAP2 POP PUSH2 0x291D DUP3 PUSH2 0x28DE JUMP JUMPDEST PUSH1 0x20 DUP3 ADD SWAP1 POP SWAP2 SWAP1 POP JUMP JUMPDEST PUSH0 PUSH1 0x20 DUP3 ADD SWAP1 POP DUP2 DUP2 SUB PUSH0 DUP4 ADD MSTORE PUSH2 0x293F DUP2 PUSH2 0x2906 JUMP JUMPDEST SWAP1 POP SWAP2 SWAP1 POP JUMP JUMPDEST PUSH0 DUP2 SWAP1 POP SWAP2 SWAP1 POP JUMP JUMPDEST PUSH0 DUP2 SWAP1 POP SWAP2 SWAP1 POP JUMP JUMPDEST PUSH0 PUSH2 0x2972 PUSH2 0x296D PUSH2 0x2968 DUP5 PUSH2 0x2946 JUMP JUMPDEST PUSH2 0x294F JUMP JUMPDEST PUSH2 0x1D29 JUMP JUMPDEST SWAP1 POP SWAP2 SWAP1 POP JUMP JUMPDEST PUSH2 0x2982 DUP2 PUSH2 0x2958 JUMP JUMPDEST DUP3 MSTORE POP POP JUMP JUMPDEST PUSH0 PUSH1 0x80 DUP3 ADD SWAP1 POP PUSH2 0x299B PUSH0 DUP4 ADD DUP8 PUSH2 0x2979 JUMP JUMPDEST DUP2 DUP2 SUB PUSH1 0x20 DUP4 ADD MSTORE PUSH2 0x29AD DUP2 DUP7 PUSH2 0x21FB JUMP JUMPDEST SWAP1 POP PUSH2 0x29BC PUSH1 0x40 DUP4 ADD DUP6 PUSH2 0x1E8D JUMP JUMPDEST PUSH2 0x29C9 PUSH1 0x60 DUP4 ADD DUP5 PUSH2 0x1D32 JUMP JUMPDEST SWAP6 SWAP5 POP POP POP POP POP JUMP JUMPDEST PUSH0 PUSH1 0xA0 DUP3 ADD SWAP1 POP PUSH2 0x29E5 PUSH0 DUP4 ADD DUP9 PUSH2 0x1D32 JUMP JUMPDEST PUSH2 0x29F2 PUSH1 0x20 DUP4 ADD DUP8 PUSH2 0x1D32 JUMP JUMPDEST DUP2 DUP2 SUB PUSH1 0x40 DUP4 ADD MSTORE PUSH2 0x2A04 DUP2 DUP7 PUSH2 0x21FB JUMP JUMPDEST SWAP1 POP PUSH2 0x2A13 PUSH1 0x60 DUP4 ADD DUP6 PUSH2 0x1E8D JUMP JUMPDEST PUSH2 0x2A20 PUSH1 0x80 DUP4 ADD DUP5 PUSH2 0x1D32 JUMP JUMPDEST SWAP7 SWAP6 POP POP POP POP POP POP JUMP JUMPDEST PUSH32 0x4E6F2070726F666974206D616465000000000000000000000000000000000000 PUSH0 DUP3 ADD MSTORE POP JUMP JUMPDEST PUSH0 PUSH2 0x2A5E PUSH1 0xE DUP4 PUSH2 0x1F30 JUMP JUMPDEST SWAP2 POP PUSH2 0x2A69 DUP3 PUSH2 0x2A2A JUMP JUMPDEST PUSH1 0x20 DUP3 ADD SWAP1 POP SWAP2 SWAP1 POP JUMP JUMPDEST PUSH0 PUSH1 0x20 DUP3 ADD SWAP1 POP DUP2 DUP2 SUB PUSH0 DUP4 ADD MSTORE PUSH2 0x2A8B DUP2 PUSH2 0x2A52 JUMP JUMPDEST SWAP1 POP SWAP2 SWAP1 POP JUMP JUMPDEST PUSH32 0x496E73756666696369656E742070726F66697400000000000000000000000000 PUSH0 DUP3 ADD MSTORE POP JUMP JUMPDEST PUSH0 PUSH2 0x2AC6 PUSH1 0x13 DUP4 PUSH2 0x1F30 JUMP JUMPDEST SWAP2 POP PUSH2 0x2AD1 DUP3 PUSH2 0x2A92 JUMP JUMPDEST PUSH1 0x20 DUP3 ADD SWAP1 POP SWAP2 SWAP1 POP JUMP JUMPDEST PUSH0 PUSH1 0x20 DUP3 ADD SWAP1 POP DUP2 DUP2 SUB PUSH0 DUP4 ADD MSTORE PUSH2 0x2AF3 DUP2 PUSH2 0x2ABA JUMP JUMPDEST SWAP1 POP SWAP2 SWAP1 POP JUMP JUMPDEST PUSH0 PUSH1 0x60 DUP3 ADD SWAP1 POP PUSH2 0x2B0D PUSH0 DUP4 ADD DUP7 PUSH2 0x1D32 JUMP JUMPDEST PUSH2 0x2B1A PUSH1 0x20 DUP4 ADD DUP6 PUSH2 0x1D32 JUMP JUMPDEST PUSH2 0x2B27 PUSH1 0x40 DUP4 ADD DUP5 PUSH2 0x1D32 JUMP JUMPDEST SWAP5 SWAP4 POP POP POP POP JUMP JUMPDEST PUSH32 0x5061757361626C653A206E6F7420706175736564000000000000000000000000 PUSH0 DUP3 ADD MSTORE POP JUMP JUMPDEST PUSH0 PUSH2 0x2B63 PUSH1 0x14 DUP4 PUSH2 0x1F30 JUMP JUMPDEST SWAP2 POP PUSH2 0x2B6E DUP3 PUSH2 0x2B2F JUMP JUMPDEST PUSH1 0x20 DUP3 ADD SWAP1 POP SWAP2 SWAP1 POP JUMP JUMPDEST PUSH0 PUSH1 0x20 DUP3 ADD SWAP1 POP DUP2 DUP2 SUB PUSH0 DUP4 ADD MSTORE PUSH2 0x2B90 DUP2 PUSH2 0x2B57 JUMP JUMPDEST SWAP1 POP SWAP2 SWAP1 POP JUMP JUMPDEST PUSH32 0x5061757361626C653A2070617573656400000000000000000000000000000000 PUSH0 DUP3 ADD MSTORE POP JUMP JUMPDEST PUSH0 PUSH2 0x2BCB PUSH1 0x10 DUP4 PUSH2 0x1F30 JUMP JUMPDEST SWAP2 POP PUSH2 0x2BD6 DUP3 PUSH2 0x2B97 JUMP JUMPDEST PUSH1 0x20 DUP3 ADD SWAP1 POP SWAP2 SWAP1 POP JUMP JUMPDEST PUSH0 PUSH1 0x20 DUP3 ADD SWAP1 POP DUP2 DUP2 SUB PUSH0 DUP4 ADD MSTORE PUSH2 0x2BF8 DUP2 PUSH2 0x2BBF JUMP JUMPDEST SWAP1 POP SWAP2 SWAP1 POP JUMP JUMPDEST PUSH32 0x5265656E7472616E637947756172643A207265656E7472616E742063616C6C00 PUSH0 DUP3 ADD MSTORE POP JUMP JUMPDEST PUSH0 PUSH2 0x2C33 PUSH1 0x1F DUP4 PUSH2 0x1F30 JUMP JUMPDEST SWAP2 POP PUSH2 0x2C3E DUP3 PUSH2 0x2BFF JUMP JUMPDEST PUSH1 0x20 DUP3 ADD SWAP1 POP SWAP2 SWAP1 POP JUMP JUMPDEST PUSH0 PUSH1 0x20 DUP3 ADD SWAP1 POP DUP2 DUP2 SUB PUSH0 DUP4 ADD MSTORE PUSH2 0x2C60 DUP2 PUSH2 0x2C27 JUMP JUMPDEST SWAP1 POP SWAP2 SWAP1 POP JUMP INVALID LOG2 PUSH5 0x6970667358 0x22 SLT KECCAK256 DIV PUSH0 0xA9 SWAP6 JUMP PUSH12 0xAA2FC11338BE397688632007 0xD2 PUSH4 0xD07D3E40 SWAP1 SELFDESTRUCT EXP 0xA9 0xF9 LOG0 0xB6 INVALID PUSH5 0x736F6C6343 STOP ADDMOD EQ STOP CALLER "
				},
				"gasEstimates": {
					"creation": {
						"codeDepositCost": "2284200",
						"executionCost": "infinite",
						"totalCost": "infinite"
					},
					"external": {
						"MIN_EXECUTION_DELAY()": "369",
						"approvedRouters(address)": "2878",
						"approvedTokens(address)": "2944",
						"autoTradeEnabled()": "2555",
						"checkAndExecuteArbitrage(address,address,address)": "infinite",
						"checkETHArbitrageProfitability(address,address,address,uint256)": "infinite",
						"lastExecutionTime()": "2448",
						"minETHBalance()": "2535",
						"minProfitMargin()": "2493",
						"owner()": "2582",
						"pause()": "infinite",
						"paused()": "2562",
						"recoverETH()": "infinite",
						"recoverToken(address)": "infinite",
						"renounceOwnership()": "infinite",
						"setAutoTradeEnabled(bool)": "infinite",
						"setMinETHBalance(uint256)": "infinite",
						"setMinProfitMargin(uint256)": "infinite",
						"setRouterApproval(address,bool)": "infinite",
						"setTokenApproval(address,bool)": "infinite",
						"transferOwnership(address)": "infinite",
						"unpause()": "infinite"
					},
					"internal": {
						"executeETHArbitrage(address,address,address,uint256)": "infinite"
					}
				},
				"methodIdentifiers": {
					"MIN_EXECUTION_DELAY()": "bcbde212",
					"approvedRouters(address)": "445b1e4b",
					"approvedTokens(address)": "6d1ea3fa",
					"autoTradeEnabled()": "90cc5c90",
					"checkAndExecuteArbitrage(address,address,address)": "d2e31125",
					"checkETHArbitrageProfitability(address,address,address,uint256)": "2fc95cd7",
					"lastExecutionTime()": "73b379bd",
					"minETHBalance()": "eb17fa13",
					"minProfitMargin()": "18993639",
					"owner()": "8da5cb5b",
					"pause()": "8456cb59",
					"paused()": "5c975abb",
					"recoverETH()": "0614117a",
					"recoverToken(address)": "9be65a60",
					"renounceOwnership()": "715018a6",
					"setAutoTradeEnabled(bool)": "91451be4",
					"setMinETHBalance(uint256)": "d82c2049",
					"setMinProfitMargin(uint256)": "258d0c34",
					"setRouterApproval(address,bool)": "47c1a9be",
					"setTokenApproval(address,bool)": "14d91c84",
					"transferOwnership(address)": "f2fde38b",
					"unpause()": "3f4ba83a"
				}
			},
			"storageLayout": {
				"storage": [
					{
						"astId": 8,
						"contract": "SafeArbTraderETH.sol:SafeArbTraderETH",
						"label": "_owner",
						"offset": 0,
						"slot": "0",
						"type": "t_address"
					},
					{
						"astId": 266,
						"contract": "SafeArbTraderETH.sol:SafeArbTraderETH",
						"label": "_status",
						"offset": 0,
						"slot": "1",
						"type": "t_uint256"
					},
					{
						"astId": 165,
						"contract": "SafeArbTraderETH.sol:SafeArbTraderETH",
						"label": "_paused",
						"offset": 0,
						"slot": "2",
						"type": "t_bool"
					},
					{
						"astId": 507,
						"contract": "SafeArbTraderETH.sol:SafeArbTraderETH",
						"label": "minProfitMargin",
						"offset": 0,
						"slot": "3",
						"type": "t_uint256"
					},
					{
						"astId": 510,
						"contract": "SafeArbTraderETH.sol:SafeArbTraderETH",
						"label": "minETHBalance",
						"offset": 0,
						"slot": "4",
						"type": "t_uint256"
					},
					{
						"astId": 514,
						"contract": "SafeArbTraderETH.sol:SafeArbTraderETH",
						"label": "approvedRouters",
						"offset": 0,
						"slot": "5",
						"type": "t_mapping(t_address,t_bool)"
					},
					{
						"astId": 518,
						"contract": "SafeArbTraderETH.sol:SafeArbTraderETH",
						"label": "approvedTokens",
						"offset": 0,
						"slot": "6",
						"type": "t_mapping(t_address,t_bool)"
					},
					{
						"astId": 546,
						"contract": "SafeArbTraderETH.sol:SafeArbTraderETH",
						"label": "autoTradeEnabled",
						"offset": 0,
						"slot": "7",
						"type": "t_bool"
					},
					{
						"astId": 548,
						"contract": "SafeArbTraderETH.sol:SafeArbTraderETH",
						"label": "lastExecutionTime",
						"offset": 0,
						"slot": "8",
						"type": "t_uint256"
					}
				],
				"types": {
					"t_address": {
						"encoding": "inplace",
						"label": "address",
						"numberOfBytes": "20"
					},
					"t_bool": {
						"encoding": "inplace",
						"label": "bool",
						"numberOfBytes": "1"
					},
					"t_mapping(t_address,t_bool)": {
						"encoding": "mapping",
						"key": "t_address",
						"label": "mapping(address => bool)",
						"numberOfBytes": "32",
						"value": "t_bool"
					},
					"t_uint256": {
						"encoding": "inplace",
						"label": "uint256",
						"numberOfBytes": "32"
					}
				}
			},
			"userdoc": {
				"kind": "user",
				"methods": {},
				"version": 1
			}
		}
	}
}